:020000040800F2
:100000000000022051220008C11C0008C31C000887
:10001000C51C0008C71C0008C91C0008000000001F
:100020000000000000000000000000007142000815
:10003000CB1C0008000000001143000875430008B5
:10004000A1220008A1220008A1220008A122000884
:10005000A1220008A1220008A1220008A122000874
:10006000A1220008A1220008A1220008A122000864
:10007000A1220008A1220008A1220008A122000854
:10008000A1220008A1220008A1220008A122000844
:10009000A1220008A1220008A1220008A122000834
:1000A000A1220008A1220008A1220008A122000824
:1000B000A1220008A1220008CD1C0008A1220008EE
:1000C000A1220008A1220008A1220008A122000804
:1000D000A1220008DD1C0008FD1C0008A122000868
:1000E000A1220008A1220008A1220008A1220008E4
:1000F000A1220008A1220008A1220008A1220008D4
:10010000A1220008A12200080D1D0008A12200085C
:10011000A1220008A12200081D1D0008A12200083C
:10012000A1220008A1220008A1220008A1220008A3
:10013000A1220008A1220008A1220008A122000893
:10014000A1220008A1220008A1220008A122000883
:10015000A1220008A1220008A1220008A122000873
:10016000A1220008A1220008A1220008A122000863
:10017000A1220008A1220008A1220008000000001E
:08018000A1220008A1220008E1
:1001C00010B5054C237833B9044B13B10448AFF391
:1001D00000800123237010BDC8090020000000002A
:1001E00078B3000808B5034B1BB103490348AFF3CC
:1001F000008008BD00000000CC09002078B3000892
:1002000081F0004102E000BF83F0004330B54FEAC7
:1002100041044FEA430594EA050F08BF90EA020F34
:100220001FBF54EA000C55EA020C7FEA645C7FEAC7
:10023000655C00F0E2804FEA5454D4EB5555B8BFEA
:100240006D420CDD2C4480EA020281EA030382EA5B
:10025000000083EA010180EA020281EA0303362DED
:1002600088BF30BD11F0004F4FEA01314FF4801CC0
:100270004CEA113102D0404261EB410113F0004FD2
:100280004FEA03334CEA133302D0524263EB430389
:1002900094EA050F00F0A780A4F10104D5F1200E27
:1002A0000DDB02FA0EFC22FA05F2801841F1000182
:1002B00003FA0EF2801843FA05F359410EE0A5F156
:1002C00020050EF1200E012A03FA0EFC28BF4CF087
:1002D000020C43FA05F3C01851EBE37101F000453D
:1002E00007D54FF0000EDCF1000C7EEB00006EEB4A
:1002F0000101B1F5801F1BD3B1F5001F0CD34908D4
:100300005FEA30004FEA3C0C04F101044FEA44522A
:1003100012F5800F80F09A80BCF1004F08BF5FEAB1
:10032000500C50F1000041EB045141EA050130BD91
:100330005FEA4C0C404141EB0101013C28BFB1F5A3
:10034000801FE9D291F0000F04BF01460020B1FAEE
:1003500081F308BF2033A3F10B03B3F120020CDAC1
:100360000C3208DD02F1140CC2F10C0201FA0CF09F
:1003700021FA02F10CE002F11402D8BFC2F1200C04
:1003800001FA02F120FA0CFCDCBF41EA0C019040BA
:10039000E41AA2BF01EB0451294330BD6FEA040403
:1003A0001F3C1CDA0C340EDC04F11404C4F12002EE
:1003B00020FA04F001FA02F340EA030021FA04F300
:1003C00045EA030130BDC4F10C04C4F1200220FA57
:1003D00002F001FA04F340EA0300294630BD21FA95
:1003E00004F0294630BD94F0000F83F4801306BF5B
:1003F00081F480110134013D4EE77FEA645C18BF4F
:100400007FEA655C29D094EA050F08BF90EA020FE5
:1004100005D054EA000C04BF1946104630BD91EADD
:10042000030F1EBF0021002030BD5FEA545C05D1E0
:100430004000494128BF41F0004130BD14F580041F
:100440003CBF01F5801130BD01F0004545F0FE4193
:1004500041F470014FF0000030BD7FEA645C1ABFC8
:10046000194610467FEA655C1CBF0B46024650EAFF
:10047000013406BF52EA033591EA030F41F400212B
:1004800030BD00BF90F0000F04BF0021704730B5B1
:100490004FF4806404F132044FF000054FF0000186
:1004A00050E700BF90F0000F04BF0021704730B547
:1004B0004FF4806404F1320410F0004548BF40421C
:1004C0004FF000013EE700BF42004FEAE2014FEA71
:1004D00031014FEA02701FBF12F07F4393F07F4F4C
:1004E00081F06051704732F07F4208BF704793F04F
:1004F0007F4F04BF41F40021704730B54FF4607462
:1005000001F0004521F000411CE700BF50EA010264
:1005100008BF704730B54FF000050AE050EA01020D
:1005200008BF704730B511F0004502D5404261EB7D
:1005300041014FF4806404F132045FEA915C3FF4BE
:10054000D8AE4FF003025FEADC0C18BF03325FEA5B
:10055000DC0C18BF033202EBDC02C2F1200300FA0C
:1005600003FC20FA02F001FA03FE40EA0E0021FA31
:1005700002F11444BDE600BF4A0011D212F5001288
:1005800011D20DD56FF47873B3EB62520ED44FEAEB
:10059000C12343F0004343EA505323FA02F070476B
:1005A0004FF00000704750EA013002D14FF0FF30A9
:1005B00070474FF00000704753B94AB9002908BF8F
:1005C00000281CBF4FF0FF314FF0FF3000F074B92E
:1005D000ADF1080C6DE904CE00F006F8DDF804E09A
:1005E000DDE9022304B070472DE9F047089D044679
:1005F0008E46002B4DD18A42944669D9B2FA82F2D6
:1006000052B101FA02F3C2F1200120FA01F10CFA11
:1006100002FC41EA030E94404FEA1C48210CBEFB49
:10062000F8F61FFA8CF708FB16E341EA034306FBD2
:1006300007F199420AD91CEB030306F1FF3080F061
:100640001F81994240F21C81023E63445B1AA4B2AE
:10065000B3FBF8F008FB103344EA034400FB07F750
:10066000A7420AD91CEB040400F1FF3380F00A8191
:10067000A74240F207816444023840EA0640E41B86
:1006800000261DB1D4400023C5E900433146BDE832
:10069000F0878B4209D9002D00F0EF800026C5E9D4
:1006A000000130463146BDE8F087B3FA83F6002EEC
:1006B0004AD18B4202D3824200F2F980841A61EB64
:1006C000030301209E46002DE0D0C5E9004EDDE782
:1006D00002B9FFDEB2FA82F2002A40F09280A1EB6A
:1006E0000C014FEA1C471FFA8CFE0126200CB1FBBF
:1006F000F7F307FB131140EA01410EFB03F08842B8
:1007000008D91CEB010103F1FF3802D2884200F244
:10071000CB804346091AA4B2B1FBF7F007FB1011D6
:1007200044EA01440EFB00FEA64508D91CEB040474
:1007300000F1FF3102D2A64500F2BB800846A4EBCF
:100740000E0440EA03409CE7C6F12007B34022FABA
:1007500007FC4CEA030C20FA07F401FA06F31C43E9
:10076000F9404FEA1C4900FA06F3B1FBF9F8200CF6
:100770001FFA8CFE09FB181140EA014108FB0EF03C
:10078000884202FA06F20BD91CEB010108F1FF3A8C
:1007900080F08880884240F28580A8F10208614498
:1007A000091AA4B2B1FBF9F009FB101144EA0141A6
:1007B00000FB0EFE8E4508D91CEB010100F1FF3451
:1007C0006CD28E456AD90238614440EA0840A0FBE9
:1007D0000294A1EB0E01A142C846A64656D353D0BF
:1007E0005DB1B3EB080261EB0E0101FA07F722FAE3
:1007F00006F3F1401F43C5E9007100263146BDE80C
:10080000F087C2F12003D8400CFA02FC21FA03F36E
:10081000914001434FEA1C471FFA8CFEB3FBF7F0EF
:1008200007FB10360B0C43EA064300FB0EF69E4214
:1008300004FA02F408D91CEB030300F1FF382FD2AD
:100840009E422DD9023863449B1B89B2B3FBF7F655
:1008500007FB163341EA034106FB0EF38B4208D92E
:100860001CEB010106F1FF3816D28B4214D9023E6F
:100870006144C91A46EA004638E72E46284605E78D
:100880000646E3E61846F8E64B45A9D2B9EB02085E
:1008900064EB0C0E0138A3E74646EAE7204694E7EE
:1008A0004046D1E7D0467BE7023B614432E7304621
:1008B00009E76444023842E7704700BF844641EAD2
:1008C000000313F003036DD1403A41D351F8043BC8
:1008D00040F8043B51F8043B40F8043B51F8043B1A
:1008E00040F8043B51F8043B40F8043B51F8043B0A
:1008F00040F8043B51F8043B40F8043B51F8043BFA
:1009000040F8043B51F8043B40F8043B51F8043BE9
:1009100040F8043B51F8043B40F8043B51F8043BD9
:1009200040F8043B51F8043B40F8043B51F8043BC9
:1009300040F8043B51F8043B40F8043B51F8043BB9
:1009400040F8043B51F8043B40F8043B403ABDD228
:10095000303211D351F8043B40F8043B51F8043BCA
:1009600040F8043B51F8043B40F8043B51F8043B89
:1009700040F8043B103AEDD20C3205D351F8043B59
:1009800040F8043B043AF9D2043208D0D2071CBF25
:1009900011F8013B00F8013B01D30B88038060464E
:1009A000704700BF082A13D38B078DD010F00303C4
:1009B0008AD0C3F10403D21ADB071CBF11F8013B34
:1009C00000F8013B80D331F8023B20F8023B7BE783
:1009D000043AD9D3013A11F8013B00F8013BF9D2AE
:1009E0000B7803704B7843708B7883706046704748
:1009F00000000000000000000000000000000000F7
:100A000090F800F06DE9024520F007016FF0000C4E
:100A100010F0070491F820F040F049804FF00004F6
:100A20006FF00700D1E9002391F840F000F10800D1
:100A300082FA4CF2A4FA8CF283FA4CF3A2FA8CF309
:100A40004BBBD1E9022382FA4CF200F10800A4FA70
:100A50008CF283FA4CF3A2FA8CF3E3B9D1E90423C4
:100A600082FA4CF200F10800A4FA8CF283FA4CF3FB
:100A7000A2FA8CF37BB9D1E9062301F1200182FAB5
:100A80004CF200F10800A4FA8CF283FA4CF3A2FABB
:100A90008CF3002BC6D0002A04BF04301A4612BAC9
:100AA000B2FA82F2FDE8024500EBD2007047D1E9CC
:100AB000002304F00305C4F100004FEAC50514F05B
:100AC000040F91F840F00CFA05F562EA05021CBF2C
:100AD00063EA050362464FF00004A9E70000000046
:100AE00001F0FF01102A2BDB10F0070F08D010F8DF
:100AF000013B013A8B422DD010F0070F42B3F6D1E3
:100B0000F0B441EA012141EA014122F007047FF0FB
:100B100000070023F0E80256083C85EA010586EA52
:100B2000010685FA47F5A3FA87F586FA47F6A5FA8E
:100B300087F68EB9EED1F0BC01F0FF0102F007029A
:100B400032B110F8013B013A83EA010313B1F8D145
:100B50000020704701387047002D06BF3546033826
:100B6000073815F0010F07D1013015F4807F02BF5F
:100B7000013015F4C03F0130F0BC0138704700BFB0
:100B800070B54FF0FF0C4CF4E06C1CEA11541DBF23
:100B90001CEA135594EA0C0F95EA0C0F00F0DEF8EE
:100BA0002C4481EA030621EA4C5123EA4C5350EAD3
:100BB000013518BF52EA033541F4801143F4801324
:100BC00038D0A0FB02CE4FF00005E1FB02E506F0B5
:100BD0000042E0FB03E54FF00006E1FB03569CF00A
:100BE000000F18BF4EF0010EA4F1FF04B6F5007F10
:100BF00064F5407404D25FEA4E0E6D4146EB060682
:100C000042EAC62141EA55514FEAC52040EA5E500A
:100C10004FEACE2EB4F1FD0C88BFBCF5E06F1ED8B4
:100C2000BEF1004F08BF5FEA500E50F1000041EBEB
:100C3000045170BD06F0004646EA010140EA020098
:100C400081EA0301B4EB5C04C2BFD4EB0C0541EABA
:100C5000045170BD41F480114FF0000E013C00F3CF
:100C6000AB8014F1360FDEBF002001F0004170BDF3
:100C7000C4F10004203C35DA0C341BDC04F114040C
:100C8000C4F1200500FA05F320FA04F001FA05F298
:100C900040EA020001F0004221F0004110EBD37065
:100CA00021FA04F642EB06015EEA430E08BF20EA91
:100CB000D37070BDC4F10C04C4F1200500FA04F334
:100CC00020FA05F001FA04F240EA020001F00041C6
:100CD00010EBD37041F100015EEA430E08BF20EA39
:100CE000D37070BDC4F1200500FA05F24EEA020E81
:100CF00020FA04F301FA05F243EA020321FA04F0B0
:100D000001F0004121FA04F220EA020000EBD37066
:100D10005EEA430E08BF20EAD37070BD94F0000F66
:100D20000FD101F00046400041EB010111F4801F9A
:100D300008BF013CF7D041EA060195F0000F18BF4B
:100D4000704703F00046520043EB030313F4801F87
:100D500008BF013DF7D043EA0603704794EA0C0F41
:100D60000CEA135518BF95EA0C0F0CD050EA410657
:100D700018BF52EA4306D1D181EA030101F00041D4
:100D80004FF0000070BD50EA410606BF10461946FC
:100D900052EA430619D094EA0C0F02D150EA013608
:100DA00013D195EA0C0F05D152EA03361CBF104649
:100DB00019460AD181EA030101F0004141F0FE41E8
:100DC00041F470014FF0000070BD41F0FE4141F46C
:100DD000780170BD70B54FF0FF0C4CF4E06C1CEA6C
:100DE00011541DBF1CEA135594EA0C0F95EA0C0F21
:100DF00000F0A7F8A4EB050481EA030E52EA0335DC
:100E00004FEA013100F088804FEA03334FF08055FC
:100E100045EA131343EA12634FEA022245EA111529
:100E200045EA10654FEA00260EF000419D4208BFDA
:100E3000964244F1FD0404F5407402D25B084FEA87
:100E40003202B61A65EB03055B084FEA32024FF433
:100E500080104FF4002CB6EB020E75EB030E22BF90
:100E6000B61A754640EA0C005B084FEA3202B6EB50
:100E7000020E75EB030E22BFB61A754640EA5C00FF
:100E80005B084FEA3202B6EB020E75EB030E22BF8F
:100E9000B61A754640EA9C005B084FEA3202B6EB90
:100EA000020E75EB030E22BFB61A754640EADC004F
:100EB00055EA060E18D04FEA051545EA16754FEAB1
:100EC00006164FEAC30343EA52734FEAC2025FEACF
:100ED0001C1CC0D111F4801F0BD141EA00014FF05E
:100EE00000004FF0004CB6E711F4801F04BF01432F
:100EF0000020B4F1FD0C88BFBCF5E06F3FF6AFAE4B
:100F0000B5EB030C04BFB6EB020C5FEA500C50F1DA
:100F1000000041EB045170BD0EF0004E4EEA11315D
:100F200014EB5C04C2BFD4EB0C0541EA045170BD64
:100F300041F480114FF0000E013C90E645EA060EA8
:100F40008DE60CEA135594EA0C0F08BF95EA0C0FD6
:100F50003FF43BAF94EA0C0F0AD150EA01347FF41E
:100F600034AF95EA0C0F7FF425AF104619462CE7F5
:100F700095EA0C0F06D152EA03353FF4FDAE104658
:100F8000194622E750EA410618BF52EA43067FF4A9
:100F9000C5AE50EA41047FF40DAF52EA43057FF439
:100FA000EBAE12E74FF0FF3C06E000BF4FF0010C44
:100FB00002E000BF4FF0010C4DF804CD4FEA410CA8
:100FC0007FEA6C5C4FEA430C18BF7FEA6C5C1BD075
:100FD00001B050EA410C0CBF52EA430C91EA030FF6
:100FE00002BF90EA020F0020704710F1000F91EA53
:100FF000030F58BF994208BF90422CBFD8176FEA21
:10100000E37040F0010070474FEA410C7FEA6C5CEE
:1010100002D150EA013C07D14FEA430C7FEA6C5CF5
:10102000D6D152EA033CD3D05DF8040B704700BF21
:101030008446104662468C461946634600E000BF6F
:1010400001B5FFF7B7FF002848BF10F1000F01BD41
:101050004DF808EDFFF7F4FF0CBF012000205DF80C
:1010600008FB00BF4DF808EDFFF7EAFF34BF012091
:1010700000205DF808FB00BF4DF808EDFFF7E0FF2A
:1010800094BF012000205DF808FB00BF4DF808ED7B
:10109000FFF7CEFF94BF012000205DF808FB00BFE2
:1010A0004DF808EDFFF7C4FF34BF012000205DF8C4
:1010B00008FB00BF4FEA410C7FEA6C5C02D150EAAA
:1010C000013C0AD14FEA430C7FEA6C5C02D152EA40
:1010D000033C02D14FF0000070474FF00100704711
:1010E0004FEA410212F5001215D211D56FF4787350
:1010F000B3EB625212D94FEAC12343F0004343EAF3
:10110000505311F0004F23FA02F018BF40427047CD
:101110004FF00000704750EA013005D111F0004057
:1011200008BF6FF0004070474FF00000704700BFED
:1011300010B5854B1B78012B07D00138052830D816
:10114000DFE800F0D884AE30065A80F00700F4E7FC
:101150007E4C0821204602F0ADF90821204602F01D
:10116000E5FA7B4BD3ED007A9FED7A7A67EE877ACA
:101170002368FCEEE77AC3ED0E7A0421204602F0E4
:1011800017F90421204602F0D1FA236841F26902DE
:101190005A630021204602F08DF90021204602F01A
:1011A00049FA10BD694C0421204602F083F904215C
:1011B000204602F0BBFA664BD3ED007A9FED657ACC
:1011C00067EE877A2368FCEEE77AC3ED0F7A082191
:1011D000204602F0EDF80821204602F0A7FA236825
:1011E00041F269025A630021204602F063F90021AE
:1011F000204602F01FFAD4E7544C0021204602F0AA
:1012000059F90021204602F091FA514BD3ED007AB2
:101210009FED507A67EE877A2368FCEEE77AC3ED9C
:101220000F7A0821204602F0C3F80821204602F078
:101230007DFA236841F269029A630421204602F094
:1012400039F90421204602F0F5F9AAE73F4C0821BC
:10125000204602F02FF90821204602F067FA3C4BA5
:10126000D3ED007A9FED3B7A67EE877A2368FCEE38
:10127000E77AC3ED0D7A0021204602F099F80021AB
:10128000204602F053FA236841F269029A6304216E
:10129000204602F00FF90421204602F0CBF980E746
:1012A0002A4C0421204602F005F90421204602F0D0
:1012B0003DFA274BD3ED007A9FED267A67EE877AC9
:1012C0002368FCEEE77AC3ED0D7A0021204602F098
:1012D0006FF80021204602F029FA236841F26902E2
:1012E000DA630821204602F0E5F80821204602F0E2
:1012F000A1F956E7154C0021204602F0DBF8002149
:10130000204602F013FA124BD3ED007A9FED117ACA
:1013100067EE877A2368FCEEE77AC3ED0E7A042144
:10132000204602F045F80421204602F0FFF9236828
:1013300041F26902DA630821204602F0BBF8082175
:10134000204602F077F92CE700000020E409002095
:10135000040000200040834538B50A4D012128468D
:1013600001F074F944000221284601F06FF90443AA
:1013700064004FF48051044801F068F9204300F004
:10138000070038BD00000240001C024038B5054689
:10139000FFF7E2FF0446FFF7CBFE2B68596B0C4AC0
:1013A00013680B4413600B4A1368013313600A4B34
:1013B0001A5D0A4B1B689A4205D0094B00221A702D
:1013C000064B1C6038BD064B01221A70F8E700BFBF
:1013D000380A0020340A002000B400082C0A00203B
:1013E000300A002070B5012000F052F9134B18604C
:1013F000022000F04DF94042114B1860114E0021BF
:101400003160114D2960114C21600B460A4610488D
:1014100003F002FE33682A681344226899180D4CC1
:1014200021609B1A0C4D2B602946204600F046F99E
:101430002968206800F05CF970BD00BF400A0020F8
:10144000440A00203C0A0020540A0020500A0020D0
:1014500008B40008480A00204C0A002008B50228F9
:101460000AD0032848D0454BB3F90C10444BB3F9CC
:101470000C0000F03DF908BD70EEC00A404AD2ED04
:10148000046A30EEE66A36EEA67A30EEC77AD2ED1E
:10149000057A37EE277ADFED3B7A60EEA77ADFED4B
:1014A0003A5A26EE256A77EE867A9FED386A27EE5D
:1014B000067A37EE877AB2F90C3007EE903AF8EEFA
:1014C000E77A77EE877AFDEEE77A17EE903A1BB26D
:1014D0009381C2ED056AC2ED040A40F2B63293422E
:1014E00002DD274B9A81BEE7294A9342BBDA244B9F
:1014F0004FF64A429A81B6E770EEC00A1F4AD2ED13
:10150000046A30EEE66A36EEA67A30EEC77AD2ED9D
:10151000057A37EE277ADFED1B7A60EEA77ADFEDEA
:101520001A5A26EE256A77EE867A9FED186A27EE1C
:10153000067A37EE877AB2F90C3007EE903AF8EE79
:10154000E77A77EE877AFDEEE77A17EE903A1BB2EC
:101550009381C2ED056AC2ED040A40F2B6329342AD
:1015600002DD064B9A817EE7094A9342BFF67BAFC4
:10157000024B4FF64A429A8175E700BFB80A002035
:10158000A00A002066E66143000025430000DC421B
:101590004AFCFFFFB5EE400AF1EE10FA10D1DFED84
:1015A000187A60EEA70AF6EE007A60EEA70A154BED
:1015B000C3ED020AF1EE600A134BC3ED020A704755
:1015C000F5EE400AF1EE10FA06D10F4B83ED020A58
:1015D0000C4B83ED020A7047DFED097A60EEA70A33
:1015E000F6EE007A60EEA70A70EE607A064BC3ED65
:1015F000027A70EE800A034BC3ED020A704700BF07
:101600003333333EB80A0020A00A0020034B1B6886
:1016100013F0800FFAD0014B586070470010014062
:1016200010B5164B4FF0FE321A60EE2283F82020E0
:10163000134AD2ED017A134AD2ED016A37EEA67A47
:10164000B6EE006A27EE067A83ED017A00229A60F0
:1016500077EEE67ADFED0C6A87EEA67A83ED037A01
:101660000A4A1A61002405E0044B185DFFF7CEFF1B
:101670000134E4B2202CF7D910BD00BF7C0A002051
:10168000A00A0020B80A00203333333E0000C842CD
:10169000012803D0022807D000207047064B586A63
:1016A00000B200225A6270474FF08043586A00B27D
:1016B00000225A62704700BF0000014002680B4BD5
:1016C0009A4200DA0360026841F2A8639A4200DDA0
:1016D00003600A68054B9A4200DA0B600A6841F21F
:1016E000A8639A4200DD0B60704700BF58E9FFFF16
:1016F000F8B50C46051E54DD394E01224FF4004169
:10170000304600F0AAFF00224FF40051304600F0AE
:10171000A4FF85EAE570A0EBE570FEF7C3FE2EA3FB
:10172000D3E90023FFF72CFA06460F462D4B186825
:10173000FEF7B8FE32463B46FEF768FDFEF71CFF9B
:10174000294B5863002C3ADD01220821274800F07C
:1017500084FF00220821264800F07FFF84EAE4701D
:10176000A0EBE470FEF79EFE1BA3D3E90023FFF776
:1017700007FA04460D461B4B1868FEF793FE2246F7
:101780002B46FEF743FDFEF7F7FE1A4CE063164BBF
:10179000596B194803F040FCE16B184803F03CFC1E
:1017A000F8BD0F4E00224FF40041304600F055FFC7
:1017B00001224FF40051304600F04FFFA9E700220C
:1017C00008210A4800F049FF01220821084800F0DA
:1017D00044FFC3E7AFF30080B81E85EB51B8F23F7A
:1017E00000100240080000200008004000080240ED
:1017F00000000240000C004034B4000840B400086F
:1018000008B54FF47A7002F08EFCFAE708B54FF491
:101810007A7002F088FCFAE708B5FFF701FF4FF491
:101820007A7002F080FCF8E708B5FFF7DBFD0A4BA1
:101830000320D3ED020A93ED010AFFF70FFE074BD9
:101840000220D3ED020A93ED010AFFF707FE4FF4E1
:101850007A7002F068FCE8E7B80A0020A00A0020CD
:10186000034B0360034B0B6080231360704700BF82
:10187000E00C0020E00A002010B59CB0244C0DF1D3
:10188000540CA646BEE80F00ACE80F009EE8070027
:101890008CE80700002115A802F010FC1D4B186011
:1018A0000DF1380C04F11C0EBEE80F00ACE80F007F
:1018B0009EE807008CE8070000210EA802F0FEFB5E
:1018C000154B18600DF11C0C04F1380EBEE80F002A
:1018D000ACE80F009EE807008CE80700002107A88D
:1018E00002F0ECFB0D4B1860EE4604F1540CBCE822
:1018F0000F00AEE80F009CE807008EE8070000210B
:10190000684602F0DBFB064B18601CB010BD00BF40
:1019100090B30008DC0A0020D80A0020D40A002076
:10192000D00A0020F0B58BB00024059406940794EB
:10193000089409940194254B1A6B42F080021A63B3
:101940001A6B02F080020192019A02941A6B42F023
:1019500001021A631A6B02F001020292029A0394C6
:101960001A6B42F008021A631A6B02F00802039223
:10197000039A04941A6B42F004021A631B6B03F07F
:1019800004030493049B124F22464FF4006138462F
:1019900000F063FE0F4E22460121304600F05DFE4E
:1019A0004FF400630593012506950794089405A953
:1019B000384600F059FD059506950794089405A949
:1019C000304600F051FD0BB0F0BD00BF00380240C2
:1019D00000080240000C024008B50268034B9A421E
:1019E00000D008BD00F078FCFBE700BF001000400D
:1019F00072B6FEE700B595B03022002108A803F0CA
:101A0000B9FA002303930493059306930793019374
:101A1000214A116C41F080511164126C02F0805225
:101A20000192019A02931D4B1A6842F480421A6097
:101A30001B6803F480430293029B012308934FF435
:101A40008033099302230E934FF480020F920822F1
:101A500010924FF4A872119212930423139308A8C2
:101A600000F002FE98B90F2303930223049300238E
:101A700005934FF4A05306934FF480530793052129
:101A800003A801F057F820B915B05DF804FBFFF783
:101A9000AFFFFFF7ADFF00BF00380240007000400D
:101AA00008B500F0FFFBFFF7A5FFFFF73BFF00F0D5
:101AB000E1FA00F0BBF900F0E7F900F025FB00F0D7
:101AC0003DFB0A4800F018F8094803F007FB094CF1
:101AD0000021204601F06CFC0421204601F068FC46
:101AE000FFF7CAFE02F0E5FAFEE700BF8C12002005
:101AF0007CB40008B411002008B5054B1860054BF4
:101B00001868002302221946806803F05BFB08BDB9
:101B1000601100201C000020022801D8012070471D
:101B200008B503F0FDF909230360002008BD00009B
:101B300010B5013801280AD814464FF0FF3392B28D
:101B40000748006801F0CFFF40B9204610BD03F000
:101B5000E7F9092303604FF0FF30F7E70520F5E7C9
:101B600060110020022801D80020704708B503F05A
:101B7000D7F9092303604FF0FF3008BD08B503F023
:101B8000CFF9092303604FF0FF3008BD08B548B90D
:101B90004FF0FF3301220848006802F010F840B906
:101BA000012008BD03F0BCF9092303604FF0FF30AA
:101BB000F7E70520F5E700BF6011002008B502280F
:101BC00004D84FF400534B60002008BD03F0A8F97F
:101BD00009230360F8E7000000B583B000220092FB
:101BE0000D4B596C41F480415964596C01F48041AA
:101BF000009100990192196C41F0805119641B6C9D
:101C000003F080530193019B0F216FF0010000F05E
:101C100087FB03B05DF804FB0038024030B589B0A3
:101C2000044600230193214B1A6C42F010021A64FF
:101C30001B6C03F010030193019B02A903A801F0A0
:101C40004FF8069BCBB901F02BF803461848A0FBD0
:101C500003239B0C013B1748174A026040F2E7320E
:101C6000C2604360002303618360836101F054FA22
:101C7000054630B1284609B030BD01F011F84300E7
:101C8000E4E70C4801F0E0F805460028F2D13620E0
:101C900000F07EFB0F2C01D90125EBE70022214645
:101CA000362000F03DFB054B1C60E3E700380240A6
:101CB00083DE1B436411002000100040140000204C
:101CC000FEE7FEE7FEE7FEE7FEE7704708B50248DD
:101CD00001F001F908BD00BFFC11002010B5054C52
:101CE00021220549204602F0C2F9204602F062F89E
:101CF00010BD00BF8C120020580A002008B5024811
:101D000002F058F808BD00BFD012002008B5024804
:101D100001F0E1F808BD00BF4412002008B50248F8
:101D200001F0D9F808BD00BF6411002002681C4B07
:101D30009A4200D0704710B51A4C212221461A4809
:101D400002F095F92378FE2B0CD0184B00221A7064
:101D5000164B1B78212B0AD021221249124802F07F
:101D600086F910BD114A137801331370F0E70D4B5B
:101D70001B68B3F1FE3F03D00C4B00221A70EBE757
:101D8000084B93F82030EE2BF6D1064BDA6800EEC4
:101D9000902A5B6800EE103AFFF7FCFBECE700BF0F
:101DA00000100140580A00208C120020AC110020C5
:101DB0000120704708B503F0B3F8162303604FF015
:101DC000FF3008BD08B54FF0FF31FFF7F3FFFEE726
:101DD00010B503460C4A0D490D48006840B10C4847
:101DE00000680344521A934206D8094A136010BD92
:101DF0000748084C0460F2E703F092F80C230360F4
:101E00004FF0FF30F3E700BF0000022000040000A5
:101E1000B0110020B8500020034AD2F8883043F4B3
:101E20007003C2F88830704700ED00E000B587B05D
:101E300000230293039304930593009301931048A6
:101E4000104A02605322426083604FF6FF72C26004
:101E50000361836102A901F082FB58B9502300930A
:101E6000002301936946064801F09CFC28B907B09D
:101E70005DF804FBFFF7BCFDF0E7FFF7B9FDF6E7FF
:101E8000FC1100200008004000B587B00023029339
:101E9000039304930593009301931048104A026042
:101EA0005322426083604FF6FF72C2600361836118
:101EB00002A901F054FB58B9502300930023019369
:101EC0006946064801F06EFC28B907B05DF804FBCE
:101ED000FFF78EFDF0E7FFF78BFDF6E744120020D9
:101EE000000C00400268094B9A4200D0704782B053
:101EF00000230193064B1A6C42F002021A641B6C19
:101F000003F002030193019B02B0704700040040FC
:101F10000038024030B58BB0002305930693079339
:101F2000089309930368374A934204D0364A934290
:101F30002AD00BB030BD00240094344B1A6C42F010
:101F400004021A641A6C02F004020092009A0194CE
:101F50001A6B42F008021A631B6B03F0080301932B
:101F6000019B4FF4E043059302230693099305A9CF
:101F7000274800F079FA224605211E2000F0D0F90A
:101F80001E2000F005FAD4E7002402941F4B1A6CBF
:101F900042F008021A641A6C02F008020292029AD5
:101FA00003941A6B42F001021A631A6B02F00102E9
:101FB0000392039A04941A6B42F080021A631B6B1B
:101FC00003F080030493049B0323059302250695E5
:101FD000099505A90F4800F047FA4FF4805305937F
:101FE000069507940894099505A90B4800F03CFA5A
:101FF00022460521322000F093F9322000F0C8F982
:1020000097E700BF00080040000C00400038024085
:10201000000C024000000240001C024000B587B0E6
:1020200000230193029303930493059302680E4BDC
:102030009A4202D007B05DF804FB002300930B4BDB
:102040001A6B42F001021A631B6B03F00103009349
:10205000009BC023019302230293059301A9044826
:1020600000F002FAE6E700BF00040040003802403A
:102070000000024000B58BB0002308930993019340
:102080000293039304930593069307931C481D4AF8
:102090000260436083604FF6FF72C2600361836138
:1020A00001F066F8F8B900230893099308A91448C9
:1020B00001F078FBD0B960230193002202920392D1
:1020C000059201A90E4801F0B7F890B904220DEB72
:1020D00002010B4801F0B0F870B90948FFF79EFF04
:1020E0000BB05DF804FBFFF783FCDCE7FFF780FC37
:1020F000E1E7FFF77DFCE9E7FFF77AFCEDE700BFDA
:10210000B41100200004004008B50A480A4B0360DF
:102110004FF4E133436000238360C36003610C220A
:1021200042618361C36101F0AFFC00B908BDFFF7F4
:102130005FFCFBE78C1200200010014008B50A4844
:102140000A4B03604FF4E133436000238360C360B4
:1021500003610C2242618361C36101F095FC00B907
:1021600008BDFFF745FCFBE7D0120020004400400B
:1021700010B58AB00023059306930793089309933B
:1021800003682F4A934204D02E4A93422DD00AB0BE
:1021900010BD002401942C4B5A6C42F010025A647A
:1021A0005A6C02F010020192019A02941A6B42F0EA
:1021B00001021A631B6B03F001030293029B4FF4AD
:1021C000C06305930223069303230893072309930F
:1021D00005A91E4800F048F922460521252000F0F7
:1021E0009FF8252000F0D4F8D1E700240394164B83
:1021F0001A6C42F400321A641A6C02F40032039230
:10220000039A04941A6B42F001021A631B6B03F0E9
:1022100001030493049B0C230593022306930323D9
:1022200008930723099305A9084800F01DF92246E1
:102230000521262000F074F8262000F0A9F8A6E772
:1022400000100140004400400038024000000240FD
:10225000DFF834D00D480E490E4A002302E0D4586E
:10226000C4500433C4188C42F9D30B4A0B4C0023DE
:1022700001E013600432A242FBD3FFF7CDFD02F070
:1022800055FEFFF70DFC7047000002200000002003
:10229000C8090020C4B80008C8090020B4500020B4
:1022A000FEE7000008B50B4B1A6842F400721A6092
:1022B0001A6842F480621A601A6842F480721A60E6
:1022C000032000F01BF80F20FFF7A8FCFFF784FCA9
:1022D000002008BD003C0240034A1168034B1B78F4
:1022E0000B441360704700BF14130020100000203F
:1022F000014B1868704700BF14130020074AD368C9
:1023000023F4E0631B041B0C000200F4E0600343B1
:1023100043F0BF6343F40033D360704700ED00E047
:1023200000B5194BDB68C3F30223C3F1070CBCF102
:10233000040F28BF4FF0040C03F1040EBEF1060F8A
:1023400018D9033B4FF0FF3E0EFA0CFC21EA0C01BA
:1023500099400EFA03F322EA0303194300280BDB2A
:102360000901C9B200F1604000F5614080F8001336
:102370005DF804FB0023E5E700F00F000901C9B296
:10238000024B1954F4E700BF00ED00E014ED00E04B
:10239000002807DB00F01F02400901239340024A96
:1023A00042F82030704700BF00E100E070B50446FD
:1023B000866DFFF79DFF94F83530DBB2022B06D017
:1023C00080236365002384F83430012070BD054606
:1023D0002268136823F0160313602268536923F000
:1023E00080035361236CE3B12268136823F0080370
:1023F00013602268136823F00103136023681B68CD
:1024000013F0010F11D0FFF773FF431B052BF5D914
:1024100020236365032084F83500002384F83430DA
:10242000D4E7A36C002BDFD1E3E7E26D3F239340B9
:10243000B360012384F83530002084F83400C5E708
:1024400090F83530DBB2022B03D0802343650120A6
:102450007047052380F835300268136823F00103C4
:10246000136000207047000000230F2B00F2E4806F
:1024700070B582B060E085685E000324B44025EA50
:102480000405CC68B4402C438460456825EA020505
:102490004C68C4F300129A402A4342605AE0DC08B8
:1024A000083450F8246003F0070295000F22AA4078
:1024B00026EA020E0A69AA4042EA0E0240F82420E7
:1024C0005CE0072200E0002202FA0EF22A43023406
:1024D0005A4D45F824205A4A94686FEA0C0224EABF
:1024E0000C054E6816F4801F01D04CEA0405544CCC
:1024F000A560E46802EA04054E6816F4001F01D0E6
:102500004CEA04054E4CE560646802EA04054E6836
:1025100016F4003F01D04CEA0405494C656024687C
:1025200022404D6815F4803F01D04CEA0402444C2F
:10253000226001330F2B7DD801229A400C6804EAF7
:10254000020C32EA0404F4D14C6804F00304013CA8
:10255000012C90D94A6802F00302032A09D0C4680A
:102560005D000322AA4024EA02048A68AA402243AA
:10257000C2604A6802F00302022A90D004684FEA5F
:10258000430E032202FA0EF224EA02044A6802F021
:10259000030202FA0EF2224302604A6812F4403F3C
:1025A000C7D000220192274A546C44F480445464FA
:1025B000526C02F480420192019A9C08A51C1F4AA9
:1025C00052F8255003F003024FEA820E0F2202FA5E
:1025D0000EF225EA02051C4A90423FF474AF02F560
:1025E000806290421AD002F58062904218D002F5C3
:1025F0008062904216D002F58062904214D002F5BB
:102600008062904212D002F58062904210D002F5B2
:10261000806290423FF455AF082255E7012253E70C
:10262000022251E703224FE704224DE705224BE740
:10263000062249E702B070BD704700BF0038014074
:10264000003C01400038024000000240036919428A
:1026500001D001207047002070470AB181617047A6
:102660000904816170470000002800F0E08170B526
:1026700082B00446036813F0010F3BD09F4B9B6868
:1026800003F00C03042B2CD09C4B9B6803F00C0331
:10269000082B21D06368B3F5803F4FD0B3F5A02F4E
:1026A00052D0964B1A6822F480321A601A6822F4CB
:1026B00080221A606368002B50D0FFF719FE054690
:1026C0008E4B1B6813F4003F14D1FFF711FE401B23
:1026D0006428F5D90320B1E1884B5B6813F4800FBF
:1026E000D8D0864B1B6813F4003F03D06368002BDF
:1026F00000F09F81236813F0020F54D07F4B9B683A
:1027000013F00C0F3ED07D4B9B6803F00C03082B9D
:1027100033D0E368002B68D0794B01221A60FFF7B1
:10272000E7FD0546754B1B6813F0020F54D1FFF708
:10273000DFFD401B0228F5D903207FE16F4A1368B3
:1027400043F480331360B5E76C4B1A6842F480227F
:102750001A601A6842F480321A60ABE7FFF7C8FDCE
:102760000546664B1B6813F4003FC3D0FFF7C0FD5E
:10277000401B6428F5D9032060E1604B5B6813F4CB
:10278000800FC6D15D4B1B6813F0020F03D0E368C6
:10279000012B40F05081594A136823F0F803216956
:1027A00043EAC1031360236813F0080F42D0636942
:1027B0006BB3534B0122C3F8802EFFF799FD0546FA
:1027C0004E4B5B6F13F0020F34D1FFF791FD401BAE
:1027D0000228F5D9032031E1484A136823F0F803B1
:1027E000216943EAC1031360DDE7454B00221A600B
:1027F000FFF77EFD0546414B1B6813F0020FD2D058
:10280000FFF776FD401B0228F5D9032016E13C4B6B
:102810000022C3F8802EFFF76BFD0546374B5B6F38
:1028200013F0020F06D0FFF763FD401B0228F5D915
:10283000032003E1236813F0040F77D02F4B1B6CA8
:1028400013F0805F33D1002301932C4B1A6C42F0BC
:1028500080521A641B6C03F080530193019B012585
:10286000284B1B6813F4807F23D0A368012B34D03E
:10287000052B38D0214B1A6F22F001021A671A6F0C
:1028800022F004021A67A368002B3DD0FFF730FD49
:1028900006461A4B1B6F13F0020F46D1FFF728FDB7
:1028A000801B41F288339842F3D90320C6E000250B
:1028B000D6E7144A136843F480731360FFF718FDDA
:1028C0000646104B1B6813F4807FCED1FFF710FD36
:1028D000801B0228F5D90320B0E0084A136F43F0AB
:1028E00001031367CFE7054B1A6F42F004021A6722
:1028F0001A6F42F001021A67C5E700BF00380240B4
:102900000000474200700040FFF7F2FC0646524BC1
:102910001B6F13F0020F08D0FFF7EAFC801B41F297
:1029200088339842F3D9032088E0EDB9A369002BDE
:1029300000F08380484A926802F00C02082A51D0C5
:10294000022B17D0454B00221A66FFF7D1FC044634
:10295000414B1B6813F0007F42D0FFF7C9FC001BFE
:102960000228F5D9032069E03B4A136C23F0805319
:102970001364DBE7394B00221A66FFF7B9FC054602
:10298000354B1B6813F0007F06D0FFF7B1FC401BEE
:102990000228F5D9032051E0E369226A1343626AF1
:1029A00043EA8213A26A5208013A43EA0243E26A06
:1029B00043EA0263284A5360284B01221A66FFF754
:1029C00097FC0446244B1B6813F0007F06D1FFF7E9
:1029D0008FFC001B0228F5D903202FE000202DE0FA
:1029E00000202BE0012B2BD01B4B5B6803F48001F4
:1029F000E269914226D103F03F02216A8A4223D143
:102A0000616A47F6C0721A40B2EB811F1ED103F40F
:102A10004031A26A5208013AB1EB024F18D103F0DB
:102A20007063E26AB3EB026F14D1002006E001206C
:102A30007047012002E0012000E0002002B070BDDC
:102A40000120FBE70120F9E70120F7E70120F5E786
:102A50000120F3E70120F1E700380240000047427F
:102A600008B5314B9B6803F00C03042B57D0082B9F
:102A700057D12D4B5A6802F03F025B6813F4800F68
:102A80002AD0294B5968C1F3881C4FEA4C11B1EB8D
:102A90000C006EEB0E0E4FEA8E1343EA9063810139
:102AA000091A63EB0E03DB0043EA5173C90011EB13
:102AB0000C0C43F10003590200234FEA4C2041EA79
:102AC000DC51FDF779FD184B5B68C3F3014301331B
:102AD0005B00B0FBF3F025E0134B5968C1F3881C91
:102AE0004FEA4C11B1EB0C006EEB0E0E4FEA8E1359
:102AF00043EA90638101091A63EB0E03DB0043EAAA
:102B00005173C90011EB0C0C43F10003990200232F
:102B10004FEA8C2041EA9C51FDF74EFDD3E7034874
:102B200000E0034808BD00BF0038024000127A00F0
:102B30000024F400002800F09B8070B50D46044688
:102B40004F4B1B6803F007038B4208D2CBB24C4AB1
:102B50001370136803F007038B4240F08B802368E7
:102B600013F0020F17D013F0040F04D0454A9368F6
:102B700043F4E0539360236813F0080F04D0414AF4
:102B8000936843F4604393603E4A936823F0F003F4
:102B9000A1680B439360236813F0010F32D0636880
:102BA000012B21D09A1E012A25D9364A126812F02B
:102BB000020F61D033498A6822F0030213438B600D
:102BC000FFF796FB06462F4B9B6803F00C036268E9
:102BD000B3EB820F16D0FFF78BFB801B41F28833DB
:102BE0009842F0D9032042E0264A126812F4003FCE
:102BF000E0D101203BE0234A126812F0007FD9D1D6
:102C0000012034E01E4B1B6803F00703AB4207D9D9
:102C1000EAB21B4B1A701B6803F00703AB422DD1BD
:102C2000236813F0040F06D0164A936823F4E05388
:102C3000E1680B439360236813F0080F07D0114A33
:102C4000936823F46043216943EAC1039360FFF76B
:102C500007FF0C4B9B68C3F303130B4AD35CD840AC
:102C60000A4B18600A4B1868FEF7D8FF002070BDA9
:102C7000012070470120FAE70120F8E70120F6E77C
:102C8000003C02400038024090B400080C000020D4
:102C900014000020014B1868704700BF0C00002092
:102CA00008B5FFF7F7FF044B9B68C3F38223034A81
:102CB000D35CD84008BD00BF00380240A0B4000873
:102CC00008B5FFF7E7FF044B9B68C3F34233034AA1
:102CD000D35CD84008BD00BF00380240A0B4000853
:102CE0000F2303600B4B9A6802F0030242609A685C
:102CF00002F0F00282609A6802F4E052C2609B68BF
:102D0000DB0803F4E0530361034B1B6803F0070384
:102D10000B60704700380240003C024030B4036A48
:102D200023F001030362036A4268846924F0730498
:102D30000D682C4323F0020C8B6843EA0C03104D02
:102D4000A84203D005F58065A84205D123F0080309
:102D5000CD682B4323F00403094DA84203D005F5A9
:102D60008065A84205D122F440724D692A438D69DD
:102D70002A43426084614A684263036230BC704700
:102D80000000014030B4036A23F480730362036AD5
:102D90004268C46924F0730C0C6844EA0C0523F4FF
:102DA00000738C6843EA0423114CA04203D004F55D
:102DB0008064A04206D123F40063CC6843EA042374
:102DC00023F480630A4CA04203D004F58064A0423F
:102DD00007D122F440524C6942EA04128C6942EA5B
:102DE00004124260C5614A68C263036230BC704726
:102DF0000000014030B4036A23F480530362036A85
:102E00004468C26922F4E6420D6842EA052223F4CE
:102E100000538D6843EA0533094DA84203D005F5F8
:102E20008065A84204D124F480444D6944EA8514A5
:102E30004460C2614A680264036230BC704700BFEC
:102E4000000001407047000090F83D30DBB2012BDC
:102E500037D1022380F83D300268D36843F0010384
:102E6000D3600368194A934220D0B3F1804F1DD03C
:102E7000A2F57C42934219D002F58062934215D0AC
:102E800002F58062934211D002F5784293420DD050
:102E900002F57052934209D0A2F59432934205D0C4
:102EA0001A6842F001021A60002070479A6802F026
:102EB0000702062A07D01A6842F001021A600020B1
:102EC0007047012070470020704700BF000001409C
:102ED00070477047704710B5044603681A6912F0CE
:102EE000020F11D0DA6812F0020F0DD06FF002025B
:102EF0001A610123037703689B6913F0030F70D0F5
:102F0000FEF744FA0023237723681A6912F0040FAE
:102F100012D0DA6812F0040F0ED06FF004021A61BA
:102F20000223237723689B6913F4407F5FD02046F8
:102F3000FEF72CFA0023237723681A6912F0080F92
:102F400012D0DA6812F0080F0ED06FF008021A6182
:102F5000042323772368DB6913F0030F4ED0204648
:102F6000FEF714FA0023237723681A6912F0100F72
:102F700012D0DA6812F0100F0ED06FF010021A6142
:102F8000082323772368DB6913F4407F3DD0204674
:102F9000FEF7FCF90023237723681A6912F0010F6A
:102FA00003D0DA6812F0010F36D123681A6912F0E3
:102FB000800F03D0DA6812F0800F34D123681A69C9
:102FC00012F0400F03D0DA6812F0400F32D12368BC
:102FD0001A6912F0200F03D0DA6812F0200F30D1F6
:102FE00010BDFFF775FF2046FFF773FF8AE7204605
:102FF000FFF76EFF2046FFF76CFF9BE72046FFF7C9
:1030000067FF2046FFF765FFACE72046FFF760FF4C
:103010002046FFF75EFFBDE76FF001021A61204610
:10302000FEF7DAFCC1E76FF080021A61204600F07B
:1030300000FCC3E76FF040021A612046FFF74AFF29
:10304000C5E76FF020021A61204600F0F1FBC7E7E8
:103050000368304A904212D0B0F1804F0FD0A2F5F1
:103060007C4290420BD002F58062904207D002F57C
:103070008062904203D002F57842904203D123F05F
:1030800070034A681343234A90422AD0B0F1804F1C
:1030900027D0A2F57C42904223D002F58062904274
:1030A0001FD002F5806290421BD002F57842904218
:1030B00017D002F57052904213D002F58062904210
:1030C0000FD002F5806290420BD0A2F59832904268
:1030D00007D002F58062904203D002F580629042F0
:1030E00003D123F44073CA68134323F080034A6971
:1030F000134303608B68C3620B688362054B98427D
:1031000003D003F58063984201D10B690363012367
:10311000436170470000014040B310B5044690F889
:103120003D30F3B1022384F83D30214651F8040BC1
:10313000FFF78EFF012384F8463084F83E3084F890
:103140003F3084F8403084F8413084F8423084F8CD
:10315000433084F8443084F8453084F83D30002012
:1031600010BD80F83C30FFF76DFEDBE701207047B3
:1031700040B310B5044690F83D30F3B1022384F813
:103180003D30214651F8040BFFF762FF012384F81C
:10319000463084F83E3084F83F3084F8403084F87C
:1031A000413084F8423084F8433084F8443084F865
:1031B000453084F83D30002010BD80F83C30FEF7EB
:1031C00091FEDBE70120704730B4036A23F010035F
:1031D0000362036A4468826922F4E6420D6842EAA7
:1031E000052223F020038D6843EA0513114DA84200
:1031F00003D005F58065A84206D123F08003CD6891
:1032000043EA051323F040030A4DA84203D005F515
:103210008065A84207D124F440644D6944EA8504DE
:103220008D6944EA8504446082614A68826303626E
:1032300030BC70470000014038B590F83C30012B9D
:1032400066D004460D46012380F83C300C2A5AD83B
:10325000DFE802F0075959591B5959593059595942
:1032600044000068FFF75AFD2268936943F00803A1
:1032700093612268936923F0040393612268936940
:1032800029690B43936100203EE00068FFF79CFF33
:103290002268936943F4006393612268936923F47D
:1032A0008063936122689369296943EA01239361EA
:1032B000002029E00068FFF765FD2268D36943F02C
:1032C0000803D3612268D36923F00403D361226821
:1032D000D36929690B43D361002015E00068FFF72B
:1032E00089FD2268D36943F40063D3612268D369FE
:1032F00023F48063D3612268D369296943EA0123F7
:10330000D361002000E00120002384F83C3038BD68
:103310000220FCE770B49446046A24F001040462BD
:103320008469066A184DA8421CD0B0F1804F19D0AC
:10333000164A904216D002F58062904212D002F5F1
:10334000806290420ED002F5784290420AD002F597
:103350007052904206D0A2F59432904202D044F0CE
:10336000010203E024F0030242EA0C0222F0F00220
:103370001B01DBB2134326F00A0201F00A011143DC
:103380008361016270BC704700000140000400408E
:1033900001F01F01012303FA01FC036A23EA0C0375
:1033A0000362036A02FA01F10B43036270470000F3
:1033B00010B504460846002942D194F83E30DBB2ED
:1033C000013B18BF0123002B6ED1002851D10223ED
:1033D00084F83E30012201462068FFF7D9FF2368B8
:1033E000334A934203D002F58062934203D15A6C70
:1033F00042F400425A6423682D4A934249D0B3F103
:10340000804F46D0A2F57C42934242D002F58062C2
:1034100093423ED002F5806293423AD002F5784260
:10342000934236D002F57052934232D0A2F59432D4
:1034300093422ED01A6842F001021A60002032E056
:10344000042908D008290DD094F84130DBB2013BA3
:1034500018BF0123B7E794F83F30DBB2013B18BF38
:103460000123B0E794F84030DBB2013B18BF0123E1
:10347000A9E7042805D0082807D0022384F84130A2
:10348000A8E7022384F83F30A4E7022384F8403001
:10349000A0E79A6802F00702062A07D01A6842F0ED
:1034A00001021A60002010BD0120FCE70020FAE7AD
:1034B0000000014038B504460D4600220068FFF7C1
:1034C00067FF23681D4A934218D002F58062934239
:1034D00014D02368196A41F21112114208D1196AF5
:1034E00040F24442114203D11A6822F001021A60EC
:1034F0009DB9012384F83E30002038BD196A41F29D
:1035000011121142E5D1196A40F244421142E0D150
:103510005A6C22F400425A64DBE7042D05D0082DD2
:1035200007D0012384F84130E6E7012384F83F30D7
:10353000E2E7012384F84030DEE700BF00000140ED
:1035400001F01F01042303FA01FC036A23EA0C03C0
:103550000362036A02FA01F10B4303627047002819
:1035600065D070B588B00E46044690F83D30002B0B
:1035700058D0022384F83D30214651F8040BFFF760
:1035800067FDB368032231682068FFF7C3FE226835
:10359000936923F00C0393612268936971680B436C
:1035A00093612268536843F08003536022689368F4
:1035B00023F0700393602268936843F040039360A4
:1035C0002268936823F0070393602268936843F0AE
:1035D00004039360002505950695702301930795D4
:1035E00004950395F368029301A92068FFF7ECFDA9
:1035F0002268536823F0700353602268536843F0D5
:1036000050035360012384F8463084F83E3084F838
:103610003F3084F8423084F8433084F83D30284607
:1036200008B070BD80F83C30FEF774FCA1E70120C3
:103630007047000010B50446084600293BD194F8B5
:103640004230DBB2013B18BF0123002B67D10028B9
:103650004AD1022384F84230042201462068FFF751
:103660006FFF2268536C43F40043536423682E4A6F
:10367000934249D0B3F1804F46D0A2F57C429342A9
:1036800042D002F5806293423ED002F580629342BE
:103690003AD002F57842934236D002F57052934206
:1036A00032D0A2F5943293422ED01A6842F0010231
:1036B0001A60002032E0042908D008290DD094F8BF
:1036C0004530DBB2013B18BF0123BEE794F843301D
:1036D000DBB2013B18BF0123B7E794F84430DBB2FB
:1036E000013B18BF0123B0E7042805D0082807D004
:1036F000022384F84530AFE7022384F84330ABE778
:10370000022384F84430A7E79A6802F00702062AE9
:1037100007D01A6842F001021A60002010BD012093
:10372000FCE70020FAE700BF0000014038B504467E
:103730000D4600220068FFF703FF2368196A41F273
:103740001112114208D1196A40F24442114203D1C8
:103750005A6C22F400425A642368196A41F2111229
:10376000114208D1196A40F24442114203D11A6849
:1037700022F001021A6025B9012384F842300020AA
:1037800038BD042D05D0082D07D0012384F845301D
:10379000F5E7012384F84330F1E7012384F844304E
:1037A000EDE7000090F83C30012B3DD010B4012330
:1037B00080F83C30022380F83D3003685A689C68EA
:1037C00022F0700C0A6842EA0C025A600368174A39
:1037D00093421AD0B3F1804F17D0A2F57C429342A6
:1037E00013D002F5806293420FD002F580629342BB
:1037F0000BD002F57842934207D002F57052934203
:1038000003D0A2F59432934204D124F080044A6894
:1038100014439C60012380F83D30002380F83C3045
:1038200018465DF8044B70470220704700000140C5
:1038300070477047026802F10C0353E8003F23F41D
:1038400090730C3242E800310029F3D1026802F192
:10385000140353E8003F23F00103143242E800311F
:103860000029F3D1036B012B05D0202380F83E30D3
:10387000002303637047026802F10C0353E8003F22
:1038800023F010030C3242E800310029F3D1ECE7B9
:1038900090F83D30DBB2212B01D0022070478368C5
:1038A000B3F5805F17D0036A5A1C02621A78036866
:1038B0005A60C38C9BB2013B9BB2C3844BB9026874
:1038C000D36823F08003D3600268D36843F04003D9
:1038D000D360002070470369002BE4D1036A1B8882
:1038E0000268C3F308035360036A02330362E0E72C
:1038F00038B504460268136923F44053C1680B438A
:10390000136183680269134342691343C2691A430E
:103910000168CB6823F4164323F00C031343CB60F8
:103920000268536923F4407381690B435361036850
:10393000314A934206D002F58062934202D0FFF7EB
:10394000AFF901E0FFF7BCF9E369B3F5004F29D007
:103950000021031849411B1841F10001C90041EA47
:103960005371DB00181863684FEA83024FEA9373C0
:1039700041F10001FCF720FE204DA5FB003251096A
:10398000642303FB11031B013233A5FB03235B09F3
:1039900003F0F00202EB011203F00F03216813445D
:1039A0008B6038BD0023021843EB0301121841F16C
:1039B0000001C90041EA5271D200101841F1000122
:1039C000626892185B41FCF7F7FD0C4DA5FB0032D5
:1039D0005109642303FB1103DB003233A5FB0323EE
:1039E0005B095A0002F4F87202EB011203F00703BC
:1039F000216813448B60D4E7001001401F85EB5110
:103A00002DE9F84305460F4616469946DDF8208015
:103A10002C68246837EA04030CBF4FF0010C4FF008
:103A2000000CB4452DD1B8F1FF3FF1D0B8F1000F33
:103A300005D0FEF75DFCA0EB09004045E8D92A68F7
:103A400002F10C0353E8003F23F4D0730C3242E838
:103A500000310029F3D12A6802F1140353E8003F32
:103A600023F00103143242E800310029F3D120236E
:103A700085F83D3085F83E30002385F83C30032042
:103A800000E00020BDE8F88358B310B5044690F874
:103A90003D300BB3242384F83D302268D36823F4EF
:103AA0000053D3602046FFF723FF2268136923F4F5
:103AB000904313612268536923F02A0353612268FB
:103AC000D36843F40053D36000202064202384F89B
:103AD0003D3084F83E3010BD80F83C30FEF748FBA6
:103AE000D8E7012070472DE9F04182B01E4690F8DA
:103AF0003D30DBB2202B54D104460D4690460029C0
:103B000053D0002A53D090F83C30012B51D00123E0
:103B100080F83C3000230364212380F83D30FEF719
:103B2000E7FB0746A4F82480A4F82680A368B3F531
:103B3000805F05D04FF00008002384F83C3012E08D
:103B4000236913B14FF00008F6E7A8460025F3E714
:103B500038F8023B2268C3F308035360E28C92B248
:103B6000013A92B2E284E38C9BB273B100963B4679
:103B7000002280212046FFF743FFE0B9002DE7D067
:103B800015F8012B23685A60E8E700963B460022AF
:103B900040212046FFF734FF78B9202384F83D30D8
:103BA00000E0022002B0BDE8F0810120FAE7012028
:103BB000F8E70220F6E70320F4E70320F2E72DE917
:103BC000F04182B01E4690F83E30DBB2202B5CD133
:103BD00004460D46904600295BD0002A5BD090F841
:103BE0003C30012B59D0012380F83C300023036482
:103BF000222280F83E200363FEF77AFB0746A4F8F2
:103C00002C80A4F82E80A368B3F5805F05D04FF018
:103C10000008002384F83C3017E0236913B14FF00B
:103C20000008F6E7A8460025F3E723685B68C3F3BE
:103C3000080328F8023B03E023685B682B7001351A
:103C4000E28D92B2013A92B2E285E38D9BB2BBB1B2
:103C500000963B46002220212046FFF7D1FEF0B916
:103C6000002DE2D0A368B3F5805FE5D013B92369D6
:103C7000002BE1D023685B6803F07F032B70DEE745
:103C8000202384F83E30002000E0022002B0BDE88E
:103C9000F0810120FAE70120F8E70220F6E703208F
:103CA000F4E7704708B50168CA6822F04002CA60AC
:103CB000202280F83D20FFF7F4FF002008BD704768
:103CC00008B5806B0023C385C384FFF7F8FF08BDE8
:103CD000704790F83E30DBB2222B67D18368B3F592
:103CE000805F4DD0826AB3F5805F04D0002B54D141
:103CF0000369002B51D103685B681370836A013339
:103D00008362C38D9BB2013B9BB2C385002B4FD115
:103D100000B583B00268D36823F02003D360026843
:103D2000D36823F48073D3600268536923F00103DE
:103D30005361202380F83E30036B012B33D10023E5
:103D40000363026802F10C0353E8003F23F0100301
:103D50000C3242E800310029F3D103681A6812F0EE
:103D6000100F06D0002201921A6801925B6801933D
:103D7000019B818DFFF7ACFF002003B05DF804FBD1
:103D80000269002AAED1826A03685B68C3F3080344
:103D90001380836A02338362B3E703685B6803F0CE
:103DA0007F031370AAE7FDF7C1FFE5E70220704724
:103DB0000020704730B583B0044602681368D068AD
:103DC000516913F00F0505D113F0200F02D010F048
:103DD000200F19D12DB111F0010119D110F4907FEC
:103DE00016D1216B01297DD013F0800F03D010F084
:103DF000800F40F0158113F0400F03D010F0400FFA
:103E000040F0128103B030BD2046FFF762FFF9E7B2
:103E100013F0010F06D010F4807F03D0226C42F023
:103E20000102226413F0040F04D019B1226C42F095
:103E30000202226413F0020F04D019B1226C42F086
:103E40000402226413F0080F07D010F0200F00D1F5
:103E500019B1226C42F008022264226C002AD1D0EF
:103E600013F0200F02D010F0200F29D123685B69D6
:103E700003F04003226C12F0080F00D163B3204618
:103E8000FFF7D8FC23685B6913F0400F20D022684D
:103E900002F1140353E8003F23F04003143242E8D8
:103EA00000310029F3D1A36B73B1614A1A65A06B8D
:103EB000FEF7C6FA0028A5D0A06B036D9847A1E7CE
:103EC0002046FFF706FFD1E72046FFF7F8FE99E707
:103ED0002046FFF7F4FE95E72046FFF7F0FE0023AB
:103EE00023648FE713F0100F3FF47EAF10F0100F34
:103EF0003FF47AAF00230193136801935368019351
:103F0000019B536913F0400F50D0A26B13685B689C
:103F10009BB2002B3FF476AFA18D99427FF672AF32
:103F2000E385D369B3F5807F37D0226802F10C03B3
:103F300053E8003F23F480730C3242E8003100293B
:103F4000F3D1226802F1140353E8003F23F0010388
:103F5000143242E800310029F3D1226802F114033F
:103F600053E8003F23F04003143242E800310029B7
:103F7000F3D1202384F83E3000232363226802F12A
:103F80000C0353E8003F23F010030C3242E80031E9
:103F90000029F3D1A06BFEF709FAA18DE38D9BB246
:103FA000C91A89B22046FFF793FE2BE7A18DE38D56
:103FB0009BB2C91A89B2E38D9BB2002B3FF422AFAA
:103FC00000293FF41FAF226802F10C0353E8003FC1
:103FD00023F490730C3242E800300028F3D12268B9
:103FE00002F1140353E8003F23F00103143242E8C6
:103FF00000300028F3D1202384F83E3000232363CF
:10400000226802F10C0353E8003F23F010030C3246
:1040100042E800300028F3D12046FFF759FEF1E6D0
:104020002046FFF735FCEDE62046FFF73BFEE9E6CC
:10403000C13C000881628285C2850023036422227C
:1040400080F83E2080F83C30036923B10268D368D1
:1040500043F48073D3600268536943F001035361F2
:104060000268D36843F02003D3600020704708B58E
:1040700090F83E30DBB2202B0DD171B17AB190F8BF
:104080003C30012B0DD0012380F83C30002303632A
:10409000FFF7D0FF00E0022008BD0120FCE701206F
:1040A000FAE70220F8E7842801D0033070470020A7
:1040B000704708B500F06AFD002008BD2DE9F04307
:1040C00087B004460F464569BDB18669AEB1D0F8E8
:1040D0000480D0F80090B0F90800FFF7E4FF0296E2
:1040E000019500903B4622694946404600F0DCFCC1
:1040F0000590059807B0BDE8F08365682668D4F898
:104100001080B4F90800FFF7CEFF05AB01930090D3
:104110003B461FFA88F23146284600F002FD01288E
:10412000E7D00020E6E708B500B9012000F080FEE6
:10413000002008BD00F1080343604FF0FF328260A9
:10414000C36003610023036070470023036170476D
:1041500043684B609A688A6051609960086103689F
:1041600001330360704730B40D68B5F1FF3F11D0E3
:1041700000F108031C465B681A68AA42FAD9636812
:104180004B6099608C606160086103680133036073
:1041900030BC70470469F2E70369416882688A604D
:1041A000416851605A68824206D0002202611A6852
:1041B000013A1A601868704782685A60F5E7000093
:1041C00082B0002301930D4B1B68B3F1FF3F08D071
:1041D0004FF0500383F31188BFF36F8FBFF34F8FFE
:1041E000FEE74FF0500383F31188BFF36F8FBFF3E7
:1041F0004F8F019B002BFCD002B0704718000020AD
:1042000008480068006880F308884FF0000080F3D9
:10421000148862B661B6BFF34F8FBFF36F8F00DFB4
:1042200000BF000008ED00E0DFF80C00016841F479
:10423000700101607047000088ED00E04FF080736E
:1042400040F8043C21F0010140F8081C054B40F8FF
:104250000C3C40F8202C6FF0020340F8243C44381A
:10426000704700BFC14100080000000000000000CE
:10427000074B19680868B0E8F04F80F30988BFF36E
:104280006F8F4FF0000080F311887047AFF300800C
:10429000404F00204FF0500383F31188BFF36F8F1E
:1042A000BFF34F8F0B4A136801331360012B00D00B
:1042B00070474FF0E023D3F8043D13F0FF0FF7D021
:1042C0004FF0500383F31188BFF36F8FBFF34F8F0D
:1042D000FEE700BF18000020094B1B6843B94FF0F0
:1042E000500383F31188BFF36F8FBFF34F8FFEE747
:1042F000013B034A13600BB983F31188704700BF79
:104300001800002000000000000000000000000075
:10431000EFF30980BFF36F8F154B1A681EF0100F73
:1043200008BF20ED108A20E9F04F10602DE9090048
:104330004FF0500080F31188BFF34F8FBFF36F8FA2
:1043400000F09CFD4FF0000080F3118809BC196853
:104350000868B0E8F04F1EF0100F08BFB0EC108AEC
:1043600080F30988BFF36F8F704700BFAFF3008001
:10437000404F002008B54FF0500383F31188BFF37E
:104380006F8FBFF34F8F00F04BFC28B14FF0E0234D
:104390004FF08052C3F8042D002383F3118808BD29
:1043A0004FF0E022002313619361054B1B68054920
:1043B000A1FB03139B09013B536107231361704762
:1043C0000C000020D34D62104FF0E023D3F8002DF5
:1043D0003D4B9A421CD04FF0E023D3F8002D3B4BCD
:1043E0009A421ED030B583B0394B1A78D2B20192BE
:1043F000FF221A701B78DBB28DF803309DF8033072
:1044000003F05003334A1370334B07221A601BE04A
:104410004FF0500383F31188BFF36F8FBFF34F8FBB
:10442000FEE74FF0500383F31188BFF36F8FBFF3A4
:104430004F8FFEE7284A1368013B13609DF8033055
:104440005B00DBB28DF803309DF8033013F0800F72
:10445000F0D1214B1B68032B08D04FF0500383F39E
:104460001188BFF36F8FBFF34F8FFEE71B021A4A0D
:10447000136003F4E0631360019BDBB2144A137012
:104480004FF0E024D4F8203D43F47003C4F8203DFD
:10449000D4F8203D43F07043C4F8203DFFF780FF7F
:1044A00000250E4B1D60FFF7BFFED4F8343F43F0EC
:1044B0004043C4F8343FFFF7A3FE00F0DFFCFFF7F2
:1044C0007FFE284603B030BD71C20F4170C20F415C
:1044D00000E400E0181300201C1300201800002046
:1044E000124A12F0070F1ED0D11D21F00701C1F5AD
:1044F000705313440A460E48026000214160134481
:10450000083B23F007030B48036059601960991AB0
:1045100051601360084B1960084B1960084B4FF04D
:1045200000421A6070474FF47053E4E724130020F0
:10453000384F0020201300202C4F0020284F00204F
:10454000244F0020164B1A461B688342FBD3516848
:1045500002EB010C844509D0416800EB010C634576
:1045600009D00360904219D0106070474068014440
:1045700051601046F0E710B40A4C2468A3420BD0F7
:104580005B681944416013681B680360904200D067
:1045900010605DF8044B70470460F7E7704700BF98
:1045A000384F00202013002070B5054600F030FB86
:1045B000364B1B68A3B1364B1B681D424ED135B13B
:1045C000083515F0070F02D025F007050835002D36
:1045D00046D0304B1B68AB4251D32F4A146804E0DD
:1045E000FFF77EFFE7E722461C466368AB4202D234
:1045F0002368002BF7D1254B1B68A34241D01668D6
:1046000008362368136063685B1B102B10D9601990
:1046100010F0070F08D04FF0500383F31188BFF359
:104620006F8FBFF34F8FFEE743606560FFF78AFF30
:10463000626818490B689B1A0B60184909688B421D
:1046400001D216490B60124B1B68134363600023B1
:104650002360134A13680133136002E0002600E070
:10466000002600F069FB16F0070F0CD04FF0500346
:1046700083F31188BFF36F8FBFF34F8FFEE70026E0
:10468000EFE70026EDE7304670BD00BF20130020A5
:10469000244F0020284F0020384F00202C4F0020AE
:1046A000304F0020002834D038B50446A0F108056A
:1046B00050F8043C174A1268134208D14FF05003D7
:1046C00083F31188BFF36F8FBFF34F8FFEE750F86E
:1046D000081C41B14FF0500383F31188BFF36F8F73
:1046E000BFF34F8FFEE723EA020340F8043C00F0DB
:1046F0008FFA54F8041C084A13680B4413602846C8
:10470000FFF720FF054A13680133136000F014FB24
:1047100038BD7047244F0020284F0020344F002020
:10472000084B1B681B6823B9074B4FF0FF321A6018
:104730007047044B1B68DB68DB685A68024B1A60E1
:10474000704700BF444F0020185000202DE9F0476B
:1047500007469846089DDDF824900A9C266B02F1D6
:104760008042013A06EB820626F00706002968D04F
:104770008E464FF0000CBCF10F0F0BD81EF80C202A
:1047800004EB0C0383F834201EF80C3013B10CF149
:10479000010CF0E7002384F84330062D00D90625EC
:1047A000E56265644FF0000AC4F848A0201DFFF7D9
:1047B000CCFC04F11800FFF7C8FC2461C5F1070523
:1047C000A5616462C4F878A484F87CA44FF485627F
:1047D000514604F1500000F0CDFB04F54F736365C2
:1047E00004F56973A36504F20C43E3650122002319
:1047F000C4E93E2343F20E33A4F800314AF6CD3328
:10480000A4F8023141F23423A4F804314EF26D636E
:10481000A4F806314DF6EC63A4F808310523A4F89A
:104820000A310B23A4F80C31424639463046FFF7D3
:1048300005FD2060B9F1000F01D0C9F80040BDE8C6
:10484000F087002384F83430A7E7000038B500244F
:1048500007E004EB840293000E481844FFF76AFC5B
:104860000134062CF5D90C4D2846FFF763FC0B4CA0
:104870002046FFF75FFC0A48FFF75CFC0948FFF79A
:1048800059FC0948FFF756FC084B1D60084B1C609B
:1048900038BD00BF4C4F0020EC4F002000500020DE
:1048A00024500020505000203C500020444F002055
:1048B000484F002010B50446FFF7ECFC214A13686E
:1048C00001331360204B1B685BB1204B1B686BB935
:1048D0001D4B1B68DA6AE36A9A4207D81A4B1C60C0
:1048E00004E0194B1C601368012B28D0184A136888
:1048F00001331360E06A01238340164A11680B43B9
:10490000136000EB8000211D134B03EB8000FFF7C9
:104910001FFCFFF7E1FC0D4B1B687BB10A4B1B68CA
:10492000DA6AE36A9A4209D24FF0E0234FF08052EC
:10493000C3F8042DBFF34F8FBFF36F8F10BDFFF788
:1049400085FFD3E7D84F0020404F0020385000208B
:10495000E44F0020E84F00204C4F002010B50446E3
:10496000503000F0E7FB94F87D3463B1012B11D097
:10497000022B0ED04FF0500383F31188BFF36F8FDB
:10498000BFF34F8FFEE7206BFFF78CFE2046FFF74B
:1049900089FE10BD2046FFF785FEFAE70F4B1B6826
:1049A000D3B110B5FFF776FC0D4BDB68DC68201D3A
:1049B000FFF7F2FB0B4A1368013B1360074A1368C9
:1049C000013B1360FFF788FC2046FFF7C7FF034B4E
:1049D0001B68002BE6D110BD704700BFDC4F0020E4
:1049E00050500020D84F002008B5FFF7D7FF074BE5
:1049F0001B68012BF9D94FF0E0234FF08052C3F828
:104A0000042DBFF34F8FBFF36F8FEEE74C4F0020A5
:104A100070B504460D461D4B1E681D4B18680430CA
:104A2000FFF7BAFB50B91A4B1B68DA6A012303FA85
:104A300002F218490B6823EA02030B60B4F1FF3F4E
:104A40000DD03444124B1B685C60A64210D9124B47
:104A500018680F4B19680431FFF785FB70BD002DF6
:104A6000EFD00B4B196804310C48FFF771FBF5E7E9
:104A70000B4B1868064B19680431FFF774FB094BA0
:104A80001B68A342EAD9074B1C60E7E7645000208B
:104A9000404F0020E84F0020484F00203C500020AD
:104AA000444F00201850002030B587B00B9C8CB1CB
:104AB0000C9DC5B14FF490650495049DB5F5906FBC
:104AC0001AD04FF0500383F31188BFF36F8FBFF3F9
:104AD0004F8FFEE74FF0500383F31188BFF36F8FC2
:104AE000BFF34F8FFEE74FF0500383F31188BFF3FE
:104AF0006F8FBFF34F8FFEE7049D0C9D2C63022444
:104B000085F87D4400240394029505AC01940A9C29
:104B10000094FFF71BFE0C98FFF7CCFE059807B03A
:104B200030BD2DE9F04385B00746884614461E4641
:104B30009000FFF739FD08B381464FF49060FFF70E
:104B400033FD0546B0B1C0F83090E5B1002385F8DB
:104B50007D34039302950D9B01930C9B0093334688
:104B6000224641463846FFF7F1FD2846FFF7A2FEF0
:104B7000012005E04846FFF795FDE6E74FF0FF30DE
:104B800005B0BDE8F0834FF0FF30F9E710B588B00D
:104B900000240594069407AA06A905A8FCF760FE60
:104BA000059B0293069B019300942346079A1049A4
:104BB0001048FFF779FF104B1860B8B14FF0500361
:104BC00083F31188BFF36F8FBFF34F8F0B4B1B68BD
:104BD00050330B4A13600B4B4FF0FF321A600A4BF5
:104BE00001221A60094B1C60FFF7EEFB08B010BDF4
:104BF000A8B40008E949000814500020404F0020E4
:104C00001C00002018500020385000206450002064
:104C1000024A136801331360704700BFE04F002061
:104C2000F8B53A4B1B68002B69D1394B1D6801352B
:104C30001D60C5B9374B1B681B6843B14FF050036B
:104C400083F31188BFF36F8FBFF34F8FFEE7314AB5
:104C50001168314B186810601960304A13680133CD
:104C60001360FFF75DFD2E4B1B68AB423DD900275B
:104C70002C4B1B68DB6A03EB83039A002A4B9B587F
:104C8000012B00D90127294B1B68002B3CD00127A1
:104C90003AE001271F4B1B681B6843B31D4B1B6881
:104CA000DB68DC6863689D4226D3261D3046FFF72B
:104CB00073FAA36A1BB104F11800FFF76DFAE36AF7
:104CC00001229A401A49086802430A6003EB8303F1
:104CD0009A00314614481044FFF73AFAE26A114B41
:104CE0001B68DB6A9A42D4D2D4E70027D2E70C4B88
:104CF0004FF0FF321A60BBE7094A1360B8E70D4A6C
:104D000013680133136000273846F8BDE04F0020D8
:104D100064500020444F0020484F00201C500020C9
:104D200018500020404F00204C4F002068500020B9
:104D3000E84F00202050002038B5354B1B6843B9A0
:104D40004FF0500383F31188BFF36F8FBFF34F8F82
:104D5000FEE7FFF79FFA2E4B1A68013A1A601B68AC
:104D6000002B4FD12B4B1B680BB900244BE00024C8
:104D7000294B1B681BB3284BDB68DC6804F1180067
:104D8000FFF70AFA251D2846FFF706FAE06A012315
:104D90008340224A11680B43136000EB80002946D0
:104DA0001F4B03EB8000FFF7D3F9E26A1D4B1B6832
:104DB000DB6A9A42DCD31C4B01221A60D8E70CB1A3
:104DC000FFF7AEFC194B1C6884B9174B1C68D4B1B3
:104DD0004FF0E0234FF08052C3F8042DBFF34F8F04
:104DE000BFF36F8F01240EE0013C07D0FFF718FFDF
:104DF0000028F9D00C4B01221A60F5E70B4B00227A
:104E00001A60E2E70024FFF767FA204638BD00BFCA
:104E1000E04F0020D84F002024500020E84F002011
:104E20004C4F0020404F00206850002020500020B0
:104E300010B5A8B10446104B1B6843B14FF05003A6
:104E400083F31188BFF36F8FBFF34F8FFEE7FFF738
:104E5000DFFE00212046FFF7DBFDFFF76DFF48B9BD
:104E60004FF0E0234FF08052C3F8042DBFF34F8F73
:104E7000BFF36F8F10BD00BFE04F0020224B1B68B7
:104E80001BB1224B01221A607047204B00221A608E
:104E90001F4B1B68B3FA83F3DBB2C3F11F0303EBB1
:104EA00083018A001B498A5842B94FF0500383F3AB
:104EB0001188BFF36F8FBFF34F8FFEE7154903EBE8
:104EC000830082000A4450684068506003EB830C02
:104ED0004FEA8C020832114488420DD003EB830361
:104EE0009A000C4B13445B68DA680B4B1A601B6822
:104EF00050330A4A13607047406862469100054A81
:104F00000A445060EAE700BFE04F002068500020EC
:104F1000E84F00204C4F0020404F00201C00002094
:104F2000014B1868704700BF1C00002070B50D4E83
:104F30000D4D761BB61006D0002455F8043B013405
:104F40009847A642F9D1094E094D761B06F014FA8E
:104F5000B61006D0002455F8043B01349847A64209
:104F6000F9D170BDB8B80008B8B80008C0B80008DA
:104F7000B8B80008830730B548D0541E002A3FD087
:104F8000CAB2034601E0013C3AD303F8012B9D0766
:104F9000F9D1032C2DD9CDB245EA05250F2C45EAD0
:104FA000054536D9A4F1100222F00F0C03F1200EB2
:104FB000E6444FEA121C03F1100242E9045542E9AB
:104FC000025510327245F8D10CF1010214F00C0FA9
:104FD00003EB021204F00F0C13D0ACF1040323F026
:104FE00003030433134442F8045B9342FBD10CF0F7
:104FF00003042CB1CAB21C4403F8012B9C42FBD120
:1050000030BD64461346002CF4D1F9E7034614463C
:10501000BFE71A46A446E0E70FB400B5074983B0DE
:1050200004AB086853F8042B8168019300F0A4F9DD
:1050300003B05DF804EB04B0704700BF1C00002013
:1050400070B5054688B008460C46FBF7D9FC224EE1
:10505000AA6B059001214318CDE9066104A802213D
:1050600004940393AC680190029122B3636E13F031
:10507000010FB4F90C309AB201D1980525D59104ED
:1050800006D4626E43F4005322F40052A381626698
:10509000284601AA214603F0EFFA636E002814BFE8
:1050A0004FF0FF350A25DA0702D4A3899B0506D500
:1050B000284608B070BD284603F0E0F8D6E7A06D9A
:1050C00003F080FC284608B070BDA06D03F078FCAA
:1050D000B4F90C309AB2D2E7B4B40008024B0146DE
:1050E0001868FFF7ADBF00BF1C0000202DE9F0419C
:1050F0000E680C460546BEB137688FB1D7F8008000
:10510000B8F1000F08D0D8F8001009B1FFF7EEFF92
:105110004146284603F0AAF93946284603F0A6F985
:105120003146284603F0A2F921462846BDE8F04161
:1051300003F09CB9224B1B68834240D0C16C70B510
:10514000054681B100268C593CB121462468284689
:1051500003F08CF9002CF8D1E96C0436802EF2D1E2
:10516000284603F083F9296C11B1284603F07EF933
:10517000D5F8484154B105F5A676B44206D021468B
:105180002468284603F072F9A642F8D1696D11B17E
:10519000284603F06BF9AB6B83B1EB6B284698475D
:1051A000D5F8E04254B1216811B12846FFF79EFFBF
:1051B00021462846BDE8704003F058B970BD7047DD
:1051C0001C0000202DE9F043694CD4F8008083B026
:1051D00004460E4617461D46B8F1000F03D0D8F816
:1051E0003830002B77D0022F05D0012F00F2AC8091
:1051F000002DC0F2A980636EDA0752D521464046E1
:1052000003F008F8216B41B104F14003994202D048
:10521000404603F02BF900232363B4F90CC00023AC
:105220001CF0800FA361636064D12CF44A6C2CF0F5
:10523000030C022FA4F80CC06AD001AB6A462146C9
:10524000404603F031FCA3891843A081002D2FD0E4
:10525000002E2ED0D8F83830002B38D0009B266096
:10526000AB42B4F90C301CBF43F40063A381012F9F
:1052700004BF43F00103A3819AB213F00803C4E909
:1052800004652CD0D1075DD56D42A561656E002304
:1052900015F00105A36027D00025284603B0BDE81E
:1052A000F083A3899B05A9D4A06D03F089FBA5E732
:1052B000009D284603F028FC0646002847D0A38915
:1052C00043F08003A381D8F83830002BC6D1404684
:1052D00002F0D4FFC2E7404602F0D0FF83E7A360AC
:1052E000656E15F00105D7D1930524D5284603B086
:1052F000BDE8F0832169404603F0B8F8B4F90CC06A
:105300002CF44A6C2CF0030C022FA4F80CC094D19E
:105310000025002204F14303A2600122C4E9043203
:105320002360636E4CF0020CD807A4F80CC0DDD4E7
:105330001CF4007FDAD1A06D03F044FB284603B0D3
:10534000BDE8F083A560CBE74FF0FF35CEE7DDF891
:105350000090A94504D0484603F0D6FB064620B984
:10536000B4F90CC04FF0FF35D3E74D46A7E700BFB7
:105370001C000020000000002DE9F04F2DED0A8BED
:10538000CFB01C460AEE101A91460AEE900A054666
:1053900003F00EFB0368139318460994FBF730FBE8
:1053A00012901DB1AB6B002B00F048821AEE102A50
:1053B000536EDB0740F14781B2F90C309AB2960484
:1053C00009D41AEE101A43F400538B819AB24B6E33
:1053D00023F400534B66150740F1CC801AEE103AC7
:1053E0001B69002B00F0C68002F01A030A2B00F0A4
:1053F000D2804D469FED9C7B2B78002425AACDE9D9
:105400002344CDE91544CDE917448DED107B1AEE08
:10541000909A0E942292904614940694002B00F0D9
:10542000B081AB4604E01BF8013F002B00F0CD80BB
:10543000252BF8D1BBEB050640F0CB809BF8003064
:10544000002B00F09E8100234FF0FF329BF801708B
:105450008DF86B3005930BF1010B04929A462B24C7
:1054600020210BF1010BA7F120035A2B00F2008140
:10547000DFE813F00A03FE00FE000503FE00FE0055
:10548000FE006A00FE00FE0076029E02FE0081021F
:10549000A802FE00A3025B005B005B005B005B00F8
:1054A0005B005B005B005B00FE00FE00FE00FE0098
:1054B000FE00FE00FE008E01FE001602ED018E01D0
:1054C0008E018E01FE00FE00FE00FE000003FE00C5
:1054D000FE004502FE00FE00FE002002FE00C202A9
:1054E000FE00FE009907FE00FE00FE00FE00FE002A
:1054F000FE00FE00FE008E01FE001602EF018E018E
:105500008E018E01E602EF01E801FE00F302FE00CB
:1055100086024702D402E801FE0020027D007507E2
:10552000FE00FE007907FE007D00A7F13003002297
:105530001BF8017B02EB820203EB4202A7F130036E
:10554000092BF5D905928EE7484603F031FA4368F6
:1055500017931846FBF754FA18900646484603F08E
:1055600027FA836815932021002E40F0E9869BF8E6
:10557000007076E71AEE101A1AEE900A1AEE105A18
:1055800001F002FD002841F02783AA8902F01A03E6
:105590000A2B7FF42EAF1AEE101AB1F90E30002B41
:1055A000FFF627AF4B6ED90702D4920541F15A811D
:1055B0001AEE101A1AEE900A23464A464FB0BDEC76
:1055C0000A8BBDE8F04F01F09FBCBBEB050600F075
:1055D000D880249B33442493239B0133072BC8E9B1
:1055E0000056239305DC08F10808069B3344069314
:1055F00024E71AEE101A22AA484604F065FC90B976
:105600000DF19408F1E71AEE101A22AA484604F0A8
:105610005BFC002800F0A680089B23B11AEE900ADC
:10562000194602F023FF1AEE102A536ED80740F1F4
:10563000FA8093895A0601F1D88206984FB0BDECE2
:105640000A8BBDE8F08FB2F90C309F059AB23FF596
:10565000B6AE1AEE105AA86D03F0B2F9B5F90C30D7
:105660009AB2ACE6AFF3008000000000000000003A
:10567000002F00F0868000238DF8D4708DF86B30F9
:105680000122CDE90723039204930C930F930D930A
:1056900035AD1AF002020A9202D0039A0232039246
:1056A0001AF084020B9205D1059A0399561A002E1E
:1056B00000F36883249C8BB1239B0DF16B020133B3
:1056C0000134C8F80020072B4FF0010224942393E3
:1056D000C8F8042000F39F8308F108080A9B83B1EF
:1056E000239B1BAA01330234C8F80020072B4FF07C
:1056F000020224942393C8F8042000F3998308F14C
:1057000008080B9B802B00F06A82049B079A9E1A64
:10571000002E00F3AB821AF4807F40F00682079BD4
:10572000C8F804301C44239BC8F800500133072BF1
:105730002494239300F3198308F108081AF0040F46
:1057400005D0059B039A9D1A002D00F38583DDE9A2
:10575000052303998A42ACBF9B185B180693002C63
:105760007FF451AF00232393089B1BB1089948464F
:1057700002F07CFE0DF194085D462B78002B7FF43F
:1057800050AE249B002B41F01B82002323934AE759
:10579000099B073323F00703B3EC027B8DED107BED
:1057A000DDE91012099322F000430BEE101A0BEE04
:1057B000903A4FF0FF32B0EE4B9AF0EE6B9AB74B47
:1057C00051EC190BFBF776FC002840F0E884B34B52
:1057D00051EC190B4FF0FF32FBF74EFC002840F064
:1057E000DE84DDE9100100220023FBF73BFC0028EA
:1057F00040F067879DF86B30A94DAA4A2AF0800ACD
:105800000321472FC8BF1546002208920391079134
:1058100004920C920F920D92002B3FF43AAF039A30
:105820000132039235E7938999053FF503AF1AEEEC
:10583000104A906D03F0C6F8A389FBE6284602F0F3
:105840001DFDB3E59BF800704AF0200A09E64AF016
:10585000100A1AF0200F099B00F04084073323F050
:1058600007031A465B6852F8084B09921E46002B44
:10587000C0F24384049B013300F0BC822AF0800311
:10588000039354EA060340F0B782049B002B40F0D8
:10589000B882DDF80CA00023049307934EAD1FE1FE
:1058A000099A002352F8041B8DF86B308DF8D41040
:1058B0000992E5E6099C54F8045B00268DF86B60BC
:1058C000002D00F08F85049B5A1C00F051861A466B
:1058D00031462846FBF704F90890002801F02F8193
:1058E000089B0496591B079121EAE1719DF86B30E2
:1058F0000994039108960C960F960D968CE74AF042
:10590000100A1AF0200600F0C983099B073323F020
:1059100007035E6853F8084B09932AF480630393E6
:10592000002300228DF86B20049A551C00F0C080E3
:10593000039921F0800A54EA060140F0B780002A5A
:1059400040F00786002BA6D1039B13F001030793B9
:1059500000F0148430238DF837310DF23715BFE095
:10596000099B53F8042B0592002A80F2D583059AEF
:105970000993524205929BF800704AF0040A70E5C0
:105980001AF0200F40F0D1841AF0100F40F0E78594
:105990001AF0400F40F0A9861AF4007F00F0DF856E
:1059A000099B069953F8042B099311705D46E4E6B0
:1059B0009BF800708DF86B4053E59BF800704AF03F
:1059C000800A4EE55A4612F8017B2A2F01F06F82B9
:1059D000A7F13003092B934698BF002201F2EC8017
:1059E0001BF8017B02EB820203EB4202A7F13003BA
:1059F000092BF5D9049236E54AF010030393039B73
:105A000013F0200600F05983099B073323F00703A6
:105A10005E6853F8084B0993012382E7099B53F80A
:105A2000044B099330234AF0020278278DF86C303A
:105A30001D4B149303928DF86D700026022370E7BE
:105A40009BF80070682F03BF9BF801704AF4007A3E
:105A50000BF1010B4AF0400A03E59BF800706C2F34
:105A600003BF9BF801704AF0200A0BF1010B4AF0CA
:105A7000100AF6E49BF800704AF0080AF1E49BF87B
:105A800000704AF0010AECE49DF86B30002B7FF4C3
:105A90006EAD9BF800708DF86B10E2E4FFFFEF7FB6
:105AA000B8B40008BCB40008C8B40008CDF80CA015
:105AB000012B00F0A181022B4EAD20D1149A04F0ED
:105AC0000F032409D35C05F8013D44EA0674360946
:105AD00054EA0603F3D14EAB5B1BDDF80CA0079331
:105AE000049907989DF86B3081424FF00002B8BFCF
:105AF0000146089203910C920F920D928CE604F0ED
:105B00000703E40844EA4674F608303354EA060111
