:020000040800F2
:1000000000000220911100080D0C00080F0C0008E0
:10001000110C0008130C0008150C0008000000006B
:10002000000000000000000000000000712F000828
:10003000170C00080000000011300008753000089F
:10004000E1110008E1110008E1110008E1110008C8
:10005000E1110008E1110008E1110008E1110008B8
:10006000E1110008E1110008E1110008E1110008A8
:10007000E1110008E1110008E1110008E111000898
:10008000E1110008E1110008E1110008E111000888
:10009000E1110008E1110008E1110008E111000878
:1000A000E1110008E1110008E1110008E111000868
:1000B000E1110008E1110008190C0008E111000825
:1000C000E1110008E1110008E1110008E111000848
:1000D000E1110008290C0008490C0008E111000892
:1000E000E1110008E1110008E1110008E111000828
:1000F000E1110008E1110008E1110008E111000818
:10010000E1110008E1110008590C0008E111000894
:10011000E1110008E1110008690C0008E111000874
:10012000E1110008E1110008E1110008E1110008E7
:10013000E1110008E1110008E1110008E1110008D7
:10014000E1110008E1110008E1110008E1110008C7
:10015000E1110008E1110008E1110008E1110008B7
:10016000E1110008E1110008E1110008E1110008A7
:10017000E1110008E1110008E11100080000000091
:08018000E1110008E111000883
:1001900010B5054C237833B9044B13B10448AFF3C1
:1001A00000800123237010BD6008002000000000C3
:1001B000B841000808B5034B1BB103490348AFF32E
:1001C000008008BD0000000064080020B84100085D
:1001D00053B94AB9002908BF00281CBF4FF0FF31AE
:1001E0004FF0FF3000F074B9ADF1080C6DE904CEAA
:1001F00000F006F8DDF804E0DDE9022304B0704702
:100200002DE9F047089D04468E46002B4DD18A42C9
:10021000944669D9B2FA82F252B101FA02F3C2F1FC
:10022000200120FA01F10CFA02FC41EA030E94408D
:100230004FEA1C48210CBEFBF8F61FFA8CF708FBAE
:1002400016E341EA034306FB07F199420AD91CEB86
:10025000030306F1FF3080F01F81994240F21C81B8
:10026000023E63445B1AA4B2B3FBF8F008FB103300
:1002700044EA034400FB07F7A7420AD91CEB040435
:1002800000F1FF3380F00A81A74240F20781644405
:10029000023840EA0640E41B00261DB1D44000238A
:1002A000C5E900433146BDE8F0878B4209D9002DEE
:1002B00000F0EF800026C5E9000130463146BDE878
:1002C000F087B3FA83F6002E4AD18B4202D38242E2
:1002D00000F2F980841A61EB030301209E46002D91
:1002E000E0D0C5E9004EDDE702B9FFDEB2FA82F2E6
:1002F000002A40F09280A1EB0C014FEA1C471FFA44
:100300008CFE0126200CB1FBF7F307FB131140EA2A
:1003100001410EFB03F0884208D91CEB010103F1F7
:10032000FF3802D2884200F2CB804346091AA4B2B9
:10033000B1FBF7F007FB101144EA01440EFB00FE8D
:10034000A64508D91CEB040400F1FF3102D2A645F2
:1003500000F2BB800846A4EB0E0440EA03409CE791
:10036000C6F12007B34022FA07FC4CEA030C20FA3E
:1003700007F401FA06F31C43F9404FEA1C4900FA5E
:1003800006F3B1FBF9F8200C1FFA8CFE09FB1811DB
:1003900040EA014108FB0EF0884202FA06F20BD94E
:1003A0001CEB010108F1FF3A80F08880884240F29E
:1003B0008580A8F102086144091AA4B2B1FBF9F0E2
:1003C00009FB101144EA014100FB0EFE8E4508D9DD
:1003D0001CEB010100F1FF346CD28E456AD9023862
:1003E000614440EA0840A0FB0294A1EB0E01A14247
:1003F000C846A64656D353D05DB1B3EB080261EBB5
:100400000E0101FA07F722FA06F3F1401F43C5E98E
:10041000007100263146BDE8F087C2F12003D840C4
:100420000CFA02FC21FA03F3914001434FEA1C4706
:100430001FFA8CFEB3FBF7F007FB10360B0C43EAF8
:10044000064300FB0EF69E4204FA02F408D91CEBA8
:10045000030300F1FF382FD29E422DD902386344A6
:100460009B1B89B2B3FBF7F607FB163341EA034146
:1004700006FB0EF38B4208D91CEB010106F1FF3895
:1004800016D28B4214D9023E6144C91A46EA00468C
:1004900038E72E46284605E70646E3E61846F8E61E
:1004A0004B45A9D2B9EB020864EB0C0E0138A3E767
:1004B0004646EAE7204694E74046D1E7D0467BE748
:1004C000023B614432E7304609E76444023842E7C0
:1004D000704700BF10B5854B1B78012B07D0013842
:1004E000052830D8DFE800F0D884AE30065A80F016
:1004F0000700F4E77E4C0821204601F07BFF08212D
:10050000204602F0B3F87B4BD3ED007A9FED7A7A68
:1005100067EE877A2368FCEEE77AC3ED0E7A042152
:10052000204601F0E5FE0421204602F09FF82368F2
:1005300041F269025A630021204601F05BFF00216D
:10054000204602F017F810BD694C0421204601F046
:1005500051FF0421204602F089F8664BD3ED007A62
:100560009FED657A67EE877A2368FCEEE77AC3ED44
:100570000F7A0821204601F0BBFE0821204602F038
:1005800075F8236841F269025A630021204601F0A0
:1005900031FF0021204601F0EDFFD4E7544C00214B
:1005A000204601F027FF0021204602F05FF8514B62
:1005B000D3ED007A9FED507A67EE877A2368FCEEE0
:1005C000E77AC3ED0F7A0821204601F091FE082159
:1005D000204602F04BF8236841F269029A63042135
:1005E000204601F007FF0421204601F0C3FFAAE7DF
:1005F0003F4C0821204601F0FDFE0821204602F074
:1006000035F83C4BD3ED007A9FED3B7A67EE877A65
:100610002368FCEEE77AC3ED0D7A0021204601F055
:1006200067FE0021204602F021F8236841F26902AA
:100630009A630421204601F0DDFE0421204601F0EA
:1006400099FF80E72A4C0421204601F0D3FE0421C3
:10065000204602F00BF8274BD3ED007A9FED267A67
:1006600067EE877A2368FCEEE77AC3ED0D7A002106
:10067000204601F03DFE0021204601F0F7FF2368EF
:1006800041F26902DA630821204601F0B3FE082135
:10069000204601F06FFF56E7154C0021204601F07F
:1006A000A9FE0021204601F0E1FF124BD3ED007AB4
:1006B0009FED117A67EE877A2368FCEEE77AC3ED47
:1006C0000E7A0421204601F013FE0421204601F099
:1006D000CDFF236841F26902DA630821204601F068
:1006E00089FE0821204601F045FF2CE7000000208C
:1006F0007C080020040000200040834538B50A4DE6
:100700000121284600F042FF44000221284600F063
:100710003DFF044364004FF48051044800F036FF6D
:10072000204300F0070038BD00000240001C0240DA
:1007300038B50546FFF7E2FF0446FFF7CBFE2B680E
:10074000596B0C4A13680B4413600B4A136801334E
:1007500013600A4B1A5D0A4B1B689A4205D0094B7D
:1007600000221A70064B1C6038BD064B01221A701D
:10077000F8E700BFD0080020CC0800204042000865
:10078000C4080020C8080020B5EE400AF1EE10FAB7
:1007900010D1DFED187A60EEA70AF6EE007A60EE6F
:1007A000A70A154BC3ED020AF1EE600A134BC3ED25
:1007B000020A7047F5EE400AF1EE10FA06D10F4B2F
:1007C00083ED020A0C4B83ED020A7047DFED097AD4
:1007D00060EEA70AF6EE007A60EEA70A70EE607A85
:1007E000064BC3ED027A70EE800A034BC3ED020A9A
:1007F000704700BF3333333E340900201C0900200A
:10080000034B1B6813F0800FFAD0014B5860704700
:100810000010014010B50D4B4FF0FE321A60EE2271
:1008200083F820200A4A52685A6000229A60094AD6
:100830005268DA60002405E0044B185DFFF7E0FF22
:100840000134E4B2202CF7D910BD00BFF808002015
:100850001C0900203409002008B54FF47A7002F01A
:10086000E0FAFAE708B5054B9A685A60044B9A68B3
:100870005A60642002F0D5FAF5E700BF1C09002099
:100880003409002008B54FF47A7002F0CAFAFAE78A
:1008900008B5FFF7BFFF642002F0C3FAF9E70000D4
:1008A000034B0360034B0B6080231360704700BF52
:1008B000600B00205C09002010B59CB0244C0DF1A9
:1008C000540CA646BEE80F00ACE80F009EE80700F7
:1008D0008CE80700002115A802F06EFA1D4B186085
:1008E0000DF1380C04F11C0EBEE80F00ACE80F004F
:1008F0009EE807008CE8070000210EA802F05CFAD1
:10090000154B18600DF11C0C04F1380EBEE80F00F9
:10091000ACE80F009EE807008CE80700002107A85C
:1009200002F04AFA0D4B1860EE4604F1540CBCE894
:100930000F00AEE80F009CE807008EE807000021DA
:10094000684602F039FA064B18601CB010BD00BFB3
:10095000D041000858090020540900205009002007
:100960004C090020F0B58BB0002405940694079440
:10097000089409940194254B1A6B42F080021A6383
:100980001A6B02F080020192019A02941A6B42F0F3
:1009900001021A631A6B02F001020292029A039496
:1009A0001A6B42F008021A631A6B02F008020392F3
:1009B000039A04941A6B42F004021A631B6B03F04F
:1009C00004030493049B124F22464FF400613846FF
:1009D00000F0E3FD0F4E22460121304600F0DDFD20
:1009E0004FF400630593012506950794089405A923
:1009F000384600F0D9FC059506950794089405A99A
:100A0000304600F0D1FC0BB0F0BD00BF0038024012
:100A100000080240000C024008B50268034B9A42ED
:100A200000D008BD00F0F8FBFBE700BF001000405D
:100A300072B6FEE700B595B03022002108A803F099
:100A400019F90023039304930593069307930193E5
:100A5000214A116C41F080511164126C02F08052F5
:100A60000192019A02931D4B1A6842F480421A6067
:100A70001B6803F480430293029B012308934FF405
:100A80008033099302230E934FF480020F920822C1
:100A900010924FF4A872119212930423139308A892
:100AA00000F082FD98B90F230393022304930023DF
:100AB00005934FF4A05306934FF4805307930521F9
:100AC00003A800F0D7FF20B915B05DF804FBFFF7CD
:100AD000AFFFFFF7ADFF00BF0038024000700040DD
:100AE00008B500F07FFBFFF7A5FFFFF73BFF00F025
:100AF0005BFA00F035F900F061F900F09FFA00F0C0
:100B0000B7FA074C0021204601F0F2FB04212046F1
:100B100001F0EEFBFFF7D0FE02F049F9FEE700BF5F
:100B20003010002000B583B0002200920D4B596CAC
:100B300041F480415964596C01F48041009100995D
:100B40000192196C41F0805119641B6C03F08053C1
:100B50000193019B0F216FF0010000F081FB03B0B6
:100B60005DF804FB0038024030B589B0044600232C
:100B70000193214B1A6C42F010021A641B6C03F0B3
:100B800010030193019B02A903A801F049F8069BF9
:100B9000CBB901F025F803461848A0FB03239B0CB2
:100BA000013B1748174A026040F2E732C2604360D7
:100BB000002303618360836101F04EFA054630B182
:100BC000284609B030BD01F00BF84300E4E70C48BB
:100BD00001F0DAF805460028F2D1362000F078FB63
:100BE0000F2C01D90125EBE700222146362000F029
:100BF00037FB054B1C60E3E70038024083DE1B43F4
:100C0000E00F00200010004010000020FEE7FEE78B
:100C1000FEE7FEE7FEE7704708B5024801F0FBF883
:100C200008BD00BF7810002010B5054C21220549F1
:100C3000204602F09AF8204601F03AFF10BD00BFAE
:100C400008110020D408002008B5024801F030FF48
:100C500008BD00BF4C11002008B5024801F0DBF8C8
:100C600008BD00BFC010002008B5024801F0D3F84D
:100C700008BD00BFE00F002002681D4B9A4200D063
:100C8000704710B51B4C212221461B4802F06DF81D
:100C90002378FE2B0CD0194B00221A70174B1B78AF
:100CA000212B0AD021221349134802F05EF810BD0F
:100CB000124A137801331370F0E70E4B1B68B3F13F
:100CC000FE3F03D00D4B00221A70EBE7094B93F85F
:100CD0002030EE2BF6D1074A536809490B61D268E0
:100CE00000EE902A00EE103AFFF74EFDEAE700BF53
:100CF00000100140D4080020081100202810002016
:100D0000F808002010B503460C4A0D490D4800684C
:100D100040B10C4800680344521A934206D8094A6D
:100D2000136010BD0748084C0460F2E702F078FF3A
:100D30000C2303604FF0FF30F3E700BF00000220F8
:100D4000000400002C100020204F0020034AD2F89D
:100D5000883043F47003C2F88830704700ED00E03B
:100D600000B587B000230293039304930593009387
:100D700001931048104A02605322426083604FF68C
:100D8000FF72C2600361836102A901F088FB58B958
:100D900050230093002301936946064801F0A2FC0A
:100DA00028B907B05DF804FBFFF742FEF0E7FFF754
:100DB0003FFEF6E7781000200008004000B587B03D
:100DC0000023029303930493059300930193104827
:100DD000104A02605322426083604FF6FF72C26085
:100DE0000361836102A901F05AFB58B950230093B3
:100DF000002301936946064801F074FC28B907B046
:100E00005DF804FBFFF714FEF0E7FFF711FEF6E7CD
:100E1000C0100020000C00400268094B9A4200D02C
:100E2000704782B000230193064B1A6C42F0020215
:100E30001A641B6C03F002030193019B02B070471C
:100E4000000400400038024030B58BB00023059309
:100E500006930793089309930368374A934204D093
:100E6000364A93422AD00BB030BD00240094344B54
:100E70001A6C42F004021A641A6C02F00402009226
:100E8000009A01941A6B42F008021A631B6B03F07C
:100E900008030193019B4FF4E0430593022306935B
:100EA000099305A9274800F07FFA224605211E2054
:100EB00000F0D6F91E2000F00BFAD4E700240294CB
:100EC0001F4B1A6C42F008021A641A6C02F00802F6
:100ED0000292029A03941A6B42F001021A631A6B8F
:100EE00002F001020392039A04941A6B42F080020A
:100EF0001A631B6B03F080030493049B0323059385
:100F000002250695099505A90F4800F04DFA4FF402
:100F100080530593069507940894099505A90B48F5
:100F200000F042FA22460521322000F099F93220E1
:100F300000F0CEF997E700BF00080040000C004029
:100F400000380240000C024000000240001C024039
:100F500000B587B000230193029303930493059394
:100F600002680E4B9A4202D007B05DF804FB0023E2
:100F700000930B4B1A6B42F001021A631B6B03F0D8
:100F800001030093009BC023019302230293059366
:100F900001A9044800F008FAE6E700BF0004004099
:100FA000003802400000024000B58BB000230893D7
:100FB0000993019302930393049305930693079374
:100FC0001C481D4A0260436083604FF6FF72C26096
:100FD0000361836101F06CF8F8B900230893099369
:100FE00008A9144801F07EFBD0B9602301930022C8
:100FF00002920392059201A90E4801F0BDF890B942
:1010000004220DEB02010B4801F0B6F870B9094853
:10101000FFF79EFF0BB05DF804FBFFF709FDDCE76F
:10102000FFF706FDE1E7FFF703FDE9E7FFF700FD46
:10103000EDE700BF301000200004004008B50A486A
:101040000A4B03604FF4E133436000238360C360C5
:1010500003610C2242618361C36101F071FC00B93C
:1010600008BDFFF7E5FCFBE7081100200010014078
:1010700008B50A480A4B03604FF4E133436000238C
:101080008360C36003610C2242618361C36101F02C
:1010900057FC00B908BDFFF7CBFCFBE74C11002063
:1010A0000044004030B58BB00023059306930793AE
:1010B000089309930368324A934204D0314A934219
:1010C00033D00BB030BD0446002501952E4B5A6C31
:1010D00042F010025A645A6C02F010020192019A16
:1010E00002951A6B42F001021A631B6B03F00103B5
:1010F0000293029B4FF4C0630593022306930323DC
:1011000008930723099305A9204800F04DF92A46C2
:101110000521252000F0A4F8252000F0D9F8226848
:10112000D36843F02003D360CBE700240394164B2D
:101130001A6C42F400321A641A6C02F40032039200
:10114000039A04941A6B42F001021A631B6B03F0BA
:1011500001030493049B0C230593022306930323AA
:1011600008930723099305A9084800F01DF92246B2
:101170000521262000F074F8262000F0A9F8A0E749
:1011800000100140004400400038024000000240CE
:10119000DFF834D00D480E490E4A002302E0D4583F
:1011A000C4500433C4188C42F9D30B4A0B4C0023AF
:1011B00001E013600432A242FBD3FFF7C7FD02F047
:1011C00035FDFFF78DFC7047000002200000002075
:1011D0005C080020B042000860080020204F00207A
:1011E000FEE7000008B50B4B1A6842F400721A6063
:1011F0001A6842F480621A601A6842F480721A60B7
:10120000032000F01BF80F20FFF7AEFCFFF78AFC6D
:10121000002008BD003C0240034A1168034B1B78C4
:101220000B441360704700BF901100200C00002099
:10123000014B1868704700BF90110020074AD3681F
:1012400023F4E0631B041B0C000200F4E060034382
:1012500043F0BF6343F40033D360704700ED00E018
:1012600000B5194BDB68C3F30223C3F1070CBCF1D3
:10127000040F28BF4FF0040C03F1040EBEF1060F5B
:1012800018D9033B4FF0FF3E0EFA0CFC21EA0C018B
:1012900099400EFA03F322EA0303194300280BDBFB
:1012A0000901C9B200F1604000F5614080F8001307
:1012B0005DF804FB0023E5E700F00F000901C9B267
:1012C000024B1954F4E700BF00ED00E014ED00E01C
:1012D000002807DB00F01F02400901239340024A67
:1012E00042F82030704700BF00E100E070B50446CE
:1012F000866DFFF79DFF94F83530DBB2022B06D0E8
:1013000080236365002384F83430012070BD0546D6
:101310002268136823F0160313602268536923F0D0
:1013200080035361236CE3B12268136823F0080340
:1013300013602268136823F00103136023681B689D
:1013400013F0010F11D0FFF773FF431B052BF5D9E5
:1013500020236365032084F83500002384F83430AB
:10136000D4E7A36C002BDFD1E3E7E26D3F2393408A
:10137000B360012384F83530002084F83400C5E7D9
:1013800090F83530DBB2022B03D080234365012077
:101390007047052380F835300268136823F0010395
:1013A000136000207047000000230F2B00F2E48040
:1013B00070B582B060E085685E000324B44025EA21
:1013C0000405CC68B4402C438460456825EA0205D6
:1013D0004C68C4F300129A402A4342605AE0DC0889
:1013E000083450F8246003F0070295000F22AA4049
:1013F00026EA020E0A69AA4042EA0E0240F82420B8
:101400005CE0072200E0002202FA0EF22A430234D6
:101410005A4D45F824205A4A94686FEA0C0224EA8F
:101420000C054E6816F4801F01D04CEA0405544C9C
:10143000A560E46802EA04054E6816F4001F01D0B6
:101440004CEA04054E4CE560646802EA04054E6807
:1014500016F4003F01D04CEA0405494C656024684D
:1014600022404D6815F4803F01D04CEA0402444C00
:10147000226001330F2B7DD801229A400C6804EAC8
:10148000020C32EA0404F4D14C6804F00304013C79
:10149000012C90D94A6802F00302032A09D0C468DB
:1014A0005D000322AA4024EA02048A68AA4022437B
:1014B000C2604A6802F00302022A90D004684FEA30
:1014C000430E032202FA0EF224EA02044A6802F0F2
:1014D000030202FA0EF2224302604A6812F4403F0D
:1014E000C7D000220192274A546C44F480445464CB
:1014F000526C02F480420192019A9C08A51C1F4A7A
:1015000052F8255003F003024FEA820E0F2202FA2E
:101510000EF225EA02051C4A90423FF474AF02F530
:10152000806290421AD002F58062904218D002F593
:101530008062904216D002F58062904214D002F58B
:101540008062904212D002F58062904210D002F583
:10155000806290423FF455AF082255E7012253E7DD
:10156000022251E703224FE704224DE705224BE711
:10157000062249E702B070BD704700BF0038014045
:10158000003C01400038024000000240036919425B
:1015900001D001207047002070470AB18161704777
:1015A0000904816170470000002800F0E08170B5F7
:1015B00082B00446036813F0010F3BD09F4B9B6839
:1015C00003F00C03042B2CD09C4B9B6803F00C0302
:1015D000082B21D06368B3F5803F4FD0B3F5A02F1F
:1015E00052D0964B1A6822F480321A601A6822F49C
:1015F00080221A606368002B50D0FFF719FE054661
:101600008E4B1B6813F4003F14D1FFF711FE401BF3
:101610006428F5D90320B1E1884B5B6813F4800F8F
:10162000D8D0864B1B6813F4003F03D06368002BAF
:1016300000F09F81236813F0020F54D07F4B9B680A
:1016400013F00C0F3ED07D4B9B6803F00C03082B6E
:1016500033D0E368002B68D0794B01221A60FFF782
:10166000E7FD0546754B1B6813F0020F54D1FFF7D9
:10167000DFFD401B0228F5D903207FE16F4A136884
:1016800043F480331360B5E76C4B1A6842F4802250
:101690001A601A6842F480321A60ABE7FFF7C8FD9F
:1016A0000546664B1B6813F4003FC3D0FFF7C0FD2F
:1016B000401B6428F5D9032060E1604B5B6813F49C
:1016C000800FC6D15D4B1B6813F0020F03D0E36897
:1016D000012B40F05081594A136823F0F803216927
:1016E00043EAC1031360236813F0080F42D0636913
:1016F0006BB3534B0122C3F8802EFFF799FD0546CB
:101700004E4B5B6F13F0020F34D1FFF791FD401B7E
:101710000228F5D9032031E1484A136823F0F80381
:10172000216943EAC1031360DDE7454B00221A60DB
:10173000FFF77EFD0546414B1B6813F0020FD2D028
:10174000FFF776FD401B0228F5D9032016E13C4B3C
:101750000022C3F8802EFFF76BFD0546374B5B6F09
:1017600013F0020F06D0FFF763FD401B0228F5D9E6
:10177000032003E1236813F0040F77D02F4B1B6C79
:1017800013F0805F33D1002301932C4B1A6C42F08D
:1017900080521A641B6C03F080530193019B012556
:1017A000284B1B6813F4807F23D0A368012B34D00F
:1017B000052B38D0214B1A6F22F001021A671A6FDD
:1017C00022F004021A67A368002B3DD0FFF730FD1A
:1017D00006461A4B1B6F13F0020F46D1FFF728FD88
:1017E000801B41F288339842F3D90320C6E00025DC
:1017F000D6E7144A136843F480731360FFF718FDAB
:101800000646104B1B6813F4807FCED1FFF710FD06
:10181000801B0228F5D90320B0E0084A136F43F07B
:1018200001031367CFE7054B1A6F42F004021A67F2
:101830001A6F42F001021A67C5E700BF0038024084
:101840000000474200700040FFF7F2FC0646524B92
:101850001B6F13F0020F08D0FFF7EAFC801B41F268
:1018600088339842F3D9032088E0EDB9A369002BAF
:1018700000F08380484A926802F00C02082A51D096
:10188000022B17D0454B00221A66FFF7D1FC044605
:10189000414B1B6813F0007F42D0FFF7C9FC001BCF
:1018A0000228F5D9032069E03B4A136C23F08053EA
:1018B0001364DBE7394B00221A66FFF7B9FC0546D3
:1018C000354B1B6813F0007F06D0FFF7B1FC401BBF
:1018D0000228F5D9032051E0E369226A1343626AC2
:1018E00043EA8213A26A5208013A43EA0243E26AD7
:1018F00043EA0263284A5360284B01221A66FFF725
:1019000097FC0446244B1B6813F0007F06D1FFF7B9
:101910008FFC001B0228F5D903202FE000202DE0CA
:1019200000202BE0012B2BD01B4B5B6803F48001C4
:10193000E269914226D103F03F02216A8A4223D113
:10194000616A47F6C0721A40B2EB811F1ED103F4E0
:101950004031A26A5208013AB1EB024F18D103F0AC
:101960007063E26AB3EB026F14D1002006E001203D
:101970007047012002E0012000E0002002B070BDAD
:101980000120FBE70120F9E70120F7E70120F5E757
:101990000120F3E70120F1E7003802400000474250
:1019A00008B5314B9B6803F00C03042B57D0082B70
:1019B00057D12D4B5A6802F03F025B6813F4800F39
:1019C0002AD0294B5968C1F3881C4FEA4C11B1EB5E
:1019D0000C006EEB0E0E4FEA8E1343EA906381010A
:1019E000091A63EB0E03DB0043EA5173C90011EBE4
:1019F0000C0C43F10003590200234FEA4C2041EA4A
:101A0000DC51FEF7E5FB184B5B68C3F30143013380
:101A10005B00B0FBF3F025E0134B5968C1F3881C61
:101A20004FEA4C11B1EB0C006EEB0E0E4FEA8E1329
:101A300043EA90638101091A63EB0E03DB0043EA7A
:101A40005173C90011EB0C0C43F100039902002300
:101A50004FEA8C2041EA9C51FEF7BAFBD3E70348DA
:101A600000E0034808BD00BF0038024000127A00C1
:101A70000024F400002800F09B8070B50D46044659
:101A80004F4B1B6803F007038B4208D2CBB24C4A82
:101A90001370136803F007038B4240F08B802368B8
:101AA00013F0020F17D013F0040F04D0454A9368C7
:101AB00043F4E0539360236813F0080F04D0414AC5
:101AC000936843F4604393603E4A936823F0F003C5
:101AD000A1680B439360236813F0010F32D0636851
:101AE000012B21D09A1E012A25D9364A126812F0FC
:101AF000020F61D033498A6822F0030213438B60DE
:101B0000FFF796FB06462F4B9B6803F00C036268B9
:101B1000B3EB820F16D0FFF78BFB801B41F28833AB
:101B20009842F0D9032042E0264A126812F4003F9E
:101B3000E0D101203BE0234A126812F0007FD9D1A6
:101B4000012034E01E4B1B6803F00703AB4207D9AA
:101B5000EAB21B4B1A701B6803F00703AB422DD18E
:101B6000236813F0040F06D0164A936823F4E05359
:101B7000E1680B439360236813F0080F07D0114A04
:101B8000936823F46043216943EAC1039360FFF73C
:101B900007FF0C4B9B68C3F303130B4AD35CD8407D
:101BA0000A4B18600A4B1868FEF7DEFF002070BD74
:101BB000012070470120FAE70120F8E70120F6E74D
:101BC000003C024000380240784200080800002033
:101BD00010000020014B1868704700BF080000206B
:101BE00008B5FFF7F7FF044B9B68C3F38223034A52
:101BF000D35CD84008BD00BF0038024088420008CE
:101C000008B5FFF7E7FF044B9B68C3F34233034A71
:101C1000D35CD84008BD00BF0038024088420008AD
:101C20000F2303600B4B9A6802F0030242609A682C
:101C300002F0F00282609A6802F4E052C2609B688F
:101C4000DB0803F4E0530361034B1B6803F0070355
:101C50000B60704700380240003C024030B4036A19
:101C600023F001030362036A4268846924F0730469
:101C70000D682C4323F0020C8B6843EA0C03104DD3
:101C8000A84203D005F58065A84205D123F00803DA
:101C9000CD682B4323F00403094DA84203D005F57A
:101CA0008065A84205D122F440724D692A438D69AE
:101CB0002A43426084614A684263036230BC7047D1
:101CC0000000014030B4036A23F480730362036AA6
:101CD0004268C46924F0730C0C6844EA0C0523F4D0
:101CE00000738C6843EA0423114CA04203D004F52E
:101CF0008064A04206D123F40063CC6843EA042345
:101D000023F480630A4CA04203D004F58064A0420F
:101D100007D122F440524C6942EA04128C6942EA2B
:101D200004124260C5614A68C263036230BC7047F6
:101D30000000014030B4036A23F480530362036A55
:101D40004468C26922F4E6420D6842EA052223F49F
:101D500000538D6843EA0533094DA84203D005F5C9
:101D60008065A84204D124F480444D6944EA851476
:101D70004460C2614A680264036230BC704700BFBD
:101D8000000001407047000090F83D30DBB2012BAD
:101D900037D1022380F83D300268D36843F0010355
:101DA000D3600368194A934220D0B3F1804F1DD00D
:101DB000A2F57C42934219D002F58062934215D07D
:101DC00002F58062934211D002F5784293420DD021
:101DD00002F57052934209D0A2F59432934205D095
:101DE0001A6842F001021A60002070479A6802F0F7
:101DF0000702062A07D01A6842F001021A60002082
:101E00007047012070470020704700BF000001406C
:101E100070477047704710B5044603681A6912F09E
:101E2000020F11D0DA6812F0020F0DD06FF002022B
:101E30001A610123037703689B6913F0030F70D0C5
:101E4000FEF776FC0023237723681A6912F0040F4B
:101E500012D0DA6812F0040F0ED06FF004021A618B
:101E60000223237723689B6913F4407F5FD02046C9
:101E7000FEF75EFC0023237723681A6912F0080F2F
:101E800012D0DA6812F0080F0ED06FF008021A6153
:101E9000042323772368DB6913F0030F4ED0204619
:101EA000FEF746FC0023237723681A6912F0100F0F
:101EB00012D0DA6812F0100F0ED06FF010021A6113
:101EC000082323772368DB6913F4407F3DD0204645
:101ED000FEF72EFC0023237723681A6912F0010F06
:101EE00003D0DA6812F0010F36D123681A6912F0B4
:101EF000800F03D0DA6812F0800F34D123681A699A
:101F000012F0400F03D0DA6812F0400F32D123688C
:101F10001A6912F0200F03D0DA6812F0200F30D1C6
:101F200010BDFFF775FF2046FFF773FF8AE72046D5
:101F3000FFF76EFF2046FFF76CFF9BE72046FFF799
:101F400067FF2046FFF765FFACE72046FFF760FF1D
:101F50002046FFF75EFFBDE76FF001021A612046E1
:101F6000FEF75AFDC1E76FF080021A61204600F0CB
:101F700000FCC3E76FF040021A612046FFF74AFFFA
:101F8000C5E76FF020021A61204600F0F1FBC7E7B9
:101F90000368304A904212D0B0F1804F0FD0A2F5C2
:101FA0007C4290420BD002F58062904207D002F54D
:101FB0008062904203D002F57842904203D123F030
:101FC00070034A681343234A90422AD0B0F1804FED
:101FD00027D0A2F57C42904223D002F58062904245
:101FE0001FD002F5806290421BD002F578429042E9
:101FF00017D002F57052904213D002F580629042E1
:102000000FD002F5806290420BD0A2F59832904238
:1020100007D002F58062904203D002F580629042C0
:1020200003D123F44073CA68134323F080034A6941
:10203000134303608B68C3620B688362054B98424D
:1020400003D003F58063984201D10B690363012338
:10205000436170470000014040B310B5044690F85A
:102060003D30F3B1022384F83D30214651F8040B92
:10207000FFF78EFF012384F8463084F83E3084F861
:102080003F3084F8403084F8413084F8423084F89E
:10209000433084F8443084F8453084F83D300020E3
:1020A00010BD80F83C30FFF76DFEDBE70120704784
:1020B00040B310B5044690F83D30F3B1022384F8E4
:1020C0003D30214651F8040BFFF762FF012384F8ED
:1020D000463084F83E3084F83F3084F8403084F84D
:1020E000413084F8423084F8433084F8443084F836
:1020F000453084F83D30002010BD80F83C30FEF7BC
:102100008BFEDBE70120704730B4036A23F0100335
:102110000362036A4468826922F4E6420D6842EA77
:10212000052223F020038D6843EA0513114DA842D0
:1021300003D005F58065A84206D123F08003CD6861
:1021400043EA051323F040030A4DA84203D005F5E6
:102150008065A84207D124F440644D6944EA8504AF
:102160008D6944EA8504446082614A68826303623F
:1021700030BC70470000014038B590F83C30012B6E
:1021800066D004460D46012380F83C300C2A5AD80C
:10219000DFE802F0075959591B5959593059595913
:1021A00044000068FFF75AFD2268936943F0080372
:1021B00093612268936923F0040393612268936911
:1021C00029690B43936100203EE00068FFF79CFF04
:1021D0002268936943F4006393612268936923F44E
:1021E0008063936122689369296943EA01239361BB
:1021F000002029E00068FFF765FD2268D36943F0FD
:102200000803D3612268D36923F00403D3612268F1
:10221000D36929690B43D361002015E00068FFF7FB
:1022200089FD2268D36943F40063D3612268D369CE
:1022300023F48063D3612268D369296943EA0123C7
:10224000D361002000E00120002384F83C3038BD39
:102250000220FCE770B49446046A24F0010404628E
:102260008469066A184DA8421CD0B0F1804F19D07D
:10227000164A904216D002F58062904212D002F5C2
:10228000806290420ED002F5784290420AD002F568
:102290007052904206D0A2F59432904202D044F09F
:1022A000010203E024F0030242EA0C0222F0F002F1
:1022B0001B01DBB2134326F00A0201F00A011143AD
:1022C0008361016270BC704700000140000400405F
:1022D00001F01F01012303FA01FC036A23EA0C0346
:1022E0000362036A02FA01F10B43036270470000C4
:1022F00010B504460846002942D194F83E30DBB2BE
:10230000013B18BF0123002B6ED1002851D10223BD
:1023100084F83E30012201462068FFF7D9FF236888
:10232000334A934203D002F58062934203D15A6C40
:1023300042F400425A6423682D4A934249D0B3F1D3
:10234000804F46D0A2F57C42934242D002F5806293
:1023500093423ED002F5806293423AD002F5784231
:10236000934236D002F57052934232D0A2F59432A5
:1023700093422ED01A6842F001021A60002032E027
:10238000042908D008290DD094F84130DBB2013B74
:1023900018BF0123B7E794F83F30DBB2013B18BF09
:1023A0000123B0E794F84030DBB2013B18BF0123B2
:1023B000A9E7042805D0082807D0022384F8413073
:1023C000A8E7022384F83F30A4E7022384F84030D2
:1023D000A0E79A6802F00702062A07D01A6842F0BE
:1023E00001021A60002010BD0120FCE70020FAE77E
:1023F0000000014038B504460D4600220068FFF792
:1024000067FF23681D4A934218D002F58062934209
:1024100014D02368196A41F21112114208D1196AC5
:1024200040F24442114203D11A6822F001021A60BC
:102430009DB9012384F83E30002038BD196A41F26D
:1024400011121142E5D1196A40F244421142E0D121
:102450005A6C22F400425A64DBE7042D05D0082DA3
:1024600007D0012384F84130E6E7012384F83F30A8
:10247000E2E7012384F84030DEE700BF00000140BE
:1024800001F01F01042303FA01FC036A23EA0C0391
:102490000362036A02FA01F10B43036270470028EA
:1024A00065D070B588B00E46044690F83D30002BDC
:1024B00058D0022384F83D30214651F8040BFFF731
:1024C00067FDB368032231682068FFF7C3FE226806
:1024D000936923F00C0393612268936971680B433D
:1024E00093612268536843F08003536022689368C5
:1024F00023F0700393602268936843F04003936075
:102500002268936823F0070393602268936843F07E
:1025100004039360002505950695702301930795A4
:1025200004950395F368029301A92068FFF7ECFD79
:102530002268536823F0700353602268536843F0A5
:1025400050035360012384F8463084F83E3084F809
:102550003F3084F8423084F8433084F83D302846D8
:1025600008B070BD80F83C30FEF76EFCA1E701209A
:102570007047000010B50446084600293BD194F886
:102580004230DBB2013B18BF0123002B67D100288A
:102590004AD1022384F84230042201462068FFF722
:1025A0006FFF2268536C43F40043536423682E4A40
:1025B000934249D0B3F1804F46D0A2F57C4293427A
:1025C00042D002F5806293423ED002F5806293428F
:1025D0003AD002F57842934236D002F570529342D7
:1025E00032D0A2F5943293422ED01A6842F0010202
:1025F0001A60002032E0042908D008290DD094F890
:102600004530DBB2013B18BF0123BEE794F84330ED
:10261000DBB2013B18BF0123B7E794F84430DBB2CB
:10262000013B18BF0123B0E7042805D0082807D0D4
:10263000022384F84530AFE7022384F84330ABE748
:10264000022384F84430A7E79A6802F00702062ABA
:1026500007D01A6842F001021A60002010BD012064
:10266000FCE70020FAE700BF0000014038B504464F
:102670000D4600220068FFF703FF2368196A41F244
:102680001112114208D1196A40F24442114203D199
:102690005A6C22F400425A642368196A41F21112FA
:1026A000114208D1196A40F24442114203D11A681A
:1026B00022F001021A6025B9012384F8423000207B
:1026C00038BD042D05D0082D07D0012384F84530EE
:1026D000F5E7012384F84330F1E7012384F844301F
:1026E000EDE7000090F83C30012B3DD010B4012301
:1026F00080F83C30022380F83D3003685A689C68BB
:1027000022F0700C0A6842EA0C025A600368174A09
:1027100093421AD0B3F1804F17D0A2F57C42934276
:1027200013D002F5806293420FD002F5806293428B
:102730000BD002F57842934207D002F570529342D3
:1027400003D0A2F59432934204D124F080044A6865
:1027500014439C60012380F83D30002380F83C3016
:1027600018465DF8044B7047022070470000014096
:1027700070477047026802F10C0353E8003F23F4EE
:1027800090730C3242E800310029F3D1026802F163
:10279000140353E8003F23F00103143242E80031F0
:1027A0000029F3D1036B012B05D0202380F83E30A4
:1027B000002303637047026802F10C0353E8003FF3
:1027C00023F010030C3242E800310029F3D1ECE78A
:1027D00090F83D30DBB2212B01D002207047836896
:1027E000B3F5805F17D0036A5A1C02621A78036837
:1027F0005A60C38C9BB2013B9BB2C3844BB9026845
:10280000D36823F08003D3600268D36843F04003A9
:10281000D360002070470369002BE4D1036A1B8852
:102820000268C3F308035360036A02330362E0E7FC
:1028300038B504460268136923F44053C1680B435A
:10284000136183680269134342691343C2691A43DF
:102850000168CB6823F4164323F00C031343CB60C9
:102860000268536923F4407381690B435361036821
:10287000314A934206D002F58062934202D0FFF7BC
:10288000AFF901E0FFF7BCF9E369B3F5004F29D0D8
:102890000021031849411B1841F10001C90041EA18
:1028A0005371DB00181863684FEA83024FEA937391
:1028B00041F10001FDF78CFC204DA5FB00325109D0
:1028C000642303FB11031B013233A5FB03235B09C4
:1028D00003F0F00202EB011203F00F03216813442E
:1028E0008B6038BD0023021843EB0301121841F13D
:1028F0000001C90041EA5271D200101841F10001F3
:10290000626892185B41FDF763FC0C4DA5FB003239
:102910005109642303FB1103DB003233A5FB0323BE
:102920005B095A0002F4F87202EB011203F007038C
:10293000216813448B60D4E7001001401F85EB51E0
:1029400058B310B5044690F83D300BB3242384F8F7
:102950003D302268D36823F40053D3602046FFF74C
:1029600067FF2268136923F4904313612268536957
:1029700023F02A0353612268D36843F40053D360E1
:1029800000202064202384F83D3084F83E3010BDC0
:1029900080F83C30FEF786FBD8E70120704770478F
:1029A00008B50168CA6822F04002CA60202280F897
:1029B0003D20FFF7F4FF002008BD704708B5806B8D
:1029C0000023C385C384FFF7F8FF08BD704790F864
:1029D0003E30DBB2222B67D18368B3F5805F4DD0E8
:1029E000826AB3F5805F04D0002B54D10369002BB9
:1029F00051D103685B681370836A01338362C38DAE
:102A00009BB2013B9BB2C385002B4FD100B583B075
:102A10000268D36823F02003D3600268D36823F4EC
:102A20008073D3600268536923F00103536120234C
:102A300080F83E30036B012B33D10023036302681F
:102A400002F10C0353E8003F23F010030C3242E87C
:102A500000310029F3D103681A6812F0100F06D074
:102A6000002201921A6801925B680193019B818D9B
:102A7000FFF7ACFF002003B05DF804FB0269002AF9
:102A8000AED1826A03685B68C3F308031380836A6C
:102A900002338362B3E703685B6803F07F0313705C
:102AA000AAE7FEF7E9F8E5E7022070470020704743
:102AB00030B583B0044602681368D068516913F0DA
:102AC0000F0505D113F0200F02D010F0200F19D1FF
:102AD0002DB111F0010119D110F4907F16D1216BA5
:102AE00001297DD013F0800F03D010F0800F40F04B
:102AF000158113F0400F03D010F0400F40F0128109
:102B000003B030BD2046FFF762FFF9E713F0010F75
:102B100006D010F4807F03D0226C42F001022264C0
:102B200013F0040F04D019B1226C42F002022264A7
:102B300013F0020F04D019B1226C42F00402226497
:102B400013F0080F07D010F0200F00D119B1226C3C
:102B500042F008022264226C002AD1D013F0200F28
:102B600002D010F0200F29D123685B6903F04003E5
:102B7000226C12F0080F00D163B32046FFF7FAFD74
:102B800023685B6913F0400F20D0226802F1140320
:102B900053E8003F23F04003143242E8003100299B
:102BA000F3D1A36B73B1614A1A65A06BFEF7E8FB22
:102BB0000028A5D0A06B036D9847A1E72046FFF73A
:102BC00006FFD1E72046FFF7F8FE99E72046FFF71A
:102BD000F4FE95E72046FFF7F0FE002323648FE71D
:102BE00013F0100F3FF47EAF10F0100F3FF47AAFE8
:102BF000002301931368019353680193019B536968
:102C000013F0400F50D0A26B13685B689BB2002B8F
:102C10003FF476AFA18D99427FF672AFE385D36919
:102C2000B3F5807F37D0226802F10C0353E8003FF0
:102C300023F480730C3242E800310029F3D122687A
:102C400002F1140353E8003F23F00103143242E879
:102C500000310029F3D1226802F1140353E8003F48
:102C600023F04003143242E800310029F3D120233D
:102C700084F83E3000232363226802F10C0353E8FA
:102C8000003F23F010030C3242E800310029F3D159
:102C9000A06BFEF72BFBA18DE38D9BB2C91A89B205
:102CA0002046FFF793FE2BE7A18DE38D9BB2C91A57
:102CB00089B2E38D9BB2002B3FF422AF00293FF491
:102CC0001FAF226802F10C0353E8003F23F4907316
:102CD0000C3242E800300028F3D1226802F11403DC
:102CE00053E8003F23F00103143242E8003000288B
:102CF000F3D1202384F83E3000232363226802F1BD
:102D00000C0353E8003F23F010030C3242E800307C
:102D10000028F3D12046FFF759FEF1E62046FFF7E1
:102D200057FDEDE62046FFF73BFEE9E6BD2900082A
:102D300081628285C28500230364222280F83E20BE
:102D400080F83C30036923B10268D36843F4807390
:102D5000D3600268536943F0010353610268D3688A
:102D600043F02003D3600020704708B590F83E3050
:102D7000DBB2202B0DD171B17AB190F83C30012B30
:102D80000DD0012380F83C3000230363FFF7D0FF10
:102D900000E0022008BD0120FCE70120FAE7022044
:102DA000F8E7842801D0033070470020704708B549
:102DB00000F06CFD002008BD2DE9F04387B004460B
:102DC0000F464569BDB18669AEB1D0F80480D0F830
:102DD0000090B0F90800FFF7E4FF0296019500901B
:102DE0003B4622694946404600F0DEFC05900598C6
:102DF00007B0BDE8F08365682668D4F81080B4F9A0
:102E00000800FFF7CEFF05AB019300903B461FFA89
:102E100088F23146284600F004FD0128E7D0002062
:102E2000E6E708B500B9012000F082FE002008BDE9
:102E300000F1080343604FF0FF328260C36003611A
:102E400000230360704700230361704743684B60B1
:102E50009A688A6051609960086103680133036071
:102E6000704730B40D68B5F1FF3F11D000F1080391
:102E70001C465B681A68AA42FAD963684B6099607D
:102E80008C606160086103680133036030BC704787
:102E90000469F2E70369416882688A6041685160A9
:102EA0005A68824206D0002202611A68013A1A600A
:102EB0001868704782685A60F5E7000082B0002306
:102EC00001930D4B1B68B3F1FF3F08D04FF0500347
:102ED00083F31188BFF36F8FBFF34F8FFEE74FF07F
:102EE000500383F31188BFF36F8FBFF34F8F019BA4
:102EF000002BFCD002B07047140000200848006886
:102F0000006880F308884FF0000080F3148862B6F0
:102F100061B6BFF34F8FBFF36F8F00DF00BF0000BC
:102F200008ED00E0DFF80C00016841F47001016079
:102F30007047000088ED00E04FF0807340F8043CDB
:102F400021F0010140F8081C054B40F80C3C40F80A
:102F5000202C6FF0020340F8243C4438704700BF37
:102F6000BD2E00080000000000000000000000006E
:102F7000074B19680868B0E8F04F80F30988BFF381
:102F80006F8F4FF0000080F311887047AFF300801F
:102F9000BC4D00204FF0500383F31188BFF36F8FB7
:102FA000BFF34F8F0B4A136801331360012B00D01E
:102FB00070474FF0E023D3F8043D13F0FF0FF7D034
:102FC0004FF0500383F31188BFF36F8FBFF34F8F20
:102FD000FEE700BF14000020094B1B6843B94FF007
:102FE000500383F31188BFF36F8FBFF34F8FFEE75A
:102FF000013B034A13600BB983F31188704700BF8C
:10300000140000200000000000000000000000008C
:10301000EFF30980BFF36F8F154B1A681EF0100F86
:1030200008BF20ED108A20E9F04F10602DE909005B
:103030004FF0500080F31188BFF34F8FBFF36F8FB5
:1030400000F09CFD4FF0000080F3118809BC196866
:103050000868B0E8F04F1EF0100F08BFB0EC108AFF
:1030600080F30988BFF36F8F704700BFAFF3008014
:10307000BC4D002008B54FF0500383F31188BFF317
:103080006F8FBFF34F8F00F04BFC28B14FF0E02360
:103090004FF08052C3F8042D002383F3118808BD3C
:1030A0004FF0E022002313619361054B1B68054933
:1030B000A1FB03139B09013B536107231361704775
:1030C00008000020D34D62104FF0E023D3F8002D0C
:1030D0003D4B9A421CD04FF0E023D3F8002D3B4BE0
:1030E0009A421ED030B583B0394B1A78D2B20192D1
:1030F000FF221A701B78DBB28DF803309DF8033085
:1031000003F05003334A1370334B07221A601BE05D
:103110004FF0500383F31188BFF36F8FBFF34F8FCE
:10312000FEE74FF0500383F31188BFF36F8FBFF3B7
:103130004F8FFEE7284A1368013B13609DF8033068
:103140005B00DBB28DF803309DF8033013F0800F85
:10315000F0D1214B1B68032B08D04FF0500383F3B1
:103160001188BFF36F8FBFF34F8FFEE71B021A4A20
:10317000136003F4E0631360019BDBB2144A137025
:103180004FF0E024D4F8203D43F47003C4F8203D10
:10319000D4F8203D43F07043C4F8203DFFF780FF92
:1031A00000250E4B1D60FFF7BDFED4F8343F43F001
:1031B0004043C4F8343FFFF7A1FE00F0DFFCFFF707
:1031C0007DFE284603B030BD71C20F4170C20F4171
:1031D00000E400E094110020981100201400002069
:1031E000124A12F0070F1ED0D11D21F00701C1F5C0
:1031F000705313440A460E48026000214160134494
:10320000083B23F007030B48036059601960991AC3
:1032100051601360084B1960084B1960084B4FF060
:1032200000421A6070474FF47053E4E7A011002089
:10323000B44D00209C110020A84D0020A44D00207A
:10324000A04D0020164B1A461B688342FBD35168E1
:1032500002EB010C844509D0416800EB010C634589
:1032600009D00360904219D0106070474068014453
:1032700051601046F0E710B40A4C2468A3420BD00A
:103280005B681944416013681B680360904200D07A
:1032900010605DF8044B70470460F7E7704700BFAB
:1032A000B44D00209C11002070B5054600F030FBA5
:1032B000364B1B68A3B1364B1B681D424ED135B14E
:1032C000083515F0070F02D025F007050835002D49
:1032D00046D0304B1B68AB4251D32F4A146804E0F0
:1032E000FFF77EFFE7E722461C466368AB4202D247
:1032F0002368002BF7D1254B1B68A34241D01668E9
:1033000008362368136063685B1B102B10D96019A3
:1033100010F0070F08D04FF0500383F31188BFF36C
:103320006F8FBFF34F8FFEE743606560FFF78AFF43
:10333000626818490B689B1A0B60184909688B4230
:1033400001D216490B60124B1B68134363600023C4
:103350002360134A13680133136002E0002600E083
:10336000002600F069FB16F0070F0CD04FF0500359
:1033700083F31188BFF36F8FBFF34F8FFEE70026F3
:10338000EFE70026EDE7304670BD00BF9C1100203E
:10339000A04D0020A44D0020B44D0020A84D0020D9
:1033A000AC4D0020002834D038B50446A0F1080503
:1033B00050F8043C174A1268134208D14FF05003EA
:1033C00083F31188BFF36F8FBFF34F8FFEE750F881
:1033D000081C41B14FF0500383F31188BFF36F8F86
:1033E000BFF34F8FFEE723EA020340F8043C00F0EE
:1033F0008FFA54F8041C084A13680B4413602846DB
:10340000FFF720FF054A13680133136000F014FB37
:1034100038BD7047A04D0020A44D0020B04D0020C5
:10342000084B1B681B6823B9074B4FF0FF321A602B
:103430007047044B1B68DB68DB685A68024B1A60F4
:10344000704700BFC04D0020944E00202DE9F0478A
:1034500007469846089DDDF824900A9C266B02F1E9
:103460008042013A06EB820626F00706002968D062
:103470008E464FF0000CBCF10F0F0BD81EF80C203D
:1034800004EB0C0383F834201EF80C3013B10CF15C
:10349000010CF0E7002384F84330062D00D90625FF
:1034A000E56265644FF0000AC4F848A0201DFFF7EC
:1034B000CAFC04F11800FFF7C6FC2461C5F107053A
:1034C000A5616462C4F878A484F87CA44FF4856292
:1034D000514604F1500000F0CDFB04F54F736365D5
:1034E00004F56973A36504F20C43E365012200232C
:1034F000C4E93E2343F20E33A4F800314AF6CD333B
:10350000A4F8023141F23423A4F804314EF26D6381
:10351000A4F806314DF6EC63A4F808310523A4F8AD
:103520000A310B23A4F80C31424639463046FFF7E6
:1035300003FD2060B9F1000F01D0C9F80040BDE8DB
:10354000F087002384F83430A7E7000038B5002462
:1035500007E004EB840293000E481844FFF768FC70
:103560000134062CF5D90C4D2846FFF761FC0B4CB5
:103570002046FFF75DFC0A48FFF75AFC0948FFF7B1
:1035800057FC0948FFF754FC084B1D60084B1C60B2
:1035900038BD00BFC84D0020684E00207C4E002082
:1035A000A04E0020CC4E0020B84E0020C04D002080
:1035B000C44D002010B50446FFF7ECFC214A136807
:1035C00001331360204B1B685BB1204B1B686BB948
:1035D0001D4B1B68DA6AE36A9A4207D81A4B1C60D3
:1035E00004E0194B1C601368012B28D0184A13689B
:1035F00001331360E06A01238340164A11680B43CC
:10360000136000EB8000211D134B03EB8000FFF7DC
:103610001DFCFFF7E1FC0D4B1B687BB10A4B1B68DF
:10362000DA6AE36A9A4209D24FF0E0234FF08052FF
:10363000C3F8042DBFF34F8FBFF36F8F10BDFFF79B
:1036400085FFD3E7544E0020BC4D0020B44E00202F
:10365000604E0020644E0020C84D002010B5044686
:10366000503000F07DFB94F87D3463B1012B11D014
:10367000022B0ED04FF0500383F31188BFF36F8FEE
:10368000BFF34F8FFEE7206BFFF78CFE2046FFF75E
:1036900089FE10BD2046FFF785FEFAE70F4B1B6839
:1036A000D3B110B5FFF776FC0D4BDB68DC68201D4D
:1036B000FFF7F0FB0B4A1368013B1360074A1368DE
:1036C000013B1360FFF788FC2046FFF7C7FF034B61
:1036D0001B68002BE6D110BD704700BF584E00207C
:1036E000CC4E0020544E002008B5FFF7D7FF074B03
:1036F0001B68012BF9D94FF0E0234FF08052C3F83B
:10370000042DBFF34F8FBFF36F8FEEE7C84D00203E
:1037100070B504460D461D4B1E681D4B18680430DD
:10372000FFF7B8FB50B91A4B1B68DA6A012303FA9A
:1037300002F218490B6823EA02030B60B4F1FF3F61
:103740000DD03444124B1B685C60A64210D9124B5A
:1037500018680F4B19680431FFF783FB70BD002D0B
:10376000EFD00B4B196804310C48FFF76FFBF5E7FE
:103770000B4B1868064B19680431FFF772FB094BB5
:103780001B68A342EAD9074B1C60E7E7E04E002024
:10379000BC4D0020644E0020C44D0020B84E0020D7
:1037A000C04D0020944E002030B587B00B9C8CB1EA
:1037B0000C9DC5B14FF490650495049DB5F5906FCF
:1037C0001AD04FF0500383F31188BFF36F8FBFF30C
:1037D0004F8FFEE74FF0500383F31188BFF36F8FD5
:1037E000BFF34F8FFEE74FF0500383F31188BFF311
:1037F0006F8FBFF34F8FFEE7049D0C9D2C63022457
:1038000085F87D4400240394029505AC01940A9C3C
:103810000094FFF71BFE0C98FFF7CCFE059807B04D
:1038200030BD2DE9F04385B00746884614461E4654
:103830009000FFF739FD08B381464FF49060FFF721
:1038400033FD0546B0B1C0F83090E5B1002385F8EE
:103850007D34039302950D9B01930C9B009333469B
:10386000224641463846FFF7F1FD2846FFF7A2FE03
:10387000012005E04846FFF795FDE6E74FF0FF30F1
:1038800005B0BDE8F0834FF0FF30F9E710B588B020
:1038900000240594069407AA06A905A8FDF700F8D8
:1038A000059B0293069B019300942346079A1049B7
:1038B0001048FFF779FF104B1860B8B14FF0500374
:1038C00083F31188BFF36F8FBFF34F8F0B4B1B68D0
:1038D00050330B4A13600B4B4FF0FF321A600A4B08
:1038E00001221A60094B1C60FFF7EEFB08B010BD07
:1038F00090420008E9360008904E0020BC4D0020A0
:1039000018000020944E0020B44E0020E04E00200D
:10391000024A136801331360704700BF5C4E0020F9
:10392000F8B53A4B1B68002B69D1394B1D6801353E
:103930001D60C5B9374B1B681B6843B14FF050037E
:1039400083F31188BFF36F8FBFF34F8FFEE7314AC8
:103950001168314B186810601960304A13680133E0
:103960001360FFF75DFD2E4B1B68AB423DD900276E
:103970002C4B1B68DB6A03EB83039A002A4B9B5892
:10398000012B00D90127294B1B68002B3CD00127B4
:103990003AE001271F4B1B681B6843B31D4B1B6894
:1039A000DB68DC6863689D4226D3261D3046FFF73E
:1039B00071FAA36A1BB104F11800FFF76BFAE36A0E
:1039C00001229A401A49086802430A6003EB830304
:1039D0009A00314614481044FFF738FAE26A114B56
:1039E0001B68DB6A9A42D4D2D4E70027D2E70C4B9B
:1039F0004FF0FF321A60BBE7094A1360B8E70D4A7F
:103A000013680133136000273846F8BD5C4E002070
:103A1000E04E0020C04D0020C44D0020984E0020F4
:103A2000944E0020BC4D0020C84D0020E44E0020E4
:103A3000644E00209C4E002038B5354B1B6843B9BE
:103A40004FF0500383F31188BFF36F8FBFF34F8F95
:103A5000FEE7FFF79FFA2E4B1A68013A1A601B68BF
:103A6000002B4FD12B4B1B680BB900244BE00024DB
:103A7000294B1B681BB3284BDB68DC6804F118007A
:103A8000FFF708FA251D2846FFF704FAE06A01232C
:103A90008340224A11680B43136000EB80002946E3
:103AA0001F4B03EB8000FFF7D1F9E26A1D4B1B6847
:103AB000DB6A9A42DCD31C4B01221A60D8E70CB1B6
:103AC000FFF7AEFC194B1C6884B9174B1C68D4B1C6
:103AD0004FF0E0234FF08052C3F8042DBFF34F8F17
:103AE000BFF36F8F01240EE0013C07D0FFF718FFF2
:103AF0000028F9D00C4B01221A60F5E70B4B00228D
:103B00001A60E2E70024FFF767FA204638BD00BFDD
:103B10005C4E0020544E0020A04E0020644E002039
:103B2000C84D0020BC4D0020E44E00209C4E0020DB
:103B300010B5A8B10446104B1B6843B14FF05003B9
:103B400083F31188BFF36F8FBFF34F8FFEE7FFF74B
:103B5000DFFE00212046FFF7DBFDFFF76DFF48B9D0
:103B60004FF0E0234FF08052C3F8042DBFF34F8F86
:103B7000BFF36F8F10BD00BF5C4E0020224B1B684F
:103B80001BB1224B01221A607047204B00221A60A1
:103B90001F4B1B68B3FA83F3DBB2C3F11F0303EBC4
:103BA00083018A001B498A5842B94FF0500383F3BE
:103BB0001188BFF36F8FBFF34F8FFEE7154903EBFB
:103BC000830082000A4450684068506003EB830C15
:103BD0004FEA8C020832114488420DD003EB830374
:103BE0009A000C4B13445B68DA680B4B1A601B6835
:103BF00050330A4A13607047406862469100054A94
:103C00000A445060EAE700BF5C4E0020E44E00200A
:103C1000644E0020C84D0020BC4D0020180000203C
:103C2000014B1868704700BF1800002070B50D4E9A
:103C30000D4D761BB61006D0002455F8043B013418
:103C40009847A642F9D1094E094D761B00F0B4FA07
:103C5000B61006D0002455F8043B01349847A6421C
:103C6000F9D170BDA4420008A4420008AC4200088B
:103C7000A4420008830730B548D0541E002A3FD024
:103C8000CAB2034601E0013C3AD303F8012B9D0779
:103C9000F9D1032C2DD9CDB245EA05250F2C45EAE3
:103CA000054536D9A4F1100222F00F0C03F1200EC5
:103CB000E6444FEA121C03F1100242E9045542E9BE
:103CC000025510327245F8D10CF1010214F00C0FBC
:103CD00003EB021204F00F0C13D0ACF1040323F039
:103CE00003030433134442F8045B9342FBD10CF00A
:103CF00003042CB1CAB21C4403F8012B9C42FBD133
:103D000030BD64461346002CF4D1F9E7034614464F
:103D1000BFE71A46A446E0E72DE9F0410E680C46DD
:103D20000546BEB137688FB1D7F80080B8F1000FF3
:103D300008D0D8F8001009B1FFF7EEFF4146284639
:103D400000F0CCF83946284600F0C8F8314628463D
:103D500000F0C4F821462846BDE8F04100F0BEB8A6
:103D6000224B1B68834240D0C16C70B5054681B1BF
:103D700000268C593CB121462468284600F0AEF854
:103D8000002CF8D1E96C0436802EF2D1284600F0E0
:103D9000A5F8296C11B1284600F0A0F8D5F84841E3
:103DA00054B105F5A676B44206D0214624682846CB
:103DB00000F094F8A642F8D1696D11B1284600F0E0
:103DC0008DF8AB6B83B1EB6B28469847D5F8E04292
:103DD00054B1216811B12846FFF79EFF21462846BD
:103DE000BDE8704000F07AB870BD70471800002040
:103DF000024B13B1024800F005B870470000000004
:103E0000113E0008002301461A46184600F08EB9FC
:103E100038B5084B084D5B1B9C1007D0043B1D4474
:103E2000013C55F804399847002CF9D1BDE83840D9
:103E300000F0C8B9B0420008AC420008F8B5244F01
:103E40000C46064600F054F9BA685568C4F57E631E
:103E50000F3325F003052B4423F47F6323F00F0376
:103E6000A3F58054B4F5805F07DB0021304600F0F5
:103E70004BF9BB682B44984204D0304600F03EF921
:103E80000020F8BD6142304600F03EF901300DD00F
:103E9000104ABB682D1B45F001055D601368304674
:103EA0001B1B136000F02AF90120F8BD00213046E9
:103EB00000F02AF9BA68831A0F2BDEDD43F0010304
:103EC0005360054B03491B68C01A0860D5E700BF63
:103ED0004C040020F44E002054080020002961D03A
:103EE000F8B50C46064600F003F954F8042C7B4F55
:103EF000A4F1080522F0010105EB010CB868DCF81B
:103F00000430604523F0030300F08B80D207CCF827
:103F1000043032D454F8082CAD1A1144AA6807F1C1
:103F2000080082426AD00CEB0304D4F804E0EC6889
:103F3000D4601EF0010FA26000F0978041F00103F1
:103F40006B60CCF80010B1F5007F35D27A68CB08F1
:103F500048090121013381401143796007EBC30215
:103F600057F83310083AC5E9021247F83350CD60CC
:103F70003046BDE8F84000F0C1B80CEB03025268CF
:103F8000D00710D4194407F10800DCF80830834248
:103F900073D0DCF80C20DA60936041F001036B60B1
:103FA0006950D0E7704741F00103B1F5007F44F854
:103FB000043CCCF80010C9D3B1F5206F4FEA51236F
:103FC00048D28B0903F1390003F13802C300F81815
:103FD000FB580838984259D05A6822F003028A42A6
:103FE00002D99B689842F7D1D868C5E9023085604C
:103FF000DD603046BDE8F84000F080B80CEB03020D
:104000005268D20763D40B44DCE90212CA609160A3
:1040100043F001026A603046EB50BDE8F84000F022
:104020006DB80B44D10707D454F8082CAD1A1344CB
:10403000D5E90212CA60916043F001026A60284A21
:10404000BD6012689A4293D8264B30461968FFF734
:10405000F5FE8DE7142B0AD9542B1FD80B0B03F157
:104060006F0003F16E02C300B1E719448DE703F15D
:104070005C0003F15B02C300A9E741F00103C7E95B
:104080000455C5E902006B60695071E779689210C8
:10409000012404FA02F20A437A60A6E7B3F5AA7F84
:1040A00006D8CB0B03F1780003F17702C3008EE74B
:1040B00040F25452934206D88B0C03F17D0003F179
:1040C0007C02C30083E74FF47E737E227FE741F0DA
:1040D00001036B60CCF800104AE700BF4C040020DD
:1040E000580800201C4F0020704700BF704700BFD9
:1040F0000148FFF7F9BF00BFF04E00200148FFF76D
:10410000F5BF00BFF04E002038B5074D0022044631
:1041100008462A60FCF7F6FD431C00D038BD2B682A
:10412000002BFBD0236038BDE84E00202DE9F0477E
:10413000DFF880A00646DAF8000098460F46914660
:10414000FFF7D2FF1A4B1B68D3F8484124B36568C8
:104150001F2D26DC5EB96B1C0235DAF800006360A7
:1041600044F82570FFF7C2FF0020BDE8F08704EB9C
:1041700085010123C1F88890D4F88821AB401A4307
:10418000022EC4F88821C1F80881E4D1D4F88C212A
:104190001343C4F88C31DEE703F5A674C3F8484135
:1041A000D5E7DAF80000FFF7A1FF4FF0FF30DCE7BA
:1041B0009842000848040020F8B500BFF8BC08BCCD
:1041C0009E467047F8B500BFF8BC08BC9E467047D5
:1041D00048420008590800080000000000000000E4
:1041E00080000000000000000000000054420008B1
:1041F00091080008FDFF00000000000080000000A2
:10420000000000000000000060420008650800088F
:10421000FDFF000000000000800000000000000022
:10422000000000006C42000885080008FDFF000047
:1042300000000000800000000000000000000000FE
:1042400000050301060402005461736B5F7561721F
:10425000743200005461736B5F75617274310000D9
:104260005461736B5F504944000000005461736BEC
:104270005F494D55000000000000000000000000F4
:1042800001020304060708090000000001020304FC
:0C42900049444C450000000020000020C4
:08429C0064BFFF7F0100000078
:0842A400F13D0008B50100081E
:0442AC009101000874
:1042B000010000000000803E0024F4000100000026
:1042C00010000000AAAAAAAA2000002000000000F6
:1042D000000000000C03002074030020DC03002019
:1042E00000000000000000000000000000000000CE
:1042F00000000000000000000000000000000000BE
:1043000000000000000000000000000000000000AD
:10431000000000000000000000000000000000009D
:10432000000000000000000000000000000000008D
:10433000000000000000000000000000000000007D
:10434000000000000000000000000000000000006D
:10435000000000000000000000000000000000005D
:10436000000000000000000000000000000000004D
:10437000000000000000000001000000000000003C
:104380000E33CDAB34126DE6ECDE05000B00000001
:10439000000000000000000000000000000000001D
:1043A000000000000000000000000000000000000D
:1043B00000000000000000000000000000000000FD
:1043C00000000000000000000000000000000000ED
:1046F0000000000000000000EC4E00200000000060
:10470000000000004C0400204C0400205404002051
:10471000540400205C0400205C0400206404002099
:10472000640400206C0400206C0400207404002049
:10473000740400207C0400207C04002084040020F9
:10474000840400208C0400208C04002094040020A9
:10475000940400209C0400209C040020A404002059
:10476000A4040020AC040020AC040020B404002009
:10477000B4040020BC040020BC040020C4040020B9
:10478000C4040020CC040020CC040020D404002069
:10479000D4040020DC040020DC040020E404002019
:1047A000E4040020EC040020EC040020F4040020C9
:1047B000F4040020FC040020FC0400200405002078
:1047C000040500200C0500200C0500201405002025
:1047D000140500201C0500201C05002024050020D5
:1047E000240500202C0500202C0500203405002085
:1047F000340500203C0500203C0500204405002035
:10480000440500204C0500204C05002054050020E4
:10481000540500205C0500205C0500206405002094
:10482000640500206C0500206C0500207405002044
:10483000740500207C0500207C05002084050020F4
:10484000840500208C0500208C05002094050020A4
:10485000940500209C0500209C050020A405002054
:10486000A4050020AC050020AC050020B405002004
:10487000B4050020BC050020BC050020C4050020B4
:10488000C4050020CC050020CC050020D405002064
:10489000D4050020DC050020DC050020E405002014
:1048A000E4050020EC050020EC050020F4050020C4
:1048B000F4050020FC050020FC0500200406002073
:1048C000040600200C0600200C0600201406002020
:1048D000140600201C0600201C06002024060020D0
:1048E000240600202C0600202C0600203406002080
:1048F000340600203C0600203C0600204406002030
:10490000440600204C0600204C06002054060020DF
:10491000540600205C0600205C060020640600208F
:10492000640600206C0600206C060020740600203F
:10493000740600207C0600207C06002084060020EF
:10494000840600208C0600208C060020940600209F
:10495000940600209C0600209C060020A40600204F
:10496000A4060020AC060020AC060020B4060020FF
:10497000B4060020BC060020BC060020C4060020AF
:10498000C4060020CC060020CC060020D40600205F
:10499000D4060020DC060020DC060020E40600200F
:1049A000E4060020EC060020EC060020F4060020BF
:1049B000F4060020FC060020FC060020040700206E
:1049C000040700200C0700200C070020140700201B
:1049D000140700201C0700201C07002024070020CB
:1049E000240700202C0700202C070020340700207B
:1049F000340700203C0700203C070020440700202B
:104A0000440700204C0700204C07002054070020DA
:104A1000540700205C0700205C070020640700208A
:104A2000640700206C0700206C070020740700203A
:104A3000740700207C0700207C07002084070020EA
:104A4000840700208C0700208C070020940700209A
:104A5000940700209C0700209C070020A40700204A
:104A6000A4070020AC070020AC070020B4070020FA
:104A7000B4070020BC070020BC070020C4070020AA
:104A8000C4070020CC070020CC070020D40700205A
:104A9000D4070020DC070020DC070020E40700200A
:104AA000E4070020EC070020EC070020F4070020BA
:104AB000F4070020FC070020FC0700200408002069
:104AC000040800200C0800200C0800201408002016
:104AD000140800201C0800201C08002024080020C6
:104AE000240800202C0800202C0800203408002076
:104AF000340800203C0800203C0800204408002026
:0C4B000044080020FFFFFFFF000002003F
:04000005080011914D
:00000001FF
