:020000040800F2
:1000000000000220691400088D0F00088F0F0008FF
:10001000910F0008930F0008950F000800000000E2
:100020000000000000000000000000001134000883
:10003000970F000800000000B134000815350008D3
:10004000B9140008B9140008B9140008B91400085C
:10005000B9140008B9140008B9140008B91400084C
:10006000B9140008B9140008B9140008B91400083C
:10007000B9140008B9140008B9140008B91400082C
:10008000B9140008B9140008B9140008B91400081C
:10009000B9140008B9140008B9140008B91400080C
:1000A000B9140008B9140008B9140008B9140008FC
:1000B000B9140008B9140008990F0008B914000811
:1000C000B9140008B9140008B9140008B9140008DC
:1000D000B9140008A90F0008B90F0008B9140008E6
:1000E000B9140008B9140008B9140008B9140008BC
:1000F000B9140008B9140008B9140008B9140008AC
:10010000B9140008B9140008C90F0008B914000890
:10011000B9140008B9140008D90F0008B914000870
:10012000B9140008B9140008B9140008B91400087B
:10013000B9140008B9140008B9140008B91400086B
:10014000B9140008B9140008B9140008B91400085B
:10015000B9140008B9140008B9140008B91400084B
:10016000B9140008B9140008B9140008B91400083B
:10017000B9140008B9140008B91400080000000000
:08018000B9140008B9140008CD
:1001C00010B5054C237833B9044B13B10448AFF391
:1001D00000800123237010BD600800200000000093
:1001E000545D000808B5034B1BB103490348AFF346
:1001F000008008BD0000000064080020545D000875
:1002000053B94AB9002908BF00281CBF4FF0FF317D
:100210004FF0FF3000F074B9ADF1080C6DE904CE79
:1002200000F006F8DDF804E0DDE9022304B07047D1
:100230002DE9F047089D04468E46002B4DD18A4299
:10024000944669D9B2FA82F252B101FA02F3C2F1CC
:10025000200120FA01F10CFA02FC41EA030E94405D
:100260004FEA1C48210CBEFBF8F61FFA8CF708FB7E
:1002700016E341EA034306FB07F199420AD91CEB56
:10028000030306F1FF3080F01F81994240F21C8188
:10029000023E63445B1AA4B2B3FBF8F008FB1033D0
:1002A00044EA034400FB07F7A7420AD91CEB040405
:1002B00000F1FF3380F00A81A74240F207816444D5
:1002C000023840EA0640E41B00261DB1D44000235A
:1002D000C5E900433146BDE8F0878B4209D9002DBE
:1002E00000F0EF800026C5E9000130463146BDE848
:1002F000F087B3FA83F6002E4AD18B4202D38242B2
:1003000000F2F980841A61EB030301209E46002D60
:10031000E0D0C5E9004EDDE702B9FFDEB2FA82F2B5
:10032000002A40F09280A1EB0C014FEA1C471FFA13
:100330008CFE0126200CB1FBF7F307FB131140EAFA
:1003400001410EFB03F0884208D91CEB010103F1C7
:10035000FF3802D2884200F2CB804346091AA4B289
:10036000B1FBF7F007FB101144EA01440EFB00FE5D
:10037000A64508D91CEB040400F1FF3102D2A645C2
:1003800000F2BB800846A4EB0E0440EA03409CE761
:10039000C6F12007B34022FA07FC4CEA030C20FA0E
:1003A00007F401FA06F31C43F9404FEA1C4900FA2E
:1003B00006F3B1FBF9F8200C1FFA8CFE09FB1811AB
:1003C00040EA014108FB0EF0884202FA06F20BD91E
:1003D0001CEB010108F1FF3A80F08880884240F26E
:1003E0008580A8F102086144091AA4B2B1FBF9F0B2
:1003F00009FB101144EA014100FB0EFE8E4508D9AD
:100400001CEB010100F1FF346CD28E456AD9023831
:10041000614440EA0840A0FB0294A1EB0E01A14216
:10042000C846A64656D353D05DB1B3EB080261EB84
:100430000E0101FA07F722FA06F3F1401F43C5E95E
:10044000007100263146BDE8F087C2F12003D84094
:100450000CFA02FC21FA03F3914001434FEA1C47D6
:100460001FFA8CFEB3FBF7F007FB10360B0C43EAC8
:10047000064300FB0EF69E4204FA02F408D91CEB78
:10048000030300F1FF382FD29E422DD90238634476
:100490009B1B89B2B3FBF7F607FB163341EA034116
:1004A00006FB0EF38B4208D91CEB010106F1FF3865
:1004B00016D28B4214D9023E6144C91A46EA00465C
:1004C00038E72E46284605E70646E3E61846F8E6EE
:1004D0004B45A9D2B9EB020864EB0C0E0138A3E737
:1004E0004646EAE7204694E74046D1E7D0467BE718
:1004F000023B614432E7304609E76444023842E790
:10050000704700BF844641EA000313F003036DD136
:10051000403A41D351F8043B40F8043B51F8043BC6
:1005200040F8043B51F8043B40F8043B51F8043BCD
:1005300040F8043B51F8043B40F8043B51F8043BBD
:1005400040F8043B51F8043B40F8043B51F8043BAD
:1005500040F8043B51F8043B40F8043B51F8043B9D
:1005600040F8043B51F8043B40F8043B51F8043B8D
:1005700040F8043B51F8043B40F8043B51F8043B7D
:1005800040F8043B51F8043B40F8043B51F8043B6D
:1005900040F8043B403ABDD2303211D351F8043B0D
:1005A00040F8043B51F8043B40F8043B51F8043B4D
:1005B00040F8043B51F8043B40F8043B103AEDD2BC
:1005C0000C3205D351F8043B40F8043B043AF9D20D
:1005D000043208D0D2071CBF11F8013B00F8013BE0
:1005E00001D30B8803806046704700BF082A13D3ED
:1005F0008B078DD010F003038AD0C3F10403D21A05
:10060000DB071CBF11F8013B00F8013B80D331F838
:10061000023B20F8023B7BE7043AD9D3013A11F8B8
:10062000013B00F8013BF9D20B7803704B78437023
:100630008B78837060467047000000000000000067
:1006400090F800F06DE9024520F007016FF0000C12
:1006500010F0070491F820F040F049804FF00004BA
:100660006FF00700D1E9002391F840F000F1080095
:1006700082FA4CF2A4FA8CF283FA4CF3A2FA8CF3CD
:100680004BBBD1E9022382FA4CF200F10800A4FA34
:100690008CF283FA4CF3A2FA8CF3E3B9D1E9042388
:1006A00082FA4CF200F10800A4FA8CF283FA4CF3BF
:1006B000A2FA8CF37BB9D1E9062301F1200182FA79
:1006C0004CF200F10800A4FA8CF283FA4CF3A2FA7F
:1006D0008CF3002BC6D0002A04BF04301A4612BA8D
:1006E000B2FA82F2FDE8024500EBD2007047D1E990
:1006F000002304F00305C4F100004FEAC50514F01F
:10070000040F91F840F00CFA05F562EA05021CBFEF
:1007100063EA050362464FF00004A9E70000000009
:1007200001F0FF01102A2BDB10F0070F08D010F8A2
:10073000013B013A8B422DD010F0070F42B3F6D1A6
:10074000F0B441EA012141EA014122F007047FF0BF
:1007500000070023F0E80256083C85EA010586EA16
:10076000010685FA47F5A3FA87F586FA47F6A5FA52
:1007700087F68EB9EED1F0BC01F0FF0102F007025E
:1007800032B110F8013B013A83EA010313B1F8D109
:100790000020704701387047002D06BF35460338EA
:1007A000073815F0010F07D1013015F4807F02BF23
:1007B000013015F4C03F0130F0BC0138704700BF74
:1007C00010B5854B1B78012B07D00138052830D890
:1007D000DFE800F0D884AE30065A80F00700F4E776
:1007E0007E4C0821204601F071FF0821204602F0CE
:1007F000A9F87B4BD3ED007A9FED7A7A67EE877A82
:100800002368FCEEE77AC3ED0E7A0421204601F05E
:10081000DBFE0421204602F095F8236841F26902CC
:100820005A630021204601F051FF0021204602F0CA
:100830000DF810BD694C0421204601F047FF04214A
:10084000204602F07FF8664BD3ED007A9FED657A83
:1008500067EE877A2368FCEEE77AC3ED0F7A08210A
:10086000204601F0B1FE0821204602F06BF8236813
:1008700041F269025A630021204601F027FF00215E
:10088000204601F0E3FFD4E7544C0021204601F05C
:100890001DFF0021204602F055F8514BD3ED007AA0
:1008A0009FED507A67EE877A2368FCEEE77AC3ED16
:1008B0000F7A0821204601F087FE0821204602F029
:1008C00041F8236841F269029A630421204601F04D
:1008D000FDFE0421204601F0B9FFAAE73F4C0821A4
:1008E000204601F0F3FE0821204602F02BF83C4B95
:1008F000D3ED007A9FED3B7A67EE877A2368FCEEB2
:10090000E77AC3ED0D7A0021204601F05DFE00215B
:10091000204602F017F8236841F269029A63042125
:10092000204601F0D3FE0421204601F08FFF80E72E
:100930002A4C0421204601F0C9FE0421204602F081
:1009400001F8274BD3ED007A9FED267A67EE877A80
:100950002368FCEEE77AC3ED0D7A0021204601F012
:1009600033FE0021204601F0EDFF236841F26902C9
:10097000DA630821204601F0A9FE0821204601F093
:1009800065FF56E7154C0021204601F09FFE00212F
:10099000204601F0D7FF124BD3ED007A9FED117A7C
:1009A00067EE877A2368FCEEE77AC3ED0E7A0421BE
:1009B000204601F009FE0421204601F0C3FF236810
:1009C00041F26902DA630821204601F07FFE082126
:1009D000204601F03BFF2CE7000000207C080020AF
:1009E000040000200040834538B50A4D0121284607
:1009F00000F038FF44000221284600F033FF044392
:100A000064004FF48051044800F02CFF204300F0B4
:100A1000070038BD00000240001C024038B5054602
:100A2000FFF7E2FF0446FFF7CBFE2B68596B0C4A39
:100A300013680B4413600B4A1368013313600A4BAD
:100A40001A5D0A4B1B689A4205D0094B00221A70A6
:100A5000064B1C6038BD064B01221A70F8E700BF38
:100A6000D0080020CC080020DC5D0008C40800206D
:100A7000C8080020034B1B6813F0800FFAD0014B0D
:100A8000586070470010014010B5164B4FF0FE3211
:100A90001A60EE2283F82020134AD2ED017A134A1D
:100AA000D2ED016A37EEA67AB6EE006A27EE067A34
:100AB00083ED017A00229A6077EEE67ADFED0C6A28
:100AC00087EEA67A83ED037A0A4A1A61002405E0CC
:100AD000044B185DFFF7CEFF0134E4B2202CF7D9A8
:100AE00010BD00BFD4080020F80800201009002025
:100AF0003333333E0000C84208B54FF47A7002F039
:100B0000E7FBFAE708B54FF47A7002F0E1FBFAE789
:100B100008B54FF47A7002F0DBFBFAE708B5FFF78F
:100B2000B3FF4FF47A7002F0D3FBF8E7034B036096
:100B3000034B0B6080231360704700BF380B00200D
:100B40003809002010B59CB0244C0DF1540CA64679
:100B5000BEE80F00ACE80F009EE807008CE8070035
:100B6000002115A802F07FFB1D4B18600DF1380C19
:100B700004F11C0EBEE80F00ACE80F009EE8070071
:100B80008CE8070000210EA802F06DFB154B1860E1
:100B90000DF11C0C04F1380EBEE80F00ACE80F009C
:100BA0009EE807008CE80700002107A802F05BFB25
:100BB0000D4B1860EE4604F1540CBCE80F00AEE893
:100BC0000F009CE807008EE807000021684602F04D
:100BD0004AFB064B18601CB010BD00BF6C5D0008DE
:100BE00034090020300900202C09002028090020A9
:100BF000F0B58BB0002405940694079408940994EA
:100C00000194254B1A6B42F080021A631A6B02F0B2
:100C100080020192019A02941A6B42F001021A6357
:100C20001A6B02F001020292029A03941A6B42F0CC
:100C300008021A631A6B02F008020392039A0494E2
:100C40001A6B42F004021A631B6B03F00403049353
:100C5000049B124F22464FF40061384600F009FE13
:100C60000F4E22460121304600F003FE4FF4006390
:100C70000593012506950794089405A9384600F0C8
:100C8000FFFC059506950794089405A9304600F0E9
:100C9000F7FC0BB0F0BD00BF003802400008024076
:100CA000000C024008B50268034B9A4200D008BD10
:100CB00000F01EFCFBE700BF0010004072B6FEE72C
:100CC00000B595B03022002108A803F023FA0023D4
:100CD000039304930593069307930193214A116CA0
:100CE00041F080511164126C02F080520192019A1D
:100CF00002931D4B1A6842F480421A601B6803F489
:100D000080430293029B012308934FF4803309939D
:100D100002230E934FF480020F92082210924FF498
:100D2000A872119212930423139308A800F0A8FD4F
:100D300098B90F23039302230493002305934FF4E0
:100D4000A05306934FF480530793052103A800F0A6
:100D5000FDFF20B915B05DF804FBFFF7AFFFFFF70B
:100D6000ADFF00BF003802400070004008B500F041
:100D7000A5FBFFF7A5FFFFF73BFF00F087FA00F0A8
:100D800061F900F08DF900F0CBFA00F0E3FA0A48BF
:100D900000F018F8094803F05DFA094C00212046DC
:100DA00001F012FC0421204601F00EFCFFF7CAFE00
:100DB00002F054FAFEE700BFE0100020145E0008C5
:100DC0000810002008B5054B1860054B1868002373
:100DD00002221946806803F0B1FA08BDB80F00205E
:100DE00018000020022801D80120704708B503F040
:100DF00067F909230360002008BD000010B5013821
:100E000001280AD814464FF0FF3392B20748006811
:100E100001F075FF40B9204610BD03F051F90923D8
:100E200003604FF0FF30F7E70520F5E7B80F00202B
:100E3000022801D80020704708B503F041F90923C2
:100E400003604FF0FF3008BD08B503F039F90923FE
:100E500003604FF0FF3008BD08B548B94FF0FF33CD
:100E600001220848006801F0B6FF40B9012008BD22
:100E700003F026F9092303604FF0FF30F7E7052060
:100E8000F5E700BFB80F002008B5022804D84FF4DA
:100E900000534B60002008BD03F012F909230360E2
:100EA000F8E7000000B583B0002200920D4B596CAA
:100EB00041F480415964596C01F4804100910099DA
:100EC0000192196C41F0805119641B6C03F080533E
:100ED0000193019B0F216FF0010000F02DFB03B087
:100EE0005DF804FB0038024030B589B004460023A9
:100EF0000193214B1A6C42F010021A641B6C03F030
:100F000010030193019B02A903A800F0F5FF069BC3
:100F1000CBB900F0D1FF03461848A0FB03239B0C7C
:100F2000013B1748174A026040F2E732C260436053
:100F3000002303618360836101F0FAF9054630B153
:100F4000284609B030BD00F0B7FF4300E4E70C4885
:100F500001F086F805460028F2D1362000F024FB87
:100F60000F2C01D90125EBE700222146362000F0A5
:100F7000E3FA054B1C60E3E70038024083DE1B43C5
:100F8000BC0F00200010004010000020FEE7FEE72C
:100F9000FEE7FEE7FEE7704708B5024801F0A7F854
:100FA00008BD00BF5010002008B5024802F010F83C
:100FB00008BD00BFE010002008B5024802F008F8A4
:100FC00008BD00BF2411002008B5024801F08FF8C9
:100FD00008BD00BF9810002008B5024801F087F84E
:100FE00008BD00BFBC0F002010B503460C4A0D49D8
:100FF0000D48006840B10C4800680344521A9342FF
:1010000006D8094A136010BD0748084C0460F2E78F
:1010100003F056F80C2303604FF0FF30F3E700BFF6
:10102000000002200004000004100020084F0020EF
:10103000034AD2F8883043F47003C2F8883070470E
:1010400000ED00E000B587B0002302930393049302
:101050000593009301931048104A026053224260A6
:1010600083604FF6FF72C2600361836102A901F0E1
:1010700082FB58B950230093002301936946064828
:1010800001F09CFC28B907B05DF804FBFFF716FEE1
:10109000F0E7FFF713FEF6E75010002000080040CD
:1010A00000B587B000230293039304930593009344
:1010B00001931048104A02605322426083604FF649
:1010C000FF72C2600361836102A901F054FB58B949
:1010D00050230093002301936946064801F06EFCFB
:1010E00028B907B05DF804FBFFF7E8FDF0E7FFF76C
:1010F000E5FDF6E798100020000C00400268094B5F
:101100009A4200D0704782B000230193064B1A6CBC
:1011100042F002021A641B6C03F002030193019B6C
:1011200002B07047000400400038024030B58BB078
:101130000023059306930793089309930368374A9E
:10114000934204D0364A93422AD00BB030BD0024DB
:101150000094344B1A6C42F004021A641A6C02F0C8
:1011600004020092009A01941A6B42F008021A637A
:101170001B6B03F008030193019B4FF4E0430593BD
:1011800002230693099305A9274800F079FA22461D
:1011900005211E2000F0D0F91E2000F005FAD4E74A
:1011A000002402941F4B1A6C42F008021A641A6C55
:1011B00002F008020292029A03941A6B42F00102B2
:1011C0001A631A6B02F001020392039A04941A6BD9
:1011D00042F080021A631B6B03F080030493049BAC
:1011E0000323059302250695099505A90F4800F0EC
:1011F00047FA4FF480530593069507940894099590
:1012000005A90B4800F03CFA22460521322000F0E7
:1012100093F9322000F0C8F997E700BF00080040BA
:10122000000C004000380240000C02400000024068
:10123000001C024000B587B0002301930293039382
:101240000493059302680E4B9A4202D007B05DF8F2
:1012500004FB002300930B4B1A6B42F001021A634C
:101260001B6B03F001030093009BC0230193022337
:101270000293059301A9044800F002FAE6E700BFD3
:1012800000040040003802400000024000B58BB06E
:101290000023089309930193029303930493059306
:1012A000069307931C481D4A0260436083604FF613
:1012B000FF72C2600361836101F066F8F8B9002330
:1012C0000893099308A9144801F078FBD0B960236A
:1012D0000193002202920392059201A90E4801F0A7
:1012E000B7F890B904220DEB02010B4801F0B0F8F9
:1012F00070B90948FFF79EFF0BB05DF804FBFFF7DC
:10130000DDFCDCE7FFF7DAFCE1E7FFF7D7FCE9E714
:10131000FFF7D4FCEDE700BF0810002000040040F8
:1013200008B50A480A4B03604FF4E13343600023D9
:101330008360C36003610C2242618361C36101F079
:10134000AFFC00B908BDFFF7B9FCFBE7E0100020D7
:101350000010014008B50A480A4B03604FF4E1331E
:10136000436000238360C36003610C224261836198
:10137000C36101F095FC00B908BDFFF79FFCFBE7D6
:10138000241100200044004010B58AB000230593CA
:10139000069307930893099303682F4A934204D056
:1013A0002E4A93422DD00AB010BD002401942C4B3C
:1013B0005A6C42F010025A645A6C02F01002019208
:1013C000019A02941A6B42F001021A631B6B03F03C
:1013D00001030293029B4FF4C0630593022306931B
:1013E000032308930723099305A91E4800F048F931
:1013F00022460521252000F09FF8252000F0D4F892
:10140000D1E700240394164B1A6C42F400321A649C
:101410001A6C02F400320392039A04941A6B42F09D
:1014200001021A631B6B03F001030493049B0C235A
:10143000059302230693032308930723099305A921
:10144000084800F01DF922460521262000F074F816
:10145000262000F0A9F8A6E7001001400044004053
:101460000038024000000240DFF834D00D480E4939
:101470000E4A002302E0D458C4500433C4188C42EE
:10148000F9D30B4A0B4C002301E013600432A24253
:10149000FBD3FFF7CDFD02F019FEFFF767FC7047A5
:1014A00000000220000000205C080020645E0008AC
:1014B00060080020084F0020FEE7000008B50B4B35
:1014C0001A6842F400721A601A6842F480621A6064
:1014D0001A6842F480721A60032000F01BF80F2093
:1014E000FFF702FDFFF7DEFC002008BD003C0240D4
:1014F000034A1168034B1B780B441360704700BF0D
:10150000681100200C000020014B1868704700BFD4
:1015100068110020074AD36823F4E0631B041B0C06
:10152000000200F4E060034343F0BF6343F4003380
:10153000D360704700ED00E000B5194BDB68C3F3E2
:101540000223C3F1070CBCF1040F28BF4FF0040CB9
:1015500003F1040EBEF1060F18D9033B4FF0FF3E16
:101560000EFA0CFC21EA0C0199400EFA03F322EA70
:101570000303194300280BDB0901C9B200F16040E5
:1015800000F5614080F800135DF804FB0023E5E7F7
:1015900000F00F000901C9B2024B1954F4E700BF73
:1015A00000ED00E014ED00E0002807DB00F01F0272
:1015B000400901239340024A42F82030704700BF9F
:1015C00000E100E070B50446866DFFF79DFF94F8DA
:1015D0003530DBB2022B06D080236365002384F80C
:1015E0003430012070BD05462268136823F01603CD
:1015F00013602268536923F080035361236CE3B1C5
:101600002268136823F0080313602268136823F02C
:101610000103136023681B6813F0010F11D0FFF75B
:1016200073FF431B052BF5D920236365032084F842
:101630003500002384F83430D4E7A36C002BDFD1CD
:10164000E3E7E26D3F239340B360012384F8353034
:10165000002084F83400C5E790F83530DBB2022B67
:1016600003D08023436501207047052380F835307F
:101670000268136823F00103136000207047000024
:1016800000230F2B00F2E48070B582B060E0856823
:101690005E000324B44025EA0405CC68B4402C4322
:1016A0008460456825EA02054C68C4F300129A403C
:1016B0002A4342605AE0DC08083450F8246003F002
:1016C000070295000F22AA4026EA020E0A69AA40E4
:1016D00042EA0E0240F824205CE0072200E00022EB
:1016E00002FA0EF22A4302345A4D45F824205A4A8F
:1016F00094686FEA0C0224EA0C054E6816F4801F09
:1017000001D04CEA0405544CA560E46802EA0405E3
:101710004E6816F4001F01D04CEA04054E4CE560FB
:10172000646802EA04054E6816F4003F01D04CEAF2
:101730000405494C6560246822404D6815F4803FDB
:1017400001D04CEA0402444C226001330F2B7DD8B7
:1017500001229A400C6804EA020C32EA0404F4D133
:101760004C6804F00304013C012C90D94A6802F053
:101770000302032A09D0C4685D000322AA4024EAB8
:1017800002048A68AA402243C2604A6802F0030247
:10179000022A90D004684FEA430E032202FA0EF2A6
:1017A00024EA02044A6802F0030202FA0EF222431B
:1017B00002604A6812F4403FC7D000220192274AD3
:1017C000546C44F480445464526C02F4804201929C
:1017D000019A9C08A51C1F4A52F8255003F00302E9
:1017E0004FEA820E0F2202FA0EF225EA02051C4A87
:1017F00090423FF474AF02F5806290421AD002F535
:101800008062904218D002F58062904216D002F5B4
:101810008062904214D002F58062904212D002F5AC
:101820008062904210D002F5806290423FF455AF42
:10183000082255E7012253E7022251E703224FE72E
:1018400004224DE705224BE7062249E702B070BDAE
:10185000704700BF00380140003C014000380240A2
:10186000000002400369194201D0012070470020A6
:1018700070470AB1816170470904816170470000B7
:10188000002800F0E08170B582B00446036813F0D0
:10189000010F3BD09F4B9B6803F00C03042B2CD013
:1018A0009C4B9B6803F00C03082B21D06368B3F5B5
:1018B000803F4FD0B3F5A02F52D0964B1A6822F438
:1018C00080321A601A6822F480221A606368002B42
:1018D00050D0FFF719FE05468E4B1B6813F4003FEE
:1018E00014D1FFF711FE401B6428F5D90320B1E1A4
:1018F000884B5B6813F4800FD8D0864B1B6813F4B9
:10190000003F03D06368002B00F09F81236813F031
:10191000020F54D07F4B9B6813F00C0F3ED07D4BD1
:101920009B6803F00C03082B33D0E368002B68D0CE
:10193000794B01221A60FFF7E7FD0546754B1B68DE
:1019400013F0020F54D1FFF7DFFD401B0228F5D939
:1019500003207FE16F4A136843F480331360B5E7D7
:101960006C4B1A6842F480221A601A6842F4803282
:101970001A60ABE7FFF7C8FD0546664B1B6813F41A
:10198000003FC3D0FFF7C0FD401B6428F5D90320FA
:1019900060E1604B5B6813F4800FC6D15D4B1B6840
:1019A00013F0020F03D0E368012B40F05081594A35
:1019B000136823F0F803216943EAC1031360236825
:1019C00013F0080F42D063696BB3534B0122C3F885
:1019D000802EFFF799FD05464E4B5B6F13F0020F0B
:1019E00034D1FFF791FD401B0228F5D9032031E1E6
:1019F000484A136823F0F803216943EAC1031360DE
:101A0000DDE7454B00221A60FFF77EFD0546414B9E
:101A10001B6813F0020FD2D0FFF776FD401B02289F
:101A2000F5D9032016E13C4B0022C3F8802EFFF7C6
:101A30006BFD0546374B5B6F13F0020F06D0FFF7C7
:101A400063FD401B0228F5D9032003E1236813F04E
:101A5000040F77D02F4B1B6C13F0805F33D1002322
:101A600001932C4B1A6C42F080521A641B6C03F0E9
:101A700080530193019B0125284B1B6813F4807F41
:101A800023D0A368012B34D0052B38D0214B1A6FFB
:101A900022F001021A671A6F22F004021A67A36883
:101AA000002B3DD0FFF730FD06461A4B1B6F13F09D
:101AB000020F46D1FFF728FD801B41F28833984280
:101AC000F3D90320C6E00025D6E7144A136843F48F
:101AD00080731360FFF718FD0646104B1B6813F464
:101AE000807FCED1FFF710FD801B0228F5D903209F
:101AF000B0E0084A136F43F001031367CFE7054BCB
:101B00001A6F42F004021A671A6F42F001021A6754
:101B1000C5E700BF003802400000474200700040A7
:101B2000FFF7F2FC0646524B1B6F13F0020F08D072
:101B3000FFF7EAFC801B41F288339842F3D9032077
:101B400088E0EDB9A369002B00F08380484A9268D1
:101B500002F00C02082A51D0022B17D0454B00226C
:101B60001A66FFF7D1FC0446414B1B6813F0007F57
:101B700042D0FFF7C9FC001B0228F5D9032069E019
:101B80003B4A136C23F080531364DBE7394B00228C
:101B90001A66FFF7B9FC0546354B1B6813F0007F4A
:101BA00006D0FFF7B1FC401B0228F5D9032051E015
:101BB000E369226A1343626A43EA8213A26A520803
:101BC000013A43EA0243E26A43EA0263284A536065
:101BD000284B01221A66FFF797FC0446244B1B682A
:101BE00013F0007F06D1FFF78FFC001B0228F5D908
:101BF00003202FE000202DE000202BE0012B2BD034
:101C00001B4B5B6803F48001E269914226D103F02B
:101C10003F02216A8A4223D1616A47F6C0721A40A4
:101C2000B2EB811F1ED103F44031A26A5208013A7F
:101C3000B1EB024F18D103F07063E26AB3EB026FAD
:101C400014D1002006E001207047012002E00120AD
:101C500000E0002002B070BD0120FBE70120F9E7A1
:101C60000120F7E70120F5E70120F3E70120F1E784
:101C7000003802400000474208B5314B9B6803F032
:101C80000C03042B57D0082B57D12D4B5A6802F068
:101C90003F025B6813F4800F2AD0294B5968C1F3C7
:101CA000881C4FEA4C11B1EB0C006EEB0E0E4FEAA4
:101CB0008E1343EA90638101091A63EB0E03DB0084
:101CC00043EA5173C90011EB0C0C43F100035902B4
:101CD00000234FEA4C2041EADC51FEF791FA184B01
:101CE0005B68C3F3014301335B00B0FBF3F025E015
:101CF000134B5968C1F3881C4FEA4C11B1EB0C002F
:101D00006EEB0E0E4FEA8E1343EA90638101091ABF
:101D100063EB0E03DB0043EA5173C90011EB0C0CBB
:101D200043F10003990200234FEA8C2041EA9C51C1
:101D3000FEF766FAD3E7034800E0034808BD00BF9A
:101D40000038024000127A000024F400002800F05D
:101D50009B8070B50D4604464F4B1B6803F007038C
:101D60008B4208D2CBB24C4A1370136803F00703BE
:101D70008B4240F08B80236813F0020F17D013F0D2
:101D8000040F04D0454A936843F4E05393602368FA
:101D900013F0080F04D0414A936843F46043936002
:101DA0003E4A936823F0F003A1680B4393602368D5
:101DB00013F0010F32D06368012B21D09A1E012A43
:101DC00025D9364A126812F0020F61D033498A6869
:101DD00022F0030213438B60FFF796FB06462F4B5E
:101DE0009B6803F00C036268B3EB820F16D0FFF719
:101DF0008BFB801B41F288339842F0D9032042E0EC
:101E0000264A126812F4003FE0D101203BE0234A49
:101E1000126812F0007FD9D1012034E01E4B1B68FC
:101E200003F00703AB4207D9EAB21B4B1A701B68D9
:101E300003F00703AB422DD1236813F0040F06D043
:101E4000164A936823F4E053E1680B4393602368D8
:101E500013F0080F07D0114A936823F460432169F7
:101E600043EAC1039360FFF707FF0C4B9B68C3F382
:101E700003130B4AD35CD8400A4B18600A4B18680E
:101E8000FFF732F8002070BD012070470120FAE70B
:101E90000120F8E70120F6E7003C0240003802404C
:101EA000285E00080800002010000020014B186880
:101EB000704700BF0800002008B5FFF7F7FF044B8C
:101EC0009B68C3F38223034AD35CD84008BD00BF9C
:101ED00000380240385E000808B5FFF7E7FF044B02
:101EE0009B68C3F34233034AD35CD84008BD00BFAC
:101EF00000380240385E00080F2303600B4B9A68DD
:101F000002F0030242609A6802F0F00282609A686E
:101F100002F4E052C2609B68DB0803F4E053036103
:101F2000034B1B6803F007030B6070470038024047
:101F3000003C024030B4036A23F001030362036AE9
:101F40004268846924F073040D682C4323F0020C6A
:101F50008B6843EA0C03104DA84203D005F5806559
:101F6000A84205D123F00803CD682B4323F00403D6
:101F7000094DA84203D005F58065A84205D122F499
:101F800040724D692A438D692A43426084614A68E0
:101F90004263036230BC70470000014030B4036A02
:101FA00023F480730362036A4268C46924F0730CEB
:101FB0000C6844EA0C0523F400738C6843EA04239C
:101FC000114CA04203D004F58064A04206D123F452
:101FD0000063CC6843EA042323F480630A4CA042E4
:101FE00003D004F58064A04207D122F440524C692A
:101FF00042EA04128C6942EA04124260C5614A68EE
:10200000C263036230BC70470000014030B4036A11
:1020100023F480530362036A4468C26922F4E642EF
:102020000D6842EA052223F400538D6843EA053324
:10203000094DA84203D005F58065A84204D124F4D7
:1020400080444D6944EA85144460C2614A68026470
:10205000036230BC704700BF0000014070470000C1
:1020600090F83D30DBB2012B37D1022380F83D30B0
:102070000268D36843F00103D3600368194A9342AE
:1020800020D0B3F1804F1DD0A2F57C42934219D0ED
:1020900002F58062934215D002F58062934211D01E
:1020A00002F5784293420DD002F57052934209D066
:1020B000A2F59432934205D01A6842F001021A60E8
:1020C000002070479A6802F00702062A07D01A68B3
:1020D00042F001021A600020704701207047002082
:1020E000704700BF0000014070477047704710B54F
:1020F000044603681A6912F0020F11D0DA6812F070
:10210000020F0DD06FF002021A61012303770368FA
:102110009B6913F0030F70D0FEF780FC0023237738
:1021200023681A6912F0040F12D0DA6812F0040F53
:102130000ED06FF004021A610223237723689B6993
:1021400013F4407F5FD02046FEF768FC002323771E
:1021500023681A6912F0080F12D0DA6812F0080F1B
:102160000ED06FF008021A61042323772368DB691D
:1021700013F0030F4ED02046FEF750FC00232377C8
:1021800023681A6912F0100F12D0DA6812F0100FDB
:102190000ED06FF010021A61082323772368DB69E1
:1021A00013F4407F3DD02046FEF738FC0023237710
:1021B00023681A6912F0010F03D0DA6812F0010FD8
:1021C00036D123681A6912F0800F03D0DA6812F052
:1021D000800F34D123681A6912F0400F03D0DA68F7
:1021E00012F0400F32D123681A6912F0200F03D089
:1021F000DA6812F0200F30D110BDFFF775FF2046CE
:10220000FFF773FF8AE72046FFF76EFF2046FFF7D0
:102210006CFF9BE72046FFF767FF2046FFF765FF4F
:10222000ACE72046FFF760FF2046FFF75EFFBDE703
:102230006FF001021A612046FEF734FDC1E76FF02E
:1022400080021A61204600F000FCC3E76FF04002F4
:102250001A612046FFF74AFFC5E76FF020021A61B6
:10226000204600F0F1FBC7E70368304A904212D0E5
:10227000B0F1804F0FD0A2F57C4290420BD002F516
:102280008062904207D002F58062904203D002F54E
:102290007842904203D123F070034A681343234AE3
:1022A00090422AD0B0F1804F27D0A2F57C429042D4
:1022B00023D002F5806290421FD002F580629042E6
:1022C0001BD002F57842904217D002F5705290422E
:1022D00013D002F5806290420FD002F580629042E6
:1022E0000BD0A2F59832904207D002F5806290425E
:1022F00003D002F58062904203D123F44073CA6890
:10230000134323F080034A69134303608B68C3625D
:102310000B688362054B984203D003F580639842B3
:1023200001D10B6903630123436170470000014041
:1023300040B310B5044690F83D30F3B1022384F861
:102340003D30214651F8040BFFF78EFF012384F83E
:10235000463084F83E3084F83F3084F8403084F8CA
:10236000413084F8423084F8433084F8443084F8B3
:10237000453084F83D30002010BD80F83C30FFF738
:102380006DFEDBE70120704740B310B5044690F8BE
:102390003D30F3B1022384F83D30214651F8040B5F
:1023A000FFF762FF012384F8463084F83E3084F85A
:1023B0003F3084F8403084F8413084F8423084F86B
:1023C000433084F8443084F8453084F83D300020B0
:1023D00010BD80F83C30FEF791FEDBE7012070472E
:1023E00030B4036A23F010030362036A446882690D
:1023F00022F4E6420D6842EA052223F020038D68AC
:1024000043EA0513114DA84203D005F58065A842A3
:1024100006D123F08003CD6843EA051323F040037F
:102420000A4DA84203D005F58065A84207D124F4DF
:1024300040644D6944EA85048D6944EA850444603A
:1024400082614A688263036230BC704700000140C9
:1024500038B590F83C30012B66D004460D46012378
:1024600080F83C300C2A5AD8DFE802F00759595955
:102470001B5959593059595944000068FFF75AFD02
:102480002268936943F0080393612268936923F0FB
:10249000040393612268936929690B4393610020C7
:1024A0003EE00068FFF79CFF2268936943F40063F5
:1024B00093612268936923F480639361226893692E
:1024C000296943EA01239361002029E00068FFF7AE
:1024D00065FD2268D36943F00803D3612268D3699C
:1024E00023F00403D3612268D36929690B43D361C4
:1024F000002015E00068FFF789FD2268D36943F4E6
:102500000063D3612268D36923F48063D3612268B6
:10251000D369296943EA0123D361002000E0012047
:10252000002384F83C3038BD0220FCE770B49446A8
:10253000046A24F0010404628469066A184DA84202
:102540001CD0B0F1804F19D0164A904216D002F537
:102550008062904212D002F5806290420ED002F565
:10256000784290420AD002F57052904206D0A2F50D
:102570009432904202D044F0010203E024F00302BE
:1025800042EA0C0222F0F0021B01DBB2134326F0F8
:102590000A0201F00A0111438361016270BC7047B5
:1025A000000001400004004001F01F01012303FA74
:1025B00001FC036A23EA0C030362036A02FA01F1D5
:1025C0000B4303627047000010B50446084600291B
:1025D00042D194F83E30DBB2013B18BF0123002BFF
:1025E0006ED1002851D1022384F83E3001220146E9
:1025F0002068FFF7D9FF2368334A934203D002F5DE
:102600008062934203D15A6C42F400425A642368B8
:102610002D4A934249D0B3F1804F46D0A2F57C4277
:10262000934242D002F5806293423ED002F580622E
:1026300093423AD002F57842934236D002F5705276
:10264000934232D0A2F5943293422ED01A6842F0CF
:1026500001021A60002032E0042908D008290DD0B8
:1026600094F84130DBB2013B18BF0123B7E794F87F
:102670003F30DBB2013B18BF0123B0E794F8403094
:10268000DBB2013B18BF0123A9E7042805D00828C5
:1026900007D0022384F84130A8E7022384F83F30B2
:1026A000A4E7022384F84030A0E79A6802F007020A
:1026B000062A07D01A6842F001021A60002010BDF5
:1026C0000120FCE70020FAE70000014038B504468D
:1026D0000D4600220068FFF767FF23681D4A9342FA
:1026E00018D002F58062934214D02368196A41F22F
:1026F0001112114208D1196A40F24442114203D129
:102700001A6822F001021A609DB9012384F83E3054
:10271000002038BD196A41F211121142E5D1196A3F
:1027200040F244421142E0D15A6C22F400425A6411
:10273000DBE7042D05D0082D07D0012384F84130B4
:10274000E6E7012384F83F30E2E7012384F84030D4
:10275000DEE700BF0000014001F01F01042303FA7F
:1027600001FC036A23EA0C030362036A02FA01F123
:102770000B4303627047002865D070B588B00E46E1
:10278000044690F83D30002B58D0022384F83D30A9
:10279000214651F8040BFFF767FDB3680322316847
:1027A0002068FFF7C3FE2268936923F00C0393614E
:1027B0002268936971680B4393612268536843F000
:1027C000800353602268936823F07003936022684B
:1027D000936843F0400393602268936823F00703F3
:1027E00093602268936843F0040393600025059585
:1027F000069570230193079504950395F36802935A
:1028000001A92068FFF7ECFD2268536823F07003EC
:1028100053602268536843F050035360012384F8E7
:10282000463084F83E3084F83F3084F8423084F8F3
:10283000433084F83D30284608B070BD80F83C3005
:10284000FEF774FCA1E701207047000010B50446B4
:10285000084600293BD194F84230DBB2013B18BF57
:102860000123002B67D100284AD1022384F842308B
:10287000042201462068FFF76FFF2268536C43F47F
:102880000043536423682E4A934249D0B3F1804FEA
:1028900046D0A2F57C42934242D002F58062934238
:1028A0003ED002F5806293423AD002F578429342DC
:1028B00036D002F57052934232D0A2F59432934250
:1028C0002ED01A6842F001021A60002032E004297A
:1028D00008D008290DD094F84530DBB2013B18BF71
:1028E0000123BEE794F84330DBB2013B18BF01235C
:1028F000B7E794F84430DBB2013B18BF0123B0E7DF
:10290000042805D0082807D0022384F84530AFE713
:10291000022384F84330ABE7022384F84430A7E76E
:102920009A6802F00702062A07D01A6842F00102EC
:102930001A60002010BD0120FCE70020FAE700BF6C
:102940000000014038B504460D4600220068FFF73C
:1029500003FF2368196A41F21112114208D1196A62
:1029600040F24442114203D15A6C22F400425A64AC
:102970002368196A41F21112114208D1196A40F212
:102980004442114203D11A6822F001021A6025B9AB
:10299000012384F84230002038BD042D05D0082DD5
:1029A00007D0012384F84530F5E7012384F843304C
:1029B000F1E7012384F84430EDE7000090F83C3063
:1029C000012B3DD010B4012380F83C30022380F865
:1029D0003D3003685A689C6822F0700C0A6842EA2D
:1029E0000C025A600368174A93421AD0B3F1804F21
:1029F00017D0A2F57C42934213D002F58062934235
:102A00000FD002F5806293420BD002F578429342D8
:102A100007D002F57052934203D0A2F5943293424C
:102A200004D124F080044A6814439C60012380F898
:102A30003D30002380F83C3018465DF8044B704769
:102A4000022070470000014070477047026802F1A1
:102A50000C0353E8003F23F490730C3242E800313A
:102A60000029F3D1026802F1140353E8003F23F078
:102A70000103143242E800310029F3D1036B012B2A
:102A800005D0202380F83E3000230363704702689E
:102A900002F10C0353E8003F23F010030C3242E82C
:102AA00000310029F3D1ECE790F83D30DBB2212B67
:102AB00001D0022070478368B3F5805F17D0036AA6
:102AC0005A1C02621A7803685A60C38C9BB2013B9D
:102AD0009BB2C3844BB90268D36823F08003D360F0
:102AE0000268D36843F04003D36000207047036955
:102AF000002BE4D1036A1B880268C3F30803536008
:102B0000036A02330362E0E738B5044602681369DA
:102B100023F44053C1680B43136183680269134374
:102B200042691343C2691A430168CB6823F4164310
:102B300023F00C031343CB600268536923F4407302
:102B400081690B4353610368314A934206D002F511
:102B50008062934202D0FFF7AFF901E0FFF7BCF9C2
:102B6000E369B3F5004F29D00021031849411B1830
:102B700041F10001C90041EA5371DB001818636894
:102B80004FEA83024FEA937341F10001FDF738FBEE
:102B9000204DA5FB00325109642303FB11031B01E7
:102BA0003233A5FB03235B0903F0F00202EB0112B1
:102BB00003F00F03216813448B6038BD0023021813
:102BC00043EB0301121841F10001C90041EA5271BF
:102BD000D200101841F10001626892185B41FDF7C4
:102BE0000FFB0C4DA5FB00325109642303FB1103BD
:102BF000DB003233A5FB03235B095A0002F4F872B1
:102C000002EB011203F00703216813448B60D4E741
:102C1000001001401F85EB512DE9F84305460F4692
:102C200016469946DDF820802C68246837EA0403AC
:102C30000CBF4FF0010C4FF0000CB4452DD1B8F192
:102C4000FF3FF1D0B8F1000F05D0FEF75DFCA0EB1F
:102C500009004045E8D92A6802F10C0353E8003F17
:102C600023F4D0730C3242E800310029F3D12A68F2
:102C700002F1140353E8003F23F00103143242E849
:102C800000310029F3D1202385F83D3085F83E300E
:102C9000002385F83C30032000E00020BDE8F883E5
:102CA00058B310B5044690F83D300BB3242384F894
:102CB0003D302268D36823F40053D3602046FFF7E9
:102CC00023FF2268136923F4904313612268536938
:102CD00023F02A0353612268D36843F40053D3607E
:102CE00000202064202384F83D3084F83E3010BD5D
:102CF00080F83C30FEF748FBD8E7012070472DE90B
:102D0000F04182B01E4690F83D30DBB2202B54D10A
:102D100004460D469046002953D0002A53D090F81F
:102D20003C30012B51D0012380F83C300023036458
:102D3000212380F83D30FEF7E7FB0746A4F8248006
:102D4000A4F82680A368B3F5805F05D04FF0000893
:102D5000002384F83C3012E0236913B14FF00008DF
:102D6000F6E7A8460025F3E738F8023B2268C3F3EC
:102D700008035360E28C92B2013A92B2E284E38C8F
:102D80009BB273B100963B46002280212046FFF79C
:102D900043FFE0B9002DE7D015F8012B23685A60F6
:102DA000E8E700963B46002240212046FFF734FF2B
:102DB00078B9202384F83D3000E0022002B0BDE85D
:102DC000F0810120FAE70120F8E70220F6E703206E
:102DD000F4E70320F2E72DE9F04182B01E4690F8B7
:102DE0003E30DBB2202B5CD104460D4690460029D4
:102DF0005BD0002A5BD090F83C30012B59D00123E6
:102E000080F83C3000230364222280F83E200363D4
:102E1000FEF77AFB0746A4F82C80A4F82E80A3685E
:102E2000B3F5805F05D04FF00008002384F83C30F4
:102E300017E0236913B14FF00008F6E7A846002514
:102E4000F3E723685B68C3F3080328F8023B03E059
:102E500023685B682B700135E28D92B2013A92B221
:102E6000E285E38D9BB2BBB100963B460022202158
:102E70002046FFF7D1FEF0B9002DE2D0A368B3F5EC
:102E8000805FE5D013B92369002BE1D023685B682C
:102E900003F07F032B70DEE7202384F83E30002010
:102EA00000E0022002B0BDE8F0810120FAE7012035
:102EB000F8E70220F6E70320F4E7704708B5016859
:102EC000CA6822F04002CA60202280F83D20FFF745
:102ED000F4FF002008BD7047704708B5806B0023E1
:102EE000C385C384FFF7F8FF08BD704790F83E30F4
:102EF000DBB2222B67D18368B3F5805F4DD0826A45
:102F0000B3F5805F04D0002B54D10369002B51D15D
:102F100003685B681370836A01338362C38D9BB25D
:102F2000013B9BB2C385002B4FD100B583B0026833
:102F3000D36823F02003D3600268D36823F480733E
:102F4000D3600268536923F001035361202380F8A2
:102F50003E30036B012B33D100230363026802F17F
:102F60000C0353E8003F23F010030C3242E8003119
:102F70000029F3D103681A6812F0100F06D000225E
:102F800001921A6801925B680193019B818DFFF7A2
:102F9000ACFF002003B05DF804FB0269002AAED14B
:102FA000826A03685B68C3F308031380836A023391
:102FB0008362B3E703685B6803F07F031370AAE7DB
:102FC000FFF789FFE5E70220704700207047000007
:102FD00030B583B0044602681368D068516913F0B5
:102FE0000F0505D113F0200F02D010F0200F19D1DA
:102FF0002DB111F0010119D110F4907F16D1216B80
:1030000001297DD013F0800F03D010F0800F40F025
:10301000158113F0400F03D010F0400F40F01281E3
:1030200003B030BD2046FFF761FFF9E713F0010F51
:1030300006D010F4807F03D0226C42F0010222649B
:1030400013F0040F04D019B1226C42F00202226482
:1030500013F0020F04D019B1226C42F00402226472
:1030600013F0080F07D010F0200F00D119B1226C17
:1030700042F008022264226C002AD1D013F0200F03
:1030800002D010F0200F29D123685B6903F04003C0
:10309000226C12F0080F00D163B32046FFF7D6FC74
:1030A00023685B6913F0400F20D0226802F11403FB
:1030B00053E8003F23F04003143242E80031002976
:1030C000F3D1A36B73B1614A1A65A06BFEF7C4FA22
:1030D0000028A5D0A06B036D9847A1E72046FFF715
:1030E00005FFD1E72046FFF7F7FE99E72046FFF7F7
:1030F000F3FE95E72046FFF7EFFE002323648FE7FA
:1031000013F0100F3FF47EAF10F0100F3FF47AAFC2
:10311000002301931368019353680193019B536942
:1031200013F0400F50D0A26B13685B689BB2002B6A
:103130003FF476AFA18D99427FF672AFE385D369F4
:10314000B3F5807F37D0226802F10C0353E8003FCB
:1031500023F480730C3242E800310029F3D1226855
:1031600002F1140353E8003F23F00103143242E854
:1031700000310029F3D1226802F1140353E8003F23
:1031800023F04003143242E800310029F3D1202318
:1031900084F83E3000232363226802F10C0353E8D5
:1031A000003F23F010030C3242E800310029F3D134
:1031B000A06BFEF707FAA18DE38D9BB2C91A89B205
:1031C0002046FFF792FE2BE7A18DE38D9BB2C91A33
:1031D00089B2E38D9BB2002B3FF422AF00293FF46C
:1031E0001FAF226802F10C0353E8003F23F49073F1
:1031F0000C3242E800300028F3D1226802F11403B7
:1032000053E8003F23F00103143242E80030002865
:10321000F3D1202384F83E3000232363226802F197
:103220000C0353E8003F23F010030C3242E8003057
:103230000028F3D12046FFF758FEF1E62046FFF7BD
:1032400033FCEDE62046FFF739FEE9E6DB2E000809
:10325000842801D0033070470020704708B500F083
:1032600065FD002008BD2DE9F04387B004460F46F8
:103270004569BDB18669AEB1D0F80480D0F8009040
:10328000B0F90800FFF7E4FF0296019500903B4675
:1032900022694946404600F0D7FC0590059807B0E2
:1032A000BDE8F08365682668D4F81080B4F908009A
:1032B000FFF7CEFF05AB019300903B461FFA88F263
:1032C0003146284600F0FDFC0128E7D00020E6E763
:1032D00008B500B9012000F07BFE002008BD00F118
:1032E000080343604FF0FF328260C3600361002334
:1032F0000360704700230361704743684B609A681E
:103300008A60516099600861036801330360704707
:1033100030B40D68B5F1FF3F11D000F108031C4631
:103320005B681A68AA42FAD963684B6099608C603E
:103330006160086103680133036030BC7047046951
:10334000F2E70369416882688A60416851605A689F
:10335000824206D0002202611A68013A1A60186897
:10336000704782685A60F5E782B0002301930D4BE5
:103370001B68B3F1FF3F08D04FF0500383F311886F
:10338000BFF36F8FBFF34F8FFEE74FF0500383F310
:103390001188BFF36F8FBFF34F8F019B002BFCD0C1
:1033A00002B070471400002008480068006880F3ED
:1033B00008884FF0000080F3148862B661B6BFF34E
:1033C0004F8FBFF36F8F00DF00BF000008ED00E0FC
:1033D000DFF80C00016841F47001016070470000E3
:1033E00088ED00E04FF0807340F8043C21F00101CB
:1033F00040F8081C054B40F80C3C40F8202C6FF0BE
:10340000020340F8243C4438704700BF6933000889
:10341000074B19680868B0E8F04F80F30988BFF3DC
:103420006F8F4FF0000080F311887047AFF300807A
:10343000944D00204FF0500383F31188BFF36F8F3A
:10344000BFF34F8F0B4A136801331360012B00D079
:1034500070474FF0E023D3F8043D13F0FF0FF7D08F
:103460004FF0500383F31188BFF36F8FBFF34F8F7B
:10347000FEE700BF14000020094B1B6843B94FF062
:10348000500383F31188BFF36F8FBFF34F8FFEE7B5
:10349000013B034A13600BB983F31188704700BFE7
:1034A00014000020000000000000000000000000E8
:1034B000EFF30980BFF36F8F154B1A681EF0100FE2
:1034C00008BF20ED108A20E9F04F10602DE90900B7
:1034D0004FF0500080F31188BFF34F8FBFF36F8F11
:1034E00000F09CFD4FF0000080F3118809BC1968C2
:1034F0000868B0E8F04F1EF0100F08BFB0EC108A5B
:1035000080F30988BFF36F8F704700BFAFF300806F
:10351000944D002008B54FF0500383F31188BFF39A
:103520006F8FBFF34F8F00F04BFC28B14FF0E023BB
:103530004FF08052C3F8042D002383F3118808BD97
:103540004FF0E022002313619361054B1B6805498E
:10355000A1FB03139B09013B5361072313617047D0
:1035600008000020D34D62104FF0E023D3F8002D67
:103570003D4B9A421CD04FF0E023D3F8002D3B4B3B
:103580009A421ED030B583B0394B1A78D2B201922C
:10359000FF221A701B78DBB28DF803309DF80330E0
:1035A00003F05003334A1370334B07221A601BE0B9
:1035B0004FF0500383F31188BFF36F8FBFF34F8F2A
:1035C000FEE74FF0500383F31188BFF36F8FBFF313
:1035D0004F8FFEE7284A1368013B13609DF80330C4
:1035E0005B00DBB28DF803309DF8033013F0800FE1
:1035F000F0D1214B1B68032B08D04FF0500383F30D
:103600001188BFF36F8FBFF34F8FFEE71B021A4A7B
:10361000136003F4E0631360019BDBB2144A137080
:103620004FF0E024D4F8203D43F47003C4F8203D6B
:10363000D4F8203D43F07043C4F8203DFFF780FFED
:1036400000250E4B1D60FFF7C3FED4F8343F43F056
:103650004043C4F8343FFFF7A7FE00F0DFFCFFF75C
:1036600083FE284603B030BD71C20F4170C20F41C6
:1036700000E400E06C110020701100201400002014
:10368000124A12F0070F1ED0D11D21F00701C1F51B
:10369000705313440A460E480260002141601344EF
:1036A000083B23F007030B48036059601960991A1F
:1036B00051601360084B1960084B1960084B4FF0BC
:1036C00000421A6070474FF47053E4E7781100200D
:1036D0008C4D002074110020804D00207C4D002076
:1036E000784D0020164B1A461B688342FBD3516865
:1036F00002EB010C844509D0416800EB010C6345E5
:1037000009D00360904219D01060704740680144AE
:1037100051601046F0E710B40A4C2468A3420BD065
:103720005B681944416013681B680360904200D0D5
:1037300010605DF8044B70470460F7E7704700BF06
:103740008C4D00207411002070B5054600F030FB50
:10375000364B1B68A3B1364B1B681D424ED135B1A9
:10376000083515F0070F02D025F007050835002DA4
:1037700046D0304B1B68AB4251D32F4A146804E04B
:10378000FFF77EFFE7E722461C466368AB4202D2A2
:103790002368002BF7D1254B1B68A34241D0166844
:1037A00008362368136063685B1B102B10D96019FF
:1037B00010F0070F08D04FF0500383F31188BFF3C8
:1037C0006F8FBFF34F8FFEE743606560FFF78AFF9F
:1037D000626818490B689B1A0B60184909688B428C
:1037E00001D216490B60124B1B6813436360002320
:1037F0002360134A13680133136002E0002600E0DF
:10380000002600F069FB16F0070F0CD04FF05003B4
:1038100083F31188BFF36F8FBFF34F8FFEE700264E
:10382000EFE70026EDE7304670BD00BF74110020C1
:10383000784D00207C4D00208C4D0020804D0020D4
:10384000844D0020002834D038B50446A0F1080586
:1038500050F8043C174A1268134208D14FF0500345
:1038600083F31188BFF36F8FBFF34F8FFEE750F8DC
:10387000081C41B14FF0500383F31188BFF36F8FE1
:10388000BFF34F8FFEE723EA020340F8043C00F049
:103890008FFA54F8041C084A13680B441360284636
:1038A000FFF720FF054A13680133136000F014FB93
:1038B00038BD7047784D00207C4D0020884D002099
:1038C000084B1B681B6823B9074B4FF0FF321A6087
:1038D0007047044B1B68DB68DB685A68024B1A6050
:1038E000704700BF984D00206C4E00202DE9F04736
:1038F00007469846089DDDF824900A9C266B02F145
:103900008042013A06EB820626F00706002968D0BD
:103910008E464FF0000CBCF10F0F0BD81EF80C2098
:1039200004EB0C0383F834201EF80C3013B10CF1B7
:10393000010CF0E7002384F84330062D00D906255A
:10394000E56265644FF0000AC4F848A0201DFFF747
:10395000D1FC04F11800FFF7CDFC2461C5F1070587
:10396000A5616462C4F878A484F87CA44FF48562ED
:10397000514604F1500000F0CDFB04F54F73636530
:1039800004F56973A36504F20C43E3650122002387
:10399000C4E93E2343F20E33A4F800314AF6CD3396
:1039A000A4F8023141F23423A4F804314EF26D63DD
:1039B000A4F806314DF6EC63A4F808310523A4F809
:1039C0000A310B23A4F80C31424639463046FFF742
:1039D00009FD2060B9F1000F01D0C9F80040BDE831
:1039E000F087002384F83430A7E7000038B50024BE
:1039F00007E004EB840293000E481844FFF76FFCC5
:103A00000134062CF5D90C4D2846FFF768FC0B4C09
:103A10002046FFF764FC0A48FFF761FC0948FFF7FE
:103A20005EFC0948FFF75BFC084B1D60084B1C60FF
:103A300038BD00BFA04D0020404E0020544E002055
:103A4000784E0020A44E0020904E0020984D00207B
:103A50009C4D002010B50446FFF7ECFC214A13688A
:103A600001331360204B1B685BB1204B1B686BB9A3
:103A70001D4B1B68DA6AE36A9A4207D81A4B1C602E
:103A800004E0194B1C601368012B28D0184A1368F6
:103A900001331360E06A01238340164A11680B4327
:103AA000136000EB8000211D134B03EB8000FFF738
:103AB00024FCFFF7E1FC0D4B1B687BB10A4B1B6834
:103AC000DA6AE36A9A4209D24FF0E0234FF080525B
:103AD000C3F8042DBFF34F8FBFF36F8F10BDFFF7F7
:103AE00085FFD3E72C4E0020944D00208C4E002003
:103AF000384E00203C4E0020A04D002010B504465A
:103B0000503000F0D3FB94F87D3463B1012B11D019
:103B1000022B0ED04FF0500383F31188BFF36F8F49
:103B2000BFF34F8FFEE7206BFFF78CFE2046FFF7B9
:103B300089FE10BD2046FFF785FEFAE70F4B1B6894
:103B4000D3B110B5FFF776FC0D4BDB68DC68201DA8
:103B5000FFF7F7FB0B4A1368013B1360074A136832
:103B6000013B1360FFF788FC2046FFF7C7FF034BBC
:103B70001B68002BE6D110BD704700BF304E0020FF
:103B8000A44E00202C4E002008B5FFF7D7FF074BAE
:103B90001B68012BF9D94FF0E0234FF08052C3F896
:103BA000042DBFF34F8FBFF36F8FEEE7A04D0020C2
:103BB00070B504460D461D4B1E681D4B1868043039
:103BC000FFF7BFFB50B91A4B1B68DA6A012303FAEF
:103BD00002F218490B6823EA02030B60B4F1FF3FBD
:103BE0000DD03444124B1B685C60A64210D9124BB6
:103BF00018680F4B19680431FFF78AFB70BD002D60
:103C0000EFD00B4B196804310C48FFF776FBF5E752
:103C10000B4B1868064B19680431FFF779FB094B09
:103C20001B68A342EAD9074B1C60E7E7B84E0020A7
:103C3000944D00203C4E00209C4D0020904E0020D2
:103C4000984D00206C4E002030B587B00B9C8CB195
:103C50000C9DC5B14FF490650495049DB5F5906F2A
:103C60001AD04FF0500383F31188BFF36F8FBFF367
:103C70004F8FFEE74FF0500383F31188BFF36F8F30
:103C8000BFF34F8FFEE74FF0500383F31188BFF36C
:103C90006F8FBFF34F8FFEE7049D0C9D2C630224B2
:103CA00085F87D4400240394029505AC01940A9C98
:103CB0000094FFF71BFE0C98FFF7CCFE059807B0A9
:103CC00030BD2DE9F04385B00746884614461E46B0
:103CD0009000FFF739FD08B381464FF49060FFF77D
:103CE00033FD0546B0B1C0F83090E5B1002385F84A
:103CF0007D34039302950D9B01930C9B00933346F7
:103D0000224641463846FFF7F1FD2846FFF7A2FE5E
:103D1000012005E04846FFF795FDE6E74FF0FF304C
:103D200005B0BDE8F0834FF0FF30F9E710B588B07B
:103D300000240594069407AA06A905A8FCF7F6FE38
:103D4000059B0293069B019300942346079A104912
:103D50001048FFF779FF104B1860B8B14FF05003CF
:103D600083F31188BFF36F8FBFF34F8F0B4B1B682B
:103D700050330B4A13600B4B4FF0FF321A600A4B63
:103D800001221A60094B1C60FFF7EEFB08B010BD62
:103D9000405E0008893B0008684E0020944D0020DA
:103DA000180000206C4E00208C4E0020B84E0020E1
:103DB000024A136801331360704700BF344E00207D
:103DC000F8B53A4B1B68002B69D1394B1D6801359A
:103DD0001D60C5B9374B1B681B6843B14FF05003DA
:103DE00083F31188BFF36F8FBFF34F8FFEE7314A24
:103DF0001168314B186810601960304A136801333C
:103E00001360FFF75DFD2E4B1B68AB423DD90027C9
:103E10002C4B1B68DB6A03EB83039A002A4B9B58ED
:103E2000012B00D90127294B1B68002B3CD001270F
:103E30003AE001271F4B1B681B6843B31D4B1B68EF
:103E4000DB68DC6863689D4226D3261D3046FFF799
:103E500078FAA36A1BB104F11800FFF772FAE36A5B
:103E600001229A401A49086802430A6003EB83035F
:103E70009A00314614481044FFF73FFAE26A114BAA
:103E80001B68DB6A9A42D4D2D4E70027D2E70C4BF6
:103E90004FF0FF321A60BBE7094A1360B8E70D4ADA
:103EA00013680133136000273846F8BD344E0020F4
:103EB000B84E0020984D00209C4D0020704E0020F0
:103EC0006C4E0020944D0020A04D0020BC4E0020E0
:103ED0003C4E0020744E002038B5354B1B6843B96A
:103EE0004FF0500383F31188BFF36F8FBFF34F8FF1
:103EF000FEE7FFF79FFA2E4B1A68013A1A601B681B
:103F0000002B4FD12B4B1B680BB900244BE0002436
:103F1000294B1B681BB3284BDB68DC6804F11800D5
:103F2000FFF70FFA251D2846FFF70BFAE06A012379
:103F30008340224A11680B43136000EB800029463E
:103F40001F4B03EB8000FFF7D8F9E26A1D4B1B689B
:103F5000DB6A9A42DCD31C4B01221A60D8E70CB111
:103F6000FFF7AEFC194B1C6884B9174B1C68D4B121
:103F70004FF0E0234FF08052C3F8042DBFF34F8F72
:103F8000BFF36F8F01240EE0013C07D0FFF718FF4D
:103F90000028F9D00C4B01221A60F5E70B4B0022E8
:103FA0001A60E2E70024FFF767FA204638BD00BF39
:103FB000344E00202C4E0020784E00203C4E002035
:103FC000A04D0020944D0020BC4E0020744E0020D7
:103FD00010B5A8B10446104B1B6843B14FF0500315
:103FE00083F31188BFF36F8FBFF34F8FFEE7FFF7A7
:103FF000DFFE00212046FFF7DBFDFFF76DFF48B92C
:104000004FF0E0234FF08052C3F8042DBFF34F8FE1
:10401000BFF36F8F10BD00BF344E0020224B1B68D2
:104020001BB1224B01221A607047204B00221A60FC
:104030001F4B1B68B3FA83F3DBB2C3F11F0303EB1F
:1040400083018A001B498A5842B94FF0500383F319
:104050001188BFF36F8FBFF34F8FFEE7154903EB56
:10406000830082000A4450684068506003EB830C70
:104070004FEA8C020832114488420DD003EB8303CF
:104080009A000C4B13445B68DA680B4B1A601B6890
:1040900050330A4A13607047406862469100054AEF
:1040A0000A445060EAE700BF344E0020BC4E0020B6
:1040B0003C4E0020A04D0020944D00201800002010
:1040C000014B1868704700BF1800002070B50D4EF6
:1040D0000D4D761BB61006D0002455F8043B013474
:1040E0009847A642F9D1094E094D761B01F032FEE0
:1040F000B61006D0002455F8043B01349847A64278
:10410000F9D170BD585E0008585E0008605E000876
:10411000585E0008830730B548D0541E002A3FD0AF
:10412000CAB2034601E0013C3AD303F8012B9D07D4
:10413000F9D1032C2DD9CDB245EA05250F2C45EA3E
:10414000054536D9A4F1100222F00F0C03F1200E20
:10415000E6444FEA121C03F1100242E9045542E919
:10416000025510327245F8D10CF1010214F00C0F17
:1041700003EB021204F00F0C13D0ACF1040323F094
:1041800003030433134442F8045B9342FBD10CF065
:1041900003042CB1CAB21C4403F8012B9C42FBD18E
:1041A00030BD64461346002CF4D1F9E703461446AB
:1041B000BFE71A46A446E0E770B5054688B0084652
:1041C0000C46FCF73DFA224EAA6B059001214318DC
:1041D000CDE9066104A8022104940393AC68019020
:1041E000029122B3636E13F0010FB4F90C309AB24E
:1041F00001D1980525D5910406D4626E43F400538D
:1042000022F40052A3816266284601AA214600F0EA
:10421000B1FC636E002814BF4FF0FF350A25DA07A2
:1042200002D4A3899B0506D5284608B070BD284650
:1042300000F0A2FAD6E7A06D00F03EFE284608B0D6
:1042400070BDA06D00F036FEB4F90C309AB2D2E722
:104250004C5E0008024B01461868FFF7ADBF00BF77
:10426000180000202DE9F0410E680C460546BEB14D
:1042700037688FB1D7F80080B8F1000F08D0D8F8B0
:10428000001009B1FFF7EEFF4146284600F06CFB35
:104290003946284600F068FB3146284600F064FBAA
:1042A00021462846BDE8F04100F05EBB224B1B686A
:1042B000834240D0C16C70B5054681B100268C594F
:1042C0003CB121462468284600F04EFB002CF8D172
:1042D000E96C0436802EF2D1284600F045FB296CAB
:1042E00011B1284600F040FBD5F8484154B105F51E
:1042F000A676B44206D021462468284600F034FB56
:10430000A642F8D1696D11B1284600F02DFBAB6BC8
:1043100083B1EB6B28469847D5F8E04254B1216849
:1043200011B12846FFF79EFF21462846BDE87040A0
:1043300000F01ABB70BD7047180000202DE9F04353
:10434000694CD4F8008083B004460E4617461D46DB
:10435000B8F1000F03D0D8F83830002B77D0022FF7
:1043600005D0012F00F2AC80002DC0F2A980636E51
:10437000DA0752D52146404600F0CAF9216B41B117
:1043800004F14003994202D0404600F0EDFA0023C8
:104390002363B4F90CC000231CF0800FA361636099
:1043A00064D12CF44A6C2CF0030C022FA4F80CC03E
:1043B0006AD001AB6A462146404600F0EFFDA38972
:1043C0001843A081002D2FD0002E2ED0D8F83830E1
:1043D000002B38D0009B2660AB42B4F90C301CBFD8
:1043E00043F40063A381012F04BF43F00103A381C1
:1043F0009AB213F00803C4E904652CD0D1075DD547
:104400006D42A561656E002315F00105A36027D0FC
:104410000025284603B0BDE8F083A3899B05A9D4F5
:10442000A06D00F047FDA5E7009D284600F0E6FDE1
:104430000646002847D0A38943F08003A381D8F81B
:104440003830002BC6D1404600F096F9C2E740460E
:1044500000F092F983E7A360656E15F00105D7D1EE
:10446000930524D5284603B0BDE8F0832169404672
:1044700000F07AFAB4F90CC02CF44A6C2CF0030C5E
:10448000022FA4F80CC094D10025002204F14303AC
:10449000A2600122C4E904322360636E4CF0020C76
:1044A000D807A4F80CC0DDD41CF4007FDAD1A06DCD
:1044B00000F002FD284603B0BDE8F083A560CBE71D
:1044C0004FF0FF35CEE7DDF80090A94504D048460F
:1044D00000F094FD064620B9B4F90CC04FF0FF354A
:1044E000D3E74D46A7E700BF1800002038B5334B8F
:1044F0001B6805460C460BB19A6B12B3B4F90C302D
:1045000018079AB225D5216900292DD012F0010093
:1045100007D00020A06060694042A06139B100204E
:1045200038BD950758BF6069A0600029F7D1120611
:1045300058BF0846F4D543F04003A3814FF0FF3045
:1045400038BD184600F018F9B4F90C3018079AB2C3
:10455000D9D4D1062AD5520714D4216943F00803CF
:10456000A3819AB20029D1D102F42070B0F5007F66
:10457000CCD02146284600F0A1FCB4F90C302169CA
:104580009AB2C3E7216B51B104F14002914204D0C9
:10459000284600F0E9F9B4F90C30002222632169C1
:1045A0000022C4E9001223F02403D7E7092243F0D4
:1045B00040032A604FF0FF30A38138BD180000206F
:1045C000024B13B1024800F005B87047000000002C
:1045D0009D480008002301461A46184601F0A8BA73
:1045E000B1F90C202DE9F0410C461107804647D463
:1045F000636842F40062002BA2815EDDA56A002D93
:1046000058D00023D8F80060C8F8003093B212F4F4
:10461000805256D10123E1694046A847431C67D028
:10462000A389A56A5F0705D56368C01A236B0BB120
:10463000E36BC01AE169024600234046A847411CCB
:1046400041D1D8F80030002B3DD01D2B01D0162BC6
:1046500056D1A3892269226023F40063002161609E
:10466000A381216BC8F8006021B304F14003994293
:1046700002D0404600F078F900202063BDE8F081C8
:104680002669BEB193B2256826609A070CBF63699C
:104690000023AD1BA3600BE02B463246E169676A3D
:1046A0004046B847B0F1000CA5EB0C05664417DD99
:1046B000002DF1DC0020BDE8F081E36B002B9DDCD8
:1046C000F8E7206DAEE7B4F90C302269226023F4DC
:1046D0000063A3810022DB046260C2D52065C0E7CD
:1046E000A38943F040034FF0FF30A381BDE8F08180
:1046F000D8F80030002B93D01D2B06D0162B04D0F9
:10470000A38943F04003A381D5E7C8F80060D1E74F
:1047100038B50C46054608B1836BA3B1B4F90C005B
:10472000B8B1636EDB0701D4810515D52846214653
:10473000FFF756FF636EDA07054602D4A3899B058F
:104740000ED5284638BD00F017F8B4F90C00002843
:10475000E7D10546284638BDA06D00F0ABFBE5E784
:10476000A06D00F0A9FB284638BD00BF014900F04C
:1047700079BB00BFE15B00082DE9F047824639486C
:1047800000F098FBDAF83840002C66D1DAF80450D3
:10479000354ACAF83C200323CAE9B843DFF8DC9065
:1047A000DFF8DC80314F324E04230AF53B72CAF841
:1047B000E8222146C5E90243C5E90044C5E90444AD
:1047C0006C660822AC6105F15C00FFF7A3FCC5E94B
:1047D0000759C5E90987EE6205F1580000F066FB4C
:1047E000DAF80850234BEB602146C5E90044C5E9DF
:1047F00004446C66AC60AC61082205F15C00FFF714
:1048000089FCC5E90759C5E90987EE6205F1580039
:1048100000F04CFBDAF80C50174BEB602146C5E971
:104820000044C5E904446C66AC60AC61082205F143
:104830005C00FFF76FFC05F15800C5E90759C5E9B1
:104840000A76C5F8248000F031FB0123CAF838301D
:104850000448BDE8F04700F02FBBBDE8F047014831
:1048600000F02ABBD04E00206D470008DD5A00083A
:10487000FD5A00080900010012000200795A0008E0
:104880009D5A0008014800F015BB00BFCC4E002027
:10489000014800F011BB00BFCC4E002038B5084BDA
:1048A000084D5B1B9C1007D0043B1D44013C55F890
:1048B00004399847002CF9D1BDE8384001F050BACE
:1048C000645E0008605E0008F8B5244F0C4606469A
:1048D00000F0C8FEBA685568C4F57E630F3325F052
:1048E00003052B4423F47F6323F00F03A3F58054C7
:1048F000B4F5805F07DB0021304601F0ABF8BB6800
:104900002B44984204D0304600F0B2FE0020F8BD9F
:104910006142304601F09EF801300DD0104ABB686C
:104920002D1B45F001055D60136830461B1B1360AD
:1049300000F09EFE0120F8BD0021304601F08AF80B
:10494000BA68831A0F2BDEDD43F001035360054B79
:1049500003491B68C01A0860D5E700BF4C0400205B
:10496000D44E002054080020002961D0F8B50C4630
:10497000064600F077FE54F8042C7B4FA4F108059E
:1049800022F0010105EB010CB868DCF80430604549
:1049900023F0030300F08B80D207CCF8043032D42C
:1049A00054F8082CAD1A1144AA6807F10800824295
:1049B0006AD00CEB0304D4F804E0EC68D4601EF079
:1049C000010FA26000F0978041F001036B60CCF80A
:1049D0000010B1F5007F35D27A68CB084809012173
:1049E000013381401143796007EBC30257F833105C
:1049F000083AC5E9021247F83350CD603046BDE8A9
:104A0000F84000F035BE0CEB03025268D00710D41A
:104A1000194407F10800DCF80830834273D0DCF851
:104A20000C20DA60936041F001036B606950D0E7BD
:104A3000704741F00103B1F5007F44F8043CCCF825
:104A40000010C9D3B1F5206F4FEA512348D28B092A
:104A500003F1390003F13802C300F818FB58083895
:104A6000984259D05A6822F003028A4202D99B68C0
:104A70009842F7D1D868C5E902308560DD603046DC
:104A8000BDE8F84000F0F4BD0CEB03025268D20719
:104A900063D40B44DCE90212CA60916043F0010266
:104AA0006A603046EB50BDE8F84000F0E1BD0B44D1
:104AB000D10707D454F8082CAD1A1344D5E90212D3
:104AC000CA60916043F001026A60284ABD601268C2
:104AD0009A4293D8264B30461968FFF7F5FE8DE7CA
:104AE000142B0AD9542B1FD80B0B03F16F0003F1C1
:104AF0006E02C300B1E719448DE703F15C0003F1D6
:104B00005B02C300A9E741F00103C7E90455C5E909
:104B100002006B60695071E779689210012404FA11
:104B200002F20A437A60A6E7B3F5AA7F06D8CB0B58
:104B300003F1780003F17702C3008EE740F254528C
:104B4000934206D88B0C03F17D0003F17C02C30075
:104B500083E74FF47E737E227FE741F001036B60B1
:104B6000CCF800104AE700BF4C0400205808002091
:104B7000044F00209368002B00F085802DE9F04F52
:104B8000B1F90C300C461907804683B0174698B22D
:104B900025D523691BB310F002033D682DD04FF0DB
:104BA000000ADFF8BCB25646B9465E453346524667
:104BB00028BF5B464046002E52D0E169676AB8477D
:104BC000002856DDD9F808301B1A8244361AC9F875
:104BD0000830002BE9D1002003B0BDE8F08F21465A
:104BE0004046FFF783FC002840F03681B4F90C30D2
:104BF0003D6898B210F00203D1D110F0010944D100
:104C00004E46009746B38205D4F808B040F1838041
:104C1000B3455A4600F2B28010F4906F40F0BF8066
:104C200020680192494600F0A1FCA368019AA3EB19
:104C30000B012368A1601344B24623600026009B49
:104C40009868A0EB0A00D14498600028C3D0B4F95A
:104C50000C0080B2002ED6D1D5E900960835D1E7F8
:104C6000D5E900A60835A0E721464046FFF750FDEC
:104C700080B3B4F90C3043F040034FF0FF30A38110
:104C800003B0BDE8F08F002070471E46AA46994643
:104C900018461D46009756B388B34A46D4E9041314
:104CA0002068B24228BF3246884205D9A16803EB8A
:104CB000010B5A4500F3A680934263DCE169676A01
:104CC0002A464046B847B0F1000BD2DDB9EB0B09DC
:104CD000CAD00120009A9368A3EB0B035D44A6EBB6
:104CE0000B069360002B3FF476AF002ED4D10AF16F
:104CF000080353E902569A460833002EF9D032468B
:104D00000A212846FBF70CFD002800F09C800130AA
:104D1000A0EB0509C1E720682369984216D86369AA
:104D2000B34213D86FF00042B24228BF3246E16965
:104D300092FBF3F2676A02FB03F340464A46B84728
:104D4000B0F1000A95DDA6EB0A0678E7B345DA462E
:104D500028BFB2465246494600F008FCA3682268C4
:104D6000A3EB0A035244A3602260002BEBD121463F
:104D70004046FFF7CDFC0028E5D07AE72068B3462F
:104D800032464EE72946019200F0F0FB019AA368F3
:104D90009B1AA360236813442360934696E7236815
:104DA0002169A3EB010B636903EB430A0AEBDA7A8F
:104DB0000BF101034FEA6A0A33445345524684BF5C
:104DC0009A46524643052CD51146404600F01EF93E
:104DD00000283BD05A4621690190FBF793FBA2893A
:104DE000019B22F4906242F08002A28103EB0B004F
:104DF0002361AAEB0B03C4F814A0A3602060B346A0
:104E000032460EE729465A4600F0B0FB23685B4461
:104E1000236021464046FFF77BFC00283FF456AF55
:104E200027E7404600F02AFC03460028DED121692E
:104E30004046FFF799FDB4F90C300C2223F08003B3
:104E4000C8F8002017E7721C914627E70C22B4F936
:104E50000C30C8F800200EE74FF0FF30BCE600BF72
:104E600000FCFF7F2DE9F8430746884600F53876B9
:104E70004FF00009D6E90154013D11D4A389012B5B
:104E800005F1FF3508D9B4F90E300133214603D0BE
:104E90003846C04749EA00096B1C04F16804EDD1AB
:104EA0003668002EE6D14846BDE8F883704700BF5B
:104EB000704700BF704700BF704700BF2DE9F04149
:104EC0008B890C46990796B008D504F1430301225B
:104ED000C4E90432236016B0BDE8F081B4F90E10C5
:104EE0000029064627DB6A4600F0E0FE002821DBA9
:104EF000019D05F47045A5F50055B5FA85F54FF40B
:104F000080686D094FF400674146304600F07EF836
:104F1000B4F90C30F0B1204AF26343F08003C4F8D6
:104F20001480A3812060206135BB3B43A38116B070
:104F3000BDE8F081A38913F0800519D04FF0400837
:104F40004146304600F062F80025B4F90C302F4697
:104F50000028E0D19A05BED423F0030304F14302F4
:104F600043F002030121C4E90421A3812260B2E7D6
:104F70004FF480682F46C7E7B4F90E10304600F0B2
:104F8000ABFE10B9B4F90C30CFE7A38923F00303CB
:104F900043F001031BB2C8E76D47000870B50C462B
:104FA000B1F90E10002996B015461E4614DB6A466C
:104FB00000F07CFE00280FDB019A02F47042A2F59B
:104FC0000052B2FA82F24FF4806352094FF400604B
:104FD00032602B6016B070BDB4F90C10002311F0D4
:104FE0008000336004D0402218462A6016B070BD9D
:104FF0004FF480632B6016B070BD00BF024B0146BA
:10500000186800F003B800BF180000202DE9F04F29
:1050100001F10B06162E83B0044624D8102900F2A5
:10502000BA8000F01FFB102618220220B54F3A4428
:10503000A2F1080153688B4200F0BA805A68D9681F
:1050400022F003021A449D68E9608D60516841F0C6
:1050500001012046516003F1080500F009FB2846D4
:1050600003B0BDE8F08F36F0070600F19480B1423E
:1050700000F2918000F0F6FAB6F5FC7FC0F09A815C
:10508000730A00F08F80042B00F26F81B30903F1E3
:10509000390003F1380CC3009A4F3B44A3F10805D3
:1050A0005B689D4206D10CE0002980F22781DB6815
:1050B0009D4206D05A6822F00302911B0F29F3DDAE
:1050C00060463D69DFF850C265457CD06A6822F0D1
:1050D0000302931B0F2B00F37B81002BC7E904CC49
:1050E00080F26C81B2F5007F80F01A81D308796874
:1050F00001334FEA521E012202FA0EF20A4357F818
:1051000033E0C5F808E007EBC3010839E9607A60CD
:1051100047F83350CEF80C5083100121994091424A
:1051200057D8114206D120F003004900114200F186
:105130000400FAD007EBC0094D468646D5F80C802E
:10514000454508D11DE1002B80F22481D8F80C8060
:10515000454500F01681D8F8042022F00302931B85
:105160000F2BF0DD2046D8E9025408EB060146F08B
:105170000106C8F80460EC60A56043F00104C7E9CB
:105180000411C1E902CC4C6048F8023000F070FA1A
:1051900008F1080502E00C2323600025284603B02F
:1051A000BDE8F08F4FF4007340204FF03F0C73E7E1
:1051B000D3689A4208BF02307FF440AF3D69DFF800
:1051C00058C1654582D17A68831001219940914286
:1051D000A7D9BD686B6823F003094E4503D8A9EB36
:1051E00006030F2B7ADCDFF834B1474BDBF80020E5
:1051F0001B680132334405EB090A00F0338103F5E3
:1052000080530F3323F47F6828F00F08414620466F
:1052100000F020FC411C024600F0F380824500F2C1
:10522000EE803A4B196841441960084600F04E81FF
:10523000DBF80010019301311BBFA2EB0A0A5044B6
:10524000CBF80020186012F0070B00F01781CBF1AB
:1052500008010A44CBF5805190440831A1EB0801C4
:10526000C1F30B0A51462046009200F0F3FB421CAA
:10527000DDE9002300F04F81801A00EB0A0819686D
:10528000BA6048F001005144BD425060196000F01E
:105290002981B9F10F0F40F227816868A9F10C0C40
:1052A0002CF0070C00F0010040EA0C0068604FF0A1
:1052B000050E05EB0C00BCF10F0FC0E901EE00F28A
:1052C000328150681546124B1A688A4238BF1960FD
:1052D000104B1A688A4238BF196094E0AA1943F04B
:1052E000010346F001066E602046BA60536000F08C
:1052F000BFF90835284603B0BDE8F08FD9681A44D5
:10530000A1E600BF4C040020044F0020D44E002032
:10531000FC4E0020004F00205404002054080020C0
:10532000B2F5206F4FEA522363D3142B00F2B780FB
:1053300003F15C01C9005B3307EB010E7958AEF154
:10534000080E8E4500F091804B6823F003039342D2
:1053500002D989688E45F7D1D1F80CE07A68C5E9A1
:10536000021ECEF80850CD60D6E6142B59D9542B26
:1053700000F29D80330B03F16F0003F16E0CC3004C
:105380008AE60EF1010E1EF0030F05F108057FF409
:10539000D5AE51E0424445465368D8F80C1043F06E
:1053A0000103536055F8083F2046D9608B6000F038
:1053B0005FF9F3E6F00806F1080237E62A442046D2
:1053C000536843F001035360083500F051F9E5E6F6
:1053D000A919204646F0010643F001046E60C7E9B2
:1053E0000411C1E902CC4C60AB5000F041F9083522
:1053F000D4E6930903F13901C90038339CE7BD4273
:105400005FD0BD68686820F003084645A8EB060336
:1054100002D80F2B3FF762AF204600F029F9002594
:10542000BCE603F15C0003F15B0CC30034E659F801
:1054300008394B4540F0968010F0030F00F1FF3023
:10544000F5D17B6823EA01037B60490099423FF66E
:10545000C0AE19B9BDE649000EF1040E1942FAD0EA
:10546000704667E603F11008D0E69A104FF0010885
:105470007B6808FA02F21A437A6070E702EB0801CF
:105480004942C1F30B0A51462046009200F0E2FA6D
:10549000431CDDE900237FF4EFAEDA46EFE6542B40
:1054A00025D8130B03F16F01C9006E3344E7B3F540
:1054B000AA7F25D8F30B03F1780003F1770CC30022
:1054C000EAE5294B186840441860B1E6CAF30B0CB2
:1054D000BCF1000F7FF4ACAEBD68C84448F00100D9
:1054E0006860F0E61546EEE60123536094E7B3F5F5
:1054F000AA7F23D8D30B03F17801C90077331BE7C8
:1055000040F25452934223D8B30C03F17D0003F1CF
:105510007C0CC300C0E5ABF1080BD844A8EB020833
:105520004FF0000AABE605F1080120460093FFF7B3
:105530001BFABD68009B68681968C4E640F25451C4
:105540008B420BD8930C03F17D01C9007C33F3E649
:105550004FF47E737F204FF07E0C9DE54FF47E71FB
:105560007E23E9E67B6870E7D44E002088420DD99F
:105570008B1883420AD900EB020CBAB1624613F8C9
:1055800001CD02F801CD9942F9D170470F2A0ED80A
:10559000034602F1FF3C4AB10CF1010C013B8C4483
:1055A00011F8012B03F8012F6145F9D1704740EA4A
:1055B00001039B0750D1A2F1100370B501F1200C3B
:1055C00023F00F0501F1100E00F11004AC441B098B
:1055D0005EF8105C44F8105C5EF80C5C44F80C5CFF
:1055E0005EF8085C44F8085C5EF8045C44F8045C0F
:1055F0000EF1100EE64504F11004E9D1013312F06A
:105600000C0F01EB031102F00F0400EB031327D082
:10561000043C24F003064FEA940C1E441C1F8E46E3
:105620005EF8045B44F8045FB442F9D10CF1010464
:1056300002F0030203EB840301EB840102F1FF3C5F
:105640004AB10CF1010C013B8C4411F8012B03F819
:10565000012F6145F9D170BD02F1FF3C03469BE784
:105660002246EBE70148FFF725BC00BFC84E0020EB
:105670000148FFF721BC00BFC84E00202DE9F84FBC
:105680001746002900F0988007F10B0580460C466C
:10569000FFF7E8FF162D5DD810252A46AF425ED8E9
:1056A00054F8041C21F003069642A4F1080962DABA
:1056B000BC4BD3F808C009EB0600844500F0978086
:1056C000D0F804C02CF0010303445B68DB0768D406
:1056D0002CF0030C06EB0C03934247DACB0710D4F3
:1056E00054F8083CA9EB030ADAF8043023F003016C
:1056F0008C44B444944580F211817318934280F233
:10570000E88039464046FFF781FC0746E0B154F88F
:10571000043C23F001034B44A0F10802934200F043
:10572000D280321F242A00F2F580132A00F2AC80C6
:1057300003462246116819605168596092689A6060
:1057400021464046FFF710F94046FFF791FF3846E3
:10575000BDE8F88F25F00705002D2A469EDA0C23B8
:10576000C8F8003000273846BDE8F88F1E46D0E95B
:105770000223D3609A60731B0F2B22D8D9F8043010
:1057800003F0010333434E44C9F80430736843F017
:105790000103736040462746FFF76AFF3846BDE8BD
:1057A000F88FC907ADD454F8083CA9EB030ADAF81E
:1057B000041021F00301A0E7BDE8F84F1146FFF700
:1057C00025BCD9F8041001F001012943C9F80410DF
:1057D00009EB05014E4443F001034B60736843F04D
:1057E0000103083173604046FFF7BEF8D2E7DCF8EA
:1057F000040020F0030B06EB0B0C05F110008445B0
:105800004DDAC9073FF57DAF54F8081CA9EB010A32
:10581000DAF8041021F003018B44B34458453FF7F4
:105820006CAF5746DAF80C1057F8080F321F242ACD
:10583000C160886000F2DB80132A40F2D6802168C4
:10584000CAF808106168CAF80C101B2A00F2DF8041
:1058500008340AF110022168116061685160A16882
:1058600091600AEB0501ABEB050242F00102996081
:105870004A60DAF8043003F001031D434046CAF8D9
:105880000450FFF7F5FE6EE723680360636843602A
:105890001B2A68D804F1080200F108034AE709EB63
:1058A00005029A60ACEB050343F00103536054F822
:1058B000043C03F001031D43404644F8045CFFF739
:1058C000D7FE27464FE750F8043C23F003031E445D
:1058D00051E75746DAF80C1057F8080F321F242A00
:1058E000C16088604CD8132A48D92168CAF80810CA
:1058F0006168CAF80C101B2A56D808340AF1100245
:105900001E462368136063685360A3689360D146A2
:105910003C4630E72146FFF729FE11E7D0E90213A4
:105920005746CB60996057F8081FDAF80C30CB6007
:10593000321F242A99602DD8132A29D92368CAF83E
:1059400008306368CAF80C301B2A42D808340AF1C0
:10595000100322681A6062685A60A2689A606646FC
:10596000D1463C4607E7A3688360E368C360242A06
:1059700026D004F1100200F11003DBE63A46BFE73F
:10598000214638461E46D146FFF7F0FD3C46F2E67A
:105990003B46DEE7214638466646D146FFF7E6FD40
:1059A0003C46E8E64C040020A168CAF81010E16803
:1059B000CAF81410242A20D010340AF118029FE7E4
:1059C000236903616169416104F1180200F1180360
:1059D000B0E6A368CAF81030E368CAF81430242A85
:1059E00021D010340AF11803B3E73A4633E72146D1
:1059F0003846FFF7BBFD164B33E72269CAF818207B
:105A00006269CAF81C2018340AF1200278E7A168FC
:105A1000CAF81010E168CAF81410242A0DD0103406
:105A20000AF1180217E72369CAF818306369CAF83F
:105A30001C3018340AF120038BE72269CAF81820B9
:105A40006269CAF81C2018340AF1200203E700BF7B
:105A50004C04002038B5074D0022044608462A6051
:105A6000FBF7C2FA431C00D038BD2B68002BFBD0DB
:105A7000236038BDC04E002010B50C46B1F90E10A1
:105A800000F052F9002803DB236D0344236510BDA9
:105A9000A38923F48053A38110BD00BF2DE9F041F9
:105AA0000C46B1F90C101F46CB05054616460BD423
:105AB00021F48051A1813B46B4F90E1032462846AC
:105AC000BDE8F04100F01EB8B4F90E100223002228
:105AD00000F014F9B4F90C10EAE700BF10B50C4659
:105AE000B1F90E1000F00AF9A389421C0EBF23F48D
:105AF000805343F480532065A38110BDB1F90E108B
:105B000000F05CB838B50C46084D84461146204676
