:020000040800F2
:100000000000022069230008711F0008731F000808
:10001000751F0008771F0008791F00080000000006
:100020000000000000000000000000007B1F00082E
:100030007D1F0008000000007F1F0008811F0008CE
:10004000B9230008B9230008B9230008B923000820
:10005000B9230008B9230008B9230008B923000810
:10006000B9230008B9230008B9230008B923000800
:10007000B9230008B9230008B9230008B9230008F0
:10008000B9230008B9230008B9230008B9230008E0
:10009000B9230008B9230008B9230008B9230008D0
:1000A000B9230008B9230008B9230008B9230008C0
:1000B000B9230008B9230008B9230008B9230008B0
:1000C000B9230008B9230008B9230008B9230008A0
:1000D000B9230008B9230008B9230008B923000890
:1000E000B9230008B9230008B9230008B923000880
:1000F000B9230008B92300088D1F0008B9230008A0
:10010000B9230008B92300089D1F0008B92300087F
:10011000B9230008B9230008B9230008B92300084F
:10012000B9230008B9230008B9230008B92300083F
:10013000B9230008B9230008B9230008B92300082F
:10014000B9230008B9230008B9230008B92300081F
:10015000B9230008B9230008B9230008B92300080F
:10016000B9230008B9230008B9230008B9230008FF
:10017000B9230008B9230008B923000800000000D3
:08018000B9230008B9230008AF
:1001C00010B5054C237833B9044B13B10448AFF391
:1001D00000800123237010BDC00900200000000032
:1001E00000A1000808B5034B1BB103490348AFF356
:1001F000008008BD00000000C409002000A1000824
:1002000081F0004102E000BF83F0004330B54FEAC7
:1002100041044FEA430594EA050F08BF90EA020F34
:100220001FBF54EA000C55EA020C7FEA645C7FEAC7
:10023000655C00F0E2804FEA5454D4EB5555B8BFEA
:100240006D420CDD2C4480EA020281EA030382EA5B
:10025000000083EA010180EA020281EA0303362DED
:1002600088BF30BD11F0004F4FEA01314FF4801CC0
:100270004CEA113102D0404261EB410113F0004FD2
:100280004FEA03334CEA133302D0524263EB430389
:1002900094EA050F00F0A780A4F10104D5F1200E27
:1002A0000DDB02FA0EFC22FA05F2801841F1000182
:1002B00003FA0EF2801843FA05F359410EE0A5F156
:1002C00020050EF1200E012A03FA0EFC28BF4CF087
:1002D000020C43FA05F3C01851EBE37101F000453D
:1002E00007D54FF0000EDCF1000C7EEB00006EEB4A
:1002F0000101B1F5801F1BD3B1F5001F0CD34908D4
:100300005FEA30004FEA3C0C04F101044FEA44522A
:1003100012F5800F80F09A80BCF1004F08BF5FEAB1
:10032000500C50F1000041EB045141EA050130BD91
:100330005FEA4C0C404141EB0101013C28BFB1F5A3
:10034000801FE9D291F0000F04BF01460020B1FAEE
:1003500081F308BF2033A3F10B03B3F120020CDAC1
:100360000C3208DD02F1140CC2F10C0201FA0CF09F
:1003700021FA02F10CE002F11402D8BFC2F1200C04
:1003800001FA02F120FA0CFCDCBF41EA0C019040BA
:10039000E41AA2BF01EB0451294330BD6FEA040403
:1003A0001F3C1CDA0C340EDC04F11404C4F12002EE
:1003B00020FA04F001FA02F340EA030021FA04F300
:1003C00045EA030130BDC4F10C04C4F1200220FA57
:1003D00002F001FA04F340EA0300294630BD21FA95
:1003E00004F0294630BD94F0000F83F4801306BF5B
:1003F00081F480110134013D4EE77FEA645C18BF4F
:100400007FEA655C29D094EA050F08BF90EA020FE5
:1004100005D054EA000C04BF1946104630BD91EADD
:10042000030F1EBF0021002030BD5FEA545C05D1E0
:100430004000494128BF41F0004130BD14F580041F
:100440003CBF01F5801130BD01F0004545F0FE4193
:1004500041F470014FF0000030BD7FEA645C1ABFC8
:10046000194610467FEA655C1CBF0B46024650EAFF
:10047000013406BF52EA033591EA030F41F400212B
:1004800030BD00BF90F0000F04BF0021704730B5B1
:100490004FF4806404F132044FF000054FF0000186
:1004A00050E700BF90F0000F04BF0021704730B547
:1004B0004FF4806404F1320410F0004548BF40421C
:1004C0004FF000013EE700BF42004FEAE2014FEA71
:1004D00031014FEA02701FBF12F07F4393F07F4F4C
:1004E00081F06051704732F07F4208BF704793F04F
:1004F0007F4F04BF41F40021704730B54FF4607462
:1005000001F0004521F000411CE700BF50EA010264
:1005100008BF704730B54FF000050AE050EA01020D
:1005200008BF704730B511F0004502D5404261EB7D
:1005300041014FF4806404F132045FEA915C3FF4BE
:10054000D8AE4FF003025FEADC0C18BF03325FEA5B
:10055000DC0C18BF033202EBDC02C2F1200300FA0C
:1005600003FC20FA02F001FA03FE40EA0E0021FA31
:1005700002F11444BDE600BF80F0004002E000BF7D
:1005800081F0004142001FBF5FEA410392EA030F7E
:100590007FEA226C7FEA236C6AD04FEA1262D2EBC8
:1005A0001363C1BFD218414048404140B8BF5B42CD
:1005B000192B88BF704710F0004F40F4000020F066
:1005C0007F4018BF404211F0004F41F4000121F07C
:1005D0007F4118BF494292EA030F3FD0A2F10102C6
:1005E00041FA03FC10EB0C00C3F1200301FA03F104
:1005F00000F0004302D5494260EB4000B0F5000F27
:1006000013D3B0F1807F06D340084FEA310102F1E5
:100610000102FE2A51D2B1F1004F40EBC25008BF97
:1006200020F0010040EA03007047490040EB000061
:10063000013A28BFB0F5000FEDD2B0FA80FCACF162
:10064000080CB2EB0C0200FA0CF0AABF00EBC2508F
:1006500052421843BCBFD0401843704792F0000F7D
:1006600081F4000106BF80F400000132013BB5E7D0
:100670004FEA41037FEA226C18BF7FEA236C21D046
:1006800092EA030F04D092F0000F08BF08467047AB
:1006900090EA010F1CBF0020704712F07F4F04D179
:1006A000400028BF40F00040704712F100723CBF8C
:1006B00000F50000704700F0004343F0FE4040F4B6
:1006C000000070477FEA226216BF08467FEA236374
:1006D0000146420206BF5FEA412390EA010F40F45F
:1006E000800070474FF0000304E000BF10F00043AB
:1006F00048BF40425FEA000C08BF704743F0964392
:1007000001464FF000001CE050EA010208BF7047AC
:100710004FF000030AE000BF50EA010208BF704733
:1007200011F0004302D5404261EB41015FEA010C48
:1007300002BF84460146002043F0B64308BFA3F140
:100740008053A3F50003BCFA8CF2083AA3EBC25322
:1007500010DB01FA02FC634400FA02FCC2F1200241
:10076000BCF1004F20FA02F243EB020008BF20F078
:100770000100704702F1200201FA02FCC2F12002DE
:1007800050EA4C0021FA02F243EB020008BF20EAD3
:10079000DC7070474FF0FF0C1CEAD0521EBF1CEA01
:1007A000D15392EA0C0F93EA0C0F6FD01A4480EAEF
:1007B000010C400218BF5FEA41211ED04FF00063D8
:1007C00043EA501043EA5111A0FB01310CF0004004
:1007D000B1F5000F3EBF490041EAD3715B0040EA2A
:1007E000010062F17F02FD2A1DD8B3F1004F40EBFA
:1007F000C25008BF20F00100704790F0000F0CF0CD
:10080000004C08BF49024CEA502040EA51207F3A90
:10081000C2BFD2F1FF0340EAC250704740F400006B
:100820004FF00003013A5DDC12F1190FDCBF00F05C
:1008300000407047C2F10002410021FA02F1C2F10A
:10084000200200FA02FC5FEA310040F1000053EAA6
:100850004C0308BF20EADC70704792F0000F00F0F4
:10086000004C02BF400010F4000F013AF9D040EAFA
:100870000C0093F0000F01F0004C02BF490011F48E
:10088000000F013BF9D041EA0C018FE70CEAD1538C
:1008900092EA0C0F18BF93EA0C0F0AD030F0004C0C
:1008A00018BF31F0004CD8D180EA010000F00040C0
:1008B000704790F0000F17BF90F0004F084691F07E
:1008C000000F91F0004F14D092EA0C0F01D14202B8
:1008D0000FD193EA0C0F03D14B0218BF084608D181
:1008E00080EA010000F0004040F0FE4040F40000CB
:1008F000704740F0FE4040F4400070474FF0FF0C5E
:100900001CEAD0521EBF1CEAD15392EA0C0F93EAA4
:100910000C0F69D0A2EB030280EA010C49024FEAF6
:10092000402037D04FF0805343EA111143EA1013AF
:100930000CF000408B4238BF5B0042F17D024FF467
:10094000000C8B4224BF5B1A40EA0C00B3EB510F42
:1009500024BFA3EB510340EA5C00B3EB910F24BF2B
:10096000A3EB910340EA9C00B3EBD10F24BFA3EBB0
:10097000D10340EADC001B0118BF5FEA1C1CE0D178
:10098000FD2A3FF650AF8B4240EBC25008BF20F02B
:10099000010070470CF0004C4CEA50207F32C2BF7F
:1009A000D2F1FF0340EAC250704740F400004FF01C
:1009B0000003013A37E792F0000F00F0004C02BF4D
:1009C000400010F4000F013AF9D040EA0C0093F017
:1009D000000F01F0004C02BF490011F4000F013B71
:1009E000F9D041EA0C0195E70CEAD15392EA0C0FD9
:1009F00008D142027FF47DAF93EA0C0F7FF470AF11
:100A0000084676E793EA0C0F04D14B023FF44CAF53
:100A100008466EE730F0004C18BF31F0004CCAD1E8
:100A200030F000427FF45CAF31F000437FF43CAF24
:100A30005FE700BF4FF0FF3C06E000BF4FF0010C46
:100A400002E000BF4FF0010C4DF804CD4FEA400228
:100A50004FEA41037FEA226C18BF7FEA236C11D072
:100A600001B052EA530C18BF90EA010F58BFB2EB25
:100A7000030088BFC81738BF6FEAE17018BF40F0A5
:100A8000010070477FEA226C02D15FEA402C05D159
:100A90007FEA236CE4D15FEA412CE1D05DF8040BDE
:100AA000704700BF844608466146FFE70FB5FFF771
:100AB000C9FF002848BF10F1000F0FBD4DF808ED29
:100AC000FFF7F4FF0CBF012000205DF808FB00BF1A
:100AD0004DF808EDFFF7EAFF34BF012000205DF874
:100AE00008FB00BF4DF808EDFFF7E0FF94BF0120C1
:100AF00000205DF808FB00BF4DF808EDFFF7D2FFBE
:100B000094BF012000205DF808FB00BF4DF808ED00
:100B1000FFF7C8FF34BF012000205DF808FB00BFCD
:100B200042000ED2B2F1FE4F0BD34FF09E03B3EB57
:100B3000126209D44FEA002343F0004323FA02F083
:100B400070474FF00000704712F1610F01D142026F
:100B500002D14FF0FF3070474FF00000704700BFE8
:100B600053B94AB9002908BF00281CBF4FF0FF3114
:100B70004FF0FF3000F074B9ADF1080C6DE904CE10
:100B800000F006F8DDF804E0DDE9022304B0704768
:100B90002DE9F047089E0D4604468846002B4DD1AE
:100BA0008A42944668D9B2FA82F252B101FA02F34B
:100BB000C2F1200120FA01F10CFA02FC41EA03081B
:100BC00094404FEA1C45210CB8FBF5FE1FFA8CF748
:100BD00005FB1E8341EA03430EFB07F199420BD943
:100BE0001CEB03030EF1FF3080F01E81994240F2AE
:100BF0001B81AEF1020E63445B1AA4B2B3FBF5F0A5
:100C000005FB103344EA034400FB07F7A7420AD967
:100C10001CEB040400F1FF3380F00881A74240F28E
:100C2000058164440238E41B40EA0E4000211EB1F5
:100C3000D4400023C6E90043BDE8F0878B4208D9C1
:100C4000002E00F0EE800021C6E900050846BDE850
:100C5000F087B3FA83F100294AD1AB4202D3824232
:100C600000F2F980841A65EB030301209846002EF8
:100C7000E2D0C6E90048DFE702B9FFDEB2FA82F24D
:100C8000002A40F09180A1EB0C054FEA1C471FFAA7
:100C90008CFE0121B5FBF7F307FB1350250C45EA49
:100CA00000450EFB03F0A84208D91CEB050503F133
:100CB000FF3802D2A84200F2CB8043462D1AA4B2DC
:100CC000B5FBF7F007FB105544EA05440EFB00FEA8
:100CD000A64508D91CEB040400F1FF3502D2A64555
:100CE00000F2BB802846A4EB0E0440EA03409EE7D6
:100CF000C1F120078B4022FA07FC4CEA030C20FAD2
:100D000007F405FA01F31C43FD404FEA1C4900FAC1
:100D100001F3B5FBF9F8200C1FFA8CFE09FB1855FE
:100D200040EA054508FB0EF0A84202FA01F20BD991
:100D30001CEB050508F1FF3A80F08880A84240F2DC
:100D40008580A8F1020865442D1AA4B2B5FBF9F01C
:100D500009FB105544EA054500FB0EFEAE4508D9D7
:100D60001CEB050500F1FF346CD2AE456AD90238A0
:100D7000654440EA0840A0FB0294A5EB0E05A5429D
:100D8000C846A64656D353D05EB1B3EB080265EB16
:100D90000E0505FA07F722FA01F3CD401F43C6E915
:100DA00000750021BDE8F087C2F1200320FA03F1AD
:100DB0000CFA02FC25FA03F395400D434FEA1C4759
:100DC0001FFA8CFEB3FBF7F107FB11302B0C43EA43
:100DD000004301FB0EF0984204FA02F408D91CEB20
:100DE000030301F1FF382FD298422DD90239634411
:100DF0001B1AADB2B3FBF7F007FB103345EA03450E
:100E000000FB0EF3AB4208D91CEB050500F1FF38DF
:100E100016D2AB4214D902386544ED1A40EA0141BA
:100E200038E73146304607E78646E5E61846FAE6F3
:100E30004B45A9D2B9EB020864EB0C0E0138A3E7CD
:100E40004046EAE7204694E74146D1E7D0467BE7B3
:100E5000023B654432E7084609E76444023842E74A
:100E6000704700BF0000000000000000000000000C
:100E70000000000000000000000000000000000072
:100E800090F800F06DE9024520F007016FF0000CCA
:100E900010F0070491F820F040F049804FF0000472
:100EA0006FF00700D1E9002391F840F000F108004D
:100EB00082FA4CF2A4FA8CF283FA4CF3A2FA8CF385
:100EC0004BBBD1E9022382FA4CF200F10800A4FAEC
:100ED0008CF283FA4CF3A2FA8CF3E3B9D1E9042340
:100EE00082FA4CF200F10800A4FA8CF283FA4CF377
:100EF000A2FA8CF37BB9D1E9062301F1200182FA31
:100F00004CF200F10800A4FA8CF283FA4CF3A2FA36
:100F10008CF3002BC6D0002A04BF04301A4612BA44
:100F2000B2FA82F2FDE8024500EBD2007047D1E947
:100F3000002304F00305C4F100004FEAC50514F0D6
:100F4000040F91F840F00CFA05F562EA05021CBFA7
:100F500063EA050362464FF00004A9E700000000C1
:100F600001F0FF01102A2BDB10F0070F08D010F85A
:100F7000013B013A8B422DD010F0070F42B3F6D15E
:100F8000F0B441EA012141EA014122F007047FF077
:100F900000070023F0E80256083C85EA010586EACE
:100FA000010685FA47F5A3FA87F586FA47F6A5FA0A
:100FB00087F68EB9EED1F0BC01F0FF0102F0070216
:100FC00032B110F8013B013A83EA010313B1F8D1C1
:100FD0000020704701387047002D06BF35460338A2
:100FE000073815F0010F07D1013015F4807F02BFDB
:100FF000013015F4C03F0130F0BC0138704700BF2C
:10100000844641EA000313F003036DD1403A41D313
:1010100051F8043B40F8043B51F8043B40F8043BD2
:1010200051F8043B40F8043B51F8043B40F8043BC2
:1010300051F8043B40F8043B51F8043B40F8043BB2
:1010400051F8043B40F8043B51F8043B40F8043BA2
:1010500051F8043B40F8043B51F8043B40F8043B92
:1010600051F8043B40F8043B51F8043B40F8043B82
:1010700051F8043B40F8043B51F8043B40F8043B72
:1010800051F8043B40F8043B51F8043B40F8043B62
:10109000403ABDD2303211D351F8043B40F8043B02
:1010A00051F8043B40F8043B51F8043B40F8043B42
:1010B00051F8043B40F8043B103AEDD20C3205D312
:1010C00051F8043B40F8043B043AF9D2043208D00A
:1010D000D2071CBF11F8013B00F8013B01D30B887C
:1010E00003806046704700BF082A13D38B078DD05A
:1010F00010F003038AD0C3F10403D21ADB071CBF2C
:1011000011F8013B00F8013B80D331F8023B20F895
:10111000023B7BE7043AD9D3013A11F8013B00F8CE
:10112000013BF9D20B7803704B7843708B78837056
:101130006046704770B54FF0FF0C4CF4E06C1CEA51
:1011400011541DBF1CEA135594EA0C0F95EA0C0FBD
:1011500000F0DEF82C4481EA030621EA4C5123EA30
:101160004C5350EA013518BF52EA033541F480115F
:1011700043F4801338D0A0FB02CE4FF00005E1FB12
:1011800002E506F00042E0FB03E54FF00006E1FB5C
:1011900003569CF0000F18BF4EF0010EA4F1FF049F
:1011A000B6F5007F64F5407404D25FEA4E0E6D41DF
:1011B00046EB060642EAC62141EA55514FEAC520F0
:1011C00040EA5E504FEACE2EB4F1FD0C88BFBCF56C
:1011D000E06F1ED8BEF1004F08BF5FEA500E50F11D
:1011E000000041EB045170BD06F0004646EA0101E3
:1011F00040EA020081EA0301B4EB5C04C2BFD4EB15
:101200000C0541EA045170BD41F480114FF0000E0D
:10121000013C00F3AB8014F1360FDEBF002001F07B
:10122000004170BDC4F10004203C35DA0C341BDCF5
:1012300004F11404C4F1200500FA05F320FA04F0C7
:1012400001FA05F240EA020001F0004221F00041FB
:1012500010EBD37021FA04F642EB06015EEA430E6E
:1012600008BF20EAD37070BDC4F10C04C4F120059E
:1012700000FA04F320FA05F001FA04F240EA020051
:1012800001F0004110EBD37041F100015EEA430E22
:1012900008BF20EAD37070BDC4F1200500FA05F242
:1012A0004EEA020E20FA04F301FA05F243EA0203C1
:1012B00021FA04F001F0004121FA04F220EA0200D0
:1012C00000EBD3705EEA430E08BF20EAD37070BD16
:1012D00094F0000F0FD101F00046400041EB0101F6
:1012E00011F4801F08BF013CF7D041EA060195F0D8
:1012F000000F18BF704703F00046520043EB030392
:1013000013F4801F08BF013DF7D043EA060370477E
:1013100094EA0C0F0CEA135518BF95EA0C0F0CD089
:1013200050EA410618BF52EA4306D1D181EA0301CF
:1013300001F000414FF0000070BD50EA410606BFC9
:101340001046194652EA430619D094EA0C0F02D10E
:1013500050EA013613D195EA0C0F05D152EA033653
:101360001CBF104619460AD181EA030101F0004171
:1013700041F0FE4141F470014FF0000070BD41F0BA
:10138000FE4141F4780170BD70B54FF0FF0C4CF494
:10139000E06C1CEA11541DBF1CEA135594EA0C0FB3
:1013A00095EA0C0F00F0A7F8A4EB050481EA030E00
:1013B00052EA03354FEA013100F088804FEA0333E7
:1013C0004FF0805545EA131343EA12634FEA0222B5
:1013D00045EA111545EA10654FEA00260EF0004176
:1013E0009D4208BF964244F1FD0404F5407402D2C8
:1013F0005B084FEA3202B61A65EB03055B084FEA59
:1014000032024FF480104FF4002CB6EB020E75EB55
:10141000030E22BFB61A754640EA0C005B084FEA7D
:101420003202B6EB020E75EB030E22BFB61A7546FA
:1014300040EA5C005B084FEA3202B6EB020E75EB45
:10144000030E22BFB61A754640EA9C005B084FEABD
:101450003202B6EB020E75EB030E22BFB61A7546CA
:1014600040EADC0055EA060E18D04FEA051545EAB9
:1014700016754FEA06164FEAC30343EA52734FEA62
:10148000C2025FEA1C1CC0D111F4801F0BD141EADB
:1014900000014FF000004FF0004CB6E711F4801F40
:1014A00004BF01430020B4F1FD0C88BFBCF5E06F20
:1014B0003FF6AFAEB5EB030C04BFB6EB020C5FEA30
:1014C000500C50F1000041EB045170BD0EF0004E85
:1014D0004EEA113114EB5C04C2BFD4EB0C0541EAB7
:1014E000045170BD41F480114FF0000E013C90E6B4
:1014F00045EA060E8DE60CEA135594EA0C0F08BF78
:1015000095EA0C0F3FF43BAF94EA0C0F0AD150EA76
:1015100001347FF434AF95EA0C0F7FF425AF104609
:1015200019462CE795EA0C0F06D152EA03353FF431
:10153000FDAE1046194622E750EA410618BF52EAAE
:1015400043067FF4C5AE50EA41047FF40DAF52EA82
:1015500043057FF4EBAE12E74FF0FF3C06E000BF1F
:101560004FF0010C02E000BF4FF0010C4DF804CD2C
:101570004FEA410C7FEA6C5C4FEA430C18BF7FEAEC
:101580006C5C1BD001B050EA410C0CBF52EA430C1A
:1015900091EA030F02BF90EA020F0020704710F19A
:1015A000000F91EA030F58BF994208BF90422CBF29
:1015B000D8176FEAE37040F0010070474FEA410C22
:1015C0007FEA6C5C02D150EA013C07D14FEA430C40
:1015D0007FEA6C5CD6D152EA033CD3D05DF8040BB1
:1015E000704700BF8446104662468C4619466346E3
:1015F00000E000BF01B5FFF7B7FF002848BF10F1BA
:10160000000F01BD4DF808EDFFF7F4FF0CBF0120FE
:1016100000205DF808FB00BF4DF808EDFFF7EAFF7A
:1016200034BF012000205DF808FB00BF4DF808ED35
:10163000FFF7E0FF94BF012000205DF808FB00BF2A
:101640004DF808EDFFF7CEFF94BF012000205DF8B4
:1016500008FB00BF4DF808EDFFF7C4FF34BF0120C1
:1016600000205DF808FB00BF4FEA410C7FEA6C5C8C
:1016700002D150EA013C0AD14FEA430C7FEA6C5C8C
:1016800002D152EA033C02D14FF0000070474FF004
:10169000010070474FEA410212F5001215D211D530
:1016A0006FF47873B3EB625212D94FEAC12343F05F
:1016B000004343EA505311F0004F23FA02F018BFE1
:1016C000404270474FF00000704750EA013005D1AA
:1016D00011F0004008BF6FF0004070474FF000006D
:1016E000704700BF38B57C4B1B78012B07D0013801
:1016F00005282DD8DFE800F0C97BA22D065480F024
:101700000700F4E7754C0821204601F0D3FF0821BB
:10171000204602F095F97249724B1868FFF73AF8C3
:101720002568FFF7FDF9A8630421204601F040FF7A
:101730000421204602F084F9236841F269025A63C9
:101740000021204601F0B6FF0021204602F0FCF8FF
:1017500038BD624C0421204601F0ACFF0421204634
:1017600002F06EF95E495F4B1868FFF713F82568C1
:10177000FFF7D6F9E8630821204601F019FF082198
:10178000204602F05DF9236841F269025A630021A4
:10179000204601F08FFF0021204602F0D5F8D7E760
:1017A0004E4C0021204601F085FF0021204602F02A
:1017B00047F94B494B4B1868FEF7ECFF2568FFF7DC
:1017C000AFF9E8630821204601F0F2FE0821204627
:1017D00002F036F9236841F269029A630421204637
:1017E00001F068FF0421204602F0AEF8B0E73B4C60
:1017F0000821204601F05EFF0821204602F020F972
:101800003749384B1868FEF7C5FF2568FFF788F998
:1018100068630021204601F0CBFE0021204602F043
:101820000FF9236841F269029A630421204601F00E
:1018300041FF0421204602F087F889E7274C042164
:10184000204601F037FF0421204602F0F9F8244930
:10185000244B1868FEF79EFF2568FFF761F968635F
:101860000021204601F0A4FE0021204602F0E8F805
:10187000236841F26902DA630821204601F01AFF69
:101880000821204602F060F862E7144C002120464F
:1018900001F010FF0021204602F0D2F81049114B50
:1018A0001868FEF777FF2568FFF73AF9A863042167
:1018B000204601F07DFE0421204602F0C1F8236895
:1018C00041F26902DA630821204601F0F3FE0821A3
:1018D000204602F039F83BE700000020DC09002038
:1018E000004083450400002038B5164802F006F891
:1018F000154C236800255D639D63DD632946204602
:1019000001F056FE0421204601F052FE0821204637
:1019100001F04EFE2946204602F016F8042120462A
:1019200002F012F80821204602F00EF8202120468D
:1019300001F02EFB23686FF020021A61034B012295
:101940001A7038BD340A0020DC0900200100002094
:1019500010B501224FF400710F4800F00EFFFFF7A1
:10196000C3FF092000F07CFD0C4803686FF0020201
:101970001A6101F05FFF00F099F8FFF7B3FE084C21
:101980002021204601F004FB23686FF020021A6139
:10199000044B00221A7010BD001C0240340A0020C3
:1019A000DC0900200100002010B504464FF07E51F4
:1019B000FFF7ACF820B14FF07E54054B1C6010BD12
:1019C00000212046FFF784F80028F6D00024F4E731
:1019D0000400002070B586B00023019302930393A6
:1019E000049305930093164B1A6B42F080021A631E
:1019F0001B6B03F080030093009B012401940225DC
:101A000002950495059503940E4E01A9304600F009
:101A1000BBFD019501A9304600F0B6FD4FF480539F
:101A2000019301A9084800F0AFFD2246214632206B
:101A300000F03CFD322000F071FD06B070BD00BF2B
:101A40000038024000000240001C024010B586B081
:101A5000002402940394049405940194104B1A6C8E
:101A600042F008021A641B6C03F008030193019B07
:101A7000FFF7B0FF0B480C4B036053234360202358
:101A800083604FF6FF73C3600461062305930F2341
:101A900004930294039402A901F061FE06B010BD04
:101AA00000380240340A0020000C004038B50A4DCE
:101AB0000121284600F05AFE44000221284600F089
:101AC00055FE044364004FF48051044800F04EFE7C
:101AD000204300F0070038BD00000240001C024017
:101AE00038B50546FFF7E2FF0446FFF7FBFD2B681C
:101AF000596B0C4A13680B4413600B4A136801338B
:101B000013600A4B1A5D0A4B1B689A4205D0094BB9
:101B100000221A70064B1C6038BD064B01221A7059
:101B2000F8E700BF300A00202C0A002018A10008A6
:101B3000240A0020280A002000B58BB0002205925C
:101B4000069207920892099200921D4B196B41F080
:101B500010011963196B01F01001009100990192B5
:101B6000196B41F080011963196B01F0800101913B
:101B700001990292196B41F001011963196B01F08F
:101B80000101029102990392196B41F0020119635C
:101B9000196B01F002010391039904921A6B42F44C
:101BA00080721A631B6B03F480730493049B1F23DE
:101BB000059305A9034800F0E7FC0BB05DF804FBB2
:101BC000003802400010024030B595B030220021AC
:101BD00008A802F0E7F900240394049405940694FD
:101BE00007940194264B1A6C42F080521A641B6CC5
:101BF00003F080530193019B0294224B1A6842F434
:101C000080421A601B6803F480430293029B012305
:101C100008934FF48033099302250E954FF4800307
:101C20000F93082310934FF4A87311931295072371
:101C3000139308A800F0A8FD0F23039304950594BF
:101C40004FF4A05306934FF480530793052103A844
:101C500001F006F800F094FF01F0B2F80A4BA3FB84
:101C60000030800900F068FC042000F079FC224676
:101C700021464FF0FF3000F019FC15B030BD00BF19
:101C80000038024000700040D34D6210F0B585B0BE
:101C900000F0BAFBFFF798FFFFF74EFF00F0BCF92A
:101CA00000F010FB00F084FAFFF7D0FE364800F099
:101CB000A5F8364802F02AFA354802F027FA3548E6
:101CC00002F024FA344802F021FA344802F01EFAF5
:101CD000334B00221A70334B4FF448721A604FF4A2
:101CE0007A7000F0BDFB3048304B1860FFF75CFEA7
:101CF000FFF72EFE2E4802F009FA2EE00024002302
:101D00002C4A13602C4A13602C4B1B780BB104F146
:101D100000442B492046FEF7F1FD06462949FEF70F
:101D200039FD07462046FEF7CFFB04460D463846F0
:101D3000FEF7CAFBCDE902013046FEF7C5FBCDE94F
:101D4000000122462B46204802F07EF91F4B00225C
:101D50001A70144B4FF448721A601C4B1B78002BFE
:101D6000FBD0154B1B68002BC8D0124B1868124BC8
:101D70001B68B0FBF3F0FEF7B5FC01461448FEF714
:101D8000BDFD0446BBE700BF200B002020A10008DA
:101D90003CA1000868A10008B0A10008E0A100086B
:101DA00000000020840A00209A99193E7C0A002035
:101DB000F4A10008300A00202C0A0020280A002084
:101DC0000000C0410000704208A20008800A002004
:101DD00000247449064B1B6813B1013B044A13608D
:101DE000034B1B6813B9034B01221A70704700BFE5
:101DF000840A0020800A002072B6FEE708B5054B71
:101E00001860054B1868002302221946806802F00A
:101E100085F908BD880A002014000020022801D896
:101E20000120704708B502F093F8092303600020F1
:101E300008BD000010B5013801280AD814464FF03B
:101E4000FF3392B20748006801F0A3FF40B9204673
:101E500010BD02F07DF8092303604FF0FF30F7E773
:101E60000520F5E7880A0020022801D800207047E5
:101E700008B502F06DF8092303604FF0FF3008BD8C
:101E800008B502F065F8092303604FF0FF3008BD84
:101E900008B548B94FF0FF3301220848006801F047
:101EA000E4FF40B9012008BD02F052F809230360A5
:101EB0004FF0FF30F7E70520F5E700BF880A002064
:101EC00008B5022804D84FF400534B60002008BD29
:101ED00002F03EF809230360F8E7000010B582B075
:101EE00000240094214B5A6C42F480425A645A6C8C
:101EF00002F480420092009A01941A6C42F08052DF
:101F00001A641B6C03F080530193019B052000F0C1
:101F1000BBFA224621466FF00B0000F0C7FA2246BA
:101F200021466FF00A0000F0C1FA224621466FF008
:101F3000090000F0BBFA224621466FF0040000F0D1
:101F4000B5FA224621466FF0030000F0AFFA2246B0
:101F500021466FF0010000F0A9FA224621464FF019
:101F6000FF3000F0A3FA02B010BD00BF00380240FD
:101F7000FEE7FEE7FEE7FEE7FEE7704770477047C3
:101F800008B500F05BFA00F0FBFA08BD08B502489E
:101F900001F017F808BD00BFD80A002008B50248B4
:101FA00001F00FF808BD00BF900A00200120704723
:101FB00008B501F0CDFF162303604FF0FF3008BDD8
:101FC00008B54FF0FF31FFF7F3FFFEE710B503460A
:101FD0000C4A0D490D48006840B10C4800680344A4
:101FE000521A934206D8094A136010BD0748084C9C
:101FF0000460F2E701F0ACFF0C2303604FF0FF3008
:10200000F3E700BF00000220000400008C0A00205B
:10201000B00B00207047000000B587B0002302938A
:10202000039304930593009301931048104A0260B0
:102030005322426083604FF0FF32C26003618361CC
:1020400002A901F08CFB58B950230093002301939F
:102050006946064801F030FD28B907B05DF804FB79
:10206000FFF7CAFEF0E7FFF7C7FEF6E7900A002089
:10207000000C004010B588B000230393049305932F
:10208000069307930268174B9A4201D008B010BD1F
:102090000024019403F50B331A6C42F008021A6411
:1020A0001A6C02F008020192019A02941A6B42F033
:1020B00080021A631B6B03F080030293029B4FF4B0
:1020C000E053039302230493079303A9064800F007
:1020D0005BFA22462146322000F0E8F9322000F077
:1020E0001DFAD3E7000C0040001C024002680E4BB2
:1020F0009A4200D0704700B583B00021019103F5EA
:102100009A335A6C42F002025A645B6C03F0020389
:102110000193019B0A462E2000F0C8F92E2000F002
:10212000FDF903B05DF804FB0004014070B588B010
:10213000002303930493059306930793026803F126
:10214000804303F582339A4201D008B070BD002469
:10215000019403F59A331A6B42F080021A631A6BEA
:1021600002F080020192019A02941A6B42F480728A
:102170001A631B6B03F480730293029B4FF460435A
:102180000393022604960325079503A9064800F049
:10219000FBF9E0230393049605940694079503A99D
:1021A000024800F0F1F9D0E7001C02400020024094
:1021B00030B597B00024129413941494159410948D
:1021C000119409940A940B940C940D940E940F940A
:1021D00020252A46214601A801F0E4FE3748384B65
:1021E00003604460856041F26803C3600461446138
:1021F000846101F007F8002848D14FF4805312930E
:1022000012A92E4801F046F9002842D12B4801F0CE
:1022100025F8002840D100231093119310A92748D6
:1022200001F04AFC00283AD16023099300220A9267
:102230000B920C920D920E920F9209A91F4801F079
:1022400071F878BB042209A91C4801F06BF860BB47
:10225000082209A9194801F065F848BB4FF400634A
:1022600001934FF480630293002303930493059337
:102270004FF400520692089301A9104801F062FC45
:10228000C8B90E48FFF752FF17B030BDFFF7B4FDD5
:10229000B3E7FFF7B1FDB9E7FFF7AEFDBBE7FFF727
:1022A000ABFDC1E7FFF7A8FDCCE7FFF7A5FDCFE742
:1022B000FFF7A2FDD2E7FFF79FFDE2E7D80A002073
:1022C0000004014008B50A480A4B03604FF4E133AB
:1022D000436000238360C36003610C224261836119
:1022E000C36101F027FD00B908BDFFF785FDFBE7DD
:1022F000200B00200010014000B589B0002303939B
:102300000493059306930793026803F1804303F552
:1023100088339A4202D009B05DF804FB0021019194
:1023200003F594335A6C42F010025A645A6C02F06E
:1023300010020192019A02911A6B42F002021A6392
:102340001B6B03F002030293029BC023039302233F
:102350000493032306930723079303A9014800F07E
:1023600013F9D8E700040240DFF834D00D480E49D5
:102370000E4A002302E0D458C4500433C4188C42DF
:10238000F9D30B4A0B4C002301E013600432A24244
:10239000FBD3FFF73FFE01F0E1FDFFF777FC70474D
:1023A0000000022000000020C009002054A6000800
:1023B000C0090020B00B0020FEE7000010B5044665
:1023C0000E4B18784FF47A73B3FBF0F30C4A106895
:1023D000B0FBF3F000F0B0F868B90F2C01D9012080
:1023E0000AE0002221464FF0FF3000F05FF8054B75
:1023F0001C60002000E0012010BD00BF0C00002088
:10240000080000201000002008B50B4B1A6842F4A9
:1024100000721A601A6842F480621A601A6842F404
:1024200080721A60032000F02FF80F20FFF7C6FF1C
:10243000FFF754FD002008BD003C0240034A11682C
:10244000034B1B780B441360704700BF640B0020E4
:102450000C000020014B1868704700BF640B00207F
:1024600038B50446FFF7F6FF0546B4F1FF3F02D04A
:10247000044B1B781C44FFF7EDFF401BA042FAD32E
:1024800038BD00BF0C000020074AD36823F4E06386
:102490001B041B0C000200F4E060034343F0BF6325
:1024A00043F40033D360704700ED00E000B5194BF2
:1024B000DB68C3F30223C3F1070CBCF1040F28BF90
:1024C0004FF0040C03F1040EBEF1060F18D9033BC4
:1024D0004FF0FF3E0EFA0CFC21EA0C0199400EFA77
:1024E00003F322EA0303194300280BDB0901C9B2F5
:1024F00000F1604000F5614080F800135DF804FBD6
:102500000023E5E700F00F000901C9B2024B19549E
:10251000F4E700BF00ED00E014ED00E0002807DB69
:1025200000F01F02400901239340024A42F8203084
:10253000704700BF00E100E00138B0F1807F0BD2AE
:102540004FF0E0235861054AF02182F82310002063
:10255000986107221A6170470120704700ED00E082
:10256000042806D04FF0E022136923F0040313611E
:1025700070474FF0E022136943F004031361704782
:1025800008B5FFF727FC08BD00230F2B00F2E480FD
:1025900070B582B060E085685E000324B44025EA2F
:1025A0000405CC68B4402C438460456825EA0205E4
:1025B0004C68C4F300129A402A4342605AE0DC0897
:1025C000083450F8246003F0070295000F22AA4057
:1025D00026EA020E0A69AA4042EA0E0240F82420C6
:1025E0005CE0072200E0002202FA0EF22A430234E5
:1025F0005A4D45F824205A4A94686FEA0C0224EA9E
:102600000C054E6816F4801F01D04CEA0405544CAA
:10261000A560E46802EA04054E6816F4001F01D0C4
:102620004CEA04054E4CE560646802EA04054E6815
:1026300016F4003F01D04CEA0405494C656024685B
:1026400022404D6815F4803F01D04CEA0402444C0E
:10265000226001330F2B7DD801229A400C6804EAD6
:10266000020C32EA0404F4D14C6804F00304013C87
:10267000012C90D94A6802F00302032A09D0C468E9
:102680005D000322AA4024EA02048A68AA40224389
:10269000C2604A6802F00302022A90D004684FEA3E
:1026A000430E032202FA0EF224EA02044A6802F000
:1026B000030202FA0EF2224302604A6812F4403F1B
:1026C000C7D000220192274A546C44F480445464D9
:1026D000526C02F480420192019A9C08A51C1F4A88
:1026E00052F8255003F003024FEA820E0F2202FA3D
:1026F0000EF225EA02051C4A90423FF474AF02F53F
:10270000806290421AD002F58062904218D002F5A1
:102710008062904216D002F58062904214D002F599
:102720008062904212D002F58062904210D002F591
:10273000806290423FF455AF082255E7012253E7EB
:10274000022251E703224FE704224DE705224BE71F
:10275000062249E702B070BD704700BF0038014053
:10276000003C014000380240000002400369194269
:1027700001D001207047002070470AB18161704785
:102780000904816170470000002800F0E08170B505
:1027900082B00446036813F0010F3BD09F4B9B6847
:1027A00003F00C03042B2CD09C4B9B6803F00C0310
:1027B000082B21D06368B3F5803F4FD0B3F5A02F2D
:1027C00052D0964B1A6822F480321A601A6822F4AA
:1027D00080221A606368002B50D0FFF73BFE05464D
:1027E0008E4B1B6813F4003F14D1FFF733FE401BE0
:1027F0006428F5D90320B1E1884B5B6813F4800F9E
:10280000D8D0864B1B6813F4003F03D06368002BBD
:1028100000F09F81236813F0020F54D07F4B9B6818
:1028200013F00C0F3ED07D4B9B6803F00C03082B7C
:1028300033D0E368002B68D0794B01221A60FFF790
:1028400009FE0546754B1B6813F0020F54D1FFF7C4
:1028500001FE401B0228F5D903207FE16F4A13686F
:1028600043F480331360B5E76C4B1A6842F480225E
:102870001A601A6842F480321A60ABE7FFF7EAFD8B
:102880000546664B1B6813F4003FC3D0FFF7E2FD1B
:10289000401B6428F5D9032060E1604B5B6813F4AA
:1028A000800FC6D15D4B1B6813F0020F03D0E368A5
:1028B000012B40F05081594A136823F0F803216935
:1028C00043EAC1031360236813F0080F42D0636921
:1028D0006BB3534B0122C3F8802EFFF7BBFD0546B7
:1028E0004E4B5B6F13F0020F34D1FFF7B3FD401B6B
:1028F0000228F5D9032031E1484A136823F0F80390
:10290000216943EAC1031360DDE7454B00221A60E9
:10291000FFF7A0FD0546414B1B6813F0020FD2D014
:10292000FFF798FD401B0228F5D9032016E13C4B28
:102930000022C3F8802EFFF78DFD0546374B5B6FF5
:1029400013F0020F06D0FFF785FD401B0228F5D9D2
:10295000032003E1236813F0040F77D02F4B1B6C87
:1029600013F0805F33D1002301932C4B1A6C42F09B
:1029700080521A641B6C03F080530193019B012564
:10298000284B1B6813F4807F23D0A368012B34D01D
:10299000052B38D0214B1A6F22F001021A671A6FEB
:1029A00022F004021A67A368002B3DD0FFF752FD06
:1029B00006461A4B1B6F13F0020F46D1FFF74AFD74
:1029C000801B41F288339842F3D90320C6E00025EA
:1029D000D6E7144A136843F480731360FFF73AFD97
:1029E0000646104B1B6813F4807FCED1FFF732FDF3
:1029F000801B0228F5D90320B0E0084A136F43F08A
:102A000001031367CFE7054B1A6F42F004021A6700
:102A10001A6F42F001021A67C5E700BF0038024092
:102A20000000474200700040FFF714FD0646524B7D
:102A30001B6F13F0020F08D0FFF70CFD801B41F253
:102A400088339842F3D9032088E0EDB9A369002BBD
:102A500000F08380484A926802F00C02082A51D0A4
:102A6000022B17D0454B00221A66FFF7F3FC0446F1
:102A7000414B1B6813F0007F42D0FFF7EBFC001BBB
:102A80000228F5D9032069E03B4A136C23F08053F8
:102A90001364DBE7394B00221A66FFF7DBFC0546BF
:102AA000354B1B6813F0007F06D0FFF7D3FC401BAB
:102AB0000228F5D9032051E0E369226A1343626AD0
:102AC00043EA8213A26A5208013A43EA0243E26AE5
:102AD00043EA0263284A5360284B01221A66FFF733
:102AE000B9FC0446244B1B6813F0007F06D1FFF7A6
:102AF000B1FC001B0228F5D903202FE000202DE0B7
:102B000000202BE0012B2BD01B4B5B6803F48001D2
:102B1000E269914226D103F03F02216A8A4223D121
:102B2000616A47F6C0721A40B2EB811F1ED103F4EE
:102B30004031A26A5208013AB1EB024F18D103F0BA
:102B40007063E26AB3EB026F14D1002006E001204B
:102B50007047012002E0012000E0002002B070BDBB
:102B60000120FBE70120F9E70120F7E70120F5E765
:102B70000120F3E70120F1E700380240000047425E
:102B8000014B0122DA6470470000474208B5314B1F
:102B90009B6803F00C03042B57D0082B57D12D4B07
:102BA0005A6802F03F025B6813F4800F2AD0294B69
:102BB0005968C1F3881C4FEA4C11B1EB0C006EEB65
:102BC0000E0E4FEA8E1343EA90638101091A63EBFC
:102BD0000E03DB0043EA5173C90011EB0C0C43F107
:102BE0000003590200234FEA4C2041EADC51FDF773
:102BF000B7FF184B5B68C3F3014301335B00B0FBC5
:102C0000F3F025E0134B5968C1F3881C4FEA4C11CF
:102C1000B1EB0C006EEB0E0E4FEA8E1343EA90639D
:102C20008101091A63EB0E03DB0043EA5173C9000B
:102C300011EB0C0C43F10003990200234FEA8C20A6
:102C400041EA9C51FDF78CFFD3E7034800E00348BD
:102C500008BD00BF0038024000127A000024F400D2
:102C6000002800F09B8070B50D4604464F4B1B6852
:102C700003F007038B4208D2CBB24C4A137013689F
:102C800003F007038B4240F08B80236813F0020FA0
:102C900017D013F0040F04D0454A936843F4E0536F
:102CA0009360236813F0080F04D0414A936843F4FB
:102CB000604393603E4A936823F0F003A1680B439E
:102CC0009360236813F0010F32D06368012B21D089
:102CD0009A1E012A25D9364A126812F0020F61D0D5
:102CE00033498A6822F0030213438B60FFF7B2FB7B
:102CF00006462F4B9B6803F00C036268B3EB820F10
:102D000016D0FFF7A7FB801B41F288339842F0D919
:102D1000032042E0264A126812F4003FE0D101206D
:102D20003BE0234A126812F0007FD9D1012034E041
:102D30001E4B1B6803F00703AB4207D9EAB21B4BDB
:102D40001A701B6803F00703AB422DD1236813F000
:102D5000040F06D0164A936823F4E053E1680B434E
:102D60009360236813F0080F07D0114A936823F487
:102D70006043216943EAC1039360FFF707FF0C4BEF
:102D80009B68C3F303130B4AD35CD8400A4B18600B
:102D90000A4B1868FFF712FB002070BD0120704736
:102DA0000120FAE70120F8E70120F6E7003C0240A5
:102DB0000038024024A20008080000201000002073
:102DC000014B1868704700BF0800002008B5FFF7E6
:102DD000F7FF044B9B68C3F38223034AD35CD840BC
:102DE00008BD00BF0038024034A2000808B5FFF754
:102DF000E7FF044B9B68C3F34233034AD35CD840DC
:102E000008BD00BF0038024034A2000830B4036A95
:102E100023F001030362036A4268846924F07304A7
:102E20000D682C4323F0020C8B6843EA0C03104D11
:102E3000A84203D005F58065A84205D123F0080318
:102E4000CD682B4323F00403094DA84203D005F5B8
:102E50008065A84205D122F440724D692A438D69EC
:102E60002A43426084614A684263036230BC70470F
:102E70000000014030B4036A23F480730362036AE4
:102E80004268C46924F0730C0C6844EA0C0523F40E
:102E900000738C6843EA0423114CA04203D004F56C
:102EA0008064A04206D123F40063CC6843EA042383
:102EB00023F480630A4CA04203D004F58064A0424E
:102EC00007D122F440524C6942EA04128C6942EA6A
:102ED00004124260C5614A68C263036230BC704735
:102EE0000000014030B4036A23F480530362036A94
:102EF0004468C26922F4E6420D6842EA052223F4DE
:102F000000538D6843EA0533094DA84203D005F507
:102F10008065A84204D124F480444D6944EA8514B4
:102F20004460C2614A680264036230BC704700BFFB
:102F30000000014010B4036A046A24F00104046232
:102F4000846924F0F00C4CEA021223F00A030B43CC
:102F50008261036210BC704710B4046A24F010044C
:102F600004628469036A24F4704C4CEA023223F050
:102F7000A00343EA01138261036210BC70478368B7
:102F800023F070030B4343F00703836070477047DF
:102F900090F83C30012B0ED0012380F83C30022207
:102FA00080F83D200268516180F83D30002380F8B0
:102FB0003C30184670470220704770477047704792
:102FC000704710B5044603681A6912F0020F11D059
:102FD000DA6812F0020F0DD06FF002021A610123BD
:102FE000037703689B6913F0030F70D0FEF778FD39
:102FF0000023237723681A6912F0040F12D0DA68CD
:1030000012F0040F0ED06FF004021A61022323772E
:1030100023689B6913F4407F5FD02046FEF760FD74
:103020000023237723681A6912F0080F12D0DA6898
:1030300012F0080F0ED06FF008021A6104232377F4
:103040002368DB6913F0030F4ED02046FEF748FDDE
:103050000023237723681A6912F0100F12D0DA6860
:1030600012F0100F0ED06FF010021A6108232377B0
:103070002368DB6913F4407F3DD02046FEF730FD26
:103080000023237723681A6912F0010F03D0DA684E
:1030900012F0010F36D123681A6912F0800F03D0A5
:1030A000DA6812F0800F34D123681A6912F0400FE9
:1030B00003D0DA6812F0400F32D123681A6912F097
:1030C000200F03D0DA6812F0200F30D110BDFFF7C7
:1030D00075FF2046FFF773FF8AE72046FFF76EFF74
:1030E0002046FFF76CFF9BE72046FFF767FF20466F
:1030F000FFF765FFACE72046FFF760FF2046FFF7CC
:103100005EFFBDE76FF001021A612046FFF755FF31
:10311000C1E76FF080021A61204600F03DFDC3E771
:103120006FF040021A612046FFF74AFFC5E76FF0D3
:1031300020021A61204600F02EFDC7E70368304ADE
:10314000904212D0B0F1804F0FD0A2F57C42904255
:103150000BD002F58062904207D002F58062904267
:1031600003D002F57842904203D123F070034A68FD
:103170001343234A90422AD0B0F1804F27D0A2F5C2
:103180007C42904223D002F5806290421FD002F52B
:10319000806290421BD002F57842904217D002F52F
:1031A0007052904213D002F5806290420FD002F527
:1031B000806290420BD0A2F59832904207D002F57F
:1031C0008062904203D002F58062904203D123F4E2
:1031D0004073CA68134323F080034A6913430360B2
:1031E0008B68C3620B688362054B984203D003F57A
:1031F0008063984201D10B690363012343617047E7
:103200000000014040B310B5044690F83D30F3B1E2
:10321000022384F83D30214651F8040BFFF78EFF5E
:10322000012384F8463084F83E3084F83F3084F837
:10323000403084F8413084F8423084F8433084F8D8
:10324000443084F8453084F83D30002010BD80F8CB
:103250003C30FEF74BFFDBE70120704740B310B571
:10326000044690F83D30F3B1022384F83D30214606
:1032700051F8040BFFF762FF012384F8463084F80D
:103280003E3084F83F3084F8403084F8413084F890
:10329000423084F8433084F8443084F8453084F870
:1032A0003D30002010BD80F83C30FFF770FEDBE7BA
:1032B0000120704730B4036A23F010030362036AED
:1032C0004468826922F4E6420D6842EA052223F04E
:1032D00020038D6843EA0513114DA84203D005F57C
:1032E0008065A84206D123F08003CD6843EA051328
:1032F00023F040030A4DA84203D005F58065A8429B
:1033000007D124F440644D6944EA85048D6944EA98
:103310008504446082614A688263036230BC7047FE
:103320000000014038B590F83C30012B66D00446CF
:103330000D46012380F83C300C2A5AD8DFE802F011
:10334000075959591B59595930595959440000685E
:10335000FFF75CFD2268936943F0080393612268DC
:10336000936923F0040393612268936929690B43ED
:10337000936100203EE00068FFF79CFF226893699C
:1033800043F4006393612268936923F4806393613B
:1033900022689369296943EA01239361002029E0A7
:1033A0000068FFF767FD2268D36943F00803D36123
:1033B0002268D36923F00403D3612268D3692969A1
:1033C0000B43D361002015E00068FFF78BFD2268F6
:1033D000D36943F40063D3612268D36923F4806323
:1033E000D3612268D369296943EA0123D3610020AC
:1033F00000E00120002384F83C3038BD0220FCE7C7
:1034000070B49446046A24F0010404628469066A74
:10341000184DA8421CD0B0F1804F19D0164A9042E6
:1034200016D002F58062904212D002F5806290427E
:103430000ED002F5784290420AD002F570529042C6
:1034400006D0A2F59432904202D044F0010203E08B
:1034500024F0030242EA0C0222F0F0021B01DBB26C
:10346000134326F00A0201F00A011143836101624D
:1034700070BC7047000001400004004010B4846834
:1034800024F47F4C42EA03220A4342EA0C0282609F
:1034900010BC704790F83C30012B78D010B5044632
:1034A000012380F83C30022380F83D3002689368A5
:1034B00023F47F4323F0770393600B68602B4CD099
:1034C00029D8402B54D00CD9502B22D1CA68496836
:1034D0000068FFF72FFD50212068FFF750FD002006
:1034E00005E0202B0DD009D9302B0AD00120012373
:1034F00084F83D30002384F83C3010BD0BB1102B14
:1035000005D119462068FFF73AFD0020EFE70120BA
:10351000EDE70120EBE7B3F5805F34D0B3F5005F52
:103520000CD1CB684A6889680068FFF7A7FF22685A
:10353000936843F4804393600020D8E7702B24D134
:10354000CB684A6889680068FFF798FF226893682B
:1035500043F0770393600020C9E7CA6849680068B0
:10356000FFF7FAFC60212068FFF709FD0020BEE7A5
:10357000CA6849680068FFF7DDFC40212068FFF752
:10358000FEFC0020B3E70020B1E70120AFE70220F6
:10359000704701F01F01012303FA01FC036A23EACB
:1035A0000C030362036A02FA01F10B4303627047E2
:1035B00010B504460846002942D194F83E30DBB2EB
:1035C000013B18BF0123002B6ED1002851D10223EB
:1035D00084F83E30012201462068FFF7DAFF2368B5
:1035E000334A934203D002F58062934203D15A6C6E
:1035F00042F400425A6423682D4A934249D0B3F101
:10360000804F46D0A2F57C42934242D002F58062C0
:1036100093423ED002F5806293423AD002F578425E
:10362000934236D002F57052934232D0A2F59432D2
:1036300093422ED01A6842F001021A60002032E054
:10364000042908D008290DD094F84130DBB2013BA1
:1036500018BF0123B7E794F83F30DBB2013B18BF36
:103660000123B0E794F84030DBB2013B18BF0123DF
:10367000A9E7042805D0082807D0022384F84130A0
:10368000A8E7022384F83F30A4E7022384F84030FF
:10369000A0E79A6802F00702062A07D01A6842F0EB
:1036A00001021A60002010BD0120FCE70020FAE7AB
:1036B0000000014038B504460D4600220068FFF7BF
:1036C00068FF23681D4A934218D002F58062934236
:1036D00014D02368196A41F21112114208D1196AF3
:1036E00040F24442114203D11A6822F001021A60EA
:1036F0009DB9012384F83E30002038BD196A41F29B
:1037000011121142E5D1196A40F244421142E0D14E
:103710005A6C22F400425A64DBE7042D05D0082DD0
:1037200007D0012384F84130E6E7012384F83F30D5
:10373000E2E7012384F84030DEE700BF00000140EB
:1037400001F01F01042303FA01FC036A23EA0C03BE
:103750000362036A02FA01F10B4303627047002817
:1037600065D070B588B00E46044690F83D30002B09
:1037700058D0022384F83D30214651F8040BFFF75E
:10378000DDFCB368032231682068FFF739FE226848
:10379000936923F00C0393612268936971680B436A
:1037A00093612268536843F08003536022689368F2
:1037B00023F0700393602268936843F040039360A2
:1037C0002268936823F0070393602268936843F0AC
:1037D00004039360002505950695702301930795D2
:1037E00004950395F368029301A92068FFF762FD31
:1037F0002268536823F0700353602268536843F0D3
:1038000050035360012384F8463084F83E3084F836
:103810003F3084F8423084F8433084F83D30284605
:1038200008B070BD80F83C30FEF724FCA1E7012011
:103830007047000010B5044690F83E00C0B294F8FE
:103840003F3094F8422094F8431001284DD1DBB268
:10385000D2B2C9B2012B49D1012A48D1012901D0E4
:10386000104643E0022384F83E3084F83F3084F869
:10387000423084F843302268D36843F00203D360B7
:10388000012200212068FFF784FE23681A4A934230
:1038900020D0B3F1804F1DD0A2F57C42934219D0C5
:1038A00002F58062934215D002F58062934211D0F6
:1038B00002F5784293420DD002F57052934209D03E
:1038C000A2F59432934205D01A6842F001021A60C0
:1038D00000200BE09A6802F00702062A09D01A6855
:1038E00042F001021A60002000E0012010BD1846DD
:1038F000FCE70020FAE700BF0000014010B50446D5
:10390000002211460068FFF744FE2268D36823F0C6
:103910000203D3602368196A41F21112114208D1DF
:10392000196A40F24442114203D11A6822F001029E
:103930001A60012384F83E3084F83F3084F8423026
:1039400084F84330002010BD10B504460846002915
:103950003BD194F84230DBB2013B18BF0123002B6E
:1039600067D100284AD1022384F84230042201465C
:103970002068FFF7E5FE2268536C43F4004353646C
:1039800023682E4A934249D0B3F1804F46D0A2F526
:103990007C42934242D002F5806293423ED002F5CF
:1039A000806293423AD002F57842934236D002F5D3
:1039B0007052934232D0A2F5943293422ED01A68BC
:1039C00042F001021A60002032E0042908D00829E0
:1039D0000DD094F84530DBB2013B18BF0123BEE7A0
:1039E00094F84330DBB2013B18BF0123B7E794F8EA
:1039F0004430DBB2013B18BF0123B0E7042805D0F7
:103A0000082807D0022384F84530AFE7022384F862
:103A10004330ABE7022384F84430A7E79A6802F00A
:103A20000702062A07D01A6842F001021A60002035
:103A300010BD0120FCE70020FAE700BF00000140B4
:103A400038B504460D4600220068FFF779FE23686A
:103A5000196A41F21112114208D1196A40F2444226
:103A6000114203D15A6C22F400425A642368196A45
:103A700041F21112114208D1196A40F24442114236
:103A800003D11A6822F001021A6025B9012384F8D3
:103A90004230002038BD042D05D0082D07D0012369
:103AA00084F84530F5E7012384F84330F1E701233A
:103AB00084F84430EDE7000090F83C30012B3CD016
:103AC00010B4012380F83C30022380F83D300368B5
:103AD0005A689C6822F0700C0A6842EA0C025A602C
:103AE0000368174A93421AD0B3F1804F17D0A2F55A
:103AF0007C42934213D002F5806293420FD002F5CC
:103B0000806293420BD002F57842934207D002F5CF
:103B10007052934203D0A2F59432934204D124F020
:103B200080044A6814439C60012380F83D300023E0
:103B300080F83C30184610BC70470220704700BF28
:103B40000000014090F83C30012B22D0012380F886
:103B50003C30CB6823F440738A68134323F48063BA
:103B60004A68134323F400630A68134323F4805321
:103B70000A69134323F400534A69134323F480432F
:103B8000CA69134302685364002380F83C30184626
:103B900070470220704770477047000038B50446F0
:103BA0000268136923F44053C1680B4313618368AF
:103BB0000269134342691343C2691A430168CB681F
:103BC00023F4164323F00C031343CB6002685369BC
:103BD00023F4407381690B4353610368314A934274
:103BE00006D002F58062934202D0FFF7EFF801E0C1
:103BF000FFF7FCF8E369B3F5004F29D00021031863
:103C000049411B1841F10001C90041EA5371DB0031
:103C1000181863684FEA83024FEA937341F1000179
:103C2000FCF79EFF204DA5FB00325109642303FBE6
:103C300011031B013233A5FB03235B0903F0F002E0
:103C400002EB011203F00F03216813448B6038BDAF
:103C50000023021843EB0301121841F10001C900CF
:103C600041EA5271D200101841F1000162689218C5
:103C70005B41FCF775FF0C4DA5FB00325109642335
:103C800003FB1103DB003233A5FB03235B095A005E
:103C900002F4F87202EB011203F0070321681344E7
:103CA0008B60D4E7001001401F85EB512DE9F843EC
:103CB00005460F4616469946DDF820802C68246894
:103CC00037EA04030CBF4FF0010C4FF0000CB44571
:103CD0002DD1B8F1FF3FF1D0B8F1000F05D0FEF7BC
:103CE000B9FBA0EB09004045E8D92A6802F10C03B2
:103CF00053E8003F23F4D0730C3242E8003100292E
:103D0000F3D12A6802F1140353E8003F23F00103C2
:103D1000143242E800310029F3D1202385F83D30E8
:103D200085F83E30002385F83C30032000E0002079
:103D3000BDE8F88358B310B5044690F83D300BB396
:103D4000242384F83D302268D36823F40053D360E1
:103D50002046FFF723FF2268136923F49043136181
:103D60002268536923F02A0353612268D36843F41D
:103D70000053D36000202064202384F83D3084F871
:103D80003E3010BD80F83C30FEF7B6FAD8E701208F
:103D900070472DE9F04182B01E4690F83D30DBB20D
:103DA000202B54D104460D469046002953D0002ABA
:103DB00053D090F83C30012B51D0012380F83C3097
:103DC00000230364212380F83D30FEF743FB0746C0
:103DD000A4F82480A4F82680A368B3F5805F05D0FA
:103DE0004FF00008002384F83C3012E0236913B13F
:103DF0004FF00008F6E7A8460025F3E738F8023B45
:103E00002268C3F308035360E28C92B2013A92B283
:103E1000E284E38C9BB273B100963B460022802182
:103E20002046FFF743FFE0B9002DE7D015F8012B3E
:103E300023685A60E8E700963B460022402120466E
:103E4000FFF734FF78B9202384F83D3000E00220EA
:103E500002B0BDE8F0810120FAE70120F8E7022076
:103E6000F6E70320F4E70320F2E72DE9F04182B002
:103E70001E4690F83E30DBB2202B5CD104460D4646
:103E8000904600295BD0002A5BD090F83C30012B93
:103E900059D0012380F83C3000230364222280F8AB
:103EA0003E200363FEF7D6FA0746A4F82C80A4F858
:103EB0002E80A368B3F5805F05D04FF00008002383
:103EC00084F83C3017E0236913B14FF00008F6E79F
:103ED000A8460025F3E723685B68C3F3080328F8C6
:103EE000023B03E023685B682B700135E28D92B2E0
:103EF000013A92B2E285E38D9BB2BBB100963B469C
:103F0000002220212046FFF7D1FEF0B9002DE2D09B
:103F1000A368B3F5805FE5D013B92369002BE1D026
:103F200023685B6803F07F032B70DEE7202384F8AF
:103F30003E30002000E0022002B0BDE8F081012008
:103F4000FAE70120F8E70220F6E70320F4E7000093
:103F5000014B1868704700BF1400002070B50D4E6B
:103F60000D4D761BB61006D0002455F8043B0134E5
:103F70009847A642F9D1094E094D761B06F0C0F8C4
:103F8000B61006D0002455F8043B01349847A642E9
:103F9000F9D170BD48A6000848A6000850A6000840
:103FA00048A60008830730B548D0541E002A3FD0E9
:103FB000CAB2034601E0013C3AD303F8012B9D0746
:103FC000F9D1032C2DD9CDB245EA05250F2C45EAB0
:103FD000054536D9A4F1100222F00F0C03F1200E92
:103FE000E6444FEA121C03F1100242E9045542E98B
:103FF000025510327245F8D10CF1010214F00C0F89
:1040000003EB021204F00F0C13D0ACF1040323F005
:1040100003030433134442F8045B9342FBD10CF0D6
:1040200003042CB1CAB21C4403F8012B9C42FBD1FF
:1040300030BD64461346002CF4D1F9E7034614461C
:10404000BFE71A46A446E0E70FB400B5074983B0BE
:1040500004AB086853F8042B8168019300F036F92B
:1040600003B05DF804EB04B0704700BF14000020FB
:1040700070B5054688B008460C46FCF701FF224E95
:10408000AA6B059001214318CDE9066104A802211D
:1040900004940393AC680190029122B3636E13F011
:1040A000010FB4F90C309AB201D1980525D59104CD
:1040B00006D4626E43F4005322F40052A381626678
:1040C000284601AA214603F0DBF9636E002814BFDD
:1040D0004FF0FF350A25DA0702D4A3899B0506D5E0
:1040E000284608B070BD284602F0CCFFD6E7A06D88
:1040F00003F068FB284608B070BDA06D03F060FBBC
:10410000B4F90C309AB2D2E740A20008024B014643
:104110001868FFF7ADBF00BF140000202DE9F04381
:10412000694CD4F8008083B004460E4617461D46FD
:10413000B8F1000F03D0D8F83830002B77D0022F19
:1041400005D0012F00F2AC80002DC0F2A980636E73
:10415000DA0752D52146404602F060FF216B41B19B
:1041600004F14003994202D0404603F083F8002353
:104170002363B4F90CC000231CF0800FA3616360BB
:1041800064D12CF44A6C2CF0030C022FA4F80CC060
:104190006AD001AB6A462146404603F085FBA389FD
:1041A0001843A081002D2FD0002E2ED0D8F8383003
:1041B000002B38D0009B2660AB42B4F90C301CBFFA
:1041C00043F40063A381012F04BF43F00103A381E3
:1041D0009AB213F00803C4E904652CD0D1075DD569
:1041E0006D42A561656E002315F00105A36027D01F
:1041F0000025284603B0BDE8F083A3899B05A9D418
:10420000A06D03F0DDFAA5E7009D284603F07CFBD6
:104210000646002847D0A38943F08003A381D8F83D
:104220003830002BC6D1404602F02CFFC2E7404692
:1042300002F028FF83E7A360656E15F00105D7D172
:10424000930524D5284603B0BDE8F0832169404694
:1042500003F010F8B4F90CC02CF44A6C2CF0030CE9
:10426000022FA4F80CC094D10025002204F14303CE
:10427000A2600122C4E904322360636E4CF0020C98
:10428000D807A4F80CC0DDD41CF4007FDAD1A06DEF
:1042900003F098FA284603B0BDE8F083A560CBE7A9
:1042A0004FF0FF35CEE7DDF80090A94504D0484631
:1042B00003F02AFB064620B9B4F90CC04FF0FF35D5
:1042C000D3E74D46A7E700BF140000202DE9F04FCB
:1042D000D5B01C46079191460546099003F068FA4F
:1042E0000268179210460E94FCF7CAFD16901DB195
:1042F000AB6B002B00F02A82079A536EDD0740F16A
:104300003881B2F90C2091B28F0409D4079B42F492
:1043100000529A8191B21A465B6E23F400535366A1
:104320000E0740F1CB80079B1B69002B00F0C68075
:1043300001F01A030A2B00F0CF8000242BAB4D466E
:10434000CDE92944CDE91944CDE91B4412942893C1
:104350009846189400230B940024CDE914342B784C
:10436000002B00F09D81AA4604E01AF8013F002BC3
:1043700000F0C780252BF8D1BAEB050640F0C580C8
:104380009AF80030002B00F08B8100234FF0FF32B1
:104390009AF801608DF883300A930AF1010A0892B5
:1043A0001F462B244FF020090AF1010AA6F1200331
:1043B0005A2B00F2ED80DFE813F0EB02EB00EB008C
:1043C000E602EB00EB00EB006A00EB00EB005C02A6
:1043D0008002EB0067028A02EB0085025B005B0053
:1043E0005B005B005B005B005B005B005B00EB0065
:1043F000EB00EB00EB00EB00EB00EB007A01EB00D5
:10440000F801D2017A017A017A01EB00EB00EB00AE
:10441000EB00E102EB00EB002D02EB00EB00EB0008
:104420000202EB00A402EB00EB008307EB00EB00C1
:10443000EB00EB00EB00EB00EB00EB007A01EB0094
:10444000F801D4017A017A017A01C702D401CD01C1
:10445000EB00D402EB006C022F02B502CD01EB00A1
:1044600002027E008007EB00EB006107EB007E009C
:10447000A6F1300300221AF8016B02EB820203EB73
:104480004202A6F13003092BF5D90A928EE7DDF836
:1044900024B0584603F08CF943681B931846FCF788
:1044A000EFFC1C900646584603F082F98368199386
:1044B000002E40F0CD869AF8006075E7079D0998B8
:1044C000294601F0ADFC002841F01C83A98901F0C8
:1044D0001A030A2B7FF431AF079AB2F90E30002B82
:1044E000FFF62BAF536ED80702D4890541F13B810B
:1044F0000799099823464A4655B0BDE8F04F01F0A8
:104500004FBCBAEB050600F0CB802A9B33442A93BC
:10451000299B0133072BC8E90056299305DC08F1D4
:1045200008080B9B33440B932AE70799099828AA9C
:1045300004F0BEFB80B90DF1AC08F2E707990998C9
:1045400028AA04F0B5FB002800F09B800D9B1BB14E
:104550000998194602F08EFE079A536ED90740F16A
:10456000EA8093895B0601F1D9820B9855B0BDE8CA
:10457000F08F079BB3F90C20900591B23FF5C4AEC4
:104580001D46986D03F01CF9B5F90C2091B2BBE6FD
:10459000002E00F0858000228DF8EC608DF88320DD
:1045A0000123CDE90C32069308920F9213921092D8
:1045B0003BAD17F0020302D006990231069117F0C5
:1045C000840B07D10A990698A1EB0009B9F1000FF5
:1045D00000F370832A9C8AB1299A0DF1830101327C
:1045E0000134C8F80010072A4FF001012A942992DB
:1045F000C8F8041000F3B68308F1080883B1299BBA
:1046000021AA01330234C8F80020072B4FF0020220
:104610002A942993C8F8042000F3B28308F108080B
:10462000BBF1800F00F06982089B0C9AA3EB020B90
:10463000BBF1000F00F3AA82FB0500F100820C9B86
:10464000C8F804301C44299BC8F800500133072BDC
:104650002A94299300F3228308F10808780705D5E6
:104660000A9B069A9D1A002D00F39683DDE90A2322
:1046700006998A42ACBF9B185B180B93002C7FF401
:104680005DAF002329930D9B1BB10D99099802F092
:10469000F1FD0DF1AC0855462B78002B7FF463AE8D
:1046A0002A9B002B41F0D3810023299354E70E9BD2
:1046B000073323F00702F2E80234CDE91434DDE9D0
:1046C000143424F000440E92994618462146B54B06
:1046D0004FF0FF32FCF7C8FF002840F0EF84B14BE9
:1046E000484621464FF0FF32FCF7A0FF002840F07B
:1046F000E584DDE9140100220023FCF78DFF00288A
:1047000040F067879DF88320A74DA84B27F08007CE
:104710000321472EC8BF1D4600230D9306910C911F
:1047200008930F9313931093002A3FF442AF069B14
:10473000013306933DE7079B9B899A053FF512AF2E
:10474000079CA06D03F03EF8A3890BE7099802F0DF
:1047500099FCD1E59AF8006047F0200724E647F07D
:104760001007BA060E9B40F13B84073323F0070382
:104770001A465B6852F8084B0E929946002BC0F21D
:104780004C84089B013300F0D88254EA090327F0D7
:10479000800B40F0D382089B002B40F0D4825F4610
:1047A000002308930C9354AD1DE10E9B002253F897
:1047B000041B8DF883208DF8EC100E93F0E60E9C10
:1047C000089B54F8045B4FF000098DF88390002D8E
:1047D00000F093855A1C00F051861A464946284637
:1047E000FCF7BEFB0D90002801F00E810D9BCDF86B
:1047F00020905B1B0C930E9423EAE3739DF88320B7
:104800000693CDF83490CDF83C90CDF84C90CDF88F
:10481000409089E747F0100717F0200900F0D28395
:104820000E9B073323F00703D3F8049053F8084B8B
:104830000E9327F4806B002300228DF88320089AC2
:10484000511C00F0B88054EA09012BF0800740F0B9
:10485000B180002A40F0F685002BA1D11BF00103A6
:104860000C9300F0148430238DF84F310DF24F1566
:10487000B9E00E9B53F8042B0A92002A80F2DA83E7
:104880000A9A0E9352420A929AF8006047F004077F
:104890008AE5BD0600F1D184FC0600F1D8857806D2
:1048A00000F1A586B90540F1D2850E9B0B9953F80E
:1048B000042B0E9311705546EEE69AF800608DF8C1
:1048C000834071E59AF8006047F080076CE5524636
:1048D00012F8016B2A2E01F03F82A6F13003092B5A
:1048E000924698BF002201F2BC801AF8016B02EBDD
:1048F000820203EB4202A6F13003092BF5D908929C
:1049000054E547F0100B1BF0200900F076830E9B56
:10491000073323F00703D3F8049053F8084B0E93A2
:10492000012389E70E9B53F8044B0E93302378261E
:104930008DF884301E4B189347F0020B8DF885607C
:104940004FF00009022377E79AF80060682E03BF52
:104950009AF8016047F400770AF1010A47F040072E
:1049600022E59AF800606C2E03BF9AF8016047F0C8
:1049700020070AF1010A47F0100715E59AF80060D0
:1049800047F0080710E59AF8006047F001070BE5CB
:104990009DF88330002B7FF48EAD9AF800608DF87F
:1049A000839001E5FFFFEF7F44A2000848A20008C2
:1049B00054A20008BB46012B00F0C081022B54AD6D
:1049C00020D1189A04F00F032409D35C05F8013DA7
:1049D00044EA09744FEA191954EA0903F2D154ABB5
:1049E0005B1B5F460C9308990C989DF883208142CD
:1049F0004FF00003B8BF01460D9306910F93139338
:104A0000109391E604F00703E40844EA49744FEA7E
:104A1000D909303354EA09012A4605F8013DF1D19C
:104A20001BF0010FDBD0302BD9D03023023A05F830
:104A3000013C54AB9B1A5F460C931546D3E7652E99
:104A400040F3E680DDE9140100220023FCF7DAFDE3
:104A5000002800F0DC81299BBF4AC8F80020013300
:104A600001340122072B2A942993C8F8042000F36B
:104A7000CC8408F10808229B129A934280F2D682D5
:104A8000169B179A1C44C8E90023299B2A940133DA
:104A9000072B299300F3248408F10808129B5D1E5C
:104AA000002D7FF7DBAD102D299BDFF8B09240F38E
:104AB000BD8449462246B946DDF824B0079C10263D
:104AC0000F4605E008F10808103D102D40F3AA84B8
:104AD00001331032072BC8E90076CDE92932F1DD28
:104AE00028AA2146584604F0E3F800287FF42EADAA
:104AF000DDE929320DF1AC08E6E70A9B069AA3EB43
:104B0000020BBBF1000F7FF78FADBBF1100F299A9D
:104B1000DFF848922CDD1D9621464E46079CDDF8B5
:104B20002490102306E0ABF1100BBBF1100F08F13D
:104B300008081ADD01321031072AC8E90063CDE9FF
:104B40002921F0DD28AA214648460DF1AC0804F0E1
:104B5000AFF800287FF4FAACABF1100BBBF1100FEB
:104B6000DDE929214FF01003E4DCB1461D9E0C461F
:104B700001325C44072ACDE92924C8F80090C8F81E
:104B800004B000F3A08308F108084DE5BBF1100F55
:104B9000299ADFF8C8912DDD41462046A8464C46AB
:104BA000079DDDF82490102306E0ABF1100BBBF15C
:104BB000100F01F1080119DD01321030072AC1E997
:104BC0000043CDE92920F0DD28AA2946484604F013
:104BD0006FF800287FF4BAACABF1100BBBF1100FEB
:104BE000DDE929202BA94FF01003E5DC4546A1465D
:104BF0008846044601325C44072ACDE92924C8F8D6
:104C00000090C8F804B000F3D08108F1080813E55B
:104C1000129B012B40F38081299EC8F80050013679
:104C200001340123072E2A942996C8F8043000F392
:104C30007C8308F10808169B179A01361C44072E3E
:104C4000C8E90023CDE9296400F37C8308F1080852
:104C5000DDE9140100220023FCF7D4FC002840F019
:104C60007881129B0136013B01351C44072EC8F8A0
:104C700000502996C8F804302A9400F35D8108F1A9
:104C800008081A9BC8F8043001361C44072E24ABD0
:104C9000CDE92964C8F800307FF7DEAC07990998A0
:104CA00028AA04F005F800287FF450AC2A9C0DF1E6
:104CB000AC08D3E4B9F1100FDDE929212BDDCDE9F2
:104CC0001D3B1F96DDF824B04E461024A946079DD3
:104CD00004E0103E102E08F1080817DD0132204BC9
:104CE0001031072AC8E90034CDE92921F1DD28AACD
:104CF000294658460DF1AC0803F0DAFF00287FF48E
:104D000025AC103E102EDDE92921E7DCDDE91D3B55
:104D10004D46B1461F9EC8F80490013209EB0104CC
:104D2000072A0F49C8F80010CDE9292400F3518360
:104D30009DF8832008F108084DE4BB460A2C79F160
:104D4000000380F00C83303401238DF84F415F461F
:104D50000C930DF24F1546E684A2000898A20008B5
:104D600088A20008079909981D9328AA03F0A0FFBC
:104D700000287FF4EBAB2A9C1D9B0DF1AC083DE4B1
:104D80000799099828AA03F093FF00287FF4DEAB67
:104D90002A9C0DF1AC0843E4102D299B21DD099FCD
:104DA000DDF81C90102604E0103D102D08F10808D5
:104DB00017DD0133BB4A1034072BC8E90026CDE9C3
:104DC0002934F1DD28AA494638460DF1AC0803F034
:104DD0006FFF00287FF4BAAB103D102DDDE92934B8
:104DE000E7DC0133AF4AC8F804502C44072BCDE967
:104DF0002934C8F800207FF739AC0799099828AA08
:104E000003F056FF00287FF4A1AB2A9C2EE42299E0
:104E1000002940F31481DDF84090129B9945A8BF0A
:104E20009946B9F1000F0BDD299B01334C44072B48
:104E3000C8E900592A94299300F39A8508F10808D3
:104E4000109EB9F1000FA8BFA6EB0906002E00F3D3
:104E50004683DDF840B07905AB4400F1CE84229B57
:104E6000129A934202DBFA0740F1B883169A179917
:104E70001444C8E90012299A2A940132072A299277
:104E800000F3838508F10808129AAE18A6EB0B060A
:104E9000D51AAE42A8BF2E46002E0DDD299BC8F8BC
:104EA00000B001333444072BC8F804602A942993D6
:104EB00000F3F18508F10808002EA8BFAD1B002DF6
:104EC0007FF7CCAB102D299BDFF8DC9140F3AE824D
:104ED00049462246B946DDF824B0079C10260F4605
:104EE00005E008F10808103D102D40F39B820133C6
:104EF0001032072BC8E90076CDE92932F1DD28AA66
:104F00002146584603F0D4FE00287FF41FABDDE9AC
:104F100029320DF1AC08E6E7FE073FF57DAE299E8C
:104F2000C8F80050013601340123072E2A9429962F
:104F3000C8F804307FF7A3AE0799099828AA03F0B0
:104F4000B7FE00287FF402ABDDE929640DF1AC085F
:104F500097E6129B5D1E002D7FF793AE102DDFF8B4
:104F6000489140F37F8222460897099C079F4FF0A3
:104F7000100B05E008F10808103D102D40F3708279
:104F800001361032072EC8E9009BCDE92962F1DD18
:104F900028AA3946204603F08BFE00287FF4D6AAC3
:104FA000DDE929620DF1AC08E6E70799099828AA1E
:104FB00003F07EFE00287FF4C9AA2A9C0DF1AC08FC
:104FC000FFF73ABB17F0100372D117F0400200F060
:104FD000BD820E9A52F8044B0E929946A4B228E470
:104FE00053F8044B0E93FB0656D47D0651D544F37B
:104FF000C0394B4624B2FFF7C1BB1BF0100340F091
:1050000036811BF0400200F092820E9A52F8044B57
:105010000E929946A4B201230EE42D2364428DF82A
:10502000833069EB4909BB46012308E4F8077FF5A3
:1050300015AB25E59AF800600E93FFF7B5B9299BEB
:105040001A4AC8F80020013301340122072B2A94A0
:105050002993C8F8042000F3708408F10808002997
:1050600040F01E82129A07F0010313433FF4F6AAA0
:10507000169B1799E218C8E90013299B2A9201335D
:10508000072B299300F3618308F1080819E254AD56
:10509000A9E4B80500F1B4824FEAE4794B46FFF782
:1050A0006DBB00BF88A2000898A2000884A2000877
:1050B0000E9B53F8044B0E93FFF7BBBBDDE91401C5
:1050C00002460B46FCF7D0FA002840F0A085612E7E
:1050D00000F05085412E00F09982089B013326F0A4
:1050E0002003069300F08F85472B00F07985DDE9DA
:1050F000141247F480730F931346002BC0F2ED8512
:105100000C9300231D938B460D93069B462B00F0BA
:105110004A84452B00F04F850899019126A90491F6
:1051200023A9039122A9029102210C9B09980091C5
:105130005A4600F081FF069B472B054640F01C862F
:1051400017F0010FB9460F9F40F0D984269B5B1BD7
:105150001293069B472B00F01883069B462B00F00A
:105160005F84229B1093109B069A013B412A229355
:1051700000F0AA85F2B20021002BB8BF109B8DF879
:105180009020BABFC3F101032D222B22092B8DF8E9
:10519000912040F363850DF19F04BD4F22461046D8
:1051A00087FB0321DA17C2EBA10202EB8201A3EB1A
:1051B0004101303100F8011C19466329134600F102
:1051C000FF32ECDC3033D9B2831E9C4202F8011C62
:1051D00040F2CE8513460DF1920201E013F8011B57
:1051E00002F8011B9C42F9D10DF1A1030DF19202CD
:1051F0001B1A134424AA9B1A1A93129B1A9A012B66
:105200001A440C9240F372850C9B169A13440C932B
:105210000C9A002329F4806722EAE27247F480772F
:105220000F930692139310931D9B002B40F0DE8288
:105230009DF883200893FFF777BA0E9B0B9853F8DD
:10524000041B0E93C217C1E900025546FFF724BAAA
:10525000199B002B3FF42FA9199B1B78002B3FF4BF
:105260002AA99AF8006047F48067FFF79DB80E9B63
:1052700053F8044B0E930123FFF7DEBA854B1893C6
:1052800017F0200949D00E9B073323F00703D3F80A
:10529000049053F8084B0E93F80709D554EA090314
:1052A00006D030238DF8856047F002078DF88430F2
:1052B00027F4806B0223FFF7BFBABB46FFF723BB7F
:1052C000754B1893DCE70799099828AA03F0F0FCBE
:1052D00000287FF43BA92A9C0DF1AC08FFF7A4B984
:1052E0000799099828AA03F0E3FC00287FF42EA967
:1052F0002A9C0DF1AC08FFF7D1BB062B294628BF2D
:10530000062308950D952A460693644D0E940C933A
:105310000F9113911091FFF707BA17F0100369D09E
:105320000E9B53F8044B0E93B6E70799099828AAE9
:1053300003F0BEFC00287FF409A9DDE929640DF122
:10534000AC0878E40799099828AA03F0B1FC002872
:105350007FF4FCA8DDE929640DF1AC0878E40BF4D6
:1053600080630022CDE90CA80696DDF8648054AF76
:1053700016469A460CE00023204649460A22FBF7CF
:10538000EFFB0A2C79F100031BD3044689462F4614
:1053900020460A2200234946FBF7E2FB30327D1EFD
:1053A000013607F8012CBAF1000FE4D098F800306C
:1053B0009E42E0D1FF2EDED00A2C79F1000380F06E
:1053C000F480CDF864801296DDE90CA8069EFFF704
:1053D00006BB079909981D9328AA03F069FC0028C9
:1053E0007FF4B4A89DF883202A9C1D9B0DF1AC0886
:1053F000FFF7F1B817F0400200F0B6800E9A52F8AD
:10540000044B0E929946A4B246E70799099828AA38
:1054100003F04EFC00287FF499A82A9C0DF1AC08FB
:10542000FFF729BB14463A464F46914601332C44B8
:10543000072BC8F80090C8F80450CDE929347FF74D
:105440000BA92BE4012BBB467FF4B8AA7BE40E9B8F
:105450000B9953F8042B554611600E93FFF71CB9B6
:10546000089F144601362C44072ECDE92964C8F85C
:105470000090C8F804507FF702AC5DE52846CDF8EF
:1054800020900E94FBF7FCFC03460C90FFF7B4B998
:105490006766666654A2000868A200087CA200083D
:1054A000169B1798E218C8E90003299B2A9201333A
:1054B000072B299300F3498108F108080029C0F25D
:1054C000FA821299C8F8005001338C18072BCDE9E5
:1054D0002934C8F804107FF7BFA8FFF7DFBB102EF0
:1054E000299BDFF8C09252DD484642462146A84635
:1054F000B946099C079D4FF0100B074603E00832A0
:10550000103E102E3DDD01331031072BC2E9007B28
:10551000CDE92931F3DD28AA2946204603F0C8FB4E
:1055200000287FF413A8DDE929312BAAE8E70E9BB8
:105530001BF4007914BF53F8044B53F8044B0E933B
:105540001CBF9146E4B20123FFF776B90E9B17F416
:10555000007914BF53F8044B53F8044B0E931CBF4F
:105560009146E4B2FFF765B90E9B17F4007914BFBA
:1055700053F8044B53F8044B0E931CBF9146E4B20E
:105580008AE6454690463A460C464F4691460133D8
:105590003444072BCDE92934C8F80090C8F80460DA
:1055A00000F3E68008F1080853E41C9B1B99ED1AF0
:1055B0001A46284603F00EFB98F801300BB108F1AB
:1055C0000108204649460A2200230026FBF7C8FAB4
:1055D000DBE62D228DF88320FFF796B8129AAE18DD
:1055E000A6EB0B06D51AAE42A8BF2E4664E40E9B6E
:1055F0000B9953F8042B0E9311805546FFF74CB8C6
:1056000044F3C0194B4664B2FFF7B8B830238DF8A5
:10561000843058238DF88530089B632B47F00204B3
:1056200000F39B8200230D933BADDDE9141247F498
:1056300081730F931346002B2746C0F220820C93F0
:1056400026F02003069300238B461D93612E00F065
:10565000ED82412E7FF459AD22AA0C99584603F0F1
:1056600029FA00224FF07F53FBF764FD02460B46F8
:10567000CDE9102300220023FBF7C4FF08B101236A
:105680002293494B0C93089BCDE912A6CDE91E78D5
:10569000DDF830A0DDE9106703F1FF39AB46109566
:1056A00006E00022002309F1FF39FBF7ABFFE8B960
:1056B0003E4B002230463946FBF73CFD0F4606467E
:1056C000FBF7E8FF0446FAF7EDFE0B4602463946C3
:1056D0003046FAF799FD1AF80430B9F1FF3FD84681
:1056E0004D460BF8013B06460F46DAD130463946A7
:1056F0002F4BDDF848A0139ECDF848800022A94624
:10570000DDF87C80109D1E9FCDE91001FBF7A2FF04
:10571000002840F03482DDE91001254B0022FBF720
:1057200071FF10B1E10700F12A824B46002B06DB26
:1057300001335B4430220BF8012B5B45FBD1ABEB13
:105740000503B94612930F9F03E50799099828AA04
:1057500003F0AEFA00287EF4F9AEDDE92932229991
:105760000DF1AC08AAE6906D02F02CF8FEF7C0BE71
:105770000799099828AA03F09BFA00287EF4E6AE60
:105780002A9C0DF1AC08FFF764BB229B1093DA1C36
:1057900002DB089A93420DDD023E26F020030693B9
:1057A000E1E400BF98A2000868A2000800003040B1
:1057B0000000E03F109B129A9342C0F2568119F00C
:1057C000010F00F08782169A13440C9319F4806F2E
:1057D00003D0109B002B00F350820C9B23EAE37351
:1057E0000693672600230F9313931DE52D220023B4
:1057F0008DF883200893FEF79ABF129BCDF830A056
:105800004246DDF84C801097EB1808935E46199FCE
:10581000DDF87090DDF824A0DDF81CB00F9B139527
:105820002146B8F1000F2ED0002B6BD1013F08F1BB
:10583000FF381B9BC2E90039299B01334944072BE0
:105840002A91299362DC0832089B38789B1B83429B
:10585000A8BF0346002B1C460ADD299801301944D5
:105860000728C2E900632A9129905ADC3878083267
:10587000002CACBF051B0546002D15DC06440F9B14
:10588000B8F1000FD0D1002B3CD1DDE91235EB1877
:105890009E421997B346DDF830A0109F90460C4603
:1058A00028BF9B46FFF7DBBA102D29981DDD102479
:1058B00004E0103D102D02F1080216DD0130AC4B62
:1058C00010310728C2E90034CDE92901F1DD28AA09
:1058D0005946504603F0ECF900287EF437AE103DEF
:1058E000102DDDE929012BAAE8DC0130A04B556021
:1058F00029440728CDE9290113602CDC38780832C7
:105900000644BCE70F9B013B0F9392E728AA594638
:10591000504603F0CDF900287EF418AE2A992BAA40
:1059200092E728AA5946504603F0C2F900287EF4AF
:105930000DAE38782A992BAA9AE70799099828AAD0
:1059400003F0B6F900287EF401AE22992A9C0DF1ED
:10595000AC08FFF784BB28AA5946504603F0A8F9C3
:1059600000287EF4F3AD38782A992BAA064486E7FE
:105970000799099828AA03F09BF900287EF4E6AD60
:105980002A9C0DF1AC08FFF75BBA0799099828AA81
:1059900003F08EF900287EF4D9AD229B2A9C0DF1EC
:1059A000AC08FFF771BA0899019126A9049123A9BF
:1059B000039122A9029103210C9B099800915A4658
:1059C00000F03AFB0378302B054600F09581229BCE
:1059D000089AB94613440F9FEC180C9958460022B8
:1059E0000023FBF70FFE10B12346FFF7B0BB269B49
:1059F000A342BFF4ACAB30215A1C26921970269BEF
:105A00009C42F9D8FFF7A3BB089B9DF883200E9416
:105A100006930C9308900F9013901090FEF784BE9D
:105A2000229A1092002A40F38181089909F001031B
:105A30000B4340F05581109B0C93662619F4806F40
:105A400040F01C810C9B23EAE3730693CAE6079996
:105A5000099828AA03F02CF900283EF425AEFEF799
:105A60007BBD00230893FEF7A1BC129B169A9A18DF
:105A7000109B0C92002B40F34D816726DEE726F049
:105A800020030693DDE914349B4604F100430C9394
:105A90002D231D93DAE50799099828AA03F008F940
:105AA00000287EF453AD229D129B2A9C5D1B0DF1B4
:105AB000AC08FFF701BA4E421031DFF8B49034DA87
:105AC0004146DDF824B0A8461024079D03E00831C4
:105AD000103E102E27DD01331032072BC1E9009450
:105AE000CDE92932F3DD28AA2946584603F0E0F82B
:105AF00000287EF42BADDDE929322BA9E8E7089BCD
:105B0000EC186AE7079B5B6EDD0707D4079B9B8950
