:020000040800F2
:1000000078470020E90200083B170008D3150008D4
:100010003917000845050008351C000800000000DD
:10002000000000000000000000000000290200089D
:10003000470500080000000085020008E9170008D5
:100040000303000803030008030300080303000878
:100050000303000803030008030300080303000868
:100060000303000803030008030300080303000858
:100070000303000803030008030300080303000848
:100080000303000803030008030300080303000838
:100090000303000803030008030300080303000828
:1000A0000303000803030008030300080303000818
:1000B0000303000803030008030300080303000808
:1000C00003030008030300080303000803030008F8
:1000D00003030008F91B0008291C0008030300089B
:1000E00003030008030300080303000803030008D8
:1000F00003030008030300080303000803030008C8
:1001000003030008030300080303000803030008B7
:100110000303000803030008BD18000803030008D8
:100120000303000803030008030300080303000897
:100130000303000803030008030300080303000887
:100140000303000803030008030300080303000877
:100150000303000803030008030300080303000867
:100160000303000803030008030300080303000857
:100170000303000803030008030300080000000055
:10018000030300080303000800F002F800F03CF845
:100190000AA090E8000C82448344AAF10107DA45E2
:1001A00001D100F031F8AFF2090EBAE80F0013F0F8
:1001B000010F18BFFB1A43F0010318473026000057
:1001C00050260000103A24BF78C878C1FAD85207E8
:1001D00024BF30C830C144BF04680C6070470000C1
:1001E0000023002400250026103A28BF78C1FBD840
:1001F000520728BF30C148BF0B6070471FB502F0DF
:1002000093FA1FBD10B510BD00F061F91146FFF75C
:10021000F5FF01F020FD00F07FF903B4FFF7F2FFD6
:1002200003BC00F089F900002C4B19680868B0E89D
:10023000F04F80F30988BFF36F8F4FF0000080F319
:10024000118870470000000008480068006880F3CB
:1002500008884FF0000080F3148862B661B6BFF3DF
:100260004F8FBFF36F8F00DF00BF00BF08ED00E0CE
:10027000DFF80C00016841F470010160704700BFB5
:1002800088ED00E0EFF30980BFF36F8F134B1A681E
:100290001EF0100F08BF20ED108A20E9F04F10600B
:1002A00009B44FF0500080F31188BFF34F8FBFF3B4
:1002B0006F8F02F071F84FF0000080F3118809BCD5
:1002C00019680868B0E8F04F1EF0100F08BFB0ECD6
:1002D000108A80F30988BFF36F8F704724000020D5
:1002E000EFF3058070470000094880470948004740
:1002F000FEE7FEE7FEE7FEE7FEE7FEE7FEE7FEE7D6
:10030000FEE7FEE704480549054A064B7047000032
:10031000AD180008890100087841002078470020C6
:10032000784300207843002053EA020C00F06980F3
:100330002DE9F04B4FF00006002B1FBFB3FA83F5F9
:1003400003FA05F424FA05F65E4012BF1643B2FA2A
:1003500082F502FA05F4C5F120051EBF22FA05FC5C
:1003600044EA0C04203556EA044C4FEA144418BF02
:10037000641C4FF000084FF00009904271EB030C31
:1003800039D3002919BFB1FA81F701FA07F6B0FA9B
:1003900080F700FA07F6C7F120071EBF20FA07FC16
:1003A00046EA0C062037B6FBF4FCA7EB0507103F26
:1003B00007F01F0BCBF120060CFA0BFB2CFA06F60C
:1003C00044BFB3460026202FA4BF5E464FF0000B6B
:1003D0005BEA060C08BF4FF0010B19EB0B09ABFBF6
:1003E000027C48EB0608C01B06FB02CC0BFB03CCCF
:1003F00071EB0C01C1E70B46024641464846BDE899
:10040000F08B13B54FF000004FF00001AFF3008008
:10041000BDE81C40704710B5203AC0F00B80B1E831
:100420001850203AA0E81850B1E81850A0E8185029
:10043000BFF4F5AF5FEA027C24BFB1E81850A0E832
:10044000185044BF18C918C0BDE810405FEA827C4C
:1004500024BF51F8043B40F8043B08BF7047D20763
:1004600028BF31F8023B48BF11F8012B28BF20F804
:10047000023B48BF00F8012B70474FF0000200B567
:10048000134694469646203922BFA0E80C50A0E8B7
:100490000C50B1F12001BFF4F7AF090728BFA0E865
:1004A0000C5048BF0CC05DF804EB890028BF40F831
:1004B000042B08BF704748BF20F8022B11F0804F73
:1004C00018BF00F8012B704770477047704775469A
:1004D00000F02CF8AE4605006946534620F00700B0
:1004E000854618B020B5FFF70DFFBDE820404FF05E
:1004F00000064FF000074FF000084FF0000B21F00E
:100500000701AC46ACE8C009ACE8C009ACE8C009DA
:10051000ACE8C0098D46704710B50446AFF30080C3
:100520002046BDE81040FFF778BE00000048704745
:10053000144100207047000001491820ABBEFEE7BF
:1005400026000200FEE7704772B6FEE72DE9F04193
:100550000446876D00F04EF9064694F835000025F4
:10056000022806D08020606584F834500120BDE860
:10057000F0812068016821F016010160206841695E
:1005800021F080014161206C08B9A06C20B1206885
:10059000016821F0080101602068016821F0010173
:1005A00001600CE000F026F9801B052807D9202007
:1005B0006065032084F8350084F83450D7E720685C
:1005C0000068C007EED194F85C103F208840B86006
:1005D000012084F8350084F834500020C7E790F8F3
:1005E0003510022903D08021416501207047052183
:1005F00080F835100068016821F0010101600020D9
:10060000704700002DE9F84FDFF8BCA1002201255A
:1006100003264FF00F090AF1040BAAF1040E00BFE4
:100620000B6805FA02F42340A34270D10F7907F05A
:100630000307012F01D0022F16D187684FEA420825
:1006400006FA08FC27EA0C07D1F80CC00CFA08FCE3
:100650004CEA070CC0F808C04768A7430C79C4F3FC
:10066000001494403C4344600C79E443A4070AD04E
:10067000C4684FEA420C06FA0CF7BC438F6807FACD
:100680000CF72743C7600C7904F00304022C12D145
:10069000D40800EB840CDCF820405707FF0E09FA61
:1006A00007F824EA0804D1F8108008FA07F848EAA5
:1006B0000408CCF8208004684FEA420C06FA0CF7D4
:1006C000BC430F7907F0030707FA0CF727430760CD
:1006D0004C6814F4403F70D03C4C276847F4804786
:1006E0002760246822F0030704F480440094384C07
:1006F00007EB040CDCF8084897074FEA177809FA6B
:1007000008F7BC43334FB84202D1002724E054E03D
:10071000314FB84201D101271EE0304FB84201D11C
:10072000022719E02E4FB84201D1032714E02D4FC4
:10073000B84201D104270FE02B4FB84201D1052761
:100740000AE02A4FB84201D1062705E0284FB842F7
:1007500001D1072700E0082707FA08F72743CCF85C
:100760000878DAF800405746D1F804C09C435FEAA5
:10077000CC2C00D51C433C60DBF800405F46D1F830
:1007800004C09C435FEA8C2C00D51C433C60DEF81F
:1007900000407746D1F804C09C435FEA8C3C00D50A
:1007A0001C433C60084F083F3C68D1F804C09C43A0
:1007B0005FEACC3C00D51C433C60521C102AFFF47D
:1007C0002FAFBDE8F88F0000083C014044380240DC
:1007D00000300140000002400004024000080240D6
:1007E000000C0240001002400014024000180240B9
:1007F000001C02400148806870470000140000207F
:10080000024881680278114481607047140000201A
:100810000B4810B5016841F400710160016841F4B2
:1008200080610160016841F480710160032000F083
:100830009FF80F2000F006F800F050F8002010BDDF
:10084000003C024030B505461F4887B000240168CF
:1008500041F010010160006806A900F0100000904E
:1008600001A800F031F90498A8B100F04DF940005A
:100870001649174AB0FBF1F11648491E026040F2D2
:10088000E732C0E90324C0E90114846100F044FBAD
:10089000040003D015E000F037F9E9E70D4800F057
:1008A00069FB04000DD1362000F034F8102D07D27A
:1008B00000222946362000F03BF80748056000E09A
:1008C000012407B0204630BD4038024040420F00AE
:1008D0000010004068030020180000200C4882B07F
:1008E000016841F480410160006800F4804000909C
:1008F0000748001F016841F0805101600068002234
:1009000000F0805000900F21901E02B000F010B84F
:1009100044380240002809DB00F01F020121914009
:100920004009800000F1E020C0F80011704700008D
:10093000F0B40E4B1B680C46C3F30223C3F107054A
:10094000042D00D90425191D072901D2002300E038
:10095000DB1E012606FA05F1491E214099409E4002
:10096000761E16403143F0BC01F065B90CED00E095
:10097000064900F0070208684FF6FF03184040EAF6
:100980000220034A10430860704700000CED00E0AD
:100990000000FA052DE9F0470E46050065D0DFF8A6
:1009A0001481D8F80000F7B200F00700B04207D277
:1009B00088F80070D8F8000000F00700B04254D169
:1009C00028683D4C810712D5400703D5206840F4C4
:1009D000E05020602878000703D5206840F460408C
:1009E00020602068A96820F0F00008432060287883
:1009F000C0072DD0304968680839012812D0022874
:100A000013D0032811D00968890700292DDA21683D
:100A100021F0030101432160FFF7ECFE814641F222
:100A2000883A0EE009688903EFE709688901ECE775
:100A3000FFF7E0FEA0EB0901514502D90320BDE814
:100A4000F0872068696800F00C00B0EB810FEFD1EF
:100A5000D8F80010404601F00701B14207D90770ED
:100A6000006800F00700B04201D00120E7E72878D5
:100A7000400705D52068E96820F4E050084320606D
:100A80002878000706D52068296920F4604040EAEC
:100A9000C100206000F058F82168084AC1F3031132
:100AA000515CC8400649086006480068FFF7CAFE66
:100AB0000020C4E7003C024008380240A427000898
:100AC00020000020180000200F2202600C4A13684A
:100AD00003F003034360136803F0F00383601368BB
:100AE00003F4E053C36012684FF4E05303EAD20208
:100AF00002610448006800F00700086070470000C9
:100B000008380240003C0240044805490068096872
:100B1000044AC1F38221515CC84070472000002084
:100B200008380240B42700080448054900680968ED
:100B3000044AC1F34231515CC84070472000002094
:100B400008380240B4270008154810B5006810F0B6
:100B50000C02144813D04110042A0FD0082A0ED1D9
:100B60000F4C241F2268236802F03F025B0207D566
:100B70002068C0F38810A0FB010106E0084610BD04
:100B80002168C1F38811A1FB00010023FFF7CCFB12
:100B90002168C1F30141491C4900B0FBF1F010BDCF
:100BA000083802400024F4002DE9F84F04006ED00C
:100BB0002078DFF84C93C007A9F104054AD009F169
:100BC00004000168C1F38101012908D00068C0F365
:100BD000810002280AD1D9F80000400206D5286811
:100BE000800337D560680028E1D033E06068B0F555
:100BF000803F10D0B0F5A02F286810D020F48030AE
:100C00002860286820F4802028606068A8B1FFF779
:100C1000F1FD06460DE0286840F48030F4E740F42A
:100C200080202860F7E700BFFFF7E4FD801B642801
:100C300073D828688003F7D50CE0FFF7DBFD064684
:100C400005E000BFFFF7D6FD801B6428F0D82868B8
:100C50008003F7D42078DFF8AC8280074FF0000AD9
:100C60003ED5A748001D016811F00C0F08D00068A0
:100C7000C0F3810002280BD1D9F80000400207D44C
:100C80002868800716D5E068012800D112E033E11A
:100C9000E068B8B10120C8F80000FFF7ABFD0646D8
:100CA00005E000BFFFF7A6FD801B0228C0D828681A
:100CB0008007F7D52868216920F0F80040EAC100D4
:100CC00028600DE0C8F800A0FFF794FD064604E098
:100CD000FFF790FD801B02281FD828688007F7D4F3
:100CE0002078000722D5864F87486169703771B137
:100CF00001210160FFF77EFD064604E0FFF77AFD63
:100D0000801B022809D838688007F7D50EE0C0F8A4
:100D100000A0FFF76FFD064605E082E0FFF76AFDE1
:100D2000801B02287DD838688007F7D420784007D8
:100D300068D5DFF8CCB100270BF13C0BDBF80000E5
:100D4000C0000BD4DBF8001041F08051CBF800104C
:100D5000DBF80000012700F0805000906B4E3068F7
:100D6000C00510D4306840F480703060FFF742FD59
:100D7000009005E0FFF73EFD0099401A022850D888
:100D80003068C005F6D55E4EA0686C3601280FD0DD
:100D90000528306810D020F001003060306820F065
:100DA00004003060A068B8B1FFF724FD00900FE0A8
:100DB000306840F00100F4E740F004003060F7E7ED
:100DC000FFF718FD0099411A41F28830814266D838
:100DD00030688007F4D50EE0FFF70CFD009007E0C7
:100DE000FFF708FD0099411A41F28830814256D838
:100DF00030688007F4D42FB1DBF8001021F0805167
:100E0000CBF80010A069C8B33D49091D0968C1F3BA
:100E1000810102294AD00228504607D0C8F8600054
:100E200000E03CE0FFF7E6FC04463BE04746C8F83C
:100E30006000FFF7DFFC064605E000BFFFF7DAFCC5
:100E4000801B02282BD828688001F7D4D4E9070139
:100E50000843A16A2E4A490802EB0141626A41EA4D
:100E60008211084394F82C1040EA0161C9F800107F
:100E700001203866FFF7BEFC044606E03EE000BFF6
:100E8000FFF7B8FC001B022809D828688001F7D5B5
:100E900034E000BFFFF7AEFC001B022802D903209C
:100EA000BDE8F88F28688001F4D427E00128F7D046
:100EB000D9F80000E26900F4800191421CD1226A55
:100EC00000F03F01914217D147F6C071626A0140BC
:100ED000B1EB821F10D1A26A4FF0FF3300F4403112
:100EE00003EB5202B1EB024F06D194F82C1000F044
:100EF0007060B0EB016F01D00120D1E70020CFE797
:100F00000438024000004742800E47420070004013
:100F10000000FFFF7047704710B5040003D094F83D
:100F20003D0010B107E0012010BD002084F83C0016
:100F3000204600F01EF8022084F83D00211D2068A4
:100F400000F0C2FC012084F8460084F83E0084F8DA
:100F50003F0084F8400084F8410084F8420084F89F
:100F6000430084F8440084F8450084F83D000020E4
:100F700010BD704790F83D10012901D00120704745
:100F8000022180F83D100168CA6842F00102CA607F
:100F900000681149884214D0B0F1804F11D00F4938
:100FA00088420ED00E4988420BD00E49884208D0A4
:100FB0000D49884205D00D49884202D00C4988422B
:100FC00004D1816801F00701062903D0016841F0CE
:100FD0000101016000207047000001400004004052
:100FE00000080040000C00400004014000400140A7
:100FF00000180040704770B50446006801694FF062
:101000000005C943890715D4C168C943890711D4AC
:10101000E91E016101202077206880698007204651
:1010200002D0FFF7E7FF04E000F098F8204600F058
:1010300096F8257720680169C943490717D4C16824
:10104000C943490713D46FF00401016102202077DE
:101050002068806910F4407F204602D0FFF7CAFF65
:1010600004E000F07BF8204600F079F8257720684E
:101070000169C943090716D4C168C943090712D4D5
:101080006FF008010161042020772068C0698007A3
:10109000204602D0FFF7AEFF04E000F05FF82046E4
:1010A00000F05DF8257720680169C943C90617D4A7
:1010B000C168C943C90613D46FF01001016108204B
:1010C00020772068C06910F4407F204602D0FFF7E7
:1010D00091FF04E000F042F8204600F040F8257748
:1010E00020680169C943C90708D1C168C943C90754
:1010F00004D1891E0161204600F032F820680169A0
:10110000C943090609D4C168C943090605D46FF06B
:10111000800101612046FFF7FDFE20680169C94397
:10112000490609D4C168C943490605D46FF0400196
:101130000161204600F01EF820680169C943890654
:101140000BD4C168C943890607D46FF0200101613F
:101150002046BDE87040FFF7DEBE70BD70477047A7
:1011600000680349884201D1FFF74ABB704700007D
:10117000001000407047704770470000F8B50168E4
:1011800004460868CA684B6910F00F0F4FF000055D
:1011900059D003F0010602F49077374365D0C107B8
:1011A00005D0D10503D5216C41F00101216441072F
:1011B00005D5D90703D0216C41F0020121648107D4
:1011C00005D5D90703D0216C41F004012164010742
:1011D00007D502F02001314303D0216C41F0080112
:1011E0002164216C00293AD0800604D5900602D5EE
:1011F000204600F0FCFB20684069216CC0F38010A1
:10120000090700D460B3204600F0CAFB206840699B
:10121000400621D52068143050E8001F21F040011D
:1012200040E80012002AF5D1A06BA8B16C49016515
:10123000A06BFFF7D4F9002811D0A06B016D01B0AD
:10124000BDE8F040084783060FD593060DD520462C
:10125000BDE8F84000F0CBBB2046FFF78DFFF8BD9E
:101260002046FFF789FF2564F8BD266B2023012E59
:1012700079D1C60677D5D60675D508684868009036
:101280004869400640D5A16B086840680004000C1E
:10129000EAD0A28D8242E7D9E085C869B0F5807FA7
:1012A0002DD020680C3050E8001F21F4807140E8F8
:1012B0000012002AF5D12068143050E8001F21F0F8
:1012C000010140E80012002AF5D12068143050E8EE
:1012D000001F21F0400140E80012002AF5D184F8F7
:1012E0003E30256320680C3050E8001F21F01001CB
:1012F00040E80012002AF5D1A06BFFF727F9A08D76
:10130000E18D401A81B229E0A08DE18D401A81B2B1
:10131000E08D0028A8D00029A6D020680C3050E825
:10132000002F22F4907240E80026002EF5D12068AC
:10133000143050E8002F22F0010240E80026002E71
:10134000F5D184F83E30256320680C3050E8002F3A
:1013500022F0100240E80023002BF5D12046FFF7D1
:101360000AFFF8BDFFE705062BD5150629D594F829
:101370003D002128F5D1A068B0F5805F01D120693A
:10138000B0B1206A411C2162216800784860E08C7D
:10139000401E0004000CE084E3D12068C16821F005
:1013A0008001C1602068C16841F04001C160D8E798
:1013B000206A0088C0F308004860206A801C206210
:1013C000E5E74006CDD55006CBD5CA68204622F0C9
:1013D0004002CA6084F83D3000F0FAF8C1E700002E
:1013E0009119000870B5040004D094F83D00002560
:1013F00010B106E0012070BD84F83C50204600F09A
:1014000023F8242084F83D002068C16821F40051AD
:10141000C160204600F04CFB2068016921F4904136
:1014200001612068416921F02A0141612068C16899
:1014300041F40051C1602564202084F83D0084F807
:101440003E00002070BD0000F0B587B004461421B6
:101450006846FFF712F8DFF8C0C0206800222F4965
:101460000223032507272E4E60452DD12B4814302B
:10147000D0F800C04CF0100CC0F800C0006800F0BC
:1014800010000590086840F00100086008680DF140
:10149000080C00F0010005906802CDE900038CE81B
:1014A000A40069463046FFF7ADF80022052125204B
:1014B000FFF73EFA2520FFF72DFA2068C16841F0BA
:1014C0002001C16007B0F0BD164CA042FAD113480C
:1014D0001030046844F400340460006800F4003004
:1014E0000590086840F001000860086802AC00F050
:1014F000010005900C20CDE9000384E8A4006946B2
:101500003046FFF77FF8002205212620FFF710FA6A
:101510002620FFF7FFF9D5E70010014030380240E0
:10152000000002400044004090F83E30202B0ED1D5
:1015300059B152B190F83C30012B08D0012380F80A
:101540003C300023036300F039BB012070470220C8
:101550007047000070B50068184988422CD12122DC
:1015600017491848FFF7E0FF15480025164C017889
:10157000FE2906D12178491CC9B22170212908D041
:1015800000E02570BDE8704021220D490D48FFF7AD
:10159000CBBF0168B1F1FE3FF3D190F82010EE29E6
:1015A000EFD10A4A41681161C06800EE101A00EEDE
:1015B000900A00F00FF8E4E770BD00000010014051
:1015C000C1400020E002002010000020A0400020C8
:1015D0007047FEE79FED141AB5EEC00AF6EE001A4A
:1015E00020EE811A11481249F1EE10FA08D121EECD
:1015F000210A80ED020AB1EE400A81ED020A70472D
:10160000F5EEC00AF1EE10FA02D181ED020A07E010
:10161000F0EE400A01EE210A41EE610AC1ED020A34
:1016200080ED020A704700003333333EFC40002057
:10163000E440002010B59CB01C2216496846FEF715
:10164000EAFE0021684600F027FB134C11491C22DA
:1016500020601C3107A8FEF7DEFE002107A800F07D
:101660001BFB0C4960601C2238310EA8FEF7D3FE2C
:1016700000210EA800F010FB0649A0601C22543186
:1016800015A8FEF7C8FE002115A800F005FBE060D4
:101690001CB010BD3427000800000020094808B520
:1016A000016841F080010160016801F08001009152
:1016B000016841F001010160006800F00100009044
:1016C00008BD0000303802400C4810B50A490160DE
:1016D0004FF4E1314160002181600C22C160C0E91A
:1016E00004128161C161FFF77DFE002803D0BDE8CF
:1016F0001040FEF729BF10BD00100140E00200209D
:101700000C4810B50A4901604FF4E13141600021F5
:1017100081600C22C160C0E904128161C161FFF7E0
:1017200061FE002803D0BDE81040FEF70DBF10BDDC
:101730000044004024030020FEE7FEE710B5144BF0
:101740004FF0FE3000241860EE2083F8200011488E
:10175000F6EE001AD0ED010A0F4890ED010A30EEC6
:10176000801A70EEC00A21EE211A11EE100A9FEDC8
:101770000B1A58609C6080EE810A10EE100AD86047
:10178000185D00F049FA641CE4B2212CF8D310BDB6
:10179000A0400020E4400020FC4000203333333ED2
:1017A0004FF47A74204600F06BFAFBE7064C074DC5
:1017B000642094ED020A84ED010A95ED020A85ED9C
:1017C000010A00F05DFAF3E7E4400020FC4000204D
:1017D000FFF7B4FF642000F053FAF9E74FF47A748E
:1017E000204600F04DFAFBE710B5502080F3118839
:1017F000BFF34F8FBFF36F8F00F0CEFE18B10449D7
:101800004FF080500860002080F3118810BD000068
:1018100004ED00E030B593B030216846FEF72DFEB0
:1018200014210CA8FEF729FE1E480025016841F08E
:1018300080510160006800F0805011901A480168E2
:1018400041F4804101600068022400F4804011905E
:1018500001200090000401908001CDE9064008209D
:1018600008904FF4A870CDE9090404200B90684655
:10187000FFF79AF908B172B6FEE70CA90F2081E8CC
:1018800031004FF4A0500F904FF48050109005217C
:101890000CA8FFF77FF8002801D072B6FEE713B05E
:1018A00030BD00004038024000700040024801682E
:1018B00041F470010160704788ED00E00148FFF7D6
:1018C0009ABB000068030020F0B50268254C264D45
:1018D000264E274F274B4FF0804CA04209D0604541
:1018E00007D0A84205D0B04203D0B84201D09842F8
:1018F00004D122F0700E4A6842EA0E02A0421BD0C8
:10190000604519D0A84217D0B04215D0B84213D0C4
:10191000984211D0184DA8420ED0184DA8420BD0B5
:10192000174DA84208D0174DA84205D0164DA84221
:1019300002D0164DA84203D122F44075CA682A434A
:101940004D6922F080022A4302608A68C2620A68F6
:101950008262A04201D0984201D10969016301214C
:101960004161F0BD0000014000040040000800405B
:10197000000C0040000401400040014000440140D0
:101980000048014000180040001C004000200040BA
:1019900010B5806B0021C185C184FFF7EDFB10BD40
:1019A00001680C3151E8002F22F4907241E80023C5
:1019B000002BF5D10168143151E8002F22F001020B
:1019C00041E80023002BF5D1016B012909D1016801
:1019D0000C3151E8002F22F0100241E80023002BC7
:1019E000F5D1202180F83E1000210163704708B531
:1019F00090F83E10222901D0022008BD82684FF4E1
:101A000080539A4201D1016921B1816A9A421BD067
:101A10004AB10AE00268816A5268C2F308020A8089
:101A2000816A891C08E0026972B10268526802F09A
:101A30007F020A70816A491C8162C18D491E0904B6
:101A4000090CC18503D019E002685268F1E701680A
:101A5000CA6822F02002CA600168CA6822F4807253
:101A6000CA6001684A6922F001024A61202180F8B7
:101A70003E10016B012903D0FFF76CFD002008BD6B
:101A80000021016301680C3151E8002F22F010029F
:101A900041E80023002BF5D101680A68D20602D57F
:101AA0000A6849680091818DFFF765FBE6E7000051
:101AB00070B5044600680169E26821F440511143A1
:101AC00001612169A068E269084361691143084323
:101AD0002168CA6849F20C639A430243CA602068CD
:101AE0004169A26921F44071114341613149206883
:101AF000884202D03049884202D1FFF715F801E050
:101B0000FFF702F8E2690023192164253226B2F5B5
:101B1000004F626828D0A0FB0101930F9200FEF7EE
:101B200003FC0146B0FBF5F06FF01802504301EBE7
:101B3000800006EB0010B0FBF5F000F0F002B1FB06
:101B4000F5F002EB0012B1FBF5F06FF0180358430B
:101B500001EB800006EB0010B0FBF5F000F00F0089
:101B600021681044886070BDA0FB010192185B41A0
:101B7000FEF7DAFB0146B0FBF5F00201B1FBF5F030
:101B80006FF01803584301EB800006EBC000B0FB78
:101B9000F5F000F0F80002EB4002B1FBF5F058431D
:101BA00001EB800006EBC000B0FBF5F000F0070091
:101BB000D6E70000001001400014014081628285D8
:101BC000C28500210164222280F83E2080F83C106A
:101BD000016921B10168CA6842F48072CA60016873
:101BE0004A6942F001024A610068C16841F020017F
:101BF000C16000207047000010B52122044905484B
:101C0000FFF792FCBDE810400248FFF7B7BA0000AA
:101C1000C1400020E002002002490A681206FCD5FB
:101C200048607047001001400148FFF7A7BA000064
:101C300024030020FEE70907090E002804DB00F159
:101C4000E02080F80014704700F00F0000F1E02061
:101C500080F8141D7047FEF7DBFDFFF7DBFDFFF793
:101C60001DFDFFF731FDFFF74BFDFFF7E3FC00F033
:101C70000EF8FEE701460020842900D0C81C7047FA
:101C800010B500B9012000F023FB002010BD10B5F5
:101C900000F044FB002010BD7FB50D4604464169AD
:101CA000B0F9080081B1A16971B1FFF7E3FFD4E990
:101CB00005128DE80700D4E900102B46226900F0D8
:101CC00040FC039004B070BDFFF7D4FF03A9CDE939
:101CD0000001208A2B4682B2D4E9001000F004FCF7
:101CE000012801D00020EDE70398EBE72DE9F04152
:101CF000184C0F460546E6682068001D00F020FAE3
:101D000038B9206890F82C1001208840216981435F
:101D10002161681C07D137B12168BDE8F0410E4848
:101D2000091D00F051BA20683544B542456021686C
:101D300005D2A06BBDE8F041091D00F02DBA606B23
:101D4000091D00F029FAA06A854200D2A562BDE80B
:101D5000F0810000240000208C0400202DE9F041D7
:101D6000054600F03DFA2E4CA068401CA06020689B
:101D70002C4F10B1606940B32DE02560A0680128A8
:101D800029D1002606EB860007EB800000F0F6F96B
:101D9000761C072EF6D323488C3000F0EFF921484B
:101DA000A03000F0EBF91F48B43000F0E7F91D480F
:101DB000C83000F0E3F91B48DC3000F0DFF91948C7
:101DC0008C3060631430A06305E02068E96AC06A63
:101DD000884200D82560606A401C6062E96A012080
:101DE000226988401043206101EB810007EB8000ED
:101DF000291D00F0E9F900F013FA606900280CD001
:101E00002068E96AC06A884207D207494FF08050CB
:101E10000860BFF34F8FBFF36F8FBDE8F081000004
:101E200024000020B003002004ED00E010B50446BB
:101E300090F8510058B101280CD002280FD0502042
:101E400080F31188BFF34F8FBFF36F8FFEE7206BD6
:101E500000F0FAF92046BDE8104000F0F5B910BDD9
:101E600010484FF47051420706D0C01D0D4920F0B4
:101E70000700411AC1F570510B4A00230144C2E921
:101E800000030839183A21F0070111604B600B601C
:101E90000B1AC0E9001393604FF00040536050618B
:101EA00070470000A004002078000020144E154C5C
:101EB000A6F1C8074FF08058DFF84C9012E000BF41
:101EC00000F08EF9F068C568281D00F039F9A068A7
:101ED000401EA0606068401E606000F0A1F92846C6
:101EE000FFF7A4FF60680028EAD138680128F9D913
:101EF000C9F80080BFF34F8FBFF36F8FF2E7000088
:101F0000780400202400002004ED00E02DE9F047D3
:101F10009A46DDE9098481466FF00303206B03EBE9
:101F200082021044089E20F00707780707D050204F
:101F300080F31188BFF34F8FBFF36F8FFEE700254B
:101F400061B1002023180A5C83F834200A5C12B1C6
:101F5000401C1028F6D384F8435001E084F8345034
:101F6000072E00D30626E662C4E91165201D00F0A5
:101F700010F904F1180000F00CF92461C6F1070013
:101F80006462A061E56484F8505052464946384680
:101F900000F0C0F82060B8F1000F01D0C8F8004090
:101FA000BDE8F08730B5114900E011460A68824269
:101FB000FBD34B685C18844203D1406818444860E6
:101FC000084643681C18944209D1084C183C246800
:101FD000A24209D052681A4442600A68126802603C
:101FE000814200D0086030BD0460F9E7780000202D
:101FF0000648416B096829B1416BC968C9684968DD
:10200000816270474FF0FF31FAE7000024000020A2
:1020100008484068401C4FF0500080F3118804D0FD
:10202000BFF34F8FBFF36F8FFEE7BFF34F8FBFF349
:102030006F8FFEE7800000202DE9F0410546002764
:1020400000F0A2F9324E306808B9FFF709FF706955
:1020500005424ED1C5B3083568070ED005F007001C
:10206000C0F108000544680707D0502080F31188AC
:10207000BFF34F8FBFF36F8FFEE72DB370688542BC
:1020800037D82348183001460C6801E020460C463A
:102090006168A94202D221680029F7D131688C42D7
:1020A00027D007682168016060680837411B102944
:1020B0000FD96019420708D0502080F31188BFF370
:1020C0004F8FBFF36F8FFEE713E041606560FFF74E
:1020D00069FF61687068401A7060B268904200D20F
:1020E000B060706901430020C4E90001F068401C41
:1020F000F06000F0B7FA780707D0502080F311881D
:10210000BFF34F8FBFF36F8FFEE73846BDE8F08116
:102110006000002010B5031F4FF080741C601B1F6F
:1021200021F001011960191F044B0B6014390A607A
:10213000091F6FF0020244380A6010BD1120000828
:10214000D0E9013201699A60D0E901235A604A68F6
:10215000824201D182684A60002202610868401E02
:102160000860086870470000034B036003F15400E7
:1021700008608020106070478C00002000F108018A
:102180004FF0FF32C0E90112C1600161002101601E
:10219000704700210161704730B50B685A1C02D0AE
:1021A00000F1080202E0026904E022465468256852
:1021B0009D42FAD953684B6099608A60516008610A
:1021C0000168491C016030BD42684A6093688B60B9
:1021D00093685960916008610168491C016070470B
:1021E000502080F31188BFF34F8FBFF36F8F0A49E0
:1021F0004868401C486001280CD10848006810F06D
:10220000FF0F07D0502080F31188BFF34F8FBFF32B
:102210006F8FFEE7704700008000002004ED00E0B3
:102220000849486828B1401E486001D180F31188F0
:102230007047502080F31188BFF34F8FBFF36F8F2B
:10224000FEE700008000002070B500282AD0164D5F
:10225000A0F1080460686969084207D1502080F342
:102260001188BFF34F8FBFF36F8FFEE722683AB13B
:10227000502080F31188BFF34F8FBFF36F8FFEE7BD
:102280008843606000F080F86068696808446860AE
:102290002046FFF787FE2869401C2861BDE8704092
:1022A00000F0E0B970BD0000600000204FF0E020B9
:1022B00000210161816105494FF47A720968B1FB1F
:1022C000F2F1491E416107210161704720000020A1
:1022D00010B5020014D00F48006B38B1502080F3C5
:1022E0001188BFF34F8FBFF36F8FFEE700F04CF8FC
:1022F00000211046FFF7FAFC00F0B4F9002807D1DE
:1023000005494FF080500860BFF34F8FBFF36F8FC8
:1023100010BD00002400002004ED00E010B586B0E0
:102320000024039405AA04A903A80494FFF71CFF42
:10233000DDE903010094CDE9011000230EA110484E
:10234000059A00F0FEF80F490028C86211D050200D
:1023500080F31188BFF34F8FBFF36F8F4FF0FF30C3
:10236000886201204861CC6006B0BDE8104000F0F2
:1023700041B806B010BD000049444C4500000000C3
:10238000AD1E0008240000200248016B491C0163B7
:1023900070470000240000201448016B11B1012196
:1023A000C16170470021C1610169B1FA81F1C1F1D8
:1023B0001F0101EB81020E4951F822306BB101EB94
:1023C000820101F108034A6852684A609A4201D1C9
:1023D00052684A60D16801607047502080F31188CC
:1023E000BFF34F8FBFF36F8FFEE700002400002084
:1023F000B00300201CB537480168374A914207D125
:10240000502080F31188BFF34F8FBFF36F8FFEE72B
:1024100000683149491E884207D1502080F3118855
:10242000BFF34F8FBFF36F8FFEE72C490878019001
:10243000FF20087008788DF800009DF800009DF8D6
:10244000002000F0F000904207D0502080F3118867
:10245000BFF34F8FBFF36F8FFEE79DF80000204C56
:1024600000F0500020700720A06005E09DF80020DB
:1024700052008DF80020401E9DF800201206F5D471
:10248000A060032807D0502080F31188BFF34F8F3E
:10249000BFF36F8FFEE74FF44070A06001980870A3
:1024A0000C482030016841F470010160016841F07E
:1024B00070410160FFF7FAFE00206060FDF7D8FE72
:1024C0000848016841F040410160FDF7BDFE002071
:1024D0001CBD000000ED00E071C20F4100E400E00F
:1024E0008000002034EF00E02DE9FF5F8346DDE946
:1024F0000E87994616468A469000FFF79DFD050017
:102500001CD05420FFF798FD040014D00020256350
:1025100084F85100CDE90240CDE900874B463246B0
:1025200051465846FFF7F2FC2046FFF717FC012002
:1025300004B0BDE8F09F2846FFF786FE4FF0FF305D
:10254000F6E7F0B585B0DDE90B640A9DA6B1DCB114
:10255000542700972663022684F85160002604AFB2
:10256000CDE90246CDE90057FFF7D0FC2046FFF742
:10257000F5FB049805B0F0BD502080F31188BFF33F
:102580004F8FBFF36F8FFEE7502080F31188BFF3AA
:102590004F8FBFF36F8FFEE72DE9F0412F4C0026E0
:1025A000206B28B1A069401CA0613046BDE8F081D5
:1025B000E5686D1CE56013D1606B006838B1502090
:1025C00080F31188BFF34F8FBFF36F8FFEE7606B0F
:1025D000A16B6163A063206A401C2062FFF708FDC5
:1025E000A06ADFF87C80854209D3606B0068A0B1E7
:1025F000606BC068C7687868854211D2A0622068A5
:10260000C06A00EB800158F82100012800D901269A
:10261000E0690028C9D00126C7E74FF0FF30EDE799
:10262000381DFFF78DFDB86A18B107F11800FFF7E4
:1026300087FDF96A0120226988401043206101EB7F
:10264000810108EB8100391DFFF7BEFDF86A2168A2
:10265000C96A8842C9D30126C7E7000024000020C8
:10266000B00300202DE9F0472C4D00242746286BAD
:1026700038B1FFF7B5FD286B401E2863286B40B1C9
:1026800046E0502080F31188BFF34F8FBFF36F8F68
:10269000FEE7A968224E0120D1B3A6F1B409804615
:1026A0003068E8B1F068C46804F11800FFF748FD2D
:1026B000201DFFF745FDE06A2A6908FA00F1114381
:1026C000296100EB800109EB8100211DFFF77CFDF2
:1026D000E06A2968C96A8842E2D3C5F81C80DFE74E
:1026E0000CB1FFF785FCAC6944B14646FFF754FFD7
:1026F00000B1EE61641EF9D10020A861E86938B12B
:102700000849012738070860BFF34F8FBFF36F8F69
:10271000FFF786FD3846BDE8F08700002400002062
:102720006404002004ED00E04FF04070E1EE100A78
:1027300070470000C8270008DD17000800000000EF
:102740000000000080000000000000000000000009
:10275000BC270008D1170008FDFF000000000000A2
:10276000800000000000000000000000D4270008E6
:10277000AD170008FDFF0000000000008000000011
:102780000000000000000000E0270008A11700087A
:10279000FDFF0000000000008000000000000000BD
:1027A000000000000000000000000000010203041F
:1027B0000607080900000000010203045461736B5E
:1027C0005F756172743100005461736B5F75617283
:1027D000743200005461736B5F5049440000000084
:1027E0005461736B5F494D55000000000C280008D0
:1027F000000000208C000000C40100089828000898
:102800008C000020EC460000E00100080000000001
:1028100000000000000000000000000000000000B8
:102820000100000010000000000000000024F4007F
:102830000000000000000000000000000000000098
:102840000000000000000000000000000000000088
:102850000000000000000000000000000000000078
:102860000000000000000000000000000000000068
:102870000000000000000000000000000000000058
:102880000000000000000000000000000000000048
:08289000AAAAAAAA0000000098
:040000050800018965
:00000001FF
