:020000040800F2
:10000000E846002061020008DD330008DB27000815
:1000100019320008710A000835400008000000008D
:10002000000000000000000000000000A101000826
:100030001D0D000800000000FD0100083937000810
:100040007B0200087B0200087B0200087B0200089C
:100050007B0200087B0200087B0200087B0200088C
:100060007B0200087B0200087B0200087B0200087C
:100070007B0200087B0200087B0200087B0200086C
:100080007B0200087B0200087B0200087B0200085C
:100090007B0200087B0200087B0200087B0200084C
:1000A0007B0200087B0200087B0200087B0200083C
:1000B0007B0200087B0200087B0200087B0200082C
:1000C0007B0200087B0200087B0200087B0200081C
:1000D0007B020008014000087B0200087B02000848
:1000E0007B0200087B0200087B0200087B020008FC
:1000F0007B0200087B0200087B0200087B020008EC
:100100007B0200087B0200087B0200087B020008DB
:100110007B0200087B020008353800087B020008DB
:100120007B0200087B0200087B0200087B020008BB
:100130007B0200087B0200087B0200087B020008AB
:100140007B0200087B0200087B0200087B0200089B
:100150007B0200087B0200087B0200087B0200088B
:100160007B0200087B0200087B0200087B0200087B
:100170007B0200087B0200087B02000800000000F0
:100180007B0200087B020008DFF810D000F0E2FBE1
:1001900000480047A95F0008AFF30080E846002050
:1001A0002C4B19680868B0E8F04F80F30988BFF35A
:1001B0006F8F4FF0000080F311887047000000003F
:1001C00008480068006880F308884FF0000080F35A
:1001D000148862B661B6BFF34F8FBFF36F8F00DF35
:1001E00000BF00BF08ED00E0DFF80C00016841F43B
:1001F00070010160704700BF88ED00E0EFF30980F7
:10020000BFF36F8F134B1A681EF0100F08BF20ED5D
:10021000108A20E9F04F106009B44FF0500080F3CD
:100220001188BFF34F8FBFF36F8F07F08BFC4FF038
:10023000000080F3118809BC19680868B0E8F04F25
:100240001EF0100F08BFB0EC108A80F30988BFF3CE
:100250006F8F704728000020EFF305807047000083
:100260000648804706480047FEE7FEE7FEE7FEE750
:10027000FEE7FEE7FEE7FEE7FEE7FEE721380008BF
:10028000890100082DE9F05F0546002092469B4653
:1002900088460646814640241BE02846414647469C
:1002A000224600F070FA53465A46C01A914110D3C4
:1002B00011461846224600F057FA2D1A67EB01083E
:1002C0004F4622460120002100F04EFA17EB0009AC
:1002D0004E41201EA4F10104DFDC484631462A4687
:1002E0004346BDE8F09F40EA01039B0703D009E0C5
:1002F00008C9121F08C0042AFAD203E011F8013B12
:1003000000F8013B521EF9D27047D2B201E000F86A
:10031000012B491EFBD270470022F6E710B51346A9
:100320000A4604461946FFF7F0FF204610BD30B5D7
:1003300004460020034600E05B1C934203D2E05CCD
:10034000CD5C401BF8D030BD2DE9FE4F804681EAE0
:100350000300C00F0C46009021F0004123F000453F
:10036000B8EB0200A94105D24046214690461C4602
:100370000B46024623F00040104347D0270DC7F339
:100380000A00C3F30A510290401A019040286BDA28
:10039000C3F3130040F4801B0098924620B1002361
:1003A000D2EB030A63EB0B0B01985946C0F14002F4
:1003B000504600F0D9F906460D4650465946019A76
:1003C00000F0F1F910EB08006141002487EA1152B6
:1003D00084EAE7731A4340D0009A62B3019A012A73
:1003E0004FEA075215DC001B61EB02014FF000429F
:1003F00002EA0752CDE90042001C41F58011324665
:100400002B4600F028FA03B0BDE8F08F40462146A5
:10041000F9E7001B61EB0201001C41F58013001895
:100420005B412018A2F5001747EB030140EAD570A5
:10043000B6196D4111E06D084FEA360645EAC07500
:100440004FEA0752001B61EB0201001C41F58011CD
:1004500049084FEA30000019514132462B4603B09B
:10046000BDE8F04F00F0E8B90098012240000023F9
:10047000D0EB020263EBE073009821464FEAE07490
:10048000B8EB000061EB0401E9E783F000435BE7B0
:1004900081F0004158E72DE9FE4F81EA030404F0A2
:1004A000004421F0004100944FF0000B23F0004382
:1004B00050EA01045ED052EA03045BD0C3F30A544D
:1004C000C1F30A552C44A4F2F3340194A0FB025466
:1004D000C1F3130141F48011C3F3130343F48013F8
:1004E00001FB024400FB034E840A970A44EA81544C
:1004F00047EA8357A4FB076802958D0A05FB078529
:100500004FEA932C04FB0C542705029D4FEA065832
:1005100047EA1637B5EB08056EEB070C870E920E0F
:1005200047EA811742EA8312A7FB0201B6EB0B01EF
:1005300064EB00042B0D43EA0C335E1844EB1C50B3
:10054000DA465146E7FB0201C5F313044FEA0B33C9
:1005500043EA14534FEA0432019C43EA0603A4F130
:100560000C040294009CCDE900B400F074F903B0CF
:10057000BDE8F08F00200146F9E72DE9F04D81EA52
:10058000030404F0004B21F0004514464FF0000A2C
:1005900023F0004150EA050220D054EA01021DD0A8
:1005A000C5F30A570246C5F31303C1F31300C1F3A1
:1005B0000A5640F4801543F48013A7EB0608101B7D
:1005C000D64608F2FD3873EB050002D308F10108A6
:1005D00001E092185B41B8F1000F03DA00200146F8
:1005E000BDE8F08D00204FF48011064684460EE0F1
:1005F000171B73EB050705D3121B63EB05030643BB
:100600004CEA010C49084FEA300092185B4150EA6D
:100610000107EDD152EA030012D082EA040083EA16
:100620000501084305D0101BAB4106D2012200236F
:1006300006E000224FF0004302E06FF00102531089
:100640001AEB06004CEB085110EB0A0041EB0B01D2
:10065000BDE8F04D00F0F0B80EB5C10F80EAE070D3
:100660000844CA07002140F233438DE80E000A46D1
:100670000B4600F0F0F803B000BDC1F30A5210B50C
:10068000C1F3130140F2FF3341F480119A4201DAC1
:10069000002010BD40F233439A42A2F2334203DC01
:1006A000524200F070F810BD904010BD00F00042C2
:1006B00030F000400AD0C10D01F56071C0F31600A2
:1006C00042EA0151C2084007114370470020014629
:1006D0007047000030B5041E71F1000404DB4FF0D8
:1006E0000044404264EB0101141E73F1000405DB79
:1006F0001C464FF00043524263EB0403994208BF8B
:10070000904230BD01F0004330B421F0004150EA86
:10071000010206D00A0DA2F56072C1F31301002A8E
:1007200002DC30BC00207047440F44EAC104C10021
:10073000E01830BC00EBC25000F047B830B50B46B3
:10074000014600202022012409E021FA02F59D4201
:1007500005D303FA02F5491B04FA02F52844151ED5
:10076000A2F10102F1DC30BD202A04DB203A00FABC
:1007700002F1002070479140C2F1200320FA03F3F8
:10078000194390407047202A04DB203A21FA02F0F6
:100790000021704721FA02F3D040C2F120029140BB
:1007A000084319467047202A06DBCB17203A41FA46
:1007B00002F043EAE07306E041FA02F3D040C2F1EE
:1007C000200291400843194670470029A8BF70478E
:1007D000401C490008BF20F00100704710B4B0FA77
:1007E00080FC00FA0CF050EA010404BF10BC704712
:1007F00049B1CCF1200421FA04F411FA0CF118BF2C
:10080000012121430843A3EB0C01CB1D4FEA0061FA
:100810004FEA102042BF002010BC704700EBC350CD
:1008200010440029A4BF10BC7047401C490008BFF9
:1008300020F0010010BC704710B5141E73F10004C5
:1008400008DA401C41F1000192185B411A4301D1C2
:1008500020F0010010BD2DE9F04D92469B4611B1EC
:10086000B1FA81F202E0B0FA80F220329046FFF74E
:100870007BFF04460F4640EA0A0041EA0B0153465B
:100880005A46084313D0114653EA010019D0C8F163
:1008900040025046FFF777FF05460E465046594640
:1008A0004246FFF761FF084305D0012004E02046DF
:1008B0003946BDE8F08D0020054346EAE0762C433A
:1008C00037430A986305E40AA0EB08000022FD0AFA
:1008D00044EA47540A3002D500200146E9E7010501
:1008E00010196941DDE9084500196941BDE8F04D7D
:1008F000A2E7C1F30A52C1F3130140F2FF3341F4FE
:1009000080119A4202DA00200146704740F23343D8
:100910009A42A2F2334202DC5242FFF734BFFFF7A1
:1009200023BF000030B5041E71F1000404DB4FF05A
:100930000044404264EB0101141E73F1000405DB26
:100940001C464FF00043524263EB04038B4208BF46
:10095000824230BD064C074D06E0E06840F00103DE
:1009600094E8070098471034AC42F6D3FFF710FC28
:1009700070910008909100082DE9F04D00231A466F
:100980001B1A8A4103DB00200146BDE8F08DC1F34C
:100990000A52C1F3130141F480154FF0000BD10747
:1009A00002D100186D41521E0027044640F2FF118B
:1009B000384601EB620A3E468046024600204FF46C
:1009C0008011FFF7E0FEC2197141BB1846EB010030
:1009D000B4EB030C75EB000C04D3E41A65EB0005D3
:1009E00017460E46241908F101006D41804634284F
:1009F000E3DDF91946EB0600091BA84103D24FF0CD
:100A0000FF32134601E0002213461BEB070046EBC2
:100A10000A51BDE8F04DFFF70FBF70B58C1810F804
:100A2000015B15F0070301D110F8013B2A1106D133
:100A300010F8012B03E010F8016B01F8016B5B1E4D
:100A4000F9D12B0705D40023521E0DD401F8013B28
:100A5000FAE710F8013BCB1A921C03E013F8015B94
:100A600001F8015B521EF9D5A142D8D3002070BD18
:100A700000BFFEE710B5012002F0CCFC2C49086055
:100A8000022002F0C7FC40422A4908602A48B0F917
:100A9000060001EE100AB8EEC11AF0EE410A26482F
:100AA00090ED031AB0EE410A03F0C6FA234908603C
:100AB0002148D0ED030AB0EE600A2148D0ED000ACB
:100AC0001C4801681A48006803F0CEFA1D49086006
:100AD000194AB2F90A101C4A107803F053FB1B495B
:100AE000086008460368174802681448016818A09F
:100AF00003F06AFB11480068124909680844134969
:100B0000096808441D4908600C4800680D490968D7
:100B100008440E490968401A19490860174802F04C
:100B20005FFC174801681548006802F017FD10BD0A
:100B3000A4000020A8000020D04200209000002047
:100B4000AC00002094000020B0000020980000209D
:100B500042616C616E63655F50776D3A25642C5617
:100B6000656C6F636974795F50776D3A25642C54B6
:100B700075726E5F50776D3A256400009C0000200E
:100B8000A000002010B505F08DFA28B118221249F6
:100B90001248FFF7A8FB04E0182210490E48FFF79F
:100BA000A2FB0E4800880E4988820C4841880C48F8
:100BB000C1820A4881880A4801830848C0880849D8
:100BC00048830648018906488183044841890448CE
:100BD000C18302F03BFC10BD34420020D042002013
:100BE0007C42002010B52DED028B2C48B0F900108E
:100BF0002BA003F0E9FA2948B0F902102BA003F06A
:100C0000E3FA2648B0F904102BA003F0DDFA2348DC
:100C1000B0F906102BA003F0D7FA2048B0F908105D
:100C20002CA003F0D1FA1D48B0F90A102DA003F052
:100C3000CBFA1A4890ED030A10EE101A0846FFF797
:100C400035FD41EC180B53EC182B2AA003F0BCFA2D
:100C5000124890ED040A10EE101A0846FFF726FD20
:100C600041EC180B53EC182B25A003F0ADFA0B4800
:100C700090ED050A10EE101A0846FFF717FD41EC3B
:100C8000180B53EC182B21A003F09EFA22A003F0BE
:100C90009BFA02F01BFCBDEC028B10BDD042002081
:100CA0006163635F78203D2025640A006163635FB0
:100CB00079203D2025640A006163635F7A203D202E
:100CC00025640A006779726F5F78203D2025640AE9
:100CD000000000006779726F5F79203D2025640A6B
:100CE000000000006779726F5F7A203D2025640A5A
:100CF000000000007069746368203D2025660A00CA
:100D0000726F6C6C203D2025660A000079617720A7
:100D10003D2025660A0000000D0A0000704772B6EB
:100D200000BFFEE770B50446A56D00F065F9064604
:100D300094F83500022808D08020606500BF0020AC
:100D400084F8340000BF012070BD2068006820F0E6
:100D50001600216808602068406920F08000216842
:100D60004861206C08B9A06C28B12068006820F0A8
:100D70000800216808602068006820F001002168F0
:100D8000086010E000F038F9801B05280BD92020FE
:100D90006065032084F8350000BF002084F834002B
:100DA00000BF0320D0E72068006800F001000028A1
:100DB000E8D194F85C103F208840A860012084F8B6
:100DC000350000BF002084F8340000BF00BFBBE73F
:100DD000014691F83500022803D0802048650120A3
:100DE0007047052081F835000868006820F0010090
:100DF0000A6810600020F3E7F8B502460B460025AC
:100E0000002400200021D6E0012606FA01F51E6824
:100E100006EA0504AC4274D11E7906F00306012EE1
:100E200004D01E7906F00306022E13D190684F00FD
:100E30000326BE40B0434F00DE68BE4030439060A2
:100E4000506801268E40B0431E79C6F300168E40CE
:100E5000304350601E7906F00306032E09D0D06897
:100E60004F000326BE40B0434F009E68BE40304353
:100E7000D0601E7906F00306022E13D1CF0802F1CE
:100E8000200656F827004E07F70E0F26BE40B04347
:100E90004F07FF0E1E69BE403043CF0802F1200607
:100EA00046F8270010684F000326BE40B0431E7965
:100EB00006F003064F00BE40304310605E6806F443
:100EC0004036002E76D000BF002600963C4E366895
:100ED00046F480463A4F3E603E46366806F4804609
:100EE000009600BF00BF374E8F0856F827008E07C8
:100EF000370F0F26BE40B043334EB24202D1002618
:100F000024E057E0314EB24201D101261EE0304EBE
:100F1000B24201D1022619E02E4EB24201D103267F
:100F200014E02D4EB24201D104260FE02B4EB24206
:100F300001D105260AE02A4EB24201D1062605E07B
:100F4000284EB24201D1072600E008268F073F0F46
:100F5000BE4030431B4E8F0846F82700224E3068B3
:100F6000A0435E6806F4801606B120431E4E306032
:100F7000361D3068A0435E6806F4001606B12043B3
:100F8000194E361D3060184E361F3068A0435E681B
:100F900006F4003606B12043134E361F3060361F6C
:100FA0003068A0435E6806F4803606B120430E4EDA
:100FB000083E3060491C1029FFF426AFF8BD000040
:100FC000443802400838014000000240000402405A
:100FD00000080240000C02400010024000140240D1
:100FE00000180240001C0240083C01400AB1816127
:100FF00001E00B04836170470148006870470000FE
:101000001800002003480068034909780844014992
:1010100008607047180000202000002010B50D481F
:10102000006840F400700B4908600846006840F40E
:10103000806008600846006840F480700860032003
:1010400000F0DCF8002000F007F800F05FF8002066
:1010500010BD0000003C02402DE9F04188B004467C
:101060000027B84600BF002001902348006840F0E8
:101070001000214908600846006800F01000019047
:1010800000BF00BF02A903A800F08EF9069F1FB998
:1010900000F0B2F9054602E000F0AEF9450017484D
:1010A000B5FBF0F0A0F1010815481649086040F2C0
:1010B000E7311448C160C0F80480002101618160FB
:1010C000816100F0BBFC064696B90E4800F0EAFCD0
:1010D00006466EB9362000F043F8102C07D20022E5
:1010E0002146362000F04CF80748046000E0012655
:1010F000304608B0BDE8F0814038024040420F0061
:1011000000100040FC0400201C00002008B500BFB7
:10111000002000901148006840F480400F490860AA
:101120000846006800F48040009000BF00BF00BF88
:1011300000200090081F006840F08050091F0860E0
:101140000846006800F08050009000BF00BF0022F9
:101150000F21901E00F014F808BD00004438024032
:1011600001460846002809DB00F01F0301229A40CF
:1011700043099B0003F1E023C3F8002100BF70473F
:101180002DE9F05F80460D461646002703F044F82F
:10119000074639462A46334601F00700C0F1070AE0
:1011A000BAF1040F02D94FF0040A01E0C0F1070AB6
:1011B000D14600F1040ABAF1070F02D24FF0000A3B
:1011C00001E0A0F1030AD4464FF0010A0AFA09FA35
:1011D000AAF1010A0AEA020A0AFA0CFA4FF0010B14
:1011E0000BFA0CFBABF1010B0BEA030B4AEA0B0405
:1011F0002146404603F018F8BDE8F09F00BF00F01C
:101200000702064B19684FF6FF031940044B0B43C6
:1012100043EA0221014B196000BF70470CED00E06A
:101220000000FA0570B504460D460CB9012070BDEA
:101230005848006800F00700A84209D255490D70CF
:101240000846006800F00700A84201D00120EEE740
:10125000207800F0020002281DD1207800F0040060
:10126000042805D14C48006840F4E0504A49086021
:10127000207800F00800082805D14748006840F4AD
:101280006040454908604448006820F0F000A168CB
:10129000084341490860207800F00100A8B3606865
:1012A000012807D13C4808380068C0F34040B8B96D
:1012B0000120BCE76068022802D06068032807D1DB
:1012C000354808380068C0F3406048B90120AEE7EF
:1012D000314808380068C0F3400008B90120A6E78B
:1012E0002D48006820F00300616808432A4908601F
:1012F000FFF782FE064609E0FFF77EFE801B41F203
:101300008831884202D9032091E707E0224800682B
:1013100000F00C006168B0EB810FEDD11D48006852
:1013200000F00700A84209D91A490D700846006864
:1013300000F00700A84201D0012078E7207800F0F3
:101340000400042807D11448006820F4E050E16844
:10135000084311490860207800F00800082808D1E7
:101360000D48006820F46040216940EAC1000A4944
:10137000086000F061F808490968C1F30311074AE1
:10138000515CC8400649086006480068FFF764FEE3
:1013900000204CE7003C02400838024090830008DF
:1013A000240000201C0000200F2202600D4A126859
:1013B00002F0030242600B4A126802F0F0028260FF
:1013C000084A126802F4E052C260064A126802F447
:1013D0006042D2080261044A126802F007020A6001
:1013E0007047000008380240003C02400148006895
:1013F000704700002400002000B5FFF7F7FF044904
:101400000968C1F38221034A515CC84000BD000055
:1014100008380240A083000800B5FFF7E7FF044941
:101420000968C1F34231034A515CC84000BD000065
:1014300008380240A08300082DE9F0470024002569
:101440000026A1462548006800F00C0020B10428C1
:1014500005D008283AD105E0DFF8849039E0DFF8BC
:10146000849036E01D48001F006800F03F041B48D0
:10147000001F006800F4800078B11A481749091F5E
:101480000968C1F38811A0FB0170014622460023C0
:101490003846FEF7F7FE05460EE011480F49091FD2
:1014A0000968C1F38811A0FB0170014622460023A0
:1014B0003846FEF7E7FE05460848001F0068C0F3FF
:1014C0000140401C4600B5FBF6F902E0DFF8109041
:1014D00000BF00BF4846BDE8F08700000838024062
:1014E0000024F40000127A00F8B504460CB901207B
:1014F000F8BD207800F00100002874D0F948006899
:1015000000F00C0004280DD0F648006800F00C0034
:10151000082813D1F348001F006800F48000B0F5DC
:10152000800F0BD1EF4808380068C0F34040002816
:1015300059D06068002856D10120D9E700BF606803
:10154000B0F5803F08D1E7480838006840F48030A3
:10155000E449083908601EE06068B0F5A02F0DD19D
:10156000E0480838006840F48020DE490839086007
:101570000846006840F4803008600CE0D94808381C
:10158000006820F48030D7490839086008460068B0
:1015900020F48020086000BF606890B1FFF72CFD48
:1015A000054606E0FFF728FD401B642801D903200B
:1015B0009EE7CC4808380068C0F340400028F1D0CE
:1015C00011E0FFF719FD054606E0FFF715FD401B8A
:1015D000642801D903208BE7C24808380068C0F3AB
:1015E00040400028F1D1207800F0020002285FD1AD
:1015F000BC48006800F00C0058B1BA48006800F020
:101600000C0008281CD1B748001F006800F48000B7
:10161000B0B9B44808380068C0F3400020B1E068B1
:10162000012801D0012063E7AE480838006820F0A7
:10163000F800216940EAC100AA490839086037E08A
:10164000E06800B30120A8490860FFF7D5FC054613
:1016500006E0FFF7D1FC401B022801D9032047E731
:10166000A04808380068C0F340000028F1D09D4829
:101670000838006820F0F800216940EAC100994963
:101680000839086014E0002097490860FFF7B4FCAF
:10169000054606E0FFF7B0FC401B022801D90320F5
:1016A00026E7904808380068C0F340000028F1D1D0
:1016B000207800F0080008282CD16069A8B101202A
:1016C0008A490860FFF798FC054606E0FFF794FC9E
:1016D000401B022801D903200AE782486C300068C9
:1016E000C0F340000028F1D014E000207F490860DA
:1016F000FFF782FC054606E0FFF77EFC401B022850
:1017000001D90320F4E677486C300068C0F340004C
:101710000028F1D1207800F00400042870D10027BF
:1017200070483830006800F0805090B900BF002049
:1017300000906C483830006840F08050694938317A
:1017400008600846006800F08050009000BF00BFAD
:1017500001276748006800F48070B0B964480068E9
:1017600040F4807062490860FFF746FC054606E0D9
:10177000FFF742FC401B022801D90320B8E65C4871
:10178000006800F480700028F2D000BFA068012833
:1017900008D154486830006840F001005149683170
:1017A00008601DE0A06805280DD14E48683000682B
:1017B00040F004004B49683108600846006840F07A
:1017C000010008600CE047486830006820F0010024
:1017D0004449683108600846006820F00400086049
:1017E00000BFA068A8B1FFF707FC054609E0FFF7B6
:1017F00003FC401B41F28831884202D9032077E67E
:1018000026E0384868300068C0F340000028EED079
:1018100013E0FFF7F1FB054608E0FFF7EDFB401B87
:1018200041F28831884201D9032061E62D486830B1
:101830000068C0F340000028EFD1012F07D12948EC
:101840003830006820F0805026493831086000BFE9
:10185000A069002845D02348006800F00C00082843
:101860005DD0A069022845D100201F490866FFF716
:10187000C3FB054606E0FFF7BFFB401B022801D96A
:10188000032035E6174808380068C0F34060002898
:10189000F1D1D4E907010843616A40EA81110122CC
:1018A000A06AC2EB500041EA00412C20005D41EAF1
:1018B00000600C49091F086001200B490866FFF70A
:1018C0009BFB054606E0FFF797FB401B022801D96A
:1018D00003200DE6034808380068C0F34060002884
:1018E000F1D049E00838024000004742800E4742EC
:1018F00000700040002021490866FFF77DFB054687
:1019000006E0FFF779FB401B022801D90320EFE531
:101910001B480068C0F340600028F2D12CE0A069A9
:10192000012800D1E4E51648001D0668A0690128D9
:1019300020D006F48001E06981421BD106F03F010E
:10194000206A814216D147F6C0703040616AB0EB20
:10195000811F0FD106F440310122A06AC2EB500072
:10196000B1EB004F06D106F070612C20005DB1EBA9
:10197000006F01D00120BBE50020B9E5000047421F
:10198000003802407047704730B502460B4600BF32
:1019900092F83C00012801D1022030BD012082F8DC
:1019A0003C0000BF022082F83D00106844681068C7
:1019B000816824F070041868044310684460184D6E
:1019C0001068A8421BD01068B0F1804F17D0154D99
:1019D0001068A84213D0144D1068A8420FD0134DC0
:1019E0001068A8420BD0124D1068A84207D0114DC4
:1019F0001068A84203D0104D1068A84205D121F00C
:101A000080015868014310688160012082F83D0020
:101A100000BF002082F83C0000BF00BFBDE700000F
:101A2000000001400004004000080040000C00409D
:101A300000040140004001400018004010B5044679
:101A40000CB9012010BD94F83D0028B9002084F89D
:101A50003C00204600F025F8022084F83D00211DBE
:101A6000206801F0EFFE012084F8460000BF84F8F2
:101A70003E0001213F2001554020015541200155E4
:101A800000BF00BF012084F84200432001554420DC
:101A900001554520015500BF012084F83D0000207C
:101AA000D0E77047014691F83D00012801D00120A0
:101AB0007047022081F83D000868C06840F00100CE
:101AC0000B68D8601A4B086898421BD00868B0F1C0
:101AD000804F17D0174B0868984213D0164B0868F0
:101AE00098420FD0154B086898420BD0144B0868E9
:101AF000984207D0134B0868984203D0124B0868ED
:101B000098420CD10868806800F00702062A0CD0C1
:101B10000868006840F001000B68186005E008687C
:101B2000006840F001000B6818600020C0E700006A
:101B3000000001400004004000080040000C00408C
:101B40000004014000400140001800402DE9F04130
:101B500004460D4614B90120BDE8F08194F83D001B
:101B600028B9002084F83C00204600F053F80220F9
:101B700084F83D002068806844F2070188432168AA
:101B80008860211D206801F05DFE2068D0F8088083
:101B9000206886692068076A286840EA080840F2D9
:101BA00003308643A969A86840EA0120064340F64D
:101BB0000C4086434FF2F0008643E969E86840EA4A
:101BC0000120064328690001296A40EA01300643E2
:101BD00027F0220727F088076969686840EA011042
:101BE00007432068C0F80880206886612068076283
:101BF000012084F8460084F83E0001213F20015571
:101C0000012084F8420043200155012084F83D0062
:101C10000020A1E710B586B00446142101A8FEF704
:101C20007BFB36492068884230D100BF00200090FD
:101C30003348006840F001003149086008460068F8
:101C400000F00100009000BF00BF00BF0020009026
:101C50002B481438006840F01000294914390860F6
:101C60000846006800F01000009000BF00BF4FF46D
:101C70002060019002200290002003900490012037
:101C8000059001A91F48FFF7B7F834E02068B0F1CC
:101C9000804F30D100BF002000901948001F00681D
:101CA00040F001001649091F08600846006800F06E
:101CB0000100009000BF00BF00BF0020009010484E
:101CC0001438006840F001000D49143908600846D6
:101CD000006800F00100009000BF00BF03200190E9
:101CE000022002900020039004900120059001A999
:101CF0000548FFF781F806B010BD00000000014064
:101D00004438024000100240000002402DE9F04338
:101D100004460D4694F83E603F20075D94F84280EB
:101D2000432010F804906DB9012E02D1B8F1010FD3
:101D300002D00120BDE8F083022084F83E0084F840
:101D4000420025E0042D0CD1012F02D1B9F1010F81
:101D500001D00120EEE702213F200155432001552B
:101D600016E0012E07D1012F05D1B8F1010F02D1E4
:101D7000B9F1010F01D00120DCE7022084F83E0018
:101D800002213F200155022084F8420043200155E2
:101D900015B1042D0CD105E001220021206801F0CD
:101DA000BDFD10E001220421206801F0B7FD0AE02A
:101DB00001220021206801F0B1FD012204212068E8
:101DC00001F0ACFD00BF00BF2068006840F00100DA
:101DD000216808600020ADE7704710B50446206810
:101DE0000069C0F34000D8B12068C068C0F340006B
:101DF000B0B16FF0020021680861012020772068EF
:101E0000806900F0030018B12046FFF7E5FF05E008
:101E1000204600F003F9204600F0E6F90020207784
:101E200020680069C0F38000D8B12068C068C0F3A2
:101E30008000B0B16FF004002168086102202077B3
:101E40002068806900F4407018B12046FFF7C4FF95
:101E500005E0204600F0E2F8204600F0C5F9002039
:101E6000207720680069C0F3C000D8B12068C0683E
:101E7000C0F3C000B0B16FF0080021680861042011
:101E800020772068C06900F0030018B12046FFF7F2
:101E9000A3FF05E0204600F0C1F8204600F0A4F9B9
:101EA0000020207720680069C0F30010D8B12068B6
:101EB000C068C0F30010B0B16FF010002168086175
:101EC000082020772068C06900F4407018B12046CF
:101ED000FFF782FF05E0204600F0A0F8204600F062
:101EE00083F9002020772068006900F0010058B1D4
:101EF0002068C06800F0010030B16FF00100216877
:101F00000861204600F0F8F920680069C0F3C010AD
:101F100058B12068C068C0F3C01030B16FF08000C5
:101F2000216808612046FFF72DFD20680069C0F395
:101F3000801058B12068C068C0F3801030B16FF0D5
:101F4000400021680861204600F0E2F9206800693D
:101F5000C0F3401058B12068C068C0F3401030B1E1
:101F60006FF02000216808612046FFF70CFD10BDCE
:101F700010B586B00446142101A8FEF7CDF9224918
:101F8000206888421DD100BF002000901F480068D3
:101F900040F008001D4908600846006800F008008D
:101FA000009000BF00BF8814019002200290002022
:101FB000039004900220059001A91548FEF71CFF2C
:101FC00020E01449206888421CD100BF0020009006
:101FD0000E48006840F001000C490860084600689F
:101FE00000F00100009000BF00BF0420019002201B
:101FF00002900020039004900220059001A9064859
:10200000FEF7FAFE06B010BD00080040303802406E
:10201000000C0240000C00400000024070472DE917
:10202000F04104460D461646002700BF94F83C00D8
:10203000012802D10220BDE8F081012084F83C0093
:1020400000BF36B1042E1BD0082E31D00C2E5ED12D
:1020500045E02946206801F073FC2068806940F063
:102060000800216888612068806920F004002168E8
:10207000886120688069296908432168886148E08F
:102080002946206801F094FC2068806940F40060D3
:10209000216888612068806920F4806021688861F7
:1020A00020688069296940EA01202168886130E060
:1020B0002946206801F0BAFC2068C06940F0080099
:1020C0002168C8612068C06920F004002168C861E7
:1020D0002068C069296908432168C86119E0294658
:1020E000206801F0DFFC2068C06940F400602168CE
:1020F000C8612068C06920F480602168C8612068D8
:10210000C069296940EA01202168C86101E001270E
:1021100000BF00BF00BF002084F83C0000BF38466D
:1021200089E710B504460CB9012010BD94F83D00B4
:1021300028B9002084F83C00204600F025F8022051
:1021400084F83D00211D206801F07CFB012084F80B
:10215000460000BF84F83E0001213F200155402089
:1021600001554120015500BF00BF012084F8420005
:1021700043200155442001554520015500BF012051
:1021800084F83D000020D0E708B5144A0168914268
:102190000FD100BF002100911149096841F00401ED
:1021A0000F4A11601146096801F00401009100BF57
:1021B00013E00C4A016891420FD100BF0021009149
:1021C0000749096841F00801054A1160114609688C
:1021D00001F00801009100BF00BF08BD00080040E9
:1021E00040380240000C00407047000070B50446C3
:1021F0000D4615B994F83E000BE0042D02D13F20A6
:10220000005D06E0082D02D14020005D01E0412084
:10221000005D012801D0012070BD1DB9022084F8A5
:102220003E000EE0042D03D102213F20015508E0BD
:10223000082D03D102214020015502E00221412056
:10224000015501222946206801F068FB23492068D6
:10225000884203D022492068884201D1012000E051
:10226000002028B12068406C40F400402168486498
:102270001A49206888421BD02068B0F1804F17D0DF
:1022800018492068884213D01749206888420FD027
:102290001649206888420BD011492068884207D02F
:1022A00013492068884203D01249206888420CD123
:1022B0002068806800F00706062E0CD020680068B1
:1022C00040F001002168086005E02068006840F0E7
:1022D00001002168086000209EE700000000014026
:1022E000000401400004004000080040000C0040D1
:1022F000004001400018004010B504460349206822
:10230000884201D1FEF77EFE10BD000000100040A3
:1023100070477047704700002DE9F84F0446206869
:1023200005682068C668206847694FF00009CA46FA
:1023300005F00F09B9F1000F0AD105F0200038B1FE
:1023400006F0200020B1204601F072FCBDE8F88FB5
:10235000B9F1000F7CD007F0010018B906F49070B5
:10236000002875D005F0010030B106F4807018B176
:10237000206C40F00100206405F0040030B107F04B
:10238000010018B1206C40F00200206405F002004A
:1023900030B107F0010018B1206C40F00400206457
:1023A00005F0080048B106F0200010B907F0010060
:1023B00018B1206C40F008002064206C002846D042
:1023C00005F0200028B106F0200010B1204601F0F1
:1023D0002FFC20684069C0F3801A206C00F00800D0
:1023E00010B9BAF1000F2DD0204601F0DBFB2068B8
:1023F000406900F04000402820D100BF00BF2168A4
:10240000143151E8001F21F040002168143141E8E7
:102410000002002AF3D100BFA06B50B17548A16B38
:102420000865A06BFEF7D4FC88B1A06B016D8847EE
:102430000DE02046FFF76EFF09E009E02046FFF7B8
:1024400069FF04E02046FFF765FF002020647DE778
:10245000206B012876D105F01000002872D006F01C
:1024600010000028FAD000BF00200090206800680B
:10247000009020684068009000BF00BF206840695D
:1024800000F0400040285ED1A06B006840681FFA51
:1024900080F8B8F1000F54D0A08D404551DDA4F86C
:1024A0002E80A06BC069B0F5807F43D000BF00BF15
:1024B00021680C3151E8001F21F4807021680C3133
:1024C00041E80002002AF3D100BF00BF00BF21682D
:1024D000143151E8001F21F001002168143141E856
:1024E0000002002AF3D100BF00BF00BF21681431F1
:1024F00051E8001F21F040002168143141E800023A
:10250000002AF3D100BF202084F83E000020206381
:1025100000BF00BF21680C3151E8001F21F01000FE
:1025200021680C3141E80002002AF3D100BFA06B02
:10253000FEF7F8FBA08DE28D801A81B22046FFF7EE
:10254000E8FE03E740E0A08DE18D401A1FFA80F815
:10255000E08DC0B3B8F1000F35D000BF00BF2168D7
:102560000C3151E8001F21F4907021680C3141E8D2
:102570000002002AF3D100BF00BF00BF2168143160
:1025800051E8001F21F001002168143141E80002E8
:10259000002AF3D100BF202084F83E0000202063F1
:1025A00000BF00BF21680C3151E8001F21F010006E
:1025B00021680C3141E80002002AF3D100BF4146F6
:1025C0002046FFF7A6FEC1E605F0800030B106F018
:1025D000800018B1204601F0E2FCB7E605F04000AB
:1025E00030B106F0400018B1204601F011FBADE615
:1025F00000BFABE6913B000810B504460CB90120C2
:1026000010BDA06900B100E000BF94F83D0028B9FA
:10261000002084F83C00204600F028F8242084F8AC
:102620003D002068C06820F400502168C860204642
:1026300001F07AFB2068006920F49040216808616D
:102640002068406920F02A00216848612068C0683D
:1026500040F400502168C86000202064202084F8E5
:102660003D0084F83E000020CAE7000010B586B0A7
:102670000446142101A8FDF74FFE22492068884234
:102680003ED100BF002000901F48006840F01000BD
:102690001D4908600846006800F01000009000BF67
:1026A00000BF00BF0020009017481438006840F0B9
:1026B00001001549143908600846006800F001005F
:1026C000009000BF00BF4FF4C06001900220029054
:1026D00000200390032004900720059001A90B48D7
:1026E000FEF78AFB002205212520FEF749FD252063
:1026F000FEF736FD2068C06840F020002168C86001
:1027000006B010BD001001404438024000000240F5
:1027100070B504460D46164694F83E00202816D1A2
:1027200005B10EB9012070BD00BF94F83C0001282E
:1027300001D10220F7E7012084F83C0000BF00200F
:10274000206332462946204601F004FCEBE70220D4
:10275000E9E7000010B504461B492068884231D1E2
:1027600021221A491A48FFF7D3FF18480078FE289B
:1027700005D118480078401C1649087002E0002076
:102780001449087013480078212816D10F480068B2
:10279000B0F1FE3F0ED10D4890F82000EE2809D18F
:1027A0000A48C06800EE900A0848406800EE100A27
:1027B00000F0A4F9002007490870212203490448C9
:1027C000FFF7A6FF10BD0000001001409D42002051
:1027D000B804002014000020704700BFFEE700008E
:1027E00010B500200F4908600F48006820F4400031
:1027F0000D4908600846006840F480000860002029
:102800000A49C1F8AC02022002F09CFE01200549F1
:102810000860022002F096FE00200549C1F88002FF
:1028200010BD000080824142000802400000414289
:102830000080414200B587B000BF002001902248CF
:10284000006840F00400204908600846006800F075
:102850000400019000BF00BF00BF002001900846A7
:10286000006840F0080008600846006800F00800B2
:10287000019000BF00BF0122C9141448FEF7B6FB47
:10288000012211461248FEF7B1FB4FF4006002909E
:102890000120039004900320059002A90B48FEF745
:1028A000ABFA01200290039004900320059002A946
:1028B0000748FEF7A1FA0120064908600649C1F859
:1028C000AC0207B000BD00003038024000080240F2
:1028D000000C0240808241420000414210B50020BD
:1028E0000F4908600F48006820F440000D49086057
:1028F0000846006840F48000086001200A49C1F8D9
:10290000AC02022002F01EFE0120054908600220F0
:1029100002F018FE00200549C1F8800210BD000039
:102920008082414200080240000041420080414252
:1029300070B5054600241548006820F4400013498E
:102940000860084600680860002615E0002010496D
:102950000860022002F0F6FD01200E49C1F8800255
:102960006006040E0C48006808B1601CC4B2012067
:1029700002F0E8FD701CC6B2082EE7DB15B9FFF7C0
:10298000ADFF01E0FFF72CFF204670BD00080240BC
:1029900080824142008041422C02414270B504468F
:1029A0001448006820F44000124908600846006896
:1029B00040F48000086000200F490860002516E000
:1029C000E0090E4908606006040E022002F0BAFD1C
:1029D00001200B49C1F88002022002F0B3FD002063
:1029E00005490860022002F0ADFD681CC5B2082D43
:1029F000E6DB70BD0008024080824142AC024142E9
:102A00000080414210B50F48006820F440000D4995
:102A100008600846006840F48000086001200A4908
:102A200008600A49C1F88002042002F08BFD0020F2
:102A300005490860042002F085FD00200349C1F823
:102A4000800210BD00080240AC02414200804142B9
:102A500010B50F48006820F440000D490860084692
:102A6000006840F48000086000200A4908600A49B4
:102A7000C1F8AC02042002F065FD012005490860A0
:102A80000549C1F8AC02042002F05CFD10BD000055
:102A900000080240808241420000414210B50024FB
:102AA0001248006820F44000104908600846006899
:102AB000086001200E49086002F044FD01200D4924
:102AC000C1F8800202F03EFD07E0601CC4B2FA2C9F
:102AD00003DDFFF7BDFF012010BD05488038006809
:102AE0000028F2D10449086000BFF5E70008024061
:102AF000AC0241420080414280824142B5EEC00AB0
:102B0000F1EE10FA14D19FED1E1A20EE811AF0EEAC
:102B1000001A81EE212A1B4880ED022A90ED021A4C
:102B2000FFEE001A21EE211A174880ED021A25E067
:102B3000F5EEC00AF1EE10FA06D1134880ED020A54
:102B4000104880ED020A19E09FED0D1A60EE811A1F
:102B5000B0EE002A81EE821A30EE411A0A4880ED6A
:102B6000021A9FED071A60EE811AB0EE002A81EE7C
:102B7000821A31EE001A034880ED021A70470000F5
:102B80003333333E644200204C42002010B5FFF73F
:102B900051FE80216B2000F0ECF8642002F0C6FCAE
:102BA00000216B2000F0E5F8032000F0A0F80020E1
:102BB00000F095F8322000F0BFF80021382000F036
:102BC000D8F800216A2000F0D4F8FF21232000F07B
:102BD000D0F88021372000F0CCF8752000F028F8DC
:102BE000044621460AA001F0EFFA692C0BD12146D8
:102BF0000AA001F0E9FA00216C2000F0BAF83220B6
:102C000000F09AF801E0012010BD0020FCE7000070
:102C10004144443A2025640A000000006D70753676
:102C20003035305F616464723A2025640A00000028
:102C300070B50446FFF7E6FED220FFF7AFFEFFF7C0
:102C40002DFF2046FFF7AAFEFFF728FFFFF7DAFE69
:102C5000D320FFF7A3FEFFF721FF0020FFF768FE58
:102C60000546FFF7F5FE284670BD2DE9F041064602
:102C70000F4614461D46FFF7C5FE002141EA4601F6
:102C8000C8B2FFF78BFEFFF709FF20B1FFF7E0FEA8
:102C90000120BDE8F0813846FFF780FEFFF7FEFE19
:102CA000FFF7B0FE012101EB4601C8B2FFF776FE47
:102CB000FFF7F4FE0DE0012C04D10020FFF738FEF1
:102CC000287003E00120FFF733FE2870601EC4B2B5
:102CD0006D1C002CEFD1FFF7BBFE0020D9E710B52B
:102CE0000446E006010E1C2000F043F810BD10B5AC
:102CF0000446E006010E1B2000F03BF810BD70B545
:102D000004460025BC2C01DB012510E0622C01DB10
:102D100002250CE02A2C01DB032508E0142C01DB42
:102D2000042504E00A2C01DB052500E006252946E0
:102D30001A2000F01EF870BD70B50446B4F57A7F15
:102D400001DD4FF47A74042C00DA04244FF47A7015
:102D500090FBF4F0401EC5B22946192000F009F896
:102D60000546264604EBD671C1F34F00FFF7C7FFB7
:102D700070BD70B505460C46FFF744FED220FFF744
:102D80000DFEFFF78BFE18B1FFF762FE012070BD4C
:102D90002846FFF703FEFFF781FE2046FFF7FEFD02
:102DA000FFF77CFE18B1FFF753FE0120EFE7FFF7B6
:102DB0004FFE0020EBE72DE9F04105460E46174691
:102DC0009846FFF71FFE002141EA4501C8B2FFF710
:102DD000E5FDFFF763FE20B1FFF73AFE0120BDE8F5
:102DE000F0813046FFF7DAFDFFF758FE00240CE0D3
:102DF00018F80400FFF7D2FDFFF750FE18B1FFF7F7
:102E000027FE0120EBE7601CC4B2BC42F0DBFFF7F9
:102E10001FFE0020E3E7000000B5A1B01E4B0FCB62
:102E2000CDE91F23CDE91D0100211DA804F025F9DE
:102E30001A4908601C221849103116A8FDF753FAE8
:102E4000002116A804F02DF9154908601C2212492A
:102E50002C310FA8FDF747FA00210FA804F021F943
:102E6000104908601C220C49483108A8FDF73BFABC
:102E7000002108A804F015F90B4908601C22064936
:102E8000643101A8FDF72FFA002101A804F009F927
:102E90000649086021B000BD108300081000002022
:102EA0000000002004000020080000200C0000208A
:102EB00000B587B0142102A8FDF72EFA00BF00204C
:102EC00001904748006840F0800045490860084686
:102ED000006800F08000019000BF00BF00BF00202C
:102EE00001900846006840F0040008600846006849
:102EF00000F00400019000BF00BF00BF002001905F
:102F00000846006840F0010008600846006800F0CC
:102F10000100019000BF00BF00BF002001900846E3
:102F2000006840F0100008600846006800F01000DB
:102F3000019000BF00BF00BF00200190084600685C
:102F400040F0080008600846006800F008000190A2
:102F500000BF00BF002240F608012248FEF746F8F5
:102F6000002208212048FEF741F800224FF440419A
:102F70001E48FEF73BF8002201211D48FEF736F8F7
:102F800040F6080002900120039000200490059074
:102F900002A91448FDF730FF082002900120039099
:102FA00000200490059002A90F48FDF725FF4FF47B
:102FB000404002900120039000200490059002A957
:102FC0000A48FDF719FF01200290039000200490A9
:102FD000059002A90648FDF70FFF07B000BD0000ED
:102FE0003038024000080240000002400010024059
:102FF000000C024000B58BB0242102A8FDF78CF92B
:10300000002000900190184818490860002048608E
:103010000021164881604FF6FF71C16000210161F7
:1030200041618161032002900020039001200490FF
:10303000002005900690079001200890002009903C
:103040000A9002A90948FEF781FD08B1FDF767FE65
:1030500000200090019069460448FEF795FC08B1F5
:10306000FDF75DFE0BB000BD00000140980300209D
:1030700000B58BB0242102A8FDF74EF90020009086
:1030800001904FF0804017490860002048600021FF
:10309000144881604FF6FF71C160002101618161B8
:1030A000032002900020039001200490002005904E
:1030B0000690079001200890002009900A9002A92C
:1030C0000848FEF743FD08B1FDF729FE00200090F7
:1030D000019069460348FEF757FC08B1FDF71FFE53
:1030E0000BB000BDE003002000B589B000200790C0
:1030F00008901C216846FDF70FF918481849086028
:10310000002048600021164881604FF4FA51C160E8
:10311000002101618161FFF704F808B1FDF7FFFDAF
:1031200000200790089007A90D48FEF72DFC08B174
:10313000FDF7F5FD602000900020019002900490C2
:10314000002269460648FEF76AFF08B1FDF7E7FD71
:103150000348FEF70DFF09B000BD00000008004065
:103160002804002000B589B00020079008901C2199
:103170006846FDF7D1F818481849086000204860F3
:103180000021164881604FF4FA51C16000210161AD
:103190008161FEF7C6FF08B1FDF7C1FD0020079071
:1031A000089007A90D48FEF7EFFB08B1FDF7B7FD42
:1031B000602000900020019002900490082269464F
:1031C0000648FEF72CFF08B1FDF7A9FD0348FEF7FE
:1031D000CFFE09B000BD0000000C004070040020CC
:1031E00010B50B480B4908604FF4E13048600021EE
:1031F00008488160C16001610C2141610021816149
:10320000C161FFF7F9F908B1FDF789FD10BD0000B4
:1032100000100140B804002000BFFEE710B52DEDFE
:10322000088BB0EE409AF0EE609A04469FED640A77
:10323000B0EE408A9FED620AF0EE408A9FED600A90
:10324000B0EE40AA9FED5E0AF0EE40AA9FED5C0A48
:10325000B0EE40BA022C53D139EEC90AB0EE408A22
:10326000F0EE488A574890ED040A38EE400AB0EE76
:1032700040AAD0ED040AB0EE001AB0EE480A01EE02
:10328000600AD0ED050A30EE200AF0EE40AA9FED6C
:103290004E0A28EE800ADFED4D0A00EE8A0ADFEDC5
:1032A0004C0A00EEAA0AB0EE40BAB0F90C0000EEEB
:1032B000100AB8EEC00A30EE0B0ABDEEC00A10EEDE
:1032C000100A00B23F498881084690ED040A80ED5B
:1032D000050A80ED048AB0F90C0040F2B63188424C
:1032E00003DD0846374988815FE03648B0F90C00B5
:1032F0003849884259DA4FF64A403249888154E0C9
:10330000032C52D139EEC90AB0EE408AF0EE488A59
:10331000314890ED040A38EE400AB0EE40AAD0EDF4
:10332000040AB0EE001AB0EE480A01EE600AD0EDD1
:10333000050A30EE200AF0EE40AA9FED230A28EE9F
:10334000800ADFED220A00EE8A0ADFED210A00EE94
:10335000AA0AB0EE40BAB0F90C0000EE100AB8EEBE
:10336000C00A30EE0B0ABDEEC00A10EE100A00B221
:1033700019498881084690ED040A80ED050A80ED20
:10338000048AB0F90C0040F2B631884203DD0846E9
:103390001149888109E01048B0F90C000D498842B4
:1033A00003DA4FF64A400C4988810B4AB2F90C10F7
:1033B000044AB2F90C0000F0D1F8BDEC088B10BD46
:1033C000000000004C42002066E6614300002543F7
:1033D0000000DC424AFCFFFF6442002000BFFEE721
:1033E00010B5024641F2A86044421368A34201DAD4
:1033F000434213601368834200DD106044420B684F
:10340000A34201DA43420B600B68834200DD08608F
:1034100010BD00000146012902D0022910D106E0AA
:10342000094A526A10B20022074B5A620AE04FF072
:103430008042526A10B200224FF080435A6201E08B
:10344000002000BF00BF70470000014000B5012010
:10345000FFF7E0FF184908600220FFF7DBFF40425A
:1034600016490860144890ED000AB8EEC00ADFED76
:10347000140A80EE201A9FED130A21EE000ADFEDF8
:10348000120A80EE201AB1EE410A80ED010A0846C8
:1034900090ED000AB8EEC00ADFED090A80EE201AAE
:1034A0009FED080A21EE000ADFED070A80EE201AE0
:1034B00080ED011A00BD00004C4200206442002053
:1034C000004069443488573ECDCCCC3D00B5002245
:1034D0004FF0FE301B490860EE2081F820001A48AA
:1034E00090ED010A1948D0ED010A70EE200AB0EE05
:1034F000001A80EE810A10EE100A48609FED140A4F
:1035000010EE100A8860104890ED010A0F48D0EDC7
:10351000010A70EE600A9FED0F1A80EE810A10EE2C
:10352000100AC8609FED0C0A10EE100A086100BF77
:1035300005E00449885C00F071FD501CC2B2212AEC
:10354000F7DB00BD7C4200204C420020644200209A
:10355000000000003333333E0000C84270B52DED4B
:10356000088B04460D46002C0BDD0122D1033E489A
:10357000FDF73CFD00224FF400513B48FDF736FDBE
:103580000AE000224FF400413748FDF72FFD0122E9
:1035900051033548FDF72AFD261E01DB314600E0C8
:1035A00071420846FDF758F841EC1B0B9FED2F0BBD
:1035B00053EC102BFCF76FFF41EC190B2D48006802
:1035C000FDF74AF841EC1A0B53EC192BFCF7BCFE43
:1035D00041EC180BFDF751F827490860002D0ADD72
:1035E000012208212548FDF701FD00220821244879
:1035F000FDF7FCFC09E0002208212048FDF7F6FC5D
:10360000012208211E48FDF7F1FC2E1E01DB314688
:1036100000E071420846FDF71FF841EC1B0B9FEDDF
:10362000130B53EC102BFCF736FF41EC190B114830
:103630000068FDF711F841EC1A0B53EC192BFCF75D
:1036400083FE41EC180BFDF718F80E4908600A4894
:1036500001680DA000F0B8FD0A4801680DA000F057
:10366000B3FDBDEC088B70BD00100240B81E85EBA9
:1036700051B8F23FB8000020340800400008024072
:10368000000002403C0C004050574D41203D202599
:10369000640A000050574D42203D2025640A000076
:1036A000FFF774FA00BF02F037FE0028FBD105A037
:1036B00000F08AFD00BFFDF765FAC82003F0CCFCDE
:1036C000F9E700005461736B5F494D555F6765749E
:1036D0000A00000000BF642003F0BEFCFBE700000E
:1036E00000BFFDF7C7F90E4890ED021AF0EE410A4F
:1036F00090ED011AB0EE410A0320FFF78FFD094853
:1037000090ED021AF0EE410A90ED011AB0EE410A76
:103710000220FFF783FD4FF47A7003F09DFCE0E791
:10372000644200204C42002000BFFDF75BFA4FF4DA
:103730007A7003F091FCF8E710B500BF502080F3D9
:103740001188BFF34F8FBFF36F8F00BF04F06EFC83
:1037500018B14FF080500449086000BF002080F38A
:10376000118800BF10BD000004ED00E000B593B06B
:10377000302107A8FCF7D0FD142102A8FCF7CCFDEE
:1037800000BF002001902448006840F0805022498A
:1037900008600846006800F08050019000BF00BF3C
:1037A00000BF002001901D48006840F480401B4984
:1037B00008600846006800F48040019000BF00BF28
:1037C000012007900004089002200D9041050E9101
:1037D00008210F914FF4A871109102211191042139
:1037E000129107A8FDF780FE08B1FDF798FA0F20A7
:1037F000029002200390002004904FF4A050059006
:103800004FF480500690052102A8FDF70BFD08B18A
:10381000FDF785FA13B000BD40380240007000404B
:103820000348006840F470000149086070470000D8
:1038300088ED00E010B50248FEF7CFFA10BD000099
:10384000FC04002010B50268294B98420ED0B0F15C
:10385000804F0BD0274B984208D0274B984205D079
:10386000264B984202D0264B984203D122F0700298
:103870004B681A431E4B984220D0B0F1804F1DD0A8
:103880001C4B98421AD01C4B984217D01B4B9842A5
:1038900014D01B4B984211D01A4B98420ED01A4BA1
:1038A00098420BD0194B984208D0194B984205D03A
:1038B000184B984202D0184B984203D122F4407220
:1038C000CB681A4322F080034C6943EA0402026089
:1038D0008B68C3620B688362054B984202D0084B29
:1038E000984201D10B6903630123436110BD0000BD
:1038F000000001400004004000080040000C0040AF
:1039000000040140004001400044014000480140E3
:1039100000180040001C00400020004030B501F0BD
:103920001F05012404FA05F3046A9C430462046A37
:1039300001F01F0502FA05F52C43046230BD0000BA
:1039400030B5056A25F001050562026A436884699D
:1039500024F0700424F003040D682C4322F00202CA
:103960008D682A43104DA84200D103E00F4DA842B4
:1039700006D100BF22F00802CD682A4322F00402DB
:10398000094DA84202D0094DA84207D123F4807303
:1039900023F400734D692B438D692B43436084618D
:1039A0004D684563026230BD0000014000040140E3
:1039B00030B5056A25F010050562026A436884691E
:1039C00024F4E04424F440740D6844EA052422F011
:1039D00020028D6842EA0512124DA84200D103E090
:1039E000114DA84207D100BF22F08002CD6842EA03
:1039F000051222F040020B4DA84202D00A4DA84207
:103A000009D123F4806323F400634D6943EA8503FD
:103A10008D6943EA8503436084614D688563026272
:103A200030BD0000000001400004014030B5056ACF
:103A300025F480750562026A4368C46924F0700445
:103A400024F003040D682C4322F400728D6842EACE
:103A50000522124DA84200D103E0114DA84207D122
:103A600000BF22F40062CD6842EA052222F480629F
:103A70000A4DA84202D00A4DA84209D123F480532E
:103A800023F400534D6943EA05138D6943EA051396
:103A90004360C4614D68C563026230BD00000140EF
:103AA0000004014030B5056A25F480550562036ABB
:103AB0004468C26922F4E04222F440720D6842EA8E
:103AC000052223F400538D6843EA0533084DA842CC
:103AD00002D0084DA84204D124F480444D6944EA40
:103AE00085144460C2614D680564036230BD000006
:103AF000000001400004014010B52DED068BB0EE32
:103B0000408A18EE100AFCF7D1FD41EC1A0BB0EE1A
:103B10004A0AF0EE6A0A00F0B7FFB0EE409AF0EE03
:103B2000609A9FED150B53EC102B51EC190BFCF721
:103B3000D1FD18D201201249087001240022C103CE
:103B40001048FDF753FA002261030E48FDF74EFAC4
:103B5000002208210C48FDF749FA002208210B48F1
:103B6000FDF744FA00E000240020054908702046D3
:103B7000BDEC068B10BD00000000000000005440AA
:103B8000E400002000100240000802400000024053
:103B900070B50546AC6B0020E085E0842046FEF75A
:103BA000B9FB70BD00BF00BF02680C3252E8002FA5
:103BB00022F4907102680C3242E80013002BF3D11A
:103BC00000BF00BF00BF0268143252E8002F22F08D
:103BD00001010268143242E80013002BF3D100BF48
:103BE000016B01290ED100BF00BF02680C3252E800
:103BF000002F22F0100102680C3242E80013002B63
:103C0000F3D100BF202180F83E10002101637047EE
:103C100010B504462068C06820F040002168C860E4
:103C2000202084F83D002046FEF7D6FD002010BD80
:103C3000F8B5044694F83E00222873D1A068B0F588
:103C4000805F0CD1206950B90025A66A20684068C1
:103C5000C0F308003080A06A801CA06215E0A56A4D
:103C60000026A068B0F5805F03D0A06828B920695D
:103C700018B920684068287004E02068406800F0A7
:103C80007F002870A06A401CA062E08D401E80B2B8
:103C9000E085002844D12068C06820F02000216819
:103CA000C8602068C06820F480702168C8602068FF
:103CB000406920F0010021684861202084F83E001E
:103CC000206B012826D10020206300BF00BF21689F
:103CD0000C3151E8001F21F0100021680C3141E83F
:103CE0000002002AF3D100BF2068006800F0100035
:103CF00010280AD100BF00200090206800680090C2
:103D000020684068009000BF00BFA18D2046FEF7EC
:103D100000FB02E02046FEF71DFD0020F8BD01E09B
:103D20000020FBE70220F9E72DE9F84F0446206860
:103D3000006920F44050E168084321680861216966
:103D4000A068084361690843E1690843009020685E
:103D5000C06849F20C618843009908432168C86033
:103D60002068406920F44070A169084321684861D7
:103D700076492068884203D075492068884203D17B
:103D8000FDF74AFB814602E0FDF736FB8146E0691C
:103D9000B0F5004F6CD102206168A0FB01500346D2
:103DA0001920A9FB007001462A463846FCF76AFA3A
:103DB0006421B0FBF1F04FEA001A02206168A0FB19
:103DC00001510B461920A9FB00712A463846FCF721
:103DD00059FA834602206168A0FB0150034619206E
:103DE000A9FB00712A463846FCF74CFA6421B0FB67
:103DF000F1F000EBC00101EB0010ABEB80003221D1
:103E000001EBC0006421B0FBF1F000F0F8000AEB18
:103E1000400A02206168A0FB015003461920A9FB5B
:103E2000007001462A463846FCF72CFA83460220E9
:103E30006168A0FB015003461920A9FB00712A46C6
:103E40003846FCF71FFA6421B0FBF1F000EBC0012B
:103E500001EB0010ABEB8000322101EBC0006421CC
:103E6000B0FBF1F000F007005044216888606AE080
:103E700004206168A0FB015003461920A9FB0070D3
:103E800001462A463846FCF7FDF98246042061685F
:103E9000A0FB015003461920A9FB007001462A46E9
:103EA0003846FCF7EFF96421B0FBF1F000EBC001FC
:103EB00001EB0010AAEB8000322101EB001064211D
:103EC000B0FBF1F000F0F00A04206168A0FB017083
:103ED00003461920A9FB00513A462846FCF7D2F9BF
:103EE0006421B0FBF1F00AEB001A04206168A0FB2A
:103EF00001510B461920A9FB00712A463846FCF7F0
:103F0000C1F9834604206168A0FB015003461920D3
:103F1000A9FB007001462A463846FCF7B3F9642134
:103F2000B0FBF1F000EBC00101EB0010ABEB800047
:103F3000322101EB00106421B0FBF1F000F00F0022
:103F4000504421688860BDE8F88F000000100140EF
:103F50000014014010B5034699629A85DA85002065
:103F60001864222083F83E0000BF002083F83C0044
:103F700000BF186928B11868C06840F480701C68D8
:103F8000E0601868406940F001001C6860611868D2
:103F9000C06840F020001C68E060002010BD0146B1
:103FA00091F83D00212828D18868B0F5805F0BD1B9
:103FB000086948B90A6A1088C0F308000B6858609D
:103FC000086A801C086205E00B6A581C08621878B1
:103FD0000B685860C88C401E80B2C88458B9086805
:103FE000C06820F080000B68D8600868C06840F0A6
:103FF00040000B68D860002070470220FCE70000FA
:1040000010B5212203490448FEF782FB0248FEF75F
:1040100083F910BD9D420020B804002000BF044970
:10402000096801F080010029F9D001494860704712
:104030000010014000BFFEE7DFED091A70EE611AC3
:10404000B0EE611A0749D1ED001A61EE811A91EDC7
:10405000022A40EE821AFDEEE11A11EE900A704734
:1040600000000000C000002070B52DED028B04465A
:104070000D46F0EE408AB0EE608A601900EE100A3C
:10408000B8EEC00A354880ED000A354890ED000AC8
:10409000DFED340A20EE200A80ED000A90ED000AE0
:1040A0002E48D0ED000A9FED301A00EE810A2C4810
:1040B00080ED000A2D4890ED000A2948D0ED000A55
:1040C00030EE200A294880ED000A90ED000A30EE1B
:1040D000480A80ED000A90ED000ADFED250AB4EEF3
:1040E000E00AF1EE10FA03DD9FED210A80ED000AEF
:1040F0001E4890ED000ADFED1F0AB4EEE00AF1EE73
:1041000010FA03D29FED1B0A80ED000A1A4890EDC9
:10411000030A1348D0ED000A20EE200A1648D0ED1D
:10412000040A124890ED001A01EE200A134880EDAF
:10413000000AB0EE680AFFF7DFFC012804D19FED0A
:10414000100A0A4880ED000A0C4890ED000ABDEE06
:10415000C00A10EE100ABDEC028B70BDEC0000200E
:10416000F0000020CDCC4C3FCDCC4C3EF4000020E4
:1041700000401C4600401CC6C0000020E800002093
:10418000000000000246A2F1400001EE100AB8EE65
:10419000C11AF0EE410A0B4890ED061AF1EE601AD2
:1041A00061EE211A90ED082A01EE101AB8EEC11A3C
:1041B00041EE421AB0EE610ABDEEC01A11EE100ACD
:1041C00070470000C00000200FB4054B10B503A9D4
:1041D000044A029800F0ECFD10BC5DF814FB0000EE
:1041E000195F00083C01002003B4019841000098C9
:1041F00050EAC12018BF04204A0D18BF40F001004A
:1042000040F2FF72B2EB515F08BF40F0020001289C
:1042100008BF052002B0704702480068C0F30220C2
:10422000704700000CED00E010B5002804DB0A0721
:10423000130E054A135406E00A07140E034A00F051
:104240000F031B1FD45410BD00E400E018ED00E084
:1042500070B5C1482DED020B2DED0E8B82B0119D76
:1042600025F000449FEDBEDB9FEDBFEB84423EDBBB
:10427000A4F140511098A1F17F6108430FD0BC48D0
:10428000844202DC28D1109830B39DED100B02B0AF
:10429000BDEC0E8B02B0BDE8704000F07BBC9DED24
:1042A000100B53EC1D2B51EC100BFCF7F4F89DEDAB
:1042B000100B41EC180B53EC1E2B51EC100BFCF7C0
:1042C000EAF853EC182BFCF73FF841EC100B02B066
:1042D000BDEC0E8B02B070BD012000F0A1FC02B05D
:1042E000BDEC0E8B02B0BDE8704000F069BCA14887
:1042F0009FEDA18B844256DA9DED100BB4F1795FEE
:104300000ADA51EC100BFFF76FFF042808BF00F02A
:1043100067FC9DED100BDAE753EC102B51EC100B02
:10432000FCF7B9F841EC190B95480621B0EE490AA3
:10433000F0EE690A784400F0B1FB53EC192B51EC14
:10434000100BFCF7A8F841EC1A0B8E48B0EE490AA6
:10435000F0EE690A0421784400F0A0FB53EC192B1D
:1043600051EC100BFCF797F853EC182BFBF7ECFF14
:1043700041EC100B51EC1A0B53EC102BFCF7FDF831
:10438000CDE900019DED000B53EC102B9DED100BC2
:1043900051EC100BFCF77FF89DED101B53EC112B2B
:1043A000FBF7D2FFD2E09DED100B51EC100B01F0AA
:1043B000A7FD53EC182BFCF76BF89FED730BCDE9C1
:1043C000000153EC102B9DED000B51EC100BFCF792
:1043D00062F841EC190B6E480621B0EE490AF0EE86
:1043E000690A784400F05AFB53EC192B51EC100B7E
:1043F000FCF751F841EC1B0B6648B0EE490AF0EEB1
:10440000690A0421784400F049FB53EC192B51EC64
:10441000100BFCF740F853EC182BFBF795FF41EC21
:104420001C0B51EC190B03F0C3F941EC180B5A4863
:104430009FED5BABA04222DC53EC1C2B51EC1B0B21
:10444000FCF79BF8CDE900019DED000B51EC180B3A
:1044500053EC102BFCF71FF853EC182BFBF774FFF1
:1044600053EC1A2BFCF717F853EC1D2BFCF70DF847
:1044700053EC1E2BFCF70CF841EC100B5FE08DEDBC
:10448000008B002000909DED000B51EC180B53ECBD
:10449000102BFBF759FF9DED000B41EC1E0B53EC6D
:1044A000102B51EC100BFBF7F6FF53EC192BFBF71D
:1044B000EFFF53EC1E2BFCF760F841EC190B53ECAB
:1044C0001C2B51EC1B0BFCF758F841EC1B0B53EC6D
:1044D0001A2B51EC190BFBF7DEFF53EC1D2BFBF7EE
:1044E000D7FF41EC190B53EC1A2B51EC180BFBF7CF
:1044F000D2FF53EC1B2BFBF7CEFF53EC192BFBF732
:10450000C4FF9DED000B41EC180B53EC1A2B51EC42
:10451000100BFBF7C0FF9FED249B53EC192BFBF70F
:10452000B7FF41EC100B51EC180B53EC102BFBF7C1
:10453000ACFF53EC192BFBF7ABFF41EC100B002D3C
:104540003FF7C5AE51EC100B81F0004141EC100B70
:10455000BDE60000000000000000F03F0000000089
:10456000075C143326A6913C182D4454FB21F93FD7
:104570000000F07F0000E03F000000000000F03F7E
:10458000B84C0000C64C0000000000000000E03FF6
:104590000A4C0000184C00003333EF3F00000000CD
:1045A0000000000000000040182D4454FB21E93FAA
:1045B00070B59B482DED020B2DED068B079D25F068
:1045C0000044A04218DC9748844202DC0AD10698D5
:1045D00040B19DED060BBDEC068B02B0BDE870400E
:1045E00000F0D8BA002DCCBF9FED8F0B9FED900B44
:1045F000BDEC068B02B070BD8F48A04215DD8F4820
:10460000A042D8BF4FF0FF3458DD9DED060B51ECB2
:10461000100BFFF7E9FD042808BF00F0E1FA9DED5B
:10462000060BBDEC068B02B070BD9DED060B51EC88
:10463000100B01F065FCCDE9060181489FED828BEE
:10464000A0423CDD8248A0421FDD00249FED82ABEA
:104650009DED060B53EC1A2B51EC100BFBF774FE7F
:104660009DED060B41EC190B53EC1A2B51EC100B82
:10467000FBF711FF53EC182BFBF707FF53EC192B3B
:10468000FBF77BFFCDE9060149E09DED060B012418
:1046900053EC182B51EC100BFBF756FE9DED060B5F
:1046A00041EC190B53EC182B51EC100BFBF7EDFE02
:1046B00053EC192BFBF761FFCDE906012FE06848A9
:1046C000A0421FDD02249FED689B9DED060B53EC7D
:1046D000192B51EC100BFBF7DEFE53EC182BFBF7FC
:1046E00033FE9DED060B41EC180B53EC192B51ECEE
:1046F000100BFBF7CAFE53EC182BFBF73EFFCDE97E
:1047000006010CE09DED060B032453EC102B9FEDEE
:10471000580B51EC100BFBF730FFCDE906019DED76
:10472000060B53EC102B51EC100BFBF7B4FE41ECD5
:10473000180B53EC182BFBF7AEFE41EC190B4E484F
:104740000621B0EE490AF0EE690A784400F0A6F9B5
:1047500053EC182B51EC100BFBF79DFE41EC180BA2
:104760004648B0EE490AF0EE690A0521784400F0A7
:1047700095F953EC192B51EC100BFBF78CFE41EC27
:10478000100B51EC180B53EC102B002C0EDAFBF72E
:10479000DBFD9DED061B53EC112BFBF77CFE9DED25
:1047A000061B53EC112BFBF773FE35E0FBF7CCFD3A
:1047B0009DED061B53EC112BFBF76DFE41EC100B2E
:1047C0002F48784400EBC40090ED001B51EC100B17
:1047D00053EC112BFBF759FE9DED061B53EC112BEF
:1047E000FBF753FE41EC100B2648784400EBC40065
:1047F00090ED001B51EC100B53EC112BFBF748FE16
:1048000041EC100B002DA2BFBDEC068B02B070BDB9
:1048100051EC100B81F0004141EC100B01E700005E
:10482000000010440000F07F182D4454FB21F93F94
:10483000182D4454FB21F9BF0000DC3F0000203E4E
:104840000000F33F00000000000000000000F03F07
:104850000000E63F000000000000000000000040F3
:104860000080034000000000000000000000F83F4E
:10487000000000000000F0BF5A490000104900008D
:104880009A4800005248000070B56F4E2DED040BA1
:104890002DED048B82B0DDF824C0DDE907235C42F6
:1048A0002CF000411C4341EAD474069D22F00040E4
:1048B000B44205D86C422C4340EAD474B4420BD9BC
:1048C0009DED081B9DED060B02B0BDEC048B04B002
:1048D000BDE8704000F068B9ACF14054A4F17F64C9
:1048E0001C430BD0022404EAAC7444EAD27405439E
:1048F0009FED578B9FED582B07D015E09DED060BD4
:1049000051EC100B00F0D7FD42E0002C11BF012C40
:104910009DED060B02B0BDEC048B04BF04B070BD6E
:10492000022C38D0032C3BD00B439FED4D1B9FED49
:104930004E0B0AD0B14218D1B04209D121F08041CA
:1049400020F08040099107900FE0002A15DA10E06E
:10495000474B7B44002C08BF93ED000B0DD0012C7E
:1049600010D0022C17D0032C1AD0B0421DD1002A2F
:1049700003DAB0EE410AF0EE610A02B0BDEC048B3E
:1049800004B070BD93ED000B51EC100B81F00041B1
:1049900041EC100BF1E7B0EE480AF0EE680AECE7E4
:1049A000B0EE420AF0EE620AE7E7401A00159FED0A
:1049B000329B3C28C8BF8DED000B17DCBCF1000F0B
:1049C000BCBF10F13C0F8DED009B0FDB9DED080B84
:1049D00053EC102B9DED060B51EC100BFBF7CDFDAE
:1049E00001F08EFA00F067FDCDE90001B4B1012CB1
:1049F00010D0022C9FED220B53EC102B9DED000BE1
:104A000051EC100B19D0FBF740FD53EC182BFBF7C2
:104A10003CFDBDE7019880F0004001909DED000B4A
:104A200053EC192B51EC100BFBF77CFF04BF022059
:104A300000F0F6F89DED000B9FE7FBF726FD53EC29
:104A4000182BFBF725FDA3E70000F07F0000000016
:104A5000182D4454FB210940182D4454FB2109C052
:104A6000182D4454FB21F9BF182D4454FB21F93F64
:104A7000824700000000000000000000000000006D
:104A8000075C143326A6A13C2DED020B019820F003
:104A9000004001909DED000B02B0704770B50446D8
:104AA0002DED028B4D1E00EBC500B0EE408AF0EEFE
:104AB000608A90ED000B35F0060017D053EC182BF0
:104AC00051EC100BFBF7E7FC41EC100B6D1E04EBF7
:104AD000C50090ED001B51EC100B53EC112BFBF7B4
:104AE00033FC41EC100B35F00600E7D1022D36D037
:104AF000042D1CD0062D1CBFBDEC028B70BD53ECE9
:104B0000182B51EC100BFBF7C6FC94ED0A1B53EC71
:104B1000112BFBF719FC53EC182BFBF7BCFC94EDA5
:104B2000081B53EC112BFBF70FFC41EC100B53EC63
:104B3000182B51EC100BFBF7AEFC94ED061B53EC5D
:104B4000112BFBF701FC53EC182BFBF7A4FC94EDA5
:104B5000040B53EC102BFBF7F7FB41EC100B53EC61
:104B6000182B51EC100BFBF796FC94ED021B53EC49
:104B7000112BFBF7E9FB53EC182BFBF78CFC94EDA6
:104B8000001B53EC112BFBF7DFFBBDEC028B41EC60
:104B9000100B70BD10B553EC102B51EC100BFBF744
:104BA000D3FB41EC100B10BD10B553EC112B51ECA5
:104BB000100BFBF7C9FB41EC100B10BD000000000F
:104BC0009FED050B10B553EC102B51EC100BFBF7C0
:104BD000D4FC41EC100B10BD0000000000000000F0
:104BE0009FED050B10B553EC102B51EC100BFBF7A0
:104BF00052FC41EC100B10BD000000000000001042
:104C000002E008C8121F08C1002AFAD17047704795
:104C1000002001E001C1121F002AFBD170470000F3
:104C20000149086070470000400100202DE9FF5F46
:104C300082B00021DDE90430020DDDF840B003430D
:104C400018D044F61050A2F2FF32424315141198C6
:104C500001281FD0A5EB0B00401C5FEA000A4FF0B3
:104C600000064E4FDFF83891B046504615D5CAF1D0
:104C7000000413E0119801244AA3012801D16FEA2E
:104C80000B010298119AC0E90031C0E9024206B056
:104C9000BDE8F09FCBF10000DFE704460021404A69
:104CA000491842EB0450CDE9001012E0E00707D0AC
:104CB00032463B4640464946FBF7EDFB8046894677
:104CC00032463B4610461946FBF7E5FB06460F46C3
:104CD0006410002CEAD1DDE90401DDE90023BAF11A
:104CE000000F06DAFBF7D7FB42464B46FBF7D3FB38
:104CF00005E0FBF742FC42464B46FBF73EFC044610
:104D00000E460022284BFBF7E5FC03D84FF0FF309E
:104D1000014607E00022254B20463146FBF714FBF5
:104D2000FBF7E7FD102409E0002C0ADB0A22002330
:104D3000FBF7A8FA039B30321A55641E50EA0102B1
:104D4000F2D1641C039AC4F111031444119A012A8C
:104D500003D0012208430DD10AE0084304D000200B
:104D60004FF0110B119072E7A3EB0B056D1E0DE0D8
:104D70005B4504DD4FF0000205F1010504E003DAB4
:104D80004FF00002A5F10105002AECD0029811991C
:104D9000C0E90231C0E9004579E700000000144095
:104DA0000000F03F300000000000F0430000E03F52
:104DB0002DE9FF4F95B09A46884606460025EEE15C
:104DC000252877D100242746F94A0121039400E0E1
:104DD000044316F8013F203B01FA03F01042F7D1DB
:104DE00030782A2811D06FF02F033078A0F13002EC
:104DF000092A16D8039A44F0020402EB820203EB5C
:104E000042021044761C0390EFE758F8042B0392FB
:104E1000002A03DA504244F40054039044F00204A0
:104E2000761C30782E2816D116F8010F44F00404B1
:104E30002A280DD06FF02F023078A0F13003092B13
:104E400009D807EB870302EB4303C718761CF3E787
:104E500058F8047B761C30786C280FD006DC4C2880
:104E600017D068280DD06A2814D104E0742810D017
:104E70007A280FD10DE044F400140AE044F48014C1
:104E800001E044F440147278824202D104F58014A7
:104E9000761C761C307866280BD013DC582877D027
:104EA00009DC002875D04528F6D04628F4D04728DC
:104EB0001AD193E118E0632835D0642879D06528A9
:104EC00012D18BE1702873D008DC6728F1D06928F3
:104ED0006FD06E280DD06F2806D1ACE073282CD08F
:104EE000752874D0782853D05246179990476D1C76
:104EF00054E1C4F30250022809D003280DD0D8F899
:104F0000001004280DD00D6008F1040846E1D8F81F
:104F10000010EA17C1E90052F6E7D8F800100D803A
:104F2000F2E70D70F0E718F8041B8DF80010002070
:104F30008DF80100EB46012003E058F804BB4FF068
:104F4000FF3061074FF0000102D40DE009F10101CB
:104F50008946B9420FDA8145F8DB1BF809100029B0
:104F6000F4D108E009F1010189468142FADB1BF81E
:104F700009100029F6D103985346A0EB09072146F2
:104F80003846179A00F080FA284400EB090507E03C
:104F900044E008E10DE01BF8010B524617999047D9
:104FA000B9F10109F7D2534621463846179AF2E083
:104FB00039E00A21C4F302524FF0000B0091022A9B
:104FC00006D058F8040BC117032A09D00AE023E0E1
:104FD00008F1070020F00702F2E80201904605E020
:104FE00000B2C117042A01D140B2C117002906DA64
:104FF0000A460021404261EB02012D2202E0220517
:1050000004D52B228DF80420012203E0E20701D011
:105010002022F7E7914657E00A2100E010214FF0E7
:10502000000B00910BE010214FF0000B44F0040442
:105030000827009103E008204FF0000B0090C4F314
:105040000252022A05D058F8040B0021032A08D086
:1050500008E008F1070020F00702F2E8020190469C
:1050600003E080B2042A00D1C0B24FF00009220749
:105070002AD53278702A07D0DDF800C08CF0100CE9
:105080005CEA0B0C05D00EE040228DF804200122D2
:1050900008E050EA010306D030238DF804308DF883
:1050A000052002229146009B83F0080353EA0B037C
:1050B0000AD150EA010201D1620705D530228DF8EC
:1050C00004204FF001097F1E3278582A04D039A2FB
:1050D0000C920CAA02920BE03BA2F9E75B46009A05
:1050E000FBF7D0F80C9B9B5C029A521E0292137045
:1050F00050EA0102F2D1029804A9081A00F1200B2B
:10510000600702D524F4803400E001275F4502DD0A
:10511000A7EB0B0000E0002000EB0B0100900398D0
:105120004944401A0390E00306D453462146179A97
:10513000039800F0A9F90544002706E001A85246AB
:10514000C05D179990476D1C7F1C4F45F6DBE0034F
:105150000CD553462146179A039800F095F905445B
:1051600004E030205246179990476D1C0099481E64
:1051700000900029F5DC08E0029802995246007878
:10518000491C0291179990476D1CBBF10001ABF1CE
:10519000010BF1DC5BE100F065F90544761C307829
:1051A00000287FF40DAE19B02846BDE8F08F00004E
:1051B00009280100303132333435363738396162ED
:1051C00063646566000000003031323334353637B1
:1051D000383941424344454600000000600700D48E
:1051E000062708F1070020F00700F0E802238046B8
:1051F00003F0004C5FEA0C0001D097A009E0200505
:1052000001D596A005E0E00701D095A001E0AFF23E
:105210004C001390307823F0004365280CD006DC56
:10522000452809D046281DD047287FD13BE0662875
:1052300018D067287AD136E00021112F01DB112028
:1052400000E0781CCDE9000104A90CA8FFF7EEFCF2
:10525000DDE90D010C9A4FF0000B07F101091092E6
:1052600000914EE04FF000400097CDE9011004A9F5
:105270000CA8FFF7DBFCDDE90D020C9B0F994FF04A
:10528000000B91461093009211B9791C00EB0109B3
:10529000B7EB090003D4C0F1FF3B07F10109A9EB0B
:1052A0000700019042E0012F00DA01270021112FB1
:1052B00001DD112000E03846CDE9000104A90CA869
:1052C000FFF7B4FCDDE90D010C9A00914FF0000BE3
:1052D000B946109221070FD4009A4A4503DA914645
:1052E00001E0A9F10109B9F1010F05DD109AA9F159
:1052F0000101515C3029F4D0B84202DA10F1040FF8
:1053000003DA0121CDE9011010E0002803DC834419
:10531000A9EB000102E0411C494500DD8946A0EBF4
:105320000B00401C01904FF000400290200705D474
:105330000198484502DB4FF0FF30019000208DF8C6
:105340004B0002980DF14B07B0F1004F25D0022021
:105350000C902B200D90029800280CDA404202900D
:105360002D200D9007E00A210298FBF7E7F9303174
:10537000029007F8011D0C99481E0C900029F2DCE0
:1053800002980028EFD1791E0D980870307800F04F
:10539000200040F0450007F8020D11A8C01BC01DF9
:1053A00002901398007800B1012000EB09010198E8
:1053B00001EBE071029801440398401A401E0390EB
:1053C000E00306D453462146179A039800F05CF890
:1053D00005441398007818B15246179990476D1CF0
:1053E000E00323D553462146179A039800F04CF862
:1053F00005441BE0BBF1000F07DB0098584504DDB6
:105400001098179910F80B0001E0179930205246B8
:10541000904701980BF1010B401E05F10105019029
:1054200004D12E205246179990476D1CB9F1000106
:10543000A9F10109DEDC05E017F8010B52461799C6
:1054400090476D1C0299481E02900029F4DC5346D7
:105450002146179A03989EE62D0000002B000000BD
:10546000200000002DE9F041044600251E461746A5
:10547000880404D405E039462020B0476D1C641E22
:10548000F9D52846BDE8F0812DE9F0410446002514
:105490001E469046C80301D5302700E02027880427
:1054A00004D505E041463846B0476D1C641EF9D569
:1054B0002846BDE8F08110B541EC100BFFF778F8F5
:1054C00051EC100B10BD00002DE9F0410446E078CE
:1054D00000F0C006E07800F03F05607800F00100C1
:1054E00098B1EF102846E91705EB5171C910A5EBEB
:1054F000C101491C01F0FF080B48006820B10A48AF
:10550000414602683846904700BF607800F00800C6
:1055100030B10548406818B1B011034A5168884756
:105520000020BDE8F0810000C042002030B50446F4
:10553000002504E04FF47A7000F004F86D1CA542D9
:10554000F8D330BD70B5034600224FF0E0267569F0
:105550000D4E367803FB06F44FF0E026B16910E0FB
:105560004FF0E026B06988420BD0884202D20E1A72
:10557000324402E02E1A0E4432440146A24200D3C5
:1055800000E0EDE700BF70BDB400002038B5044670
:1055900064B120208DF8000028208DF80100302013
:1055A0008DF8020038208DF8030004E0A3220421C6
:1055B0006846FAF7AAFE6A46042140F69E2001F0EA
:1055C0000BFD01F083F938BD3EB5044602208DF88D
:1055D0000000CA208DF80100E3208DF802000920A8
:1055E0008DF803006A460421682001F0F5FCA32031
:1055F0008DF8000004F0400048B1C0208DF8010093
:10560000C8208DF80200C2208DF8030006E0A32018
:105610008DF801008DF802008DF8030004F4C070CD
:1056200048B1C4208DF80400CC208DF80500C620B8
:105630008DF8060006E0A3208DF804008DF8050023
:105640008DF80600A3208DF807008DF808008DF86E
:1056500009006A460A2140F6A72001F0BDFC04F0CB
:10566000030018B120208DF8000002E0D8208DF84A
:1056700000006A46012140F6B62001F0ADFC04F0BE
:10568000200018B1012000F0ADF802E0002000F089
:10569000A9F804F4C07008B304F4807060B1B220BB
:1056A0008DF800008B208DF80100B6208DF80200E7
:1056B0009B208DF803000BE0B0208DF800008020C7
:1056C0008DF80100B4208DF8020090208DF80300C1
:1056D0006A46042140F6A22001F07EFC04F001009D
:1056E00020B3F8208DF800006A4601214FF40B60CA
:1056F00001F072FCFA21072000F0FCFA072000F00C
:10570000C3FA012000F0E3FA642000F0D3FB4FF469
:10571000FA7000F0E2FBC821304800F073FA28204C
:1057200000F08CFA0A2000F09CFA08E0D8208DF8EE
:1057300000006A4601214FF40B6001F04DFC04F0BB
:10574000020018B1D9208DF8000002E0D8208DF8B1
:1057500000006A46012140F23D7001F03DFC04F07A
:10576000040018B1012000F069F802E0002000F008
:1057700065F804F0100018B10120FFF707FF02E000
:105780000020FFF703FF44F008001549488101F0AD
:105790009DF800201249887304F0400018B10846B3
:1057A000807B801D887304F4C07020B10C48807B1E
:1057B000801D0B49887304F0140020B10848807BD9
:1057C00010300749887304F0030020B10448807B3F
:1057D000001D0349887300203EBD000009E3CA0292
:1057E000C04200203EB504466CB10EA1D1E90020B4
:1057F0008968CDE9002002916A4609214FF497603B
:1058000001F0EAFB3EBD0AA2D2E900109268CDE9A0
:10581000010200916A4609214FF4976001F0DCFB18
:10582000F0E70000B8AAB38DB4980D355D00000014
:10583000B8AAAAAAB088C3C5C700000038B50446F4
:1058400064B1C0208DF80000C2208DF80100C42092
:105850008DF80200C6208DF8030004E08B2204219D
:105860006846FAF752FD6A46042140F6982001F096
:10587000B3FB01F02BF838BD10B5C8234FF480629C
:10588000024940F6F63000F0B5FE10BDF88300087E
:105890002DE9F04F8DB00746884615469946DDE95B
:1058A000166B0024002030806B49887B5A4605A97E
:1058B00000F06CFF18B1601E0DB0BDE8F08F6648B7
:1058C000807A00F01400002867D09DF814000006CC
:1058D0009DF8151040EA01409DF8161040EA01209D
:1058E0009DF81710084328609DF8180000069DF8E1
:1058F000191040EA01409DF81A1040EA01209DF875
:105900001B10084368609DF81C0000069DF81D10E0
:1059100040EA01409DF81E1040EA01209DF81F104A
:105920000843A8609DF8200000069DF8211040EA79
:1059300001409DF8221040EA01209DF82310084301
:10594000E86004F11000C4B228680014019068688F
:1059500000140290A86800140390E86800140490F2
:1059600001984043029901FB0100039901FB0100EA
:10597000049901FB010ABAF1706F02DBBAF1885F8A
:1059800005DD00F0A3FF00203080401E94E7B6F94B
:10599000000040F48070308000BF2F48807A00F013
:1059A000400020B305A9601C085C095D40EA0120A5
:1059B00000B2A8F8000005A9E01C095C05AAA01C1B
:1059C000105C41EA002000B2A8F8020005A9601DA1
:1059D000095C201D105C41EA002000B2A8F8040018
:1059E000A01DC4B2B6F9000040F0080030801A488B
:1059F000408900F4C07008B305A9601C085C095D0B
:105A000040EA012000B2388005A9E01C095C05AA23
:105A1000A01C105C41EA002000B2788005A9601D3E
:105A2000095C201D105C41EA002000B2B880A01D76
:105A3000C4B2B6F9000040F0700030800648807AA9
:105A400000F0030018B105A90819FFF73DFD48460D
:105A500000F0EFFA00202FE7C042002030B585B0FB
:105A6000044616A207CA02AB07C3C82C03DD4FF0D9
:105A7000FF3005B030BDC82090FBF4F0401E85B269
:105A8000280A8DF80000E8B28DF801006A4602216C
:105A900040F2162001F0A0FA10B14FF0FF30E8E715
:105AA00002AA0C2140F6C12001F096FA10B14FF085
:105AB000FF30DEE7044884810020DAE7FEF2ABC461
:105AC000AAF1DFDFBBAFDFDFC042002010B586B038
:105AD000044647A00068039046A00068029046A0D4
