:020000040800F2
:10000000000002208D280008CD220008CF22000821
:10001000D1220008D3220008D522000800000000E9
:1000200000000000000000000000000071630008F4
:10003000D722000800000000116400087564000861
:10004000DD280008DD280008DD280008DD2800087C
:10005000DD280008DD280008DD280008DD2800086C
:10006000DD280008DD280008DD280008DD2800085C
:10007000DD280008DD280008DD280008DD2800084C
:10008000DD280008DD280008DD280008DD2800083C
:10009000DD280008DD280008DD280008DD2800082C
:1000A000DD280008DD280008DD280008DD2800081C
:1000B000DD280008DD280008D9220008DD28000816
:1000C000DD280008DD280008DD280008DD280008FC
:1000D000DD280008E922000809230008DD280008BF
:1000E000DD280008DD280008DD280008DD280008DC
:1000F000DD280008DD280008DD280008DD280008CC
:10010000DD280008DD28000819230008DD28000884
:10011000DD280008DD28000829230008DD28000864
:10012000DD280008DD280008DD280008DD2800089B
:10013000DD280008DD280008DD280008DD2800088B
:10014000DD280008DD280008DD280008DD2800087B
:10015000DD280008DD280008DD280008DD2800086B
:10016000DD280008DD280008DD280008DD2800085B
:10017000DD280008DD280008DD2800080000000058
:08018000DD280008DD2800085D
:1001C00010B5054C237833B9044B13B10448AFF391
:1001D00000800123237010BD000A002000000000F1
:1001E00080DE000808B5034B1BB103490348AFF399
:1001F000008008BD00000000040A002080DE000826
:1002000081F0004102E000BF83F0004330B54FEAC7
:1002100041044FEA430594EA050F08BF90EA020F34
:100220001FBF54EA000C55EA020C7FEA645C7FEAC7
:10023000655C00F0E2804FEA5454D4EB5555B8BFEA
:100240006D420CDD2C4480EA020281EA030382EA5B
:10025000000083EA010180EA020281EA0303362DED
:1002600088BF30BD11F0004F4FEA01314FF4801CC0
:100270004CEA113102D0404261EB410113F0004FD2
:100280004FEA03334CEA133302D0524263EB430389
:1002900094EA050F00F0A780A4F10104D5F1200E27
:1002A0000DDB02FA0EFC22FA05F2801841F1000182
:1002B00003FA0EF2801843FA05F359410EE0A5F156
:1002C00020050EF1200E012A03FA0EFC28BF4CF087
:1002D000020C43FA05F3C01851EBE37101F000453D
:1002E00007D54FF0000EDCF1000C7EEB00006EEB4A
:1002F0000101B1F5801F1BD3B1F5001F0CD34908D4
:100300005FEA30004FEA3C0C04F101044FEA44522A
:1003100012F5800F80F09A80BCF1004F08BF5FEAB1
:10032000500C50F1000041EB045141EA050130BD91
:100330005FEA4C0C404141EB0101013C28BFB1F5A3
:10034000801FE9D291F0000F04BF01460020B1FAEE
:1003500081F308BF2033A3F10B03B3F120020CDAC1
:100360000C3208DD02F1140CC2F10C0201FA0CF09F
:1003700021FA02F10CE002F11402D8BFC2F1200C04
:1003800001FA02F120FA0CFCDCBF41EA0C019040BA
:10039000E41AA2BF01EB0451294330BD6FEA040403
:1003A0001F3C1CDA0C340EDC04F11404C4F12002EE
:1003B00020FA04F001FA02F340EA030021FA04F300
:1003C00045EA030130BDC4F10C04C4F1200220FA57
:1003D00002F001FA04F340EA0300294630BD21FA95
:1003E00004F0294630BD94F0000F83F4801306BF5B
:1003F00081F480110134013D4EE77FEA645C18BF4F
:100400007FEA655C29D094EA050F08BF90EA020FE5
:1004100005D054EA000C04BF1946104630BD91EADD
:10042000030F1EBF0021002030BD5FEA545C05D1E0
:100430004000494128BF41F0004130BD14F580041F
:100440003CBF01F5801130BD01F0004545F0FE4193
:1004500041F470014FF0000030BD7FEA645C1ABFC8
:10046000194610467FEA655C1CBF0B46024650EAFF
:10047000013406BF52EA033591EA030F41F400212B
:1004800030BD00BF90F0000F04BF0021704730B5B1
:100490004FF4806404F132044FF000054FF0000186
:1004A00050E700BF90F0000F04BF0021704730B547
:1004B0004FF4806404F1320410F0004548BF40421C
:1004C0004FF000013EE700BF42004FEAE2014FEA71
:1004D00031014FEA02701FBF12F07F4393F07F4F4C
:1004E00081F06051704732F07F4208BF704793F04F
:1004F0007F4F04BF41F40021704730B54FF4607462
:1005000001F0004521F000411CE700BF50EA010264
:1005100008BF704730B54FF000050AE050EA01020D
:1005200008BF704730B511F0004502D5404261EB7D
:1005300041014FF4806404F132045FEA915C3FF4BE
:10054000D8AE4FF003025FEADC0C18BF03325FEA5B
:10055000DC0C18BF033202EBDC02C2F1200300FA0C
:1005600003FC20FA02F001FA03FE40EA0E0021FA31
:1005700002F11444BDE600BF70B54FF0FF0C4CF41F
:10058000E06C1CEA11541DBF1CEA135594EA0C0FD1
:1005900095EA0C0F00F0DEF82C4481EA030621EA0C
:1005A0004C5123EA4C5350EA013518BF52EA033547
:1005B00041F4801143F4801338D0A0FB02CE4FF0F9
:1005C0000005E1FB02E506F00042E0FB03E54FF029
:1005D0000006E1FB03569CF0000F18BF4EF0010E21
:1005E000A4F1FF04B6F5007F64F5407404D25FEA1D
:1005F0004E0E6D4146EB060642EAC62141EA5551D0
:100600004FEAC52040EA5E504FEACE2EB4F1FD0C11
:1006100088BFBCF5E06F1ED8BEF1004F08BF5FEA8F
:10062000500E50F1000041EB045170BD06F0004641
:1006300046EA010140EA020081EA0301B4EB5C04EE
:10064000C2BFD4EB0C0541EA045170BD41F48011E6
:100650004FF0000E013C00F3AB8014F1360FDEBF0B
:10066000002001F0004170BDC4F10004203C35DAE7
:100670000C341BDC04F11404C4F1200500FA05F36A
:1006800020FA04F001FA05F240EA020001F000420B
:1006900021F0004110EBD37021FA04F642EB060181
:1006A0005EEA430E08BF20EAD37070BDC4F10C04AB
:1006B000C4F1200500FA04F320FA05F001FA04F26F
:1006C00040EA020001F0004110EBD37041F100015B
:1006D0005EEA430E08BF20EAD37070BDC4F1200566
:1006E00000FA05F24EEA020E20FA04F301FA05F2CE
:1006F00043EA020321FA04F001F0004121FA04F276
:1007000020EA020000EBD3705EEA430E08BF20EA45
:10071000D37070BD94F0000F0FD101F0004640007F
:1007200041EB010111F4801F08BF013CF7D041EA01
:10073000060195F0000F18BF704703F00046520005
:1007400043EB030313F4801F08BF013DF7D043EAD6
:100750000603704794EA0C0F0CEA135518BF95EA8C
:100760000C0F0CD050EA410618BF52EA4306D1D113
:1007700081EA030101F000414FF0000070BD50EA32
:10078000410606BF1046194652EA430619D094EABC
:100790000C0F02D150EA013613D195EA0C0F05D1A6
:1007A00052EA03361CBF104619460AD181EA0301FA
:1007B00001F0004141F0FE4141F470014FF00000B2
:1007C00070BD41F0FE4141F4780170BD70B54FF04D
:1007D000FF0C4CF4E06C1CEA11541DBF1CEA1355CD
:1007E00094EA0C0F95EA0C0F00F0A7F8A4EB0504AF
:1007F00081EA030E52EA03354FEA013100F08880A6
:100800004FEA03334FF0805545EA131343EA12636E
:100810004FEA022245EA111545EA10654FEA002623
:100820000EF000419D4208BF964244F1FD0404F5DC
:10083000407402D25B084FEA3202B61A65EB030538
:100840005B084FEA32024FF480104FF4002CB6EBF5
:10085000020E75EB030E22BFB61A754640EA0C0075
:100860005B084FEA3202B6EB020E75EB030E22BFB5
:10087000B61A754640EA5C005B084FEA3202B6EBF6
:10088000020E75EB030E22BFB61A754640EA9C00B5
:100890005B084FEA3202B6EB020E75EB030E22BF85
:1008A000B61A754640EADC0055EA060E18D04FEA43
:1008B000051545EA16754FEA06164FEAC30343EAE3
:1008C00052734FEAC2025FEA1C1CC0D111F4801FB0
:1008D0000BD141EA00014FF000004FF0004CB6E7A9
:1008E00011F4801F04BF01430020B4F1FD0C88BF48
:1008F000BCF5E06F3FF6AFAEB5EB030C04BFB6EB53
:10090000020C5FEA500C50F1000041EB045170BD45
:100910000EF0004E4EEA113114EB5C04C2BFD4EB72
:100920000C0541EA045170BD41F480114FF0000EF6
:10093000013C90E645EA060E8DE60CEA135594EA72
:100940000C0F08BF95EA0C0F3FF43BAF94EA0C0F75
:100950000AD150EA01347FF434AF95EA0C0F7FF4EA
:1009600025AF104619462CE795EA0C0F06D152EA3E
:1009700003353FF4FDAE1046194622E750EA410622
:1009800018BF52EA43067FF4C5AE50EA41047FF433
:100990000DAF52EA43057FF4EBAE12E74A0011D2E5
:1009A00012F5001211D20DD56FF47873B3EB6252C9
:1009B0000ED44FEAC12343F0004343EA505323FAD5
:1009C00002F070474FF00000704750EA013002D14A
:1009D0004FF0FF3070474FF0000070474FEA410280
:1009E000B2F1E04324BFB3F5001CDCF1FE5C0DD98D
:1009F00001F0004C4FEAC0024CEA5070B2F1004FD7
:100A000040EB830008BF20F00100704711F0804FD9
:100A100021D113F13872BCBF01F00040704741F49E
:100A200080114FEA5252C2F11802C2F1200C10FAA2
:100A30000CF320FA02F018BF40F001004FEAC12386
:100A40004FEAD32303FA0CFC40EA0C0023FA02F32A
:100A50004FEA4303CCE77FEA625307D150EA013300
:100A60001EBF4FF0FE4040F44000704701F00040D0
:100A700040F0FE4040F40000704700BF53B94AB94F
:100A8000002908BF00281CBF4FF0FF314FF0FF3096
:100A900000F074B9ADF1080C6DE904CE00F006F871
:100AA000DDF804E0DDE9022304B070472DE9F047EA
:100AB000089D04468E46002B4DD18A42944669D942
:100AC000B2FA82F252B101FA02F3C2F1200120FA25
:100AD00001F10CFA02FC41EA030E94404FEA1C4873
:100AE000210CBEFBF8F61FFA8CF708FB16E341EA6F
:100AF000034306FB07F199420AD91CEB030306F1F5
:100B0000FF3080F01F81994240F21C81023E634415
:100B10005B1AA4B2B3FBF8F008FB103344EA0344B9
:100B200000FB07F7A7420AD91CEB040400F1FF33CE
:100B300080F00A81A74240F207816444023840EA0B
:100B40000640E41B00261DB1D4400023C5E9004344
:100B50003146BDE8F0878B4209D9002D00F0EF80C7
:100B60000026C5E9000130463146BDE8F087B3FAFA
:100B700083F6002E4AD18B4202D3824200F2F980E2
:100B8000841A61EB030301209E46002DE0D0C5E9E5
:100B9000004EDDE702B9FFDEB2FA82F2002A40F031
:100BA0009280A1EB0C014FEA1C471FFA8CFE012634
:100BB000200CB1FBF7F307FB131140EA01410EFBD8
:100BC00003F0884208D91CEB010103F1FF3802D27F
:100BD000884200F2CB804346091AA4B2B1FBF7F079
:100BE00007FB101144EA01440EFB00FEA64508D99C
:100BF0001CEB040400F1FF3102D2A64500F2BB80D9
:100C00000846A4EB0E0440EA03409CE7C6F1200727
:100C1000B34022FA07FC4CEA030C20FA07F401FA6D
:100C200006F31C43F9404FEA1C4900FA06F3B1FBF6
:100C3000F9F8200C1FFA8CFE09FB181140EA01415B
:100C400008FB0EF0884202FA06F20BD91CEB0101F8
:100C500008F1FF3A80F08880884240F28580A8F150
:100C600002086144091AA4B2B1FBF9F009FB1011A2
:100C700044EA014100FB0EFE8E4508D91CEB010140
:100C800000F1FF346CD28E456AD90238614440EAE3
:100C90000840A0FB0294A1EB0E01A142C846A64663
:100CA00056D353D05DB1B3EB080261EB0E0101FAEC
:100CB00007F722FA06F3F1401F43C5E90071002649
:100CC0003146BDE8F087C2F12003D8400CFA02FC9F
:100CD00021FA03F3914001434FEA1C471FFA8CFEAF
:100CE000B3FBF7F007FB10360B0C43EA064300FB9F
:100CF0000EF69E4204FA02F408D91CEB030300F13D
:100D0000FF382FD29E422DD9023863449B1B89B2F3
:100D1000B3FBF7F607FB163341EA034106FB0EF37C
:100D20008B4208D91CEB010106F1FF3816D28B4229
:100D300014D9023E6144C91A46EA004638E72E46F5
:100D4000284605E70646E3E61846F8E64B45A9D2ED
:100D5000B9EB020864EB0C0E0138A3E74646EAE75C
:100D6000204694E74046D1E7D0467BE7023B61440A
:100D700032E7304609E76444023842E7704700BF73
:100D8000844641EA000313F003036DD1403A41D396
:100D900051F8043B40F8043B51F8043B40F8043B55
:100DA00051F8043B40F8043B51F8043B40F8043B45
:100DB00051F8043B40F8043B51F8043B40F8043B35
:100DC00051F8043B40F8043B51F8043B40F8043B25
:100DD00051F8043B40F8043B51F8043B40F8043B15
:100DE00051F8043B40F8043B51F8043B40F8043B05
:100DF00051F8043B40F8043B51F8043B40F8043BF5
:100E000051F8043B40F8043B51F8043B40F8043BE4
:100E1000403ABDD2303211D351F8043B40F8043B84
:100E200051F8043B40F8043B51F8043B40F8043BC4
:100E300051F8043B40F8043B103AEDD20C3205D394
:100E400051F8043B40F8043B043AF9D2043208D08C
:100E5000D2071CBF11F8013B00F8013B01D30B88FE
:100E600003806046704700BF082A13D38B078DD0DC
:100E700010F003038AD0C3F10403D21ADB071CBFAE
:100E800011F8013B00F8013B80D331F8023B20F818
:100E9000023B7BE7043AD9D3013A11F8013B00F851
:100EA000013BF9D20B7803704B7843708B788370D9
:100EB00060467047000000000000000000000000D5
:100EC00090F800F06DE9024520F007016FF0000C8A
:100ED00010F0070491F820F040F049804FF0000432
:100EE0006FF00700D1E9002391F840F000F108000D
:100EF00082FA4CF2A4FA8CF283FA4CF3A2FA8CF345
:100F00004BBBD1E9022382FA4CF200F10800A4FAAB
:100F10008CF283FA4CF3A2FA8CF3E3B9D1E90423FF
:100F200082FA4CF200F10800A4FA8CF283FA4CF336
:100F3000A2FA8CF37BB9D1E9062301F1200182FAF0
:100F40004CF200F10800A4FA8CF283FA4CF3A2FAF6
:100F50008CF3002BC6D0002A04BF04301A4612BA04
:100F6000B2FA82F2FDE8024500EBD2007047D1E907
:100F7000002304F00305C4F100004FEAC50514F096
:100F8000040F91F840F00CFA05F562EA05021CBF67
:100F900063EA050362464FF00004A9E70000000081
:100FA00001F0FF01102A2BDB10F0070F08D010F81A
:100FB000013B013A8B422DD010F0070F42B3F6D11E
:100FC000F0B441EA012141EA014122F007047FF037
:100FD00000070023F0E80256083C85EA010586EA8E
:100FE000010685FA47F5A3FA87F586FA47F6A5FACA
:100FF00087F68EB9EED1F0BC01F0FF0102F00702D6
:1010000032B110F8013B013A83EA010313B1F8D180
:101010000020704701387047002D06BF3546033861
:10102000073815F0010F07D1013015F4807F02BF9A
:10103000013015F4C03F0130F0BC0138704700BFEB
:101040004FF0FF3C06E000BF4FF0010C02E000BF94
:101050004FF0010C4DF804CD4FEA410C7FEA6C5C77
:101060004FEA430C18BF7FEA6C5C1BD001B050EA1A
:10107000410C0CBF52EA430C91EA030F02BF90EA05
:10108000020F0020704710F1000F91EA030F58BFC4
:10109000994208BF90422CBFD8176FEAE37040F026
:1010A000010070474FEA410C7FEA6C5C02D150EAC4
:1010B000013C07D14FEA430C7FEA6C5CD6D152EA7F
:1010C000033CD3D05DF8040B704700BF8446104644
:1010D00062468C461946634600E000BF01B5FFF743
:1010E000B7FF002848BF10F1000F01BD4DF808ED13
:1010F000FFF7F4FF0CBF012000205DF808FB00BFE4
:101100004DF808EDFFF7EAFF34BF012000205DF83D
:1011100008FB00BF4DF808EDFFF7E0FF94BF01208A
:1011200000205DF808FB00BF4DF808EDFFF7CEFF8B
:1011300094BF012000205DF808FB00BF4DF808EDCA
:10114000FFF7C4FF34BF012000205DF808FB00BF9B
:101150004FEA410C7FEA6C5C02D150EA013C0AD1B3
:101160004FEA430C7FEA6C5C02D152EA033C02D1A5
:101170004FF0000070474FF0010070474FEA410206
:1011800012F5001215D211D56FF47873B3EB6252D9
:1011900012D94FEAC12343F0004343EA505311F000
:1011A000004F23FA02F018BF404270474FF0000092
:1011B000704750EA013005D111F0004008BF6FF0D0
:1011C000004070474FF00000704700BF10B5854BDE
:1011D0001B78012B07D00138052830D8DFE800F054
:1011E000D884AE30065A80F00700F4E77E4C082120
:1011F000204604F0E3F90821204604F01BFB7B4B5A
:10120000D3ED007A9FED7A7A67EE877A2368FCEE59
:10121000E77AC3ED0E7A0421204604F04DF904214B
:10122000204604F007FB236841F269025A6300215B
:10123000204604F0C3F90021204604F07FFA10BDD7
:10124000694C0421204604F0B9F90421204604F039
:10125000F1FA664BD3ED007A9FED657A67EE877AF7
:101260002368FCEEE77AC3ED0F7A0821204604F0EC
:1012700023F90821204604F0DDFA236841F26902CF
:101280005A630021204604F099F90021204604F019
:1012900055FAD4E7544C0021204604F08FF9002180
:1012A000204604F0C7FA514BD3ED007A9FED507AF7
:1012B00067EE877A2368FCEEE77AC3ED0F7A0821A0
:1012C000204604F0F9F80821204604F0B3FA236818
:1012D00041F269029A630421204604F06FF9042167
:1012E000204604F02BFAAAE73F4C0821204604F0E0
:1012F00065F90821204604F09DFA3C4BD3ED007AB5
:101300009FED3B7A67EE877A2368FCEEE77AC3EDC0
:101310000D7A0021204604F0CFF80021204604F089
:1013200089FA236841F269029A630421204604F095
:1013300045F90421204604F001FA80E72A4C0421F3
:10134000204604F03BF90421204604F073FA274BB1
:10135000D3ED007A9FED267A67EE877A2368FCEE5C
:10136000E77AC3ED0D7A0021204604F0A5F80021AC
:10137000204604F05FFA236841F26902DA6308212B
:10138000204604F01BF90821204604F0D7F956E75F
:10139000154C0021204604F011F90021204604F0EC
:1013A00049FA124BD3ED007A9FED117A67EE877AF6
:1013B0002368FCEEE77AC3ED0E7A0421204604F0A0
:1013C0007BF80421204604F035FA236841F26902D3
:1013D000DA630821204604F0F1F80821204604F0E1
:1013E000ADF92CE7000000201C0A002004000020BA
:1013F0000040834538B50A4D0121284603F0AAF97B
:1014000044000221284603F0A5F9044364004FF488
:101410008051044803F09EF9204300F0070038BDD6
:1014200000000240001C024038B50546FFF7E2FF0D
:101430000446FFF7CBFE2B68596B0C4A13680B442C
:1014400013600B4A1368013313600A4B1A5D0A4B91
:101450001B689A4205D0094B00221A70064B1C608B
:1014600038BD064B01221A70F8E700BF700A002051
:101470006C0A002008DF0008640A0020680A0020C7
:1014800038B502F0ADFEE0B1124C134D0FCD0FC4D4
:1014900095E8030084E803000E4AB2F900100F4BF0
:1014A0009982B2F90210D982B2F904101983B2F903
:1014B00006105983B2F908109983B2F90A20DA8329
:1014C00038BD054C034D0FCD0FC495E8030084E8EB
:1014D0000300E1E75C130020740A0020B00A00203A
:1014E00038B502280ED003284CD0474D474C29462A
:1014F000204600F031F9B5F90010B4F9000000F011
:1015000047F938BD70EEC00A414AD2ED046A30EEA8
:10151000E66A36EEA67A30EEC77AD2ED057A37EE75
:10152000277ADFED3C7A60EEA77ADFED3B5A26EEB4
:10153000256A77EE867A9FED396A27EE067A37EECE
:10154000877AB2F90C3007EE903AF8EEE77A77EE48
:10155000877AFDEEE77A17EE903A1BB29381C2EDDF
:10156000056AC2ED040A40F2B632934202DD284B0E
:101570009A81BAE72A4A9342B7DA254B4FF64A4294
:101580009A81B2E770EEC00A264AD2ED046A30EEC4
:10159000E66A36EEA67A30EEC77AD2ED057A37EEF5
:1015A000277ADFED1C7A60EEA77ADFED1B5A26EE74
:1015B000256A77EE867A9FED196A27EE067A37EE6E
:1015C000877AB2F90C3007EE903AF8EEE77A77EEC8
:1015D000877AFDEEE77A17EE903A1BB29381C2ED5F
:1015E000056AC2ED040A40F2B632934202DD0D4BA9
:1015F0009A817AE70A4A9342BFF677AF094B4FF6D2
:101600004A429A8171E700BFF80A0020E00A0020F0
:10161000D40A002066E66143000025430000DC4256
:101620004AFCFFFFEC0A002010B50A4CA368636077
:10163000094B93ED020A83ED010A0320F0EE400A04
:10164000FFF74EFF0220D4ED020A94ED010AFFF7E6
:1016500047FF10BDD40A0020EC0A0020B5EE400A76
:10166000F1EE10FA10D1DFED187A60EEA70AF6EE6F
:10167000007A60EEA70A154BC3ED020AF1EE600A8C
:10168000134BC3ED020A7047F5EE400AF1EE10FA73
:1016900006D10F4B83ED020A0C4B83ED020A704713
:1016A000DFED097A60EEA70AF6EE007A60EEA70A8F
:1016B00070EE607A064BC3ED027A70EE800A034B3F
:1016C000C3ED020A704700BF3333333EEC0A0020FB
:1016D000D40A0020034B1B6813F0800FFAD0014B93
:1016E000586070470010014010B5164B4FF0FE32A5
:1016F0001A60EE2283F82020134AD2ED017A134AB1
:10170000D2ED016A37EEA67AB6EE006A27EE067AC7
:1017100083ED017A00229A6077EEE67ADFED0C6ABB
:1017200087EEA67A83ED037A0A4A1A61002405E05F
:10173000044B185DFFF7CEFF0134E4B2202CF7D93B
:1017400010BD00BFB00A0020D40A0020EC0A00201F
:101750003333333E0000C84202680B4B9A4200DA32
:101760000360026841F2A8639A4200DD03600A68E0
:10177000054B9A4200DA0B600A6841F2A8639A426C
:1017800000DD0B60704700BF58E9FFFF000000005C
:10179000F8B50C46051E51DD394E01224FF480711B
:1017A000304602F0DEFF01224FF40071304602F0B5
:1017B000D8FF85EAE570A0EBE570FEF773FE2EA377
:1017C000D3E90023FEF7D8FE06460F462D4B1868D6
:1017D000FEF768FE32463B46FEF718FDFFF7DEF8DF
:1017E000294B5863D863002C36DD254D00224FF479
:1017F0008051284602F0B5FF00228021284602F0E1
:10180000B0FF84EAE470A0EBE470FEF74BFE1AA38D
:10181000D3E90023FEF7B0FE04460D46194B1868C5
:10182000FEF740FE22462B46FEF7F0FCFFF7B6F827
:10183000154B986303F580631864F8BD104E0022C1
:101840004FF48071304602F08CFF00224FF400719B
:10185000304602F086FFACE7094D01224FF480517B
:10186000284602F07EFF01228021284602F079FFFF
:10187000C7E700BFAFF30080B81E85EB51B8F23F59
:1018800000100240080000200004004010B44FF097
:10189000E0235C690C4A92F800C000FB0CFC9B69D9
:1018A000002104E0E01A02441144614509D21A46BD
:1018B0004FF0E0239B699A42FAD0F3D9D21A11442F
:1018C000F3E75DF8044B70470C00002038B505467F
:1018D000002404E04FF47A70FFF7D8FF0134A542EA
:1018E000F8D838BD08B54FF47A7004F0A0FCFAE7D8
:1018F00008B5FFF7F9FE642004F099FCF9E708B594
:10190000FFF792FE642004F092FCF9E708B500F0BE
:10191000CFFB02F013FC0028FBD1FFF7B1FD6420E0
:1019200004F085FCF9E70000034B0360034B0B60F8
:1019300080231360704700BF180D0020140B002097
:1019400010B59CB0244C0DF1540CA646BEE80F0017
:10195000ACE80F009EE807008CE80700002115A8FE
:1019600004F030FC1D4B18600DF1380C04F11C0E16
:10197000BEE80F00ACE80F009EE807008CE8070007
:1019800000210EA804F01EFC154B18600DF11C0C74
:1019900004F1380EBEE80F00ACE80F009EE8070027
:1019A0008CE80700002107A804F00CFC0D4B186020
:1019B000EE4604F1540CBCE80F00AEE80F009CE8C2
:1019C00007008EE807000021684604F0FBFB064B89
:1019D00018601CB010BD00BF98DE0008100B00207E
:1019E0000C0B0020080B0020040B00202DE9F04117
:1019F0008AB00024059406940794089409940094EE
:101A0000334B1A6B42F080021A631A6B02F08002A9
:101A10000092009A01941A6B42F001021A631A6B49
:101A200002F001020192019A02941A6B42F0100234
:101A30001A631A6B02F010020292029A03941A6B54
:101A400042F008021A631A6B02F008020392039A2A
:101A500004941A6B42F004021A631B6B03F0040334
:101A60000493049BDFF8748022464FF28071404655
:101A700002F077FE174F22464FF40061384602F01D
:101A800070FE154E22460121304602F06AFE4FF2EA
:101A900080730593012506950794089405A940468F
:101AA00002F066FD4FF400630593069507940894D1
:101AB00005A9384602F05CFD059506950794089443
:101AC00005A9304602F054FD0AB0BDE8F08100BF20
:101AD0000038024000080240000C024000100240A2
:101AE000F0B589B0002101911E4B1A6B42F004023F
:101AF0001A631A6B02F004020192019A02911A6BA6
:101B000042F008021A631B6B03F008030293029B66
:101B1000154F01224FF40061384602F022FE134DAA
:101B200001221146284602F01CFE4FF40063039385
:101B30000124049405940326069603A9384602F06E
:101B400017FD039404940594069603A9284602F011
:101B50000FFD074BC3F88042A3F50043C3F8AC4226
:101B600009B0F0BD0038024000080240000C0240FD
:101B70000080414270B50E4B1A6822F440021A6090
:101B80001A6842F480021A600A4E0123C6F8AC3289
:101B9000094CC4F880320420FFF778FE0025C6F80F
:101BA000AC520420FFF772FEC4F8805270BD00BF33
:101BB00000080240000041420080414238B50E4B0F
:101BC0001A6822F440021A601A6842F480021A600D
:101BD0000A4D0023C5F88032094CC4F8AC32042009
:101BE000FFF754FE0123C5F88032C4F8AC3204205C
:101BF000FFF74CFE38BD00BF0008024000804142A4
:101C00000000414210B5134B1A6822F440021A60DA
:101C10001A681A600124104BC3F8AC422046FFF743
:101C200035FE0E4BC3F880422046FFF72FFE0023FF
:101C3000094AD2F82C223AB10133DBB2FA2BF7D998
:101C4000FFF7BCFF012003E00020044BC3F8800233
:101C500010BD00BF00080240000041420080414228
:101C600038B50E4C0025C4F880520D4B1A6822F48A
:101C700040021A601A6842F480021A60094BC3F8E5
:101C8000AC520220FFF702FE0123C4F8803202208A
:101C9000FFF7FCFDC4F8805238BD00BF0080414210
:101CA000000802400000414270B50E4C0025C4F807
:101CB00080520D4B1A6822F440021A601A6842F4EE
:101CC00080021A600126094BC3F8AC620220FFF7BC
:101CD000DDFDC4F880620220FFF7D8FDC4F8805211
:101CE00070BD00BF00804142000802400000414238
:101CF00070B50546144B1A6822F440021A601A683F
:101D000042F480021A600024104BC3F8804217E0AE
:101D1000EA090F4BC3F8AC226D00EDB20220FFF7C9
:101D2000B5FD0A4E0123C6F880320220FFF7AEFD52
:101D30000023C6F880320220FFF7A8FD0134E4B288
:101D4000072CE5D970BD00BF000802400080414269
:101D500000004142F8B50746164B1A6822F44002CB
:101D60001A601A681A600024264604E00120FFF772
:101D70008DFD731CDEB2072E13D80F4D0023C5F85E
:101D800080320220FFF782FD0123C5F880329C409B
:101D9000E4B20A4BD3F82C32002BE7D00134E4B282
:101DA000E4E71FB9FFF780FF2046F8BDFFF758FFB3
:101DB000FAE700BF000802400080414200004142B3
:101DC00008B50268034B9A4200D008BD02F008FB38
:101DD000FBE700BF0010004072B6FEE700B595B00B
:101DE0003022002108A805F077F90023039304931B
:101DF0000593069307930193214A116C41F080519A
:101E00001164126C02F080520192019A02931D4BF0
:101E10001A6842F480421A601B6803F480430293FC
:101E2000029B012308934FF48033099302230E93FE
:101E30004FF480020F92082210924FF4A872119270
:101E400012930423139308A802F092FC98B90F236D
:101E5000039302230493002305934FF4A0530693A6
:101E60004FF480530793052103A802F0E7FE20B941
:101E700015B05DF804FBFFF7AFFFFFF7ADFF00BF44
:101E8000003802400070004008B502F08FFAFFF7FA
:101E9000A5FFFFF7ABFD00F0F3FB00F0CDFA00F07B
:101EA000F9FA00F049FC00F061FC0B4C00212046DF
:101EB00003F002FB0421204603F0FEFA082120462D
:101EC00003F0FAFA0C21204603F0F6FAFFF738FD8A
:101ED00004F073F9FEE700BFEC1100202DE9F0419A
:101EE00004460F4615461E46FFF744FE600000F00C
:101EF000FE00FFF7FDFEFFF785FE88B980463846F5
:101F0000FFF7F6FEFFF77EFE4446AC4214D2305D8A
:101F1000FFF7EEFEFFF776FE48B90134E4B2F4E7CE
:101F2000FFF74CFE4FF001084046BDE8F081FFF797
:101F300045FE4FF00108F7E7FFF740FEF4E7F8B57C
:101F400006460F4614461D46FFF714FE700000F0CB
:101F5000FE00FFF7CDFEFFF755FE78B93846FFF7D4
:101F6000C7FEFFF74FFEFFF705FE700040F00100CF
:101F7000C0B2FFF7BDFEFFF745FE0AE0FFF71EFE09
:101F8000012011E00020FFF7E5FE2870013CE4B2DB
:101F9000013534B1012CF5D00120FFF7DBFE2870AC
:101FA000F4E7FFF70BFE2046F8BD38B505460C46B2
:101FB000FFF7E0FDD220FFF79BFEFFF723FE78B985
:101FC0002846FFF795FEFFF71DFE2046FFF790FE1F
:101FD000FFF718FE044638B9FFF7F0FD204638BD7C
:101FE000FFF7ECFD0124F9E7FFF7E8FD0124F5E731
:101FF00008B5C10001F0F8011B20FFF7D6FF08BDAE
:1020000008B5C10001F0F8011C20FFF7CEFF08BDA4
:1020100008B5BB2809D861280CD829280CD8132862
:102020000CD809280CD9052100E001211A20FFF75E
:10203000BCFF08BD0221F9E70321F7E70421F5E71A
:102040000621F3E710B5B0F57A7F04D804460328DB
:1020500003D8042401E04FF47A744FF47A7191FBB1
:10206000F4F1C9B20139C9B21920FFF79EFF600827
:10207000FFF7CEFF10BD10B50446FFF77BFDD22061
:10208000FFF736FEFFF7BEFD2046FFF731FEFFF7F4
:10209000B9FDFFF76FFDD320FFF72AFEFFF7B2FD72
:1020A0000020FFF757FE0446FFF788FD204610BDCD
:1020B00008B5FFF715FD80216B20FFF776FF642040
:1020C000FFF704FC00216B20FFF76FFF0320FFF7F1
:1020D0008FFF0020FFF794FF3220FFF7B3FF0021AE
:1020E0003820FFF762FF00216A20FFF75EFFFF2123
:1020F0002320FFF75AFF80213720FFF756FF752076
:10210000FFF7B9FF692801D0012008BD01216B202C
:10211000FFF74BFF00216C20FFF747FF3220FFF74E
:1021200091FF0020F1E7022801D80120704708B58F
:1021300004F076FF09230360002008BD10B50138C4
:1021400001280AD814464FF0FF3392B207480068BE
:1021500003F04DFD40B9204610BD04F061FF092396
:1021600003604FF0FF30F7E70520F5E798110020F6
:10217000022801D80020704708B504F051FF092358
:1021800003604FF0FF3008BD08B504F049FF092394
:1021900003604FF0FF3008BD08B548B94FF0FF337A
:1021A00001220848006803F08EFD40B9012008BDF7
:1021B00004F036FF092303604FF0FF30F7E70520F6
:1021C000F5E700BF9811002008B5022804D84FF4A5
:1021D00000534B60002008BD04F022FF0923036078
:1021E000F8E7000000B583B0002200920D4B596C57
:1021F00041F480415964596C01F480410091009987
:102200000192196C41F0805119641B6C03F08053EA
:102210000193019B0F216FF0010002F005F903B05B
:102220005DF804FB0038024030B589B00446002355
:102230000193214B1A6C42F010021A641B6C03F0DC
:1022400010030193019B02A903A802F0CDFD069B98
:10225000CBB902F0A9FD03461848A0FB03239B0C51
:10226000013B1748174A026040F2E732C260436000
:10227000002303618360836102F0D2FF054630B121
:10228000284609B030BD02F08FFD4300E4E70C485A
:1022900002F05EFE05460028F2D1362002F0FCF87E
:1022A0000F2C01D90125EBE700222146362002F050
:1022B000BBF8054B1C60E3E70038024083DE1B439C
:1022C0009C110020001000404C000020FEE7FEE7BB
:1022D000FEE7FEE7FEE7704708B5024802F07FFE22
:1022E00008BD00BF3412002010B5054C212205495D
:1022F000204603F040FF204603F0E0FD10BD00BF84
:10230000C41200208C0A002008B5024803F0D6FD54
:1023100008BD00BF0813002008B5024802F05FFEA8
:1023200008BD00BF7C12002008B5024802F057FE2D
:1023300008BD00BF9C11002002681C4B9A4200D0CF
:10234000704710B51A4C212221461A4803F013FF9A
:102350002378FE2B0CD0184B00221A70164B1B78DA
:10236000212B0AD021221249124803F004FF10BD8C
:10237000114A137801331370F0E70D4B1B68B3F16A
:10238000FE3F03D00C4B00221A70EBE7084B93F88A
:102390002030EE2BF6D1064BDA6800EE902A5B680F
:1023A00000EE103AFFF75AF9ECE700BF00100140C9
:1023B0008C0A0020C4120020E41100200120704784
:1023C00008B504F02DFE162303604FF0FF3008BD62
:1023D00008B54FF0FF31FFF7F3FFFEE710B50346F6
:1023E0000C4A0D490D48006840B10C480068034490
:1023F000521A934206D8094A136010BD0748084C88
:102400000460F2E704F00CFE0C2303604FF0FF3091
:10241000F3E700BF0000022000040000E8110020E4
:1024200020510020034AD2F8883043F47003C2F8E8
:102430008830704700ED00E000B587B000230293BC
:10244000039304930593009301931048104A02608C
:102450005322426083604FF6FF72C2600361836162
:1024600002A903F000F958B9502300930023019307
:102470006946064803F01AFA28B907B05DF804FB6C
:10248000FFF7AAFCF0E7FFF7A7FCF6E734120020FD
:102490000008004000B587B0002302930393049323
:1024A0000593009301931048104A02605322426042
:1024B00083604FF6FF72C2600361836102A903F07B
:1024C000D2F858B950230093002301936946064877
:1024D00003F0ECF928B907B05DF804FBFFF77CFCCA
:1024E000F0E7FFF779FCF6E77C120020000C0040D3
:1024F0000268094B9A4200D0704782B000230193D2
:10250000064B1A6C42F002021A641B6C03F00203C1
:102510000193019B02B07047000400400038024064
:1025200030B58BB000230593069307930893099366
:102530000368374A934204D0364A93422AD00BB0FC
:1025400030BD00240094344B1A6C42F004021A642B
:102550001A6C02F004020092009A01941A6B42F085
:1025600008021A631B6B03F008030193019B4FF4ED
:10257000E043059302230693099305A9274801F038
:10258000F7FF224605211E2001F04EFF1E2001F01C
:1025900083FFD4E7002402941F4B1A6C42F0080218
:1025A0001A641A6C02F008020292029A03941A6BDF
:1025B00042F001021A631A6B02F001020392039ABD
:1025C00004941A6B42F080021A631B6B03F08003C1
:1025D0000493049B0323059302250695099505A9F9
:1025E0000F4801F0C5FF4FF48053059306950794FB
:1025F0000894099505A90B4801F0BAFF2246052168
:10260000322001F011FF322001F046FF97E700BFB2
:1026100000080040000C004000380240000C02405E
:1026200000000240001C024000B587B00023019367
:10263000029303930493059302680E4B9A4202D0CF
:1026400007B05DF804FB002300930B4B1A6B42F0BC
:1026500004021A631B6B03F004030093009B4FF406
:102660007073019302230293059301A9034801F0BB
:102670007FFFE5E700040040003802400008024008
:1026800000B58BB000230893099301930293039341
:1026900004930593069307932548264A02604360F6
:1026A00083604FF6FF72C2600361836102F0E4FD54
:1026B00058BB00230893099308A91D4803F0F6F8B6
:1026C00030BB60230193002202920392059201A97C
:1026D000174802F035FEF0B904220DEB0201144850
:1026E00002F02EFED0B9082201A9114802F028FEFE
:1026F000B8B90C2201A90E4802F022FEA0B90C487C
:10270000FFF792FF0BB05DF804FBFFF765FBD0E726
:10271000FFF762FBD5E7FFF75FFBDDE7FFF75CFB49
:10272000E1E7FFF759FBE4E7FFF756FBE7E700BFF8
:10273000EC1100200004004008B50A480A4B036071
:102740004FF4E133436000238360C36003610C22D4
:1027500042618361C36103F01BFA00B908BDFFF752
:102760003BFBFBE7C41200200010014008B50A48FB
:102770000A4B03604FF4E133436000238360C3607E
:1027800003610C2242618361C36103F001FA00B965
:1027900008BDFFF721FBFBE70813002000440040C1
:1027A00030B58BB0002305930693079308930993E4
:1027B0000368324A934204D0314A934233D00BB07B
:1027C00030BD0446002501952E4B5A6C42F0100294
:1027D0005A645A6C02F010020192019A02951A6B27
:1027E00042F001021A631B6B03F001030293029B88
:1027F0004FF4C06305930223069303230893072332
:10280000099305A9204801F0B3FE2A460521252099
:1028100001F00AFE252001F03FFE2268D36843F054
:102820002003D360CBE700240394164B1A6C42F4C8
:1028300000321A641A6C02F400320392039A049470
:102840001A6B42F001021A631B6B03F0010304933D
:10285000049B0C2305930223069303230893072369
:10286000099305A9084801F083FE22460521262088
:1028700001F0DAFD262001F00FFEA0E70010014074
:10288000004400400038024000000240DFF834D02D
:102890000D480E490E4A002302E0D458C4500433B8
:1028A000C4188C42F9D30B4A0B4C002301E013608F
:1028B0000432A242FBD3FFF7B5FD04F0B7FBFFF7EC
:1028C000E3FA70470000022000000020000A002008
:1028D000FCF00008000A002020510020FEE7000064
:1028E00000B583B0234B93F82430CBB1A0B10223C1
:1028F0008DF807301F4B586819680DF10703012246
:10290000C97B0078FFF7EAFA48BB9DF80720194B0E
:102910005A7403B05DF804FB00238DF80730E9E733
:10292000144B9B7AF3B110B1124B5B7CEBB990B1B5
:1029300001238DF807300F4B586819680DF1070314
:102940000122C97B0078FFF7C9FA80B99DF80720FA
:10295000084B5A74DDE700238DF80730EBE74FF0A2
:10296000FF30D6E74FF0FF30D3E70020D1E74FF03C
:10297000FF30CEE7140000207C4B9B7A002B00F048
:10298000D48000B583B000238DF80730774B5868AA
:1029900019680DF107030122C97B0078FFF79EFA41
:1029A000002840F0C580714B586819680DF1070385
:1029B000012249790078FFF791FA002840F0BB80A6
:1029C0006A4B586819680DF10703012209790078EC
:1029D000FFF784FA002840F0B180644B93F824306C
:1029E000002B52D00C238DF80730604B58681968C3
:1029F0000DF10703012209790078FFF76FFA00282B
:102A000040F09F803220FEF761FFC0238DF8073031
:102A1000564B9B7A13F0010F02D0E0238DF807305C
:102A2000524B586819680DF10703012209790078A3
:102A3000FFF754FA002840F087804C4B5B7C03B3CF
:102A400002238DF80730494B586819680DF10703C8
:102A50000122C97B0078FFF741FA002877D10023D3
:102A60008DF80730414B586819680DF107030122B2
:102A700049790078FFF732FA00286BD103B05DF88E
:102A800004FB00238DF80730DDE704238DF80730C1
:102A9000364B586819680DF107030122097900784F
:102AA000FFF71CFA002858D1304B9B7C23B92F4BE1
:102AB0009B7A13F0010F30D140238DF807302B4B58
:102AC000586819680DF10703012209790078FFF7AA
:102AD00005FA002844D13220FEF7F8FE234B5B7C38
:102AE000FBB101238DF80730204B586819680DF1B0
:102AF00007030122C97B0078FFF7F0F998BB1B4B55
:102B0000586853F8101B012249790078FFF7E6F95D
:102B10000028B3D04FF0FF30B0E760238DF80730C6
:102B2000CDE700238DF80730DEE74FF0FF30704728
:102B30004FF0FF30A2E74FF0FF309FE74FF0FF303C
:102B40009CE74FF0FF3099E74FF0FF3096E74FF0EA
:102B5000FF3093E74FF0FF3090E74FF0FF308DE705
:102B60004FF0FF308AE74FF0FF3087E71400002076
:102B7000244B9B7A002B3CD000B583B0B0F57A7F14
:102B800033D00BD8FA2813D0B0F5FA7F03D108233D
:102B90008DF807300FE04FF0FF3023E0B0F5FA6F0B
:102BA00003D118238DF8073005E04FF0FF3019E00E
:102BB00000238DF80730134B1B7A9DF80720B3EBE9
:102BC000D20F19D00F4B586819680DF10703012275
:102BD00089790078FFF782F980B99DF80730DB0822
:102BE000084A137203B05DF804FB10238DF8073018
:102BF000E1E74FF0FF3070470020F3E74FF0FF3080
:102C0000F0E700BF140000200F4B5B7A032B16D8AF
:102C1000DFE803F0020C0F12022303700A4BDB7C87
:102C200083B103785B0003700020704704230370B6
:102C3000F4E708230370F1E710230370EEE74FF089
:102C4000FF3070470020704714000020234B9B7A10
:102C5000002B35D000B583B002380E2833D8DFE81A
:102C600000F00832233232322732323232323232FC
:102C70002B0000238DF80730184B5B7A9DF8072056
:102C8000B3EBD20F24D0154B586819680DF1070328
:102C90000122C9790078FFF721F9D8B99DF80730EA
:102CA000DB080E4A537210E008238DF80730E3E783
:102CB00010238DF80730DFE718238DF80730DBE7A6
:102CC0004FF0FF3070474FF0FF3003B05DF804FB6A
:102CD0000020FAE74FF0FF30F7E700BF14000020B4
:102CE000234B9B7A002B3AD000B583B0BB281AD96E
:102CF00001238DF807301E4BDA7A9DF807309A428F
:102D000030D01B4B586819680DF1070301228978F0
:102D10000078FFF7E3F838BB9DF80720144BDA7210
:102D200003B05DF804FB612803D902238DF8073056
:102D3000E1E7292803D903238DF80730DBE71328BF
:102D400003D904238DF80730D5E7092803D90523D3
:102D50008DF80730CFE706238DF80730CBE74FF02B
:102D6000FF3070470020DBE74FF0FF30D8E700BFAF
:102D70001400002070B5174B93F824302BBB00F0E3
:102D8000FE04144B9B7A13B3124A167C234013742F
:102D9000A3420BD04FF0FF3514B90E4B1B7D3BB156
:102DA0000120FFF79DFD3CB9284670BD0025F3E7E3
:102DB0000020FFF795FDF6E7FFF7DEFD0028F3D0D2
:102DC000044B1E744FF0FF35EEE70025ECE74FF0A3
:102DD000FF35E9E7140000202E4B93F82430002B38
:102DE00049D0F0B583B005460F461646294B9B7A6D
:102DF000002B43D0274B5868196801AB0222897A0F
:102E00000078FFF79CF800283BD19DF804009DF85E
:102E1000054044EA0024AC4223D31E4B5868438843
:102E2000B4EB530F0DD91B4B196801AB0122497C40
:102E30000078FFF784F838BB9DF8043013F0100FCA
:102E400014D1144B586819683B46EAB2C97A007825
:102E5000FFF775F8D8B9B4FBF5F4013C347003B052
:102E6000F0BD002333704FF0FF30F8E7FFF784FD2B
:102E70006FF00100F3E74FF0FF3070474FF0FF3085
:102E8000EDE74FF0FF30EAE74FF0FF30E7E74FF0B4
:102E9000FF30E4E714000020584B9B7C834200F095
:102EA0009C8010B582B00446002844D0534B58682B
:102EB00019680DF10703012209790078FFF73FF83F
:102EC000002840F08C809DF8073023F020038DF817
:102ED00007304A4B586819680DF107030122097938
:102EE0000078FEF7FBFF00287CD10320FEF7EEFC04
:102EF00002238DF80730414B93F8223013B182231F
:102F00008DF807303D4B93F823302BB19DF80730F7
:102F100043F030038DF80730384B586819680DF1CD
:102F200007030122097D0078FEF7D8FF002844D06E
:102F30004FF0FF3044E0314B586819680DF107033A
:102F4000012209790078FEF7FAFF00284DD12B4BBA
:102F50009B7A13F0010F35D09DF8073043F0200322
:102F60008DF80730254B586819680DF107030122C9
:102F700009790078FEF7B2FF002839D10320FEF767
:102F8000A5FC1E4B93F822301BB380238DF807302D
:102F90001A4B93F823302BB19DF8073043F03003E0
:102FA0008DF80730154B586819680DF10703012299
:102FB000097D0078FEF792FFE8B9104B9C74002061
:102FC00002B010BD9DF8073023F020038DF80730C4
:102FD000C8E700238DF80730DAE7002070474FF08C
:102FE000FF30EDE74FF0FF30EAE74FF0FF30E7E763
:102FF0004FF0FF30E4E74FF0FF30E1E7140000202E
:103000001B4B93F8233083422DD010B582B0044679
:1030100028B330238DF80730154B9B7C2BB19DF8DE
:10302000073043F002038DF80730114B93F822303C
:103030002BB19DF8073063F07F038DF807300C4B00
:10304000586819680DF107030122097D0078FEF721
:1030500045FF50B9064B83F8234002B010BD002352
:103060008DF80730D8E7002070474FF0FF30F4E7C5
:103070001400002028285FD810B582B00446B8B9E3
:103080000020FFF7BDFF00238DF8043007238DF8E3
:1030900005302E4B5868196801AB0222897C0078F4
:1030A000FEF71CFF00284AD1284B187502B010BD4E
:1030B0000120FFF7A5FF20238DF80430012C26D036
:1030C000052C2BD9142C30D802238DF805300A207A
:1030D000FFF706FE9DF805309B0143F007038DF8CE
:1030E00005301A4B5868196801AB0222897C0078B8
:1030F000FEF7F4FE30BB154B08229A7200241C73B5
:1031000001221A752046FFF735FE2046CEE7002340
:103110008DF805300520FFF7E3FDDBE701238DF88F
:1031200005300520FFF7DCFDD4E703238DF80530DB
:103130001420FFF7D5FDCDE74FF0FF3070474FF07B
:10314000FF30B3E74FF0FF30B0E700BF14000020BE
:10315000264B9B7A002B40D010B582B00446234BFF
:1031600093F82430002B3BD1204B1B7D33B1431E01
:103170009BB2272B0AD90020FFF77CFF032C0AD92A
:10318000B4F57A7F08D94FF47A7405E0C0B2FFF73E
:1031900071FF00201FE004244FF47A7090FBF4F4D8
:1031A000013C8DF80740114B586819680DF1070371
:1031B000012249780078FEF791FEA0B99DF807003A
:1031C000431C4FF47A7090FBF3F0084BD881400811
:1031D000FFF786FD002002B010BD4FF0FF307047B2
:1031E0004FF0FF30F7E74FF0FF30F4E71400002016
:1031F00010B582B0044610F0700F50D001238DF846
:103200000730334B586819680DF107030122897C98
:103210000078FEF763FE00284AD19DF8073003F0DE
:10322000BF032B4A137300238DF8073014F0400FAF
:1032300002D104238DF8073014F0200F05D19DF83A
:10324000073043F002038DF8073014F0100F05D15A
:103250009DF8073043F001038DF8073014F0080F94
:1032600005D19DF8073043F038038DF80730184B2F
:10327000586819680DF107030122C97C0078FEF730
:103280002DFED8B90CB1082C1ED1114B9C72002414
:103290001C753220FEF71AFB204602B010BD18B193
:1032A00000238DF80730ACE740238DF80730A8E7FE
:1032B000074B00229A724FF0FF30EEE7044B0022DA
:1032C0009A724FF0FF30E8E70020FFF799FEDCE745
:1032D0001400002010B582B080238DF80030674BB9
:1032E000586819686B460122897C0078FEF7F6FD64
:1032F000002840F0A4806420FEF7E8FA00238DF84F
:1033000000305E4B586819686B460122897C007852
:10331000FEF7E4FD002840F09580584B5868196886
:103320006B460622897D0078FEF709FE002840F0F2
:103330008C809DF80510890001F004019DF8033090
:103340005B0003F0020319439DF9013003F0010310
:10335000194352D0012946D0022948D1474B0022B7
:10336000DA74464BFF229A721A725A72DA724FF668
:10337000FF71D9811A749A7401221A7383F822207A
:10338000002283F823205A751A75C3F81620C3F853
:103390001A20C3F81E2083F8242083F82520DA841D
:1033A0004FF4FA60FFF7E4FB002854D10220FFF746
:1033B0004DFC002852D12A20FFF792FC002850D162
:1033C0003220FFF7C5FE00284ED1FFF7D3FC0028BE
:1033D0004DD1FFF761FD044600284BD1FFF708FFF0
:1033E000204602B010BD254B0122DA74B9E724480B
:1033F00003F0C4FE4FF0FF34F2E7204B5868196821
:103400006B460122C9780078FEF799FD00BB9DF854
:10341000003013F00F0305D0042B09D0174B002206
:10342000DA749EE7174803F00BFF4FF0FF34D7E73D
:10343000154803F005FF114B0122DA7491E74FF0B4
:10344000FF34CDE74FF0FF34CAE74FF0FF34C7E752
:103450004FF0FF34C4E74FF0FF34C1E74FF0FF34C3
:10346000BEE74FF0FF34BBE74FF0FF34B8E74FF053
:10347000FF34B5E74FF0FF34B2E700BF140000207F
:1034800058DF000880DF0008CCDF00083AB370B5D1
:1034900082B00C461646194B9B7A1BB3030A8DF873
:1034A0000430C0B28DF805000844144B5D686B8988
:1034B00098421ADC114B196801AB0222097E287868
:1034C000FEF70CFDA0B90D4B586819683346E2B2FF
:1034D000497D0078FEF702FD68B902B070BD4FF07B
:1034E000FF3070474FF0FF30F7E74FF0FF30F4E761
:1034F0004FF0FF30F1E74FF0FF30EEE7140000200F
:103500003AB370B582B00C461646194B9B7A1BB382
:10351000030A8DF80430C0B28DF805000844144B3E
:103520005D686B8998421ADC114B196801AB022265
:10353000097E2878FEF7D2FCA0B90D4B58681968AF
:103540003346E2B2497D0078FEF7F9FC68B902B073
:1035500070BD4FF0FF3070474FF0FF30F7E74FF08E
:10356000FF30F4E74FF0FF30F1E74FF0FF30EEE7C8
:10357000140000202DE9F04F87B09A46294B93F8AC
:103580002530002B3CD107468846914600293AD089
:103590000024BC421BD23E1B102EA8BF1026B5B281
:1035A00008EB040B5A4629462046FFF76FFF68BB1D
:1035B00002AA29462046FFF7A3FF50BB2A4602A9CC
:1035C000584603F057FD38BB2C44A4B2E1E74FEA5C
:1035D00019238DF804308DF80590124B586819683E
:1035E00001AB0222897E0078FEF778FCB8B90D4B5A
:1035F000012283F82520A3F826A007B0BDE8F08FAC
:103600004FF0FF30F9E74FF0FF30F6E74FF0FF30B3
:10361000F3E74FF0FF30F0E76FF00100EDE74FF018
:10362000FF30EAE714000020234B93F82430834254
:103630003CD030B583B018B31F4B93F82530002B26
:1036400036D00020FFF74CF90020FFF725FC1A4D7B
:10365000E88CFFF77DFD00248DF8074068680DF1C8
:103660000703012223210078FEF738FC012085F8AA
:103670002400FFF735F9FFF77FF9204603B030BD8E
:103680000020FFF72DF90C4D2B7C8DF80730686872
:103690000DF10703012223210078FEF71FFC00240F
:1036A00085F82440FFF768F92046E7E700207047D7
:1036B0004FF0FF30E2E700BF140000207047000029
:1036C00038B50446C578437813F0010F09D005F0EA
:1036D0003F00C00805F007010131074B1B6803B12B
:1036E0009847637813F0080F04D0034B5B680BB165
:1036F000A8099847002038BD4C13002008B5C823FE
:103700004FF48062024940F6F630FFF733FF08BD00
:1037100074E0000810B586B004464C4B1B68ADF849
:103720000C301B0C8DF80E30494B1B68ADF808307F
:103730001B0C8DF80A30474B1B68ADF804301B0C8E
:103740008DF80630444B1B68ADF800301B0C8DF82B
:10375000023000F0030101F118030DEB030111F831
:103760000C3C8DF81430C0F3C10202F118030DEBCC
:10377000030212F80C3C8DF81530C0F38113183396
:103780006B4413F80C0C8DF8160011F8101C8DF812
:10379000101012F8102C8DF8112013F8103C8DF831
:1037A000123005AA032140F22640FFF76FFE0028E1
:1037B00040D104AA032140F22A40FFF767FE002807
:1037C0003BD1019BADF814301B0C8DF81630009BDB
:1037D000ADF810301B0C8DF8123014F0040F05D02A
:1037E00037238DF8143027238DF8103014F0200F74
:1037F00005D057238DF8153047238DF8113014F478
:10380000807F05D077238DF8163067238DF812302E
:1038100005AA03214FF48860FFF738FE80B904AA97
:10382000032140F23140FFF731FE60B90B4B1C81A0
:1038300006B010BD4FF0FF30FAE74FF0FF30F7E76A
:103840004FF0FF30F4E74FF0FF30F1E73CE00008C5
:1038500040E0000844E0000848E000084C13002065
:1038600010B586B00446164B93E8070006AB03E993
:103870000700C82C1AD8C82393FBF4F3013B1A0E97
:103880008DF804208DF8053001AA022140F216209F
:10389000FFF7FCFD68B903AA0C2140F6C120FFF731
:1038A000F5FD48B9074B9C8106B010BD4FF0FF30C5
:1038B000FAE74FF0FF30F7E74FF0FF30F4E700BFD3
:1038C0004CE000084C13002010F0070F00F0BE8001
:1038D00010B52DED028B82B00446B1F5C86F00F231
:1038E000B88007EE901AF8EE677A9FED637A87EE5C
:1038F000878A0DF10300FFF787F99DF80330023B3B
:103900000E2B00F2A980DFE803F008A72FA7A7A7D6
:1039100042A7A7A7A7A7A7A75500DFED587A68EE8B
:10392000277AFCEEE77A17EE903A9BB2DFED547AF5
:1039300028EE278ABCEEC88A18EE102A92B2190A1D
:103940008DF804108DF80530130A8DF806308DF8C7
:10395000072014F0010F40D114F0020F51D114F0E0
:10396000040F61D1002079E0DFED467A68EE277A16
:10397000FCEEE77A17EE903A9BB2DFED437A28EE41
:10398000278ABCEEC88A18EE102A92B2D7E7DFED7C
:103990003F7A68EE277AFCEEE77A17EE903A9BB210
:1039A000DFED3B7A28EE278ABCEEC88A18EE102A93
:1039B00092B2C4E7DFED377A68EE277AFCEEE77A59
:1039C00017EE903A9BB2DFED347A28EE278ABCEEF0
:1039D000C88A18EE102A92B2B1E701AA02214FF468
:1039E000EA70FFF753FD00283CD10DF106020221D9
:1039F0004FF49270FFF74AFD0028ADD04FF0FF3032
:103A00002CE001AA02214FF4EC70FFF73FFD60BBF0
:103A10000DF1060202214FF49470FFF737FD0028E4
:103A20009DD04FF0FF3019E001AA02214FF4EE7053
:103A3000FFF72CFDE0B90DF1060202214FF496705C
:103A4000FFF724FD50B14FF0FF3007E04FF0FF309B
:103A500070474FF0FF3001E04FF0FF3002B0BDEC97
:103A6000028B10BD4FF0FF30F8E74FF0FF30F5E765
:103A70004FF0FF30F2E700BF0000484300008046EF
:103A800000004046000000460000C04500008045A0
:103A900000004045000000450000C04400B583B070
:103AA00000238DF8073010F0010F02D030238DF87D
:103AB000073010F0020F05D09DF8073043F00C03DB
:103AC0008DF8073010F0040F05D09DF8073043F053
:103AD00003038DF807300DF1070201214FF4A470A4
:103AE000FFF7D4FC03B05DF804FB00B583B020B150
:103AF0000346042802D9042300E00123013B8DF88A
:103B000007300DF10702012140F24F10FFF7BEFC14
:103B100003B05DF804FB000000B583B0094BA3FBC4
:103B20000030830A8DF80430C0F387008DF805005B
:103B300001AA02214FF4EF70FFF7A8FC03B05DF873
:103B400004FB00BFCDCCCCCC00B583B0094BA3FBAC
:103B50000030830A8DF80430C0F387008DF805002B
:103B600001AA02214FF4ED70FFF790FC03B05DF85D
:103B700004FB00BFCDCCCCCC00B583B00E4B83FB97
:103B80000023C017C0EBA31000FB01F10B0E8DF852
:103B90000430C1F307438DF80530C1F307238DF8D6
:103BA00006308DF8071001AA04214FF4AE70FFF71C
:103BB0006DFC03B05DF804FBD34D621000B583B01B
:103BC000084BA3FB00308308800A8DF804008DF8B1
:103BD000053001AA02214FF4AD70FFF757FC03B086
:103BE0005DF804FBCDCCCCCC00B583B0084BA3FB77
:103BF00000308308800A8DF804008DF8053001AA92
:103C000002214FF4AC70FFF741FC03B05DF804FBF8
:103C1000CDCCCCCC00B585B068B10D4A01AB07CA9C
:103C200003C31A7001AA09214FF49760FFF72EFC15
:103C300005B05DF804FB074A01AB07CA03C31A705D
:103C400001AA09214FF49760FFF720FCF0E700BFBD
:103C50005CE0000868E0000800B583B0B0B1C023A4
:103C60008DF80430C2238DF80530C4238DF806305A
:103C7000C6238DF8073001AA042140F69820FFF7EB
:103C800005FCFEF779FE03B05DF804FB4FF08B33C3
:103C90000193F0E700B583B0B0B120238DF8043074
:103CA00028238DF8053030238DF8063038238DF821
:103CB000073001AA042140F69E20FFF7E7FBFEF73C
:103CC0005BFE03B05DF804FB4FF0A3330193F0E714
:103CD0002DE9F04184B0044602238DF80430CA2354
:103CE0008DF80530E3238DF8063009238DF8073071
:103CF00001AA04216820FFF7C9FBA3238DF8043033
:103D000014F0400800F0B080C0238DF80530C823BF
:103D10008DF80630C2238DF8073014F4C07500F01A
:103D2000AB80C4238DF80830CC238DF80930C6232E
:103D30008DF80A30A3238DF80B308DF80C308DF8F8
:103D40000D3001AA0A2140F6A720FFF79FFB14F0CF
:103D5000030700F0998020238DF8043001AA012187
:103D600040F6B620FFF792FB14F0200F00F0908091
:103D70000120FFF74FFFADB114F4807F00F08C807D
:103D8000B2238DF804308B238DF80530B6238DF8DF
:103D900006309B238DF8073001AA042140F6A220AB
:103DA000FFF774FB14F0010F00F08380F8238DF807
:103DB000043001AA01214FF40B60FFF767FBFA21E1
:103DC0000720FFF781FD0720FFF768FE0120FFF7BE
:103DD0008CFE6420FFF7A0FE4FF4FA70FFF7B4FEEC
:103DE000C8213F48FFF7C8FE2820FFF7E7FE0A205A
:103DF000FFF7FAFE14F0020F65D0D9238DF80430D6
:103E000001AA012140F23D70FFF740FB14F0040FBE
:103E10005DD00120FFF720FF14F0100F5BD00120D0
:103E2000FFF738FF2F4E44F008037381FEF7A4FD1F
:103E30000023B373B8F1000F01D00622B2731DB195
:103E4000284A937B0633937314F0140F03D0254A4A
:103E5000937B103393731FB1224A937B0433937384
:103E6000002004B0BDE8F081A3238DF805308DF863
:103E700006308DF8073050E7A3238DF808308DF811
:103E800009308DF80A3055E7D8238DF8043065E7FE
:103E90000020FFF7BFFE6EE7B0238DF804308023CB
:103EA0008DF80530B4238DF8063090238DF8073057
:103EB00072E7D8238DF8043001AA01214FF40B607A
:103EC000FFF7E4FA96E7D8238DF8043098E700204E
:103ED000FFF7C2FEA0E70020FFF7DCFEA2E700BF6D
:103EE00009E3CA024C1300202DE9F0478CB00646C6
:103EF0000F4692469846149D00232B80159A04A9DC
:103F0000754B987BFEF768FF002840F0E180814602
:103F1000714B5B8913F0140F64D09DF810209DF84D
:103F20001100000440EA02609DF8122040EA0220DD
:103F30009DF813201043CAF800009DF814109DF856
:103F40001520120442EA01629DF8161042EA01228D
:103F50009DF817100A43CAF804209DF818409DF8F0
:103F60001910090441EA04619DF81A4041EA04214C
:103F70009DF81B402143CAF808109DF81CC09DF80D
:103F80001D40240444EA0C649DF81EC044EA0C243D
:103F90009DF81FC044EA0C04CAF80C4000140090BD
:103FA0004FEA224CCDF804C0091402912214039266
:103FB0000CFB0CFC00FB00C001FB010102FB021228
:103FC00002F17142B2F1007F05D82A8842F4807272
:103FD0002A80102207E0FEF7CFFC00232B804FF051
:103FE000FF396CE0002213F0400F2FD002F13001B6
:103FF000694411F8204C02F131010DEB010010F879
:10400000201C41EA0421398002F13201694411F88F
:10401000204C02F133010DEB010010F8201C41EAA5
:104020000421798002F13401694411F8204C02F135
:1040300035010DEB010010F8201C41EA0421B98084
:104040000632D2B2298841F00801298013F4C07FDA
:104050002FD002F13001694411F8204C02F13101F6
:104060000DEB010010F8201C41EA0421318002F11F
:104070003201694411F8204C02F133010DEB0100CB
:1040800010F8201C41EA0421718002F134016944D6
:1040900011F8204C02F135010DEB010010F8201C45
:1040A00041EA0421B1800632D2B2298841F0700180
:1040B000298013F0030F06D14046FFF7FFFA484668
:1040C0000CB0BDE8F08704AB9818FFF7F9FAF3E7F6
:1040D0004FF0FF39F3E700BF4C13002090F9003098
:1040E000002B01DD002070470FDB90F90130002B21
:1040F00001DD012070470ADB90F90230002B08DC5B
:1041000001DB072070470620704704207047052018
:1041100070470220704738B50546FFF7DFFF0446B9
:10412000E81CFFF7DBFF44EAC00424B2A81DFFF738
:10413000D5FF44EA801080B238BD000008B5FDF715
:10414000CFFCFFF7C7F898BB7820FFF751F810F0C5
:10415000FF0F01D001202FE07820FEF70BFE10F0BA
:10416000FF0F2AD16420FEF7F3FF10F0FF0F26D1D6
:10417000FFF7C4FA10F0FF0F23D11748FFF7CBFF6A
:10418000FFF7C8FA10F0FF0F1DD140F27310FFF7D0
:104190009FFD10F0FF0F18D16420FFF761FB10F0B6
:1041A000FF0F14D10120FFF73FFA10F0FF0F10D1DD
:1041B0000A4803F045F8002008BD0220FCE7032070
:1041C000FAE70420F8E70520F6E70620F4E70720E1
:1041D000F2E70920F0E700BF400000206CEC000887
:1041E00030B52DED088B8FB00DF11F0301930DF14C
:1041F0002603009308AB03AA0AA90CA8FFF774FED4
:10420000002840F0BE80BDF8263013F4807F00F017
:10421000BA80DDED037AB8EEE78ADFED5F7A28EE4B
:10422000278A9DED047AB8EEC79A29EE279A9DED6C
:10423000057AF8EEC78A68EEA78A9DED067AF8EE51
:10424000C79A69EEA79AB8EE00AA29EE0AAA2AEE42
:10425000297A78EE08AA6AEEA87A77EE277A17EE1E
:10426000900AFCF731F941EC100B09F025F851ECFC
:10427000100B47A3D3E90023FCF77EF9FCF7AEFB54
:10428000464C206078EEA87A27EEA9BA6AEE89AA91
:104290003BEE2ABA2AEE09AA67EEA87A3AEE67AA96
:1042A000F7EE007A7AEE277A17EE900AFCF70CF90F
:1042B00041EC1A0B1BEE100AFCF706F9B0EE4A1A95
:1042C000F0EE6A1A41EC100B09F02AF851EC100BD1
:1042D0002FA3D3E90023FCF74FF9FCF77FFB304D08
:1042E000286069EE287A28EE297A77EE877A37EE09
:1042F000A7AA28EE088A29EE099A38EE098A68EEFC
:10430000A88A38EE688A69EEA99A78EE697A17EE7B
:10431000900AFCF7D9F841EC180B1AEE100AFCF7DA
:10432000D3F8B0EE481AF0EE681A41EC100B08F022
:10433000F7FF51EC100B16A3D3E90023FCF71CF98F
:10434000FCF74CFB174B1860BDF92820164B1A8060
:10435000BDF92A205A80BDF92C209A80BDF9302061
:10436000DA80BDF932201A81BDF934205A812A68D9
:10437000DA6022681A61586100200FB0BDEC088B2A
:1043800030BD0120F9E70220F7E700BFAFF300805E
:104390006666666666A64C40000080307813002092
:1043A000741300207C1300205C13002008B50B4B15
:1043B0001A6842F400721A601A6842F480621A6045
:1043C0001A6842F480721A60032000F01BF80F2074
:1043D000FDF72AFFFDF706FF002008BD003C024064
:1043E000034A1168034B1B780B441360704700BFEE
:1043F0008013002049000020014B1868704700BF5F
:1044000080130020074AD36823F4E0631B041B0CCD
:10441000000200F4E060034343F0BF6343F4003361
:10442000D360704700ED00E000B5194BDB68C3F3C3
:104430000223C3F1070CBCF1040F28BF4FF0040C9A
:1044400003F1040EBEF1060F18D9033B4FF0FF3EF7
:104450000EFA0CFC21EA0C0199400EFA03F322EA51
:104460000303194300280BDB0901C9B200F16040C6
:1044700000F5614080F800135DF804FB0023E5E7D8
:1044800000F00F000901C9B2024B1954F4E700BF54
:1044900000ED00E014ED00E0002807DB00F01F0253
:1044A000400901239340024A42F82030704700BF80
:1044B00000E100E070B50446866DFFF79DFF94F8BB
:1044C0003530DBB2022B06D080236365002384F8ED
:1044D0003430012070BD05462268136823F01603AE
:1044E00013602268536923F080035361236CE3B1A6
:1044F0002268136823F0080313602268136823F00E
:104500000103136023681B6813F0010F11D0FFF73C
:1045100073FF431B052BF5D920236365032084F823
:104520003500002384F83430D4E7A36C002BDFD1AE
:10453000E3E7E26D3F239340B360012384F8353015
:10454000002084F83400C5E790F83530DBB2022B48
:1045500003D08023436501207047052380F8353060
:104560000268136823F00103136000207047000005
:1045700000230F2B00F2E48070B582B060E0856804
:104580005E000324B44025EA0405CC68B4402C4303
:104590008460456825EA02054C68C4F300129A401D
:1045A0002A4342605AE0DC08083450F8246003F0E3
:1045B000070295000F22AA4026EA020E0A69AA40C5
:1045C00042EA0E0240F824205CE0072200E00022CC
:1045D00002FA0EF22A4302345A4D45F824205A4A70
:1045E00094686FEA0C0224EA0C054E6816F4801FEA
:1045F00001D04CEA0405544CA560E46802EA0405C5
:104600004E6816F4001F01D04CEA04054E4CE560DC
:10461000646802EA04054E6816F4003F01D04CEAD3
:104620000405494C6560246822404D6815F4803FBC
:1046300001D04CEA0402444C226001330F2B7DD898
:1046400001229A400C6804EA020C32EA0404F4D114
:104650004C6804F00304013C012C90D94A6802F034
:104660000302032A09D0C4685D000322AA4024EA99
:1046700002048A68AA402243C2604A6802F0030228
:10468000022A90D004684FEA430E032202FA0EF287
:1046900024EA02044A6802F0030202FA0EF22243FC
:1046A00002604A6812F4403FC7D000220192274AB4
:1046B000546C44F480445464526C02F4804201927D
:1046C000019A9C08A51C1F4A52F8255003F00302CA
:1046D0004FEA820E0F2202FA0EF225EA02051C4A68
:1046E00090423FF474AF02F5806290421AD002F516
:1046F0008062904218D002F58062904216D002F596
:104700008062904214D002F58062904212D002F58D
:104710008062904210D002F5806290423FF455AF23
:10472000082255E7012253E7022251E703224FE70F
:1047300004224DE705224BE7062249E702B070BD8F
:10474000704700BF00380140003C01400038024083
:10475000000002400369194201D001207047002087
:1047600070470AB181617047090481617047000098
:10477000002800F0E08170B582B00446036813F0B1
:10478000010F3BD09F4B9B6803F00C03042B2CD0F4
:104790009C4B9B6803F00C03082B21D06368B3F596
:1047A000803F4FD0B3F5A02F52D0964B1A6822F419
:1047B00080321A601A6822F480221A606368002B23
:1047C00050D0FFF719FE05468E4B1B6813F4003FCF
:1047D00014D1FFF711FE401B6428F5D90320B1E185
:1047E000884B5B6813F4800FD8D0864B1B6813F49A
:1047F000003F03D06368002B00F09F81236813F013
:10480000020F54D07F4B9B6813F00C0F3ED07D4BB2
:104810009B6803F00C03082B33D0E368002B68D0AF
:10482000794B01221A60FFF7E7FD0546754B1B68BF
:1048300013F0020F54D1FFF7DFFD401B0228F5D91A
:1048400003207FE16F4A136843F480331360B5E7B8
:104850006C4B1A6842F480221A601A6842F4803263
:104860001A60ABE7FFF7C8FD0546664B1B6813F4FB
:10487000003FC3D0FFF7C0FD401B6428F5D90320DB
:1048800060E1604B5B6813F4800FC6D15D4B1B6821
:1048900013F0020F03D0E368012B40F05081594A16
:1048A000136823F0F803216943EAC1031360236806
:1048B00013F0080F42D063696BB3534B0122C3F866
:1048C000802EFFF799FD05464E4B5B6F13F0020FEC
:1048D00034D1FFF791FD401B0228F5D9032031E1C7
:1048E000484A136823F0F803216943EAC1031360BF
:1048F000DDE7454B00221A60FFF77EFD0546414B80
:104900001B6813F0020FD2D0FFF776FD401B022880
:10491000F5D9032016E13C4B0022C3F8802EFFF7A7
:104920006BFD0546374B5B6F13F0020F06D0FFF7A8
:1049300063FD401B0228F5D9032003E1236813F02F
:10494000040F77D02F4B1B6C13F0805F33D1002303
:1049500001932C4B1A6C42F080521A641B6C03F0CA
:1049600080530193019B0125284B1B6813F4807F22
:1049700023D0A368012B34D0052B38D0214B1A6FDC
:1049800022F001021A671A6F22F004021A67A36864
:10499000002B3DD0FFF730FD06461A4B1B6F13F07E
:1049A000020F46D1FFF728FD801B41F28833984261
:1049B000F3D90320C6E00025D6E7144A136843F470
:1049C00080731360FFF718FD0646104B1B6813F445
:1049D000807FCED1FFF710FD801B0228F5D9032080
:1049E000B0E0084A136F43F001031367CFE7054BAC
:1049F0001A6F42F004021A671A6F42F001021A6736
:104A0000C5E700BF00380240000047420070004088
:104A1000FFF7F2FC0646524B1B6F13F0020F08D053
:104A2000FFF7EAFC801B41F288339842F3D9032058
:104A300088E0EDB9A369002B00F08380484A9268B2
:104A400002F00C02082A51D0022B17D0454B00224D
:104A50001A66FFF7D1FC0446414B1B6813F0007F38
:104A600042D0FFF7C9FC001B0228F5D9032069E0FA
:104A70003B4A136C23F080531364DBE7394B00226D
:104A80001A66FFF7B9FC0546354B1B6813F0007F2B
:104A900006D0FFF7B1FC401B0228F5D9032051E0F6
:104AA000E369226A1343626A43EA8213A26A5208E4
:104AB000013A43EA0243E26A43EA0263284A536046
:104AC000284B01221A66FFF797FC0446244B1B680B
:104AD00013F0007F06D1FFF78FFC001B0228F5D9E9
:104AE00003202FE000202DE000202BE0012B2BD015
:104AF0001B4B5B6803F48001E269914226D103F00D
:104B00003F02216A8A4223D1616A47F6C0721A4085
:104B1000B2EB811F1ED103F44031A26A5208013A60
:104B2000B1EB024F18D103F07063E26AB3EB026F8E
:104B300014D1002006E001207047012002E001208E
:104B400000E0002002B070BD0120FBE70120F9E782
:104B50000120F7E70120F5E70120F3E70120F1E765
:104B6000003802400000474208B5314B9B6803F013
:104B70000C03042B57D0082B57D12D4B5A6802F049
:104B80003F025B6813F4800F2AD0294B5968C1F3A8
:104B9000881C4FEA4C11B1EB0C006EEB0E0E4FEA85
:104BA0008E1343EA90638101091A63EB0E03DB0065
:104BB00043EA5173C90011EB0C0C43F10003590295
:104BC00000234FEA4C2041EADC51FBF757FF184B1A
:104BD0005B68C3F3014301335B00B0FBF3F025E0F6
:104BE000134B5968C1F3881C4FEA4C11B1EB0C0010
:104BF0006EEB0E0E4FEA8E1343EA90638101091AA1
:104C000063EB0E03DB0043EA5173C90011EB0C0C9C
:104C100043F10003990200234FEA8C2041EA9C51A2
:104C2000FBF72CFFD3E7034800E0034808BD00BFB3
:104C30000038024000127A000024F400002800F03E
:104C40009B8070B50D4604464F4B1B6803F007036D
:104C50008B4208D2CBB24C4A1370136803F007039F
:104C60008B4240F08B80236813F0020F17D013F0B3
:104C7000040F04D0454A936843F4E05393602368DB
:104C800013F0080F04D0414A936843F460439360E3
:104C90003E4A936823F0F003A1680B4393602368B6
:104CA00013F0010F32D06368012B21D09A1E012A24
:104CB00025D9364A126812F0020F61D033498A684A
:104CC00022F0030213438B60FFF796FB06462F4B3F
:104CD0009B6803F00C036268B3EB820F16D0FFF7FA
:104CE0008BFB801B41F288339842F0D9032042E0CD
:104CF000264A126812F4003FE0D101203BE0234A2B
:104D0000126812F0007FD9D1012034E01E4B1B68DD
:104D100003F00703AB4207D9EAB21B4B1A701B68BA
:104D200003F00703AB422DD1236813F0040F06D024
:104D3000164A936823F4E053E1680B4393602368B9
:104D400013F0080F07D0114A936823F460432169D8
:104D500043EAC1039360FFF707FF0C4B9B68C3F363
:104D600003130B4AD35CD8400A4B18600A4B1868EF
:104D7000FDF75AFA002070BD012070470120FAE7C4
:104D80000120F8E70120F6E7003C0240003802402D
:104D900040DF0008100000204C000020014B186884
:104DA000704700BF1000002008B5FFF7F7FF044B65
:104DB0009B68C3F38223034AD35CD84008BD00BF7D
:104DC0000038024050DF000808B5FFF7E7FF044B4A
:104DD0009B68C3F34233034AD35CD84008BD00BF8D
:104DE0000038024050DF00080F2303600B4B9A6825
:104DF00002F0030242609A6802F0F00282609A6850
:104E000002F4E052C2609B68DB0803F4E0530361E4
:104E1000034B1B6803F007030B6070470038024028
:104E2000003C024030B4036A23F001030362036ACA
:104E30004268846924F073040D682C4323F0020C4B
:104E40008B6843EA0C03104DA84203D005F580653A
:104E5000A84205D123F00803CD682B4323F00403B7
:104E6000094DA84203D005F58065A84205D122F47A
:104E700040724D692A438D692A43426084614A68C1
:104E80004263036230BC70470000014030B4036AE3
:104E900023F480730362036A4268C46924F0730CCC
:104EA0000C6844EA0C0523F400738C6843EA04237D
:104EB000114CA04203D004F58064A04206D123F433
:104EC0000063CC6843EA042323F480630A4CA042C5
:104ED00003D004F58064A04207D122F440524C690B
:104EE00042EA04128C6942EA04124260C5614A68CF
:104EF000C263036230BC70470000014030B4036AF3
:104F000023F480530362036A4468C26922F4E642D0
:104F10000D6842EA052223F400538D6843EA053305
:104F2000094DA84203D005F58065A84204D124F4B8
:104F300080444D6944EA85144460C2614A68026451
:104F4000036230BC704700BF0000014070470000A2
:104F500090F83D30DBB2012B37D1022380F83D3091
:104F60000268D36843F00103D3600368194A93428F
:104F700020D0B3F1804F1DD0A2F57C42934219D0CE
:104F800002F58062934215D002F58062934211D0FF
:104F900002F5784293420DD002F57052934209D047
:104FA000A2F59432934205D01A6842F001021A60C9
:104FB000002070479A6802F00702062A07D01A6894
:104FC00042F001021A600020704701207047002063
:104FD000704700BF0000014070477047704710B530
:104FE000044603681A6912F0020F11D0DA6812F051
:104FF000020F0DD06FF002021A61012303770368DC
:105000009B6913F0030F70D0FCF70EFA002323778F
:1050100023681A6912F0040F12D0DA6812F0040F34
:105020000ED06FF004021A610223237723689B6974
:1050300013F4407F5FD02046FCF7F6F90023237776
:1050400023681A6912F0080F12D0DA6812F0080FFC
:105050000ED06FF008021A61042323772368DB69FE
:1050600013F0030F4ED02046FCF7DEF90023237720
:1050700023681A6912F0100F12D0DA6812F0100FBC
:105080000ED06FF010021A61082323772368DB69C2
:1050900013F4407F3DD02046FCF7C6F90023237768
:1050A00023681A6912F0010F03D0DA6812F0010FB9
:1050B00036D123681A6912F0800F03D0DA6812F033
:1050C000800F34D123681A6912F0400F03D0DA68D8
:1050D00012F0400F32D123681A6912F0200F03D06A
:1050E000DA6812F0200F30D110BDFFF775FF2046AF
:1050F000FFF773FF8AE72046FFF76EFF2046FFF7B2
:105100006CFF9BE72046FFF767FF2046FFF765FF30
:10511000ACE72046FFF760FF2046FFF75EFFBDE7E4
:105120006FF001021A612046FCF74AFEC1E76FF0FA
:1051300080021A61204600F000FCC3E76FF04002D5
:105140001A612046FFF74AFFC5E76FF020021A6197
:10515000204600F0F1FBC7E70368304A904212D0C6
:10516000B0F1804F0FD0A2F57C4290420BD002F5F7
:105170008062904207D002F58062904203D002F52F
:105180007842904203D123F070034A681343234AC4
:1051900090422AD0B0F1804F27D0A2F57C429042B5
:1051A00023D002F5806290421FD002F580629042C7
:1051B0001BD002F57842904217D002F5705290420F
:1051C00013D002F5806290420FD002F580629042C7
:1051D0000BD0A2F59832904207D002F5806290423F
:1051E00003D002F58062904203D123F44073CA6871
:1051F000134323F080034A69134303608B68C3623F
:105200000B688362054B984203D003F58063984294
:1052100001D10B6903630123436170470000014022
:1052200040B310B5044690F83D30F3B1022384F842
:105230003D30214651F8040BFFF78EFF012384F81F
:10524000463084F83E3084F83F3084F8403084F8AB
:10525000413084F8423084F8433084F8443084F894
:10526000453084F83D30002010BD80F83C30FFF719
:105270006DFEDBE70120704740B310B5044690F89F
:105280003D30F3B1022384F83D30214651F8040B40
:10529000FFF762FF012384F8463084F83E3084F83B
:1052A0003F3084F8403084F8413084F8423084F84C
:1052B000433084F8443084F8453084F83D30002091
:1052C00010BD80F83C30FDF713F9DBE70120704793
:1052D00030B4036A23F010030362036A44688269EE
:1052E00022F4E6420D6842EA052223F020038D688D
:1052F00043EA0513114DA84203D005F58065A84285
:1053000006D123F08003CD6843EA051323F0400360
:105310000A4DA84203D005F58065A84207D124F4C0
:1053200040644D6944EA85048D6944EA850444601B
:1053300082614A688263036230BC704700000140AA
:1053400038B590F83C30012B66D004460D46012359
:1053500080F83C300C2A5AD8DFE802F00759595936
:105360001B5959593059595944000068FFF75AFDE3
:105370002268936943F0080393612268936923F0DC
:10538000040393612268936929690B4393610020A8
:105390003EE00068FFF79CFF2268936943F40063D6
:1053A00093612268936923F480639361226893690F
:1053B000296943EA01239361002029E00068FFF78F
:1053C00065FD2268D36943F00803D3612268D3697D
:1053D00023F00403D3612268D36929690B43D361A5
:1053E000002015E00068FFF789FD2268D36943F4C7
:1053F0000063D3612268D36923F48063D361226898
:10540000D369296943EA0123D361002000E0012028
:10541000002384F83C3038BD0220FCE770B4944689
:10542000046A24F0010404628469066A184DA842E3
:105430001CD0B0F1804F19D0164A904216D002F518
:105440008062904212D002F5806290420ED002F546
:10545000784290420AD002F57052904206D0A2F5EE
:105460009432904202D044F0010203E024F003029F
:1054700042EA0C0222F0F0021B01DBB2134326F0D9
:105480000A0201F00A0111438361016270BC704796
:10549000000001400004004001F01F01012303FA55
:1054A00001FC036A23EA0C030362036A02FA01F1B6
:1054B0000B4303627047000010B5044608460029FC
:1054C00042D194F83E30DBB2013B18BF0123002BE0
:1054D0006ED1002851D1022384F83E3001220146CA
:1054E0002068FFF7D9FF2368334A934203D002F5BF
:1054F0008062934203D15A6C42F400425A6423689A
:105500002D4A934249D0B3F1804F46D0A2F57C4258
:10551000934242D002F5806293423ED002F580620F
:1055200093423AD002F57842934236D002F5705257
:10553000934232D0A2F5943293422ED01A6842F0B0
:1055400001021A60002032E0042908D008290DD099
:1055500094F84130DBB2013B18BF0123B7E794F860
:105560003F30DBB2013B18BF0123B0E794F8403075
:10557000DBB2013B18BF0123A9E7042805D00828A6
:1055800007D0022384F84130A8E7022384F83F3093
:10559000A4E7022384F84030A0E79A6802F00702EB
:1055A000062A07D01A6842F001021A60002010BDD6
:1055B0000120FCE70020FAE70000014038B504466E
:1055C0000D4600220068FFF767FF23681D4A9342DB
:1055D00018D002F58062934214D02368196A41F210
:1055E0001112114208D1196A40F24442114203D10A
:1055F0001A6822F001021A609DB9012384F83E3036
:10560000002038BD196A41F211121142E5D1196A20
:1056100040F244421142E0D15A6C22F400425A64F2
:10562000DBE7042D05D0082D07D0012384F8413095
:10563000E6E7012384F83F30E2E7012384F84030B5
:10564000DEE700BF0000014001F01F01042303FA60
:1056500001FC036A23EA0C030362036A02FA01F104
:105660000B4303627047002865D070B588B00E46C2
:10567000044690F83D30002B58D0022384F83D308A
:10568000214651F8040BFFF767FDB3680322316828
:105690002068FFF7C3FE2268936923F00C0393612F
:1056A0002268936971680B4393612268536843F0E1
:1056B000800353602268936823F07003936022682C
:1056C000936843F0400393602268936823F00703D4
:1056D00093602268936843F0040393600025059566
:1056E000069570230193079504950395F36802933B
:1056F00001A92068FFF7ECFD2268536823F07003CE
:1057000053602268536843F050035360012384F8C8
:10571000463084F83E3084F83F3084F8423084F8D4
:10572000433084F83D30284608B070BD80F83C30E6
:10573000FCF7F6FEA1E701207047000010B5044613
:10574000084600293BD194F84230DBB2013B18BF38
:105750000123002B67D100284AD1022384F842306C
:10576000042201462068FFF76FFF2268536C43F460
:105770000043536423682E4A934249D0B3F1804FCB
:1057800046D0A2F57C42934242D002F58062934219
:105790003ED002F5806293423AD002F578429342BD
:1057A00036D002F57052934232D0A2F59432934231
:1057B0002ED01A6842F001021A60002032E004295B
:1057C00008D008290DD094F84530DBB2013B18BF52
:1057D0000123BEE794F84330DBB2013B18BF01233D
:1057E000B7E794F84430DBB2013B18BF0123B0E7C0
:1057F000042805D0082807D0022384F84530AFE7F5
:10580000022384F84330ABE7022384F84430A7E74F
:105810009A6802F00702062A07D01A6842F00102CD
:105820001A60002010BD0120FCE70020FAE700BF4D
:105830000000014038B504460D4600220068FFF71D
:1058400003FF2368196A41F21112114208D1196A43
:1058500040F24442114203D15A6C22F400425A648D
:105860002368196A41F21112114208D1196A40F2F3
:105870004442114203D11A6822F001021A6025B98C
:10588000012384F84230002038BD042D05D0082DB6
:1058900007D0012384F84530F5E7012384F843302D
:1058A000F1E7012384F84430EDE7000090F83C3044
:1058B000012B3DD010B4012380F83C30022380F846
:1058C0003D3003685A689C6822F0700C0A6842EA0E
:1058D0000C025A600368174A93421AD0B3F1804F02
:1058E00017D0A2F57C42934213D002F58062934216
:1058F0000FD002F5806293420BD002F578429342BA
:1059000007D002F57052934203D0A2F5943293422D
:1059100004D124F080044A6814439C60012380F879
:105920003D30002380F83C3018465DF8044B70474A
:10593000022070470000014070477047026802F182
:105940000C0353E8003F23F490730C3242E800311B
:105950000029F3D1026802F1140353E8003F23F059
:105960000103143242E800310029F3D1036B012B0B
:1059700005D0202380F83E3000230363704702687F
:1059800002F10C0353E8003F23F010030C3242E80D
:1059900000310029F3D1ECE790F83D30DBB2212B48
:1059A00001D0022070478368B3F5805F17D0036A87
:1059B0005A1C02621A7803685A60C38C9BB2013B7E
:1059C0009BB2C3844BB90268D36823F08003D360D1
:1059D0000268D36843F04003D36000207047036936
:1059E000002BE4D1036A1B880268C3F308035360E9
:1059F000036A02330362E0E738B5044602681369BC
:105A000023F44053C1680B43136183680269134355
:105A100042691343C2691A430168CB6823F41643F1
:105A200023F00C031343CB600268536923F44073E3
:105A300081690B4353610368314A934206D002F5F2
:105A40008062934202D0FFF7AFF901E0FFF7BCF9A3
:105A5000E369B3F5004F29D00021031849411B1811
:105A600041F10001C90041EA5371DB001818636875
:105A70004FEA83024FEA937341F10001FAF7FEFF08
:105A8000204DA5FB00325109642303FB11031B01C8
:105A90003233A5FB03235B0903F0F00202EB011292
:105AA00003F00F03216813448B6038BD00230218F4
:105AB00043EB0301121841F10001C90041EA5271A0
:105AC000D200101841F10001626892185B41FAF7A8
:105AD000D5FF0C4DA5FB00325109642303FB1103D4
:105AE000DB003233A5FB03235B095A0002F4F87292
:105AF00002EB011203F00703216813448B60D4E723
:105B0000001001401F85EB512DE9F84305460F4673
